:1000000000800020BD010000F9F30000C5F30000EE
:10001000C5F30000C5F30000C5F30000C5F3000000
:10002000C5F30000C5F30000C5F30000F9F30000BC
:10003000F9F30000C5F3000029D2000019D2000036
:10004000F9F30000F9F30000F9F30000F9F3000000
:10005000F9F30000F9F30000F9F30000F9F30000F0
:10006000F9F30000F9F30000F9F30000F9F30000E0
:10007000F9F30000F9F30000F9F30000F9F30000D0
:10008000F9F30000F9F30000F9F30000F9F30000C0
:10009000F9F30000F9F30000F9F30000F9F30000B0
:1000A000F9F30000F9F30000F9F30000F9F30000A0
:1000B000F9F30000F9F30000F9F30000F9F3000090
:1000C000F9F30000F9F30000F9F30000F9F3000080
:1000D000F9F30000F9F30000F9F30000F9F3000070
:1000E000F9F30000F9F30000F9F30000F9F3000060
:1000F000F9F30000C19E0000F9F30000F99D000033
:10010000F9F300006F9D0000F9F30000F9F300001F
:10011000F9F30000F9F30000F9F30000F9F300002F
:10012000F9F30000F9F30000F9F30000F9F300001F
:10013000F9F30000F9F3000011C20000F9F3000028
:10014000F9F30000F9F30000F9F30000F9F30000FF
:1001500005D20000F1D10000DDD10000C7D10000C0
:10016000F9F3000011A10000F9F30000F9F3000019
:10017000F9F30000F9F30000F9F30000F9F30000CF
:10018000F9F30000F9F30000F9F30000F9F30000BF
:10019000F9F30000F9F30000F9F30000F9F30000AF
:1001A000F9F30000F9F30000F9F30000F9F300009F
:1001B000F9F30000F9F3000059D2000008B55B4BD9
:1001C0004CF220521A804DF628121A8000BF00BF50
:1001D000102223F80E2CA3F51F43DE3B4FF01062D4
:1001E0001A60534A9A60534ADA60534A136813F408
:1001F000807301BF51490B604FF4A8531360504BFB
:1002000050491A78100742BF1A7842F008021A7053
:100210004D4B2A221A704D4A4D4B8B4204D252F854
:10022000040F43F8040BF8E74A4B4B4A0021934272
:1002300002D243F8041BFAE7484A4948002350F821
:10024000231042F8231001336F2BF8D1454B464A57
:10025000802103F8011B9342FBD1444B3F4A1A60B3
:10026000434B8A221A70A3F5805324225A70A0228D
:100270001A709A799107FCD59A79D206FCD43D4A36
:10028000937903F00C03082B3A4BF9D103221A712E
:1002900040225A719A799406FCD536498A79354BB1
:1002A0005006FBD5344A35491160022151602022A5
:1002B0001A709A7902F00C020C2AFAD1304B314AAA
:1002C0001A60314B314A1A60002407225C6043F8FF
:1002D000042C2F4AC3F80C2D62B60FF0DBF8174B35
:1002E0001A68D1070AD52B4A2B491C60146042F8C2
:1002F000041C10221A60294A29491160294A1278DF
:1003000052060ED52549264A0868904209D121484F
:10031000214C00221A60026040F8044C1020186042
:100320000A6013F0E9FE0FF009FA00BF0E20054045
:10033000823F04000100002B10D0034014D0034082
:1003400002D007400498FF1F00E0074034CD0100B1
:100350001C93FF1F0498FF1F1CDBFF1F008EFF1F55
:100360000000000000E400E05FE400E008ED00E0D1
:100370000050064000400640448004400000030155
:1003800004800440C010050014E000E0FF76010086
:100390000000202004D00340956C3A621CE003402A
:1003A000A5C3945A00F00740FFFFFFFFFFFFFFFFC8
:1003B000FFFFFFFFFFFFFFFFFFFFFFFFFFFFFFFF4D
:1003C000FFFFFFFFFFFFFFFFFFFFFFFFFFFFFFFF3D
:1003D000FFFFFFFFFFFFFFFFFFFFFFFFFFFFFFFF2D
:1003E000FFFFFFFFFFFFFFFFFFFFFFFFFFFFFFFF1D
:1003F000FFFFFFFFFFFFFFFFFFFFFFFFFFFFFFFF0D
:10040000FFFFFFFFFFFFFFFFFFFFFFFFDEF9FFFF23
:1004100010B5054C237833B9044B13B10448AFF33E
:1004200000800123237010BD0498FF1F000000000E
:1004300038CD0100084B10B51BB108490848AFF38F
:1004400000800848036803B910BD074B002BFBD0A0
:10045000BDE81040184700BF000000000898FF1FCB
:1004600038CD01000498FF1F000000002DE9F04F77
:100470000B68ADF60C5D0D46049043B1013B0021C5
:1004800013F8012F1AB10A2AFAD11970F8E72B686C
:1004900043B1013B002113F8012F1AB10D2AFAD103
:1004A0001970F8E729460EA80DF041F90DF6081469
:1004B000B04912A80DF046F9AF4920460DF042F9B7
:1004C0002146284613F045FA064620460CF0A0FFC8
:1004D000002E3EDDA8490DF5A1600DF033F90DF5B4
:1004E000A161284613F035FAAB68421C2946204624
:1004F0000DF0D1F8214612A80DF018F820460CF0A6
:1005000087FF0DF5A1600CF083FF9B4920460DF09D
:1005100019F92146284613F01CFA109A904212D27B
:10052000A96881B143189A4238BF111A0E9B521A1A
:10053000014419441092121A184415F049FF0E9AFA
:10054000109B0021D15420460CF062FF0EA80CF045
:100550007CFF8A490EA80CF0C1FF20B988490EA87B
:100560000CF0BCFFE8B18749874807F0A6F804996A
:10057000204610310DF0DBF8214683480DF051F98B
:100580008249814807F099F820460CF041FF12A8F3
:100590000CF03EFF0EA80CF03BFF0DF60C5DBDE825
:1005A000F08F7B490EA80CF099FF28B979490EA865
:1005B0000CF094FF002865D07749734807F07DF868
:1005C0007649714807F079F875496F4807F075F872
:1005D00074496D4807F071F873496B4807F06DF87E
:1005E0007249694807F069F87149674807F065F88A
:1005F0007049654807F061F86F49634807F05DF896
:100600006E49614807F059F86D495F4807F055F8A1
:100610006C495D4807F051F86B495B4807F04DF8AD
:100620006A49594807F049F86949574807F045F8B9
:100630006849554807F041F86749534807F03DF8C5
:100640006649514807F039F865494F4807F035F8D1
:1006500059494D4807F031F862494B4807F02DF8E9
:100660006149494807F029F86049474807F025F8EB
:100670005F49454807F021F85E49434807F01DF8F7
:100680005D490AE05D490EA80CF028FF20B95C49DD
:100690000EA80CF023FF20B15A493B4807F00DF893
:1006A00075E759490EA80CF019FF08B1574905E044
:1006B00057490EA80CF012FF00B3564920460DF022
:1006C00041F8FA23012221460DF5A1600FF028FE22
:1006D00020460CF09DFE0DF5A16120460DF027F897
:1006E000214629480DF09DF82849274806F0E5FFE6
:1006F00020460CF08DFE0DF5A16046E746490EA898
:100700000CF0ECFE08B14549D8E745490EA80CF0BD
:10071000E5FE002800F0FA80174920460DF012F897
:10072000214612A813F015F90022034612A942A887
:100730000CF0B1FF20460CF06BFE0F4920460DF087
:1007400001F8214612A813F004F912A9421C149BC7
:10075000C2A80CF0A0FF20460CF05AFE054942A8A2
:100760000CF0BCFE00285FD02E49074806F0A5FF1C
:10077000C7E000BF8A9901000A7B01001B750100D8
:1007800023750100057E0100E894FF1F4E910100D2
:100790000F7E010027750100147E0100667E0100B6
:1007A000B87E01000A7F01005C7F0100AE7F01007E
:1007B0000080010052800100A4800100F680010049
:1007C000488101009A810100EC8101003E82010014
:1007D00090820100E28201003483010086830100DF
:1007E000D88301002A8401007C840100CE840100AA
:1007F0002085010072850100C48501001686010074
:10080000297501001C860100248601002D75010058
:10081000357501003A75010040750100437501000E
:10082000477501004F750100AA49C2A80CF056FE99
:10083000002899D1A84920460CF084FF214612A82F
:1008400013F087F8054620460CF0E2FD01358BD009
:10085000049B9D6A42A920460CF069FF2146284668
:1008600012F0CCFF20460CF0D3FD049B9D6AC2A978
:1008700020460CF05CFF2146284612F099FF2046E6
:100880000CF0C6FD049B986A10F0BCFB049B42A9C7
:100890005D6A20460CF04BFFC2A90DF5A1600CF07B
:1008A00046FF0DF5A1622146284612F0CDFF054610
:1008B0000DF5A1600CF0ACFD20460CF0A9FD6DB16A
:1008C0008649874806F0F9FE42A920460CF02FFF22
:1008D000214683480CF0A5FF82490CE082498048FC
:1008E00006F0EBFE42A920460CF021FF21467C4891
:1008F0000CF097FF7D497A4806F0DFFE20460CF0A9
:1009000087FDC2A80CF084FD42A83EE678490EA8F7
:100910000CF0E4FD0546002867D000200BF0B2FD86
:10092000744D002455F8043F002B32DD204616F0AC
:10093000D5FA714916F026FB4FF07A5116F01AFAE3
:1009400015F0C6FE02230246009365480B4612F0DE
:100950004FFE6A49624806F0B0FE214660480FF03B
:1009600025FC67495E4806F0A8FE29685C480FF040
:100970001DFC002680272B6893FBF7F3B34205DDAF
:100980006049574806F099FE0136F4E754480CF0E8
:100990002EFF0134B4F5807FC4D15B4C5B495048D5
:1009A00006F08BFE20780BF0C3FD01464C480FF09B
:1009B000FDFB57494A4806F080FE207812F010FEF1
:1009C0005449474806F079FE5349454806F075FEFC
:1009D00060780BF0ADFD014641480FF0E7FB4F4951
:1009E0003F4806F06AFE607827E04D490EA80CF0FB
:1009F00075FDC8B101200BF045FD4A4E2C4656F856
:100A00002450E8B211F072FBC5F3072011F06EFB21
:100A1000C5F3074011F06AFB0134280E11F066FBA4
:100A2000B4F5807FEBD1B2E53F490EA80CF056FD3E
:100A300038B13E4B3E4A1B68D05C12F0D1FD01F04C
:100A4000AEB93C490EA80CF049FD38B13A492448EA
:100A500006F033FE20460BF089FE8DE537490EA8DF
:100A60000CF03CFD0546002870D01A4912A80CF085
:100A700035FD18B1324912A80CF0F8FD3149324F5A
:100A80000DF5A1600BF05AFA12A812F01FFF4FF4F7
:100A9000B0535843CDF81005002541F234764FF499
:100AA000007221460DF5A16008F08AFF05F11B02D6
:100AB0003A440023E15C02F8011F0133B3F5007FE3
:100AC000F8D105F50775B542E9D1164B0B2283F82D
:100AD00000245CE58A9901000A7B0100777501001A
:100AE000E894FF1F12860100867501009D750100C4
:100AF000A87501001C98FF1FACAA2A3DC175010012
:100B000038AE0100AD7501000094FF1FAF75010004
:100B1000BB7501004E910100C3750100CF75010046
:100B2000D77501002098FF1FDC750100F095FF1FAD
:100B3000C9CEFF1FE1750100E6750100F1750100E6
:100B4000F97C0100F7750100D09CFF1F9D490EA89C
:100B50000CF0C4FC0646002842D012A812F0B6FEE3
:100B600099499A4C02469A4812F064FF12A812F072
:100B7000ADFE0BF041FD28460EF0BEFF954905463F
:100B8000934806F09AFD94F8000412F029FD92496A
:100B90008F4806F092FD0222E9B28D4812F01CFD4A
:100BA0008E498B4806F089FD12A812F08FFE01468F
:100BB00087480CF02FFE8A49854806F07EFD0BF031
:100BC0001FFC014682480FF0F1FA8649804806F082
:100BD00074FDD4F804147E480FF0EAFA82495CE50B
:100BE00082490EA80CF07AFC002800F0D9868022F9
:100BF000334622A912A80EF08BFD7D4974487D4F23
:100C000006F05BFD049BD3F8208022A920460CF05F
:100C100099FD214608F10C000CF09CFC20460CF0DC
:100C2000F7FB75496A4806F048FD282015F078F86A
:100C3000054618B9BB687148984747E1D7F828902E
:100C4000012242600262D9F8003022A9984720B1FF
:100C5000284615F06DF8354638E1AB68B3F55C2FE2
:100C600014D0674A934211D002F5305293420DD00E
:100C700002F53052934209D0B3F5DC1F08D009DCED
:100C8000BB68604898474FF0FF3304E0012302E05F
:100C9000022300E00323012B2B60C0F20681022B0C
:100CA00002DD032B4ED000E1012B4FF050026A61B0
:100CB00008BF0B234FF0020218BF1623AA61EB6195
:100CC000402015F02DF8064608B9BB6835E0002332
:100CD000E9694360A02359434B1E83600127022327
:100CE00091FBF3F14FF40073C1608762036205600A
:100CF00022460EF02DFB014618B1304615F018F8CB
:100D0000D6E023220DF5A16012F0A2FE94F8B021E6
:100D10000DF6B9210DF5A16013F08CFA0DF5A16067
:100D200016F08EFB7062042014F0FAFF286130B9CF
:100D3000304614F0FDFF2F4B9B683348B7E0066048
:100D4000EF60C3E0296A49B1D9F804600DF5A163E9
:100D50004FF4007200212846B04706E00DF5A1636C
:100D60004FF40072284606F019FB82462B6A60B1E8
:100D7000BA6A1BB113692846984702E0284606F074
:100D8000EBFDBB68214898479CE0002B40F0888031
:100D900003220DF5A1611E4814F044F900287FD10B
:100DA00004202860C5F80CA014F0BAFF834628611F
:100DB00020B1402014F0B4FF064668BBBB6815485C
:100DC00075E000BF04760100097601002098FF1F3E
:100DD000E894FF1F1B7601002B7601003B76010093
:100DE0004D7601005C7601006876010075760100A1
:100DF0007A760100289CFF1F847601009C76010012
:100E000000EC0D00B7760100D8760100EA7601000B
:100E10001CA70100117701000123A968EB60AB61F9
:100E2000EB619B4BCBF800000B40002BBEBF03F1E6
:100E3000FF336FEAC3536FEAD3534FF40072B8BF66
:100E4000013391FBF2F26A6101F50072D31AC0F826
:100E500024A04FF48062C0F804A093FBF2F3C360B7
:100E600023464FF40072F168284606F097FA23688B
:100E7000B3F1007F41F03B80D4F8FC311BBA012B69
:100E800041F03580F268012A02DD002BE8D003E052
:100E900002D1BB687F480AE05200013AB26015E017
:100EA000284606F067FD88B102E0BB687A4898479B
:100EB0002B6A23B1D9F810302846984702E028461B
:100EC00006F04AFD284614F033FF00257349C8F8A0
:100ED0000450734806F0F1FB7249714806F0EDFBCF
:100EE000049B1B6A5B68002B00F014856E496C48FC
:100EF00006F0E3FB049B6D491E6A6948756806F0BD
:100F0000DCFB6B49664806F0D8FB06F10C01204675
:100F10000CF00DFC214662480CF083FC65496048EA
:100F200006F0CBFB20460CF073FA63495C4806F0F0
:100F3000C4FB2B68013B032B0DD8DFE803F0020450
:100F400006085E4904E05E4902E05E4900E05E4951
:100F5000534806F0B2FB5D4951485D4F5D4E06F0C7
:100F6000ACFB69694E480CF055FC52494C4806F000
:100F7000A4FB59494A4806F0A0FBA96948480CF06F
:100F800049FC4C49464806F098FB5449444806F051
:100F900094FBE96942480CF03DFC4649404806F0A4
:100FA0008CFB4F493E4806F088FBA9683C480CF092
:100FB00031FC40493A4806F080FB4A49384806F07F
:100FC0007CFB296A364800290CBF3946314606F0B9
:100FD00074FB3849324806F070FB4349304806F04C
:100FE0006CFB69682E4800290CBF3946314606F073
:100FF00064FB30492A4806F060FB3C49284806F06B
:101000005CFBE96826480FF0D1F82A49244806F02D
:1010100054FB3749224806F050FB049B1B6A05939A
:101020005B6813B1DA68002A03DC324B32489B68F4
:101030008EE01A69156801262B60AE6222460021F7
:10104000284606F0C1F900287FD131460DF6083256
:10105000284606F0B9F90646002876D14FF480629A
:1010600021460DF5A16013F0E5F831460DF5A160BC
:101070000EF00EF903220DF5A161204813F0D2FF06
:1010800000283FD01B4B1E485B6898475DE000BFBF
:10109000FF010080297701004E7701007077010081
:1010A000E894FF1F7A7601008877010091770100AC
:1010B000987701004E910100A9770100BA770100ED
:1010C000D2770100E8770100F3770100FE77010095
:1010D0000D750100087501000F78010020780100EE
:1010E00031780100427801005378010064780100F2
:1010F00075780100289CFF1F7E7801001CA7010065
:101100009E7801009DF814354BB327460646012E04
:101110000FD07B7814F82610FA7843EA0121BB78C7
:1011200042EA032343EA0143C243934288BF0130AA
:1011300018440136B6F5807F07F10407E7D1DDF8E2
:101140000C35C043834206D109E06C4B6C485B68A8
:1011500098470025E0E0694B6A485B6898479DF82E
:101160000B352B74DB074CBF4FF400734FF4F47353
:10117000EB610123AB6142AAE96828460EF0E8F86A
:1011800018B15E4B60485B68E2E76A68AB689B1A1F
:10119000013B4FF47E6293FBF2F702FB173303B17E
:1011A00001374FEA8709EF62484614F0B9FD064659
:1011B000686318B9514B55489B680BE0484614F0DA
:1011C000AFFD8046286338B9304614F0B1FD4B4B73
:1011D0004F489B6898479DE0484614F0A1FDA863DE
:1011E00018B14FF00008C14606E0304614F0A0FDEB
:1011F0004046EAE708F1010847451FDDAB6B6E6B1F
:1012000043F828904FF4007014F08AFD46F8280047
:101210006B6B53F82860002EECD1A86B14F088FD9E
:10122000286B14F085FDB04506D06B6B53F8260093
:1012300014F07EFD0136F6E7686BC6E7DFF8BCA068
:101240000DF51079002659F8048FB8F1000F17D06A
:101250002B6B4FEA860B43F82680C0F24E86AB68B4
:101260006A689B1A984500F348866B6B414653F8B1
:101270000B20284606F020FE90BB0136192EE2D145
:10128000AA99DFF87890002944D02246284606F033
:101290009BF8834620BB0DF542784FF4007221463F
:1012A000404612F0C7FF052140460DF0F1FF4FEA1E
:1012B000860AB7421FDD58F80B100029C0F22386BA
:1012C000AB686A689B1A994200F31D860AEB0B0310
:1012D0002A6BD1506A6B2846D25806F0EDFD18B142
:1012E000284606F0CDFD15E00BF1040BBBF5FE7FA3
:1012F00006F10106DDD1D8F8FC11C4E7289CFF1FD8
:10130000C27801002B860100DF780100FC78010023
:1013100025790100EB68EB63059B9D60049B1B6ACC
:101320009B68002B00F0F4828349844806F0C5F9DD
:10133000049B83491B6A81489D6806F0BEF9814978
:101340007E4806F0BAF9696A7C4806F0B6F97E492B
:101350007A4806F0B2F97D49784806F0AEF92B7C60
:101360007B4A7C49754813F0010F7B4B18BF1A4626
:1013700012F060FB2B7C9F0703D578496F4806F07D
:101380009CF92B7C5E0703D575496C4806F095F9EE
:101390006D496A4806F091F97249684806F08DF97E
:1013A000296A66480EF002FF6749644806F085F92D
:1013B0006D49624806F081F9E96960480EF0F6FE71
:1013C00061495E4806F079F968495C4806F075F9AC
:1013D00069695A480EF0EAFE5B49584806F06DF913
:1013E0006349564806F069F9284606F091FD014622
:1013F00052480CF00FFA5F49504806F05EF9AB68AE
:1014000069684E48591A01310CF004FA4E494B48AC
:1014100006F053F95849494806F04FF9284606F0B6
:1014200077FD15F05BFD554915F0ACFDAB68064640
:101430006868181A013015F051FD0146304615F064
:1014400055FE01464D484E4E15F092FC15F040F900
:1014500002230246009339480B4612F0C9F8494965
:10146000364806F02AF94849344806F026F9474933
:10147000324806F022F94649304806F01EF9736AF0
:10148000E96BB146002B00F083812B7C580740F1BB
:101490007F81C2AA284605F0D1FF002840F0EF81E5
:1014A000DDF8007505900446B1460DF60812394680
:1014B000284605F089FF002840F0E1814FF40072D2
:1014C0000DF608110DF5A16012F0B4FE04210DF522
:1014D000A1600DF0DDFE4FF4007214210DF608102E
:1014E0000DF0B8FEDDF81C65864203D0D9F8043053
:1014F00028489847DDF80835212B03D0D9F8043067
:1015000025489847DDF80C359F4203D0D9F80430C0
:101510002248984700260696DDF81435069A93422D
:1015200040F33081382014F0FBFB0746C0BB204657
:1015300005F0EBFF3C46A3E14F790100E894FF1F63
:1015400058790100627901004E9101007379010020
:10155000177501003D7B01001375010084790100BE
:101560008A79010094790100A5790100B67901001A
:10157000C7790100397B0100D87901000000C84219
:10158000289CFF1FE9790100ED790100FA7901003B
:10159000327A0100807A0100A47A0100C87A010041
:1015A0000DF5A46306F118089A5D0DF221530DF2B2
:1015B0001D109B5D43EA02220DF22253995D0DF24C
:1015C00023539B5D43EA012343EA0243089342937A
:1015D0000DF224539A5D0DF225539B5D43EA0222DE
:1015E0000DF22653995D0DF227539B5D43EA0123CB
:1015F00043EA0243099343930DF5A5639A5D0DF207
:1016000029539B5D43EA02220DF22A53995D0DF2A4
:101610002B539B5D43EA012343EA02430A9344931D
:101620000DF5A6639A5D0DF231539B5D43EA0223EB
:101630001BB20B93BDF82C30ADF814310DF23253C0
:101640009A5D0DF233539B5D43EA02231BB207936D
:10165000BDF81C30ADF816310DF234539A5D0DF221
:1016600035539B5D43EA02231BB20C93BDF8303027
:10167000ADF818310DF5A163334493F92E2093F89A
:101680002FA00D929DF834208DF81A210DF5A4633A
:1016900003EB080152468DF81BA112F0CBFD42ABC3
:1016A000534400225A75D0440DF5A163434493F886
:1016B00018B08DF81CB1BBF1000F09D006F119016B
:1016C00051440DF5A4635A4619444FA812F0B2FDD7
:1016D00042AB5B44002208F1010683F834205E44EB
:1016E0000D9B3B60F1070DF21D1048BF013615F050
:1016F000A7FE8046786018B9384614F019FB71E0EF
:10170000089BBB604FA815F09BFE8246786118B914
:10171000404614F00DFB80E0099BBB610A9BFB6116
:1017200007F1240207F1280307F120010B980DF0BF
:1017300009FD0799079B3C2293FBF2F3FB6202FB36
:1017400013131BB23B630C9A3223394692FBF3F31B
:101750007B632CB920460DF064FD0446059003E040
:1017600005980DF05EFD0590059B3BB9384605F0E8
:10177000BBFE204605F0C9FE059C81E0069B0133B7
:101780000693C9E6DDF81875002F7FF48EAE77E07A
:101790002246284605F052FE002870D10DF61C178F
:1017A0000646044657F8048FB8F1000F62D038207F
:1017B00014F0B6FA824638B9204605F0A6FED9F8EC
:1017C00008307F4898472BE041460DF5A162284636
:1017D00005F034FE8046E0B951460DF5A16006F0F3
:1017E000CFFA20B1204605F090FE444648E03B6821
:1017F000CAF808305146FCB90DF013FD0646044600
:101800001EE00DF5A1624146284605F017FE82460E
:1018100040B1204605F079FE31E0204605F075FE26
:1018200054462DE059460DF5A16006F0A9FA0028AE
:10183000F3D1CBF80880594630460DF0F2FC06464D
:101840009EB1DDF8F886B8F1000F13D0382014F0FF
:1018500067FA83460028D4D1204605F056FED9F811
:101860000820574890475C460AE0204605F04DFEA8
:10187000344605E00DF63C239F4293D100E000245E
:101880002646002E40D035682B681A1D3AD0DA1E45
:10189000012A37D9022B04D14A494B4812F0CAF821
:1018A00004E0AA694949484812F0C4F86B6B0393F5
:1018B0002B6B0293EB6A0193AB6A00936B6A2A6A03
:1018C0004349414812F0B6F8AA6842493E4812F02E
:1018D000B1F841493C4812F0ADF82B686A683A48C3
:1018E000022B0CBF3D493E4912F0A4F86A692AB1A7
:1018F00013781BB13B49344812F09CF83A493248FE
:1019000012F098F8B668BCE7204605F0FEFD0DE041
:10191000364900E036492C4805F0CFFE22A92A4876
:1019200005F0CBFE3349284805F0C7FE049B1D6A2D
:10193000AC6824B9304B31489B68984704E0204696
:1019400006F09EFA0023A3626C68002C3EF41FAEE2
:101950000025E368AB420CDD236953F82530586A53
:1019600014F0E6F9236953F8250014F0E1F9013584
:10197000EFE7002B02DD206914F0DAF90023E360C1
:10198000226A1D4B9B6A1AB11B692046984702E0E8
:10199000204605F0E1FF204614F0CAF9FEF7F7BD36
:1019A00017490EA80BF09AFD054616490EA86DB30F
:1019B0000BF05CFE144912A80BF058FEFEF7E7BDD1
:1019C000EC7A0100027B0100E894FF1F0C7B010010
:1019D000127B0100307B01000A7B0100377B010094
:1019E0003D7B01003B7B01004E910100407B0100EB
:1019F0005F7B010012860100289CFF1F7E7B010097
:101A0000977B01009D7B0100CB9C01000BF066FDE4
:101A1000002800F0C7812A46A049A148A14D12F034
:101A200009F812A80BF011FD9F4912A80BF056FD02
:101A3000002840F070829D4912A80BF04FFD064629
:101A4000002840F068820AF0D7FD30460EF054F8C6
:101A5000974E98490746924805F02FFE96F80004E5
:101A600011F0BEFD94498E4805F027FE0222F9B21E
:101A70008B4811F0B1FD9149894805F01EFE12A86E
:101A800011F024FF014686480BF0C4FE8C498448BF
:101A900005F013FE0AF0B4FC014681480EF086FB07
:101AA00088497F4805F009FED6F804147C480EF0FA
:101AB0007FFB85497A4805F000FE8449784805F0A7
:101AC000FCFD287811F08CFD8149754805F0F5FD85
:101AD000687811F085FD7F49714805F0EEFDA87822
:101AE00011F07EFD7C496E4805F0E7FDE87811F0C5
:101AF00077FD7A496A4805F0E0FD2B7E697EE87E35
:101B000043EA0121AB7E41EA03411022002341EA6E
:101B1000006163480BF029FE7149614805F0CDFD75
:101B20002B7D697DE87D43EA0121AB7D41EA0341DC
:101B30001022002341EA006159480BF016FE584874
:101B40000BF055FE6749564805F0B7FD6649544805
:101B500005F0B3FD6549524805F0AFFD00264FF48E
:101B6000077909FB06F94FEA462A002760494C48E5
:101B700005F0A3FD102207EB0A0122A80BF0B1FD2E
:101B8000249B022B19D85B4942A80BF0DBFD249B58
:101B90000022C3F1030342A9C2A80BF07CFDC2A935
:101BA0000DF5A1600BF0C3FD22A90DF5A1600BF0AE
:101BB00028FD4FF00108014602E04FF0000822A97D
:101BC00020460BF0B4FD214635480BF02AFE204696
:101BD0000BF01EFCB8F1000F09D00DF5A1600BF061
:101BE00017FCC2A80BF014FC42A80BF011FC4249F0
:101BF0002B4805F062FD4FF0000807EB090B08EBDE
:101C00000B032B442648197FA1F120035E2B88BFCC
:101C10002E2108F1010811F0DCFCB8F1400FEED1E3
:101C200036491F4805F049FD403722A80BF0F0FB6C
:101C3000B7F5007F9AD10136022E90D1304918486D
:101C400005F03BFD00264FF4077808FB06F84FEA45
:101C5000462900272649124805F02FFD102207EBE0
:101C6000090116A80BF03DFD189B022B4AD821490B
:101C70001AA80BF067FD189B0022C3F103031AA9F1
:101C80001EA80BF008FD1EA922A80BF050FD16A9F6
:101C900022A80BF0B6FC0124014635E0A27B01002E
:101CA000E894FF1FD09CFF1FB57B0100CB9C010077
:101CB0002098FF1F1B7601002B7601003B76010068
:101CC0004D7601005C76010068760100BB7B010067
:101CD000C97B0100D27B0100DC7B0100EA7B0100B3
:101CE000F67B0100047C0100527C0100A07C010015
:101CF000EE7C0100F37C01003B9E01009B7C010017
:101D0000FB7C0100002416A90DF608100BF00FFD56
:101D10000DF6081192480BF084FD0DF608100BF03B
:101D200077FB44B122A80BF073FB1EA80BF070FBED
:101D30001AA80BF06DFB8B49894807F11B0405F0CD
:101D4000BCFC44442C444FF0000A14F8013F0F2B14
:101D500003D88549824805F0B0FC102221788048DC
:101D600011F03AFC0AF1010A80497D4805F0A5FC12
:101D7000BAF1200FE9D17E49794805F09EFC203761
:101D800016A80BF045FBB7F5007F7FF463AF013673
:101D9000022E7FF458AF7749714805F08EFC7649E2
:101DA000FEF77BBC75490EA80BF098FB002870D09D
:101DB000734CDFF80892002799F80034BB4265DDC8
:101DC0007049674805F079FC207811F009FC6E49EC
:101DD000634805F072FC607811F002FC6B496048C2
:101DE00005F06BFCA07811F0FBFB69495C4805F03D
:101DF00064FCE07811F0F4FB6649594805F05DFC9D
:101E000000231022A16956480BF0AFFC62495448E8
:101E100005F053FC00231022616951480BF0A5FC2A
:101E20004F480BF0E4FC04F5007A254605F11B0849
:101E3000002618F8013F0F2B03D84B49484805F0FE
:101E40003CFC102298F80010454811F0C5FB013603
:101E50004649434805F031FC202EEAD10026AB1953
:101E60003F48197FA1F120035E2B88BF2E21013648
:101E700011F0AFFB202EF2D1394820350BF0B7FC22
:101E8000AA45D3D1013704F5077495E74349FEF716
:101E900004BC43490EA80BF021FB90B1049B5D6A82
:101EA00012A920460BF043FC214628460EF0E2FA28
:101EB00020460BF0ADFA3B49294805F0FEFB12A97C
:101EC0000BE039490EA80BF009FB00287EF45FAB4C
:101ED0003649234805F0F1FB0EA920460BF027FCFC
:101EE00021461F480BF09DFC3149FEF74ABBF368C1
:101EF000013BF3600023FEF7C5BF2E48DAF804303B
:101F00009847FFF7B2B92B48D9F8043006919847A3
:101F10000699FFF7DBB928490DF5A16000260AF004
:101F20000DF841F23477CDF810654FF40072214678
:101F30000DF5A16007F044FD06F11B022A440023C1
:101F4000E15C02F8011F0133B3F5007FF8D106F51B
:101F50000776BE42E9D1194B0B2283F80024ACE589
:101F6000E894FF1F3B9E0100F97C01000A7B010001
:101F70009C7C0100687D01004E910100D57D01002F
:101F8000D09CFF1FBB7B0100C97B0100D27B0100FD
:101F9000DC7B0100EA7B0100F67B010067AD0100FC
:101FA000DB7D0100E57D01008A990100F27D0100E1
:101FB0001286010051860100F77501002098FF1F6D
:101FC0002DE9F04FAE4E93B005F0BAF8172386F81E
:101FD000FE391823022486F8FF39192316202146DA
:101FE00086F8003A1A2386F8013A86F8FD0986F841
:101FF000FC4908F0A6FD214696F8FE0908F0A1FD6F
:10200000214696F8FC0908F09CFD012196F8FF098D
:1020100008F097FD012196F8000A08F092FD0121D1
:1020200096F8010A08F08DFD9649974805F045FBA2
:102030009649954805F041FB9549934805F03DFBCD
:102040009449914805F039FB93498F4805F035FBD9
:1020500092498D4805F031FB91498B4805F02DFBE5
:102060001C2013F05DFE1C220446002111F0F0FC40
:10207000002396F8FD2923762270C6F8F449894C8E
:10208000894A6260894AA260894A2260894AE2607C
:10209000894A6261894AE2616362A36123612362C2
:1020A000874A884B8849784811F0C4FC142013F003
:1020B00037FEA046A06210B9636884489847D8F8F4
:1020C0002830834A1A60834A5A60834A9A60834A56
:1020D0001A61834ADA6096F8FE0909F0D3FD08B95F
:1020E000804900E08049684805F0E7FA382013F09D
:1020F00017FE0021044604F06DFF2046C6F8F049A3
:102100000EF0D8FF08B1794900E079495E4805F042
:10211000D4FAD6F8F0395C6972B6764BC8F82C3030
:102120000022A8F83020C8F83820C8F83C20C8F8A9
:102130004020C8F84420C8F848205A800122A3F85B
:1021400006210222A3F80A220322A3F80E23042266
:10215000A3F812240522A3F816250622FF21A3F8CE
:102160001A260722C8F83410A3F81E2762B662495F
:10217000204615F0C3F830B96049204615F0A0F8A4
:1021800010B15E4C00E05C4C4FF08F41204614F0E3
:10219000F9FE15F0D3F85A4970663B4805F08DFA00
:1021A000584BC8F84C30D8F85430C8F850300BF0C1
:1021B00091FC5549344805F080FA7568534900236D
:1021C00001226B8185F83030AB8185F8242085F8B9
:1021D000383085F82530EA77AA7785F820306B8685
:1021E000AB8685F821302B766B8785F822204FF659
:1021F000FF73474AAB87AB836B83AA6285F8403095
:102200006FF05902C0230EACEA6285F839302046DF
:102210000FF0FAFF3F4B0E9A1A6095F843200B2AF5
:10222000994602D0072A40F0DB8095F844300D3BF8
:10223000012B00F2D580384F38487B6883420ED19D
:102240000B2A04D198F8581021F0010105E0072A63
:1022500005D198F8581041F0010188F85810797AA2
:10226000194491F824E0724578D093F824109142F3
:1022700056D093F82510914270D1012251E000BF51
:10228000B0D0FF1F1C900100E894FF1F2F900100A9
:102290007C900100909001009B900100CB90010088
:1022A0001C910100289CFF1F4D7300003973000032
:1022B000257300001973000075730000617300003E
:1022C00037910100249101003F91010051910100DB
:1022D00055EA00001DE9000005E90000F9E80000EA
:1022E000F5E800006C9101009D910100C49101008E
:1022F000DE9101000082FF1F00FEFF4600FEFFC6C8
:10230000009201001B7300001E92010080C3C901EE
:102310000000B4439CCFFF1FFC95FF1FC0B001001D
:1023200000221968D1F800C059681CEA010F14D0C6
:10233000754901EBCE0E4FF0000CDEF804E0CEF84C
:1023400000C003EB020E9EF824E001EBCE0102F187
:102350000A0E496853F82E300B607A727B6895F844
:10236000442083420ED10D2A04D198F8581021F050
:10237000040105E00E2A05D198F8581041F0040137
:1023800088F85810B97A194491F8300082422CD05C
:1023900093F83010914205D093F83110914224D136
:1023A000012200E000221968D1F800E059681EEA15
:1023B000010F13D0544901EBC0004FF0000E4068EC
:1023C000C0F800E0981890F8300001EBC00102F16D
:1023D0000C0003EB800349685B680B60BA7204E091
:1023E00095F8253043F001038AE00FF061F8786832
:1023F00095F845C095F83EA000F13B0E72460023CB
:1024000012F8011F614507D1034493F86C20002A9C
:102410006DD07346002106E00133092BF0D166E050
:102420000131092963D013F801BFD345F8D1014424
:1024300091F86C30002B5AD0134058D11A461EF830
:10244000011F61450ED1304901EBCC0C02F1120E97
:10245000DCF8041050F82EE0C1F800E0024492F8D5
:102460006CE004E00132092AE9D14FF0000E7F68E8
:1024700095F83E0085F841E007F13B01002211F894
:1024800001CF84450CD1204901EBC0014B6802F11A
:1024900012013A4457F82110196092F86C3002E0AA
:1024A0000132092AEBD195F83F0043EA0E03FF28D9
:1024B00085F842302AD0012108F043FB012195F82C
:1024C0003F0008F07FFB0A2008F026FB002195F86A
:1024D0003F0008F077FB0A2008F01EFB95F83F004C
:1024E000012108F06FFB0A2008F016FB0EE0002324
:1024F00085F8413085F8423095F8253043F00203E5
:1025000085F82530DCE200BF4CAE0100D9F80000B0
:10251000D84FDFF864B30FF03BFE95F842301B0450
:1025200043F0004343F001037B6309F08FF87A2006
:1025300008F0F2FA95F842301B0443F0004343F0F0
:1025400011037B6309F082F8052008F0E5FA95F89D
:1025500042301B0443F0004343F0B1037B6309F0B6
:1025600075F84FF0000AB94695F841201AF80B307B
:10257000C04F43EA024343F00043C9F834300AF144
:10258000010A09F063F8BAF1030FEDD195F8423072
:10259000DFF8E8B21B0443F0004343F0B2037B636F
:1025A00009F054F84FF00009BA4695F8412019F89F
:1025B0000B30B04F43EA024343F00043CAF83430D3
:1025C00009F1010909F042F8B9F1030FEDD195F8CD
:1025D0004230DFF8ACB21B0443F0004343F0B303D6
:1025E0007B6309F033F84FF00009BA4695F84120B3
:1025F00019F80B309F4F43EA024343F00043CAF8F7
:10260000343009F1010909F021F8B9F1030FEDD1D6
:1026100095F84230DFF86CB21B0443F0004343F0FE
:10262000B4037B6309F012F895F841301B0443F0C2
:1026300000437B6309F00AF895F842301B0443F02D
:10264000004343F0C0037B6309F000F84FF0000A39
:10265000B94695F841201AF80B30864F43EA0243F9
:1026600043F00043C9F834300AF1010A08F0EEFFE4
:10267000BAF1030FEDD195F84230DFF80CB21B042C
:1026800043F0004343F0C1037B6308F0DFFF95F89C
:1026900041301B0443F0004343F0C5037B6308F063
:1026A000D5FF95F842301B0443F0004343F0C203CA
:1026B0007B6308F0CBFF95F841301B0443F00043E7
:1026C00043F00A037B6308F0C1FF95F841301B0417
:1026D00043F000437B6308F0B9FF95F842301B04D8
:1026E00043F0004343F0C3037B6308F0AFFF95F86A
:1026F00041301B0443F0004343F08A037B6308F03E
:10270000A5FF95F841301B0443F0004343F02A0332
:102710007B6308F09BFF95F842301B0443F00043B5
:1027200043F0C4037B6308F091FF95F841301B042C
:1027300043F0004343F08A037B6308F087FF95F87A
:1027400041301B0443F0004343F02A037B6308F04D
:102750007DFF95F842301B0443F0004343F0C5036E
:102760007B6308F073FF95F841301B0443F000438E
:1027700043F03C037B6308F069FF95F841301B048C
:1027800043F0004343F038037B6308F05FFF95F8A4
:1027900042301B0443F0004343F020037B6308F006
:1027A00055FF95F842301B0443F0004343F03A03D1
:1027B0007B6308F04BFF95F841301B0443F0004366
:1027C00043F005037B6308F041FF95F842301B049A
:1027D00043F0004343F026037B6308F037FF95F88E
:1027E00041301B0443F0004343F001037B6308F0D6
:1027F0002DFF95F842301B0443F0004343F0E00303
:102800007B6308F023FF4FF0000A95F841201AF887
:102810000B30DFF8609043EA024343F000437B63F0
:102820000AF1010A08F012FFBAF10F0FEDD195F885
:102830004230DFF858B01B0443F0004343F0E1039B
:10284000C9F8343008F002FF4FF0000A95F8412033
:102850001AF80B30074F43EA024343F00043C9F82C
:1028600034300AF1010A08F0F1FEBAF10F0FEDD190
:102870000EE000BF00C00240788601007B860100A8
:102880007B8601007E860100818601009086010022
:1028900095F842301B0443F0004343F038037B6358
:1028A00008F0D4FE95F842301B0443F0004343F097
:1028B0002A037B6308F0CAFE95F841301B0443F0FD
:1028C00010437B6308F0C2FE95F841301B0443F0CF
:1028D000104343F080037B6308F0B8FE95F8423064
:1028E0001B0443F0004343F02B037B6308F0AEFE70
:1028F00095F841301B0443F010437B6308F0A6FEBB
:1029000095F841301B0443F0104343F0A0037B6370
:1029100008F09CFE95F842301B0443F0004343F05E
:1029200013037B6308F092FE95F8423039681B046C
:1029300043F0006343F029037B633846FA6ABD4BDA
:1029400012F0805F04D112F0F00FF7D0836BF5E73F
:102950004FF08052DA6219601A46D96AB54F11F009
:10296000F00901D0916BF8E7012008F0D5F80FF0DD
:10297000D1FB012008F0D0F84946284609F018F8A4
:10298000AD4B18680FF004FC95F83720AB4B13F8EB
:1029900012A003EB420393F8019095F842301B0418
:1029A00043F0004343F02A037B6308F04FFE95F8A1
:1029B00041304AEA034343F010437B6308F046FE8C
:1029C00095F841300AF1800A4AEA034343F0104384
:1029D0007B6308F03BFE95F842301B0443F0004354
:1029E00043F02B037B6308F031FE95F8413049EA50
:1029F000034343F010437B6308F028FE95F8413011
:102A000009F1A00949EA034343F010437B6308F04E
:102A10001DFE95F842301B0443F0004343F02C03A5
:102A20007B6308F013FE698F28464FF4A0420BF039
:102A300049F995F8423039681B0443F000637B6321
:102A40003846FB6A7B4A13F0805F04D113F0F00F25
:102A5000F7D0836BF5E74FF08053D36211601146D6
:102A6000D36A13F0F00701D08B6BF9E70FF052FB3C
:102A700085F83670698F284608F00EFF95F84030CB
:102A8000FF2B07D06E4A52F83320012382F8003121
:102A900085F82430DFF8F4910027C5F8149085F804
:102AA00023702021284608F0F6FD0028F5DB654B51
:102AB00003EBC000C36B1B792B611E2008F02CF8C0
:102AC0000321706808F074FF73685F495F48022251
:102AD0001A76C6F8E83904F0F0FD1E215C4800279C
:102AE0000DF0AEFE5B4920460AF02CFE4FF4FC636D
:102AF0005522322156488DE890000BF093FB20467A
:102B00000AF086FC544920460AF01CFE4FF6FF737B
:102B10005F2232214E488DE890000BF083FB204667
:102B20000AF076FC01224D494D4804F0AEFA4FF010
:102B300001094C4920460AF005FE4FF6FF73732247
:102B4000394643488DE810020BF06CFB20460AF032
:102B50005FFC382013F0E4F805224349054611F0E4
:102B600069FB0522A818414911F064FB4049EF6058
:102B70002F616F612F7605F11C000AF0E3FD4FF421
:102B8000E1313C480AF04BFC1A2319206B6328639F
:102B9000494608F017F8494695F8340008F012F84D
:102BA0002846C6F8F85904F08AFD3946D6F8F809DF
:102BB00004F0BEFD304920460AF0C4FDFA234A461F
:102BC00021460AA80DF0ACFB20460AF021FC2B4957
:102BD00020460AF0B7FD0C9B3BB10A9D0E99284692
:102BE00014F05CFC08B1451B01E04FF0FF352046B6
:102BF0000AF00EFC0AA80AF00BFC013548D0D6F802
:102C0000F8391F4ADA621F49012520460AF09AFD69
:102C10004FF6FF73732200210D488DE830000BF052
:102C200001FB20460AF0F4FB1749084804F045FD73
:102C3000294632E000C002409CCFFF1F44A701009C
:102C40004CAE01007886010033920100E894FF1F2A
:102C500098DAFF1FB19B0100909001004F92010094
:102C6000C8D0FF1F5992010067AD01006EAD010091
:102C700072920100DC95FF1F809201008792010093
:102C8000937200008C920100A6920100A0860100C0
:102C900099499A4804F011FD01219848DFF8A8925B
:102CA000DFF8A8A2DFF8A8B20DF080FA94499348A3
:102CB00004F003FD4FF4E13190480DF077FA9149AB
:102CC0008E4804F0FAFC904920460AF03BFD2C2087
:102CD00013F026F8D6F8F039D6F8F4290093054613
:102CE000D6F8F839214610F01DFE75612046A9F589
:102CF0001D650AF08DFB96F8FC39C6F8C850834D67
:102D000086F8D6300F232B601023C8F860301123CB
:102D1000C8F864301223C8F868301323C8F86C3040
:102D20000923C8F870300823CAF800300723C8F810
:102D300074300623CBF800300523C8F8783004231C
:102D4000C8F87C300323C8F88030714BC8F8843051
:102D5000043BD6F8F80996F8FD19C8F8883003F551
:102D60009F3396F8FE29C6F8D00003F5EC730E20C9
:102D700086F8D410012186F8D520C8F85C00C8F880
:102D80008C30C6F8CC9007F0DCFE624B0221196053
:102D90002878614D07F0D5FE98F864700121384617
:102DA00007F0CFFE55F83730012783F8807098F888
:102DB000603003931846394607F0C3FE039B55F86D
:102DC000333083F8807098F868300393184639469A
:102DD00007F0B7FE039B55F8333083F8807098F8FE
:102DE0006C3003931846394607F0ABFE039B98F806
:102DF000702055F83330212A83F880700DD805EB08
:102E0000C20355F832205B6882F880724FF4A072DA
:102E10001A601A6822F020021A6098F870309AF846
:102E2000000055F83330012783F88070394607F0E9
:102E300088FE9AF8003098F8740055F83330022173
:102E400083F8807007F07DFE02219BF8000007F0F8
:102E500078FE98F87CA03946504607F072FE55F887
:102E60003A3098F8805083F880700221284607F0A5
:102E700068FE212D03D8294928460DF05BF9284B1F
:102E80001968FF221A7121B1264B0B441B112649E8
:102E90005A540DF091F9C8212448254F0AF062FBDD
:102EA0001F2124480AF05EFB142123480AF05AFB34
:102EB000142122480AF056FB012012F031FF05468A
:102EC000C5F1005512F034FF284612F029FF0544E1
:102ED000824646F29470059512F022FF184B186056
:102EE00000F188735B01C8F8903098BB154903481E
:102EF00004F0D9FBFEE700BFDE920100E894FF1F5B
:102F0000D2920100D6920100909001000CCCFF1FDC
:102F100048800340C4F00F404CAE0100216D00001A
:102F2000A0CFFF1F008FFCBF44E400E0B0CFFF1F25
:102F3000289CFF1FC0CFFF1FD0CFFF1FE0CFFF1F78
:102F400038CBFF1F1493010098DAFF1F10CCFF1F2E
:102F5000CC9CFF1F5046002512F0EAFE09F0B4FB9E
:102F6000CF4987F89650204687F8955087F89450B7
:102F7000C6F808900AF0E6FB204610F0ADFC0746C4
:102F800020460AF045FAC74920460AF0DBFB3A46DC
:102F90000521204609F090FC20460AF039FAC24982
:102FA00020460AF0CFFB3A460321204609F084FC74
:102FB00020460AF02DFABD4920460AF0C3FB3A46E6
:102FC0002946204609F078FC20460AF021FAB84943
:102FD00020460AF0B7FB3A460D21204609F06CFC6A
:102FE00020460AF015FAB34920460AF0ABFB3A46F0
:102FF0001221204609F060FC20460AF009FAAE4989
:1030000020460AF09FFB3A461321204609F054FC63
:1030100020460AF0FDF9A94920460AF093FB204614
:1030200010F05AFC074620460AF0F2F9A44920465F
:103030000AF088FB3A460421204609F03DFC204670
:103040000AF0E6F99F4920460AF07CFB3A4619212E
:10305000204609F031FC20460AF0DAF99A49204668
:103060000AF070FB3A461821204609F025FC20465C
:103070000AF0CEF9954920460AF064FB3A46294603
:10308000204609F019FC20460AF0C2F99049204672
:103090000AF058FB204610F01FFC804620460AF03C
:1030A000B7F98C4920460AF04DFB42462946204696
:1030B00009F002FC074620460AF0AAF98649204694
:1030C0000AF040FB3A461A21204609F0F5FB20465B
:1030D0000AF09EF9814920460AF034FB3A461B214A
:1030E000204609F0E9FB20460AF092F97C49204687
:1030F0000AF028FB3A461E21204609F0DDFB204657
:103100000AF086F9774920460AF01CFB4246294618
:10311000204609F0D1FB054620460AF079F97249AC
:1031200020460AF00FFB2A461F21204609F0C4FB67
:1031300020460AF06DF96D4920460AF003FB2A4645
:103140002021204609F0B8FB20460AF061F96849C1
:1031500020460AF0F7FA2A461721204609F0ACFB70
:1031600020460AF055F9634920460AF0EBFA2A4650
:103170000821204609F0A0FB20460AF049F95E49E3
:1031800020460AF0DFFA2A460921204609F094FB7E
:1031900020460AF03DF9594920460AF0D3FA2A465A
:1031A0000C21204609F088FB20460AF031F95449E9
:1031B00020460AF0C7FA2A460A21204609F07CFB7D
:1031C00020460AF025F9394920460AF0BBFA204684
:1031D00010F082FB20460AF01BF9344920460AF021
:1031E000B1FA204610F078FB20460AF011F92F4979
:1031F00020460AF0A7FA204610F06EFB20460AF09F
:1032000007F92A4920460AF09DFA204610F064FB8F
:1032100020460AF0FDF83B4920460AF093FA204682
:1032200010F05AFB054620460AF0F2F836492046CF
:103230000AF088FA2A460621204609F03DFB20467E
:103240000AF0E6F831490AA80AF07CFAD6F8F03913
:1032500006A8597C0AF058FA06A90AA80AF0D1F97A
:10326000014620460AF063FA2A461021204609F05A
:1032700023FBC6F8080A20460AF0CAF806A80AF096
:10328000C7F80AA80AF0C4F821490AA80AF05AFAAD
:10329000D6F8F0391B7C002B3ED01E493DE000BF24
:1032A000229301002C9301003F9301008A990100B1
:1032B0005193010064930100789301008B93010006
:1032C000919301009B930100739B0100A793010060
:1032D000BB930100F5930100C5930100DA9301004F
:1032E000EF9301000A940100F99301000494010096
:1032F00010940100259401003494010049940100C8
:10330000629401007A940100839401008C9401007E
:103310009E940100AB9401005A4906A80AF012FAE3
:1033200006A90AA80AF06DF9014620460AF0FFF93D
:103330002A460F21204609F0BFFAC6F8040A2046A3
:103340000AF066F806A80AF063F80AA80AF060F81E
:103350004D490AA80AF0F6F9D6F8F03906A85969D5
:103360000DF0A0FF06A90AA80AF04BF90146204675
:103370000AF0DDF92A461121204609F09DFAC6F827
:103380000C0A20460AF044F806A80AF041F80AA8F8
:103390000AF03EF83D490AA80AF0D4F9D6F8F01927
:1033A00006A818310AF0C3F906A90AA80AF029F9F3
:1033B000014620460AF0BBF92A461C21204609F0A6
:1033C0007BFAC6F8100A20460AF022F806A80AF08E
:1033D0001FF80AA80AF01CF82D490AA80AF0B2F949
:1033E000D6F8F01906A828310AF0A1F906A90AA80A
:1033F0000AF007F9014620460AF099F92A461D21EC
:10340000204609F059FAC6F8140A20460AF000F8D6
:1034100006A809F0FDFF0AA809F0FAFF1D49204699
:103420000AF090F92A460021204609F045FA204684
:1034300009F0EEFF184920460AF084F92A460721D0
:10344000204609F039FA204609F0E2FF96F8FE39E5
:1034500096F8FD2986F869351049114B114886F810
:103460006825C6F87035C6F86C9504F026F90E4943
:103470000C4804F022F9F06809F03EFA13B0BDE8F8
:10348000F08F00BFB0940100B6940100C394010016
:10349000CA9401008A990100D5940100E1940100C9
:1034A00078D1FF1FE894FF1F099501002DE9F04F27
:1034B000D84CFFB02378082B0AAF4AD14FF4936061
:1034C00012F02EFC94F8FC3994F8FE2994F8FD19BA
:1034D00080460FF00FFFD04940460FF0B9FECF49AC
:1034E000CF4804F0EAF8404605F0F6F848B3404605
:1034F00004F0E4FF28B307F1E00907F1D0000EF073
:1035000079F807F190050023C64A08F58B61484613
:1035100007F049FF2846C44908F010FD95E80F0060
:1035200006AE86E80F0007F1EC060FCE6D460FC51C
:1035300096E8030085E80300404699E80E0005F090
:1035400079F9404612F0F4FB00200EF0DBFD012378
:1035500023702378AF4E092B40F0FF824FF4936025
:1035600012F0DEFB96F8FC3996F8FE2996F8FD1964
:10357000054607F190090FF0BDFEAC4928460FF053
:1035800067FEAB4948460AF0DDF8A989013107F129
:10359000D00689B20A22A98130460AF0A2F8314643
:1035A00048460AF02EF8A3490AF01DF807F164080E
:1035B000014640460AF0BBF8414699480AF031F905
:1035C000404609F025FF304609F022FF484609F041
:1035D0001FFF994940460AF0B5F80A22298A484651
:1035E0000AF07FF8494640460AF00BF8934909F083
:1035F000FAFF0A228246698A30460AF072F831469A
:10360000504609F0FEFF8B4909F0EDFF014607F136
:1036100050000AF08CF807F1500181480AF001F9D6
:1036200007F1500009F0F4FE304609F0F1FE48467B
:1036300009F0EEFE404609F0EBFE814940460AF0F3
:1036400081F80A22E98948460AF04BF84946404683
:1036500009F0D7FF794909F0C6FF0A228246A98AF4
:1036600030460AF03EF83146504609F0CAFF71492B
:1036700009F0B9FF014607F150000AF058F807F1C8
:10368000500167480AF0CDF807F1500009F0C0FE7C
:10369000304609F0BDFE484609F0BAFE404609F042
:1036A000B7FEA87A07F080FAB0FA80F04009A87552
:1036B00064495B4804F001F8634A644BA97D5848AB
:1036C000002914BF1146194603F0F7FF604954481A
:1036D00003F0F3FF5F49524803F0EFFF6B6818688F
:1036E0000AF004FB002168680DF0AAF85A4907F1B6
:1036F0001C000AF027F80A22A98907F12C0009F01A
:10370000F0FF07F12C0107F11C0009F07AFF534983
:1037100009F069FF0A228246298A07F13C0009F074
:10372000E0FF07F13C01504609F06BFF4C4909F0FE
:103730005AFF0A228246698A07F1500009F0D1FF38
:1037400007F15001504609F05CFF464909F04BFF74
:103750000A228246E989404609F0C3FF41465046A5
:1037600009F04FFF3E4909F03EFF0A228246A98A2E
:10377000484609F0B6FF4946504609F042FF3A492B
:1037800009F031FF0A228246A97D304609F0A9FFDF
:103790003146504609F035FF014607F10C0009F0AB
:1037A000C6FF304609F034FE484609F031FE404677
:1037B00009F02EFE07F1500009F02AFE07F13C0047
:1037C00009F026FE07F12C0009F022FE07F11C008B
:1037D00009F01EFED5F804B007F10C014FF0000A05
:1037E000304609F0A4FF4FF6FF732D22514658468C
:1037F0008DE840040AF016FD304609F009FE1B4929
:10380000074803F05AFF1A49054803F056FF1949C3
:1038100032E000BFB0D0FF1F189501002A950100CB
:10382000E894FF1F40950100F775010034940100F2
:103830004A950100159101005C9501007295010007
:10384000769501008C9501000D95010012950100FF
:103850004E910100A29501004F950100F3950100E2
:10386000397B0100039601001596010024960100A2
:1038700072960100259601008D4803F01EFFAB7D76
:10388000002B00F09A8095F808B08A4930460EF077
:10389000BBFC3268594605F11C0004F025FE58B9FE
:1038A0008549834803F009FF012128680CF03BFC9F
:1038B000EB890133EB8184E00123EB757F497C4880
:1038C00003F0FBFE0A22A989404609F00AFF41469F
:1038D000484609F02CFF7A49484609F084FE794BA6
:1038E000834693F8001207F1500009F00DFF07F12D
:1038F0005001584609F085FE734909F074FE734B78
:10390000834693F8001207F13C0009F0FDFE07F131
:103910003C01584609F075FE0146304609F007FFA4
:103920003146634809F07DFF6949614803F0C5FEEF
:10393000304609F06DFD07F13C0009F069FD07F123
:10394000500009F065FD484609F062FD404609F067
:103950005FFD6049564803F0B0FE48460DF04AFE50
:10396000534605F58B615C4A07F1A00007F01BFD8B
:1039700007F1A00CBCE80F0007F1E00EAEE80F0065
:10398000BCE80F00AEE80F00DCF80030CEF80030E5
:1039900099F804303371D9F80830B36099F80C30D5
:1039A000337328464D4B3360524631460FF0D2FCFC
:1039B00007F1A00007F0F0FC03E049493C4803F0A0
:1039C00072FE48493A4803F078FE4749384803F008
:1039D00074FE4649364803F070FE687A08F052F9E2
:1039E00038B92B8A4249324801332B8203F065FEF5
:1039F0009EE040492E4803F060FE3F4B4FF0000B25
:103A0000A3F800B0002307F11C02402148461FFA2A
:103A10008BFAFB623B637B6387F8383008F030FA3F
:103A2000002873D06B8A3549214801336B8203F03B
:103A300044FE49461E4803F040FE31491C4803F04D
:103A40003CFEF9691A480CF0B3FB2E49184803F004
:103A500034FE494607F13C0008F070FA494630460A
:103A600009F070FE314607F12C0009F05FFD304689
:103A700009F0CEFC2B7E0BB1032B0ED1FB6B002B80
:103A800041F0258020490A4803F017FE01212868EB
:103A90000CF049FB2B8A01332B820D49044803F0BB
:103AA0000CFE07F12C0009F0B3FC0BF1010BA9E7A8
:103AB000E894FF1F80F0FA028B960100B596010092
:103AC000D59601003000FE43DD9601003400FE4330
:103AD0004E910100ED790100397B010064AF0100D6
:103AE000E396010024960100FD9601002596010051
:103AF0001897010044970100C0CEFF1F097B010009
:103B00006697010069970100D69B0100BAF1000F8A
:103B10000AD12B8AC849C94801332B8203F0CDFD55
:103B2000012128680CF0FFFA07F12C0009F070FC65
:103B3000C349C24803F0C1FD0122C249286803F00D
:103B4000A4FA07F10C0009F063FC284612F0F0F823
:103B500000200EF0D7FA012323702378BA4E0A2BE7
:103B600040F0BF814FF4936012F0DAF896F8FC3918
:103B700096F8FE2996F8FD1905460FF0BBFBB349F0
:103B800028460FF065FB2846B14904F031FC284671
:103B900004F094FC002800F09C81284604F0A2FA6E
:103BA000AC498046284604F023FC284604F03EFC3D
:103BB0002846A94904F01CFC284604F08DFD30B3CA
:103BC00007F190000AF06DF8A44907F198000AF097
:103BD00071F8002607F1D0000AF063F807F19801A8
:103BE00007F1D8000AF020F860B197F8D83013F048
:103BF000700FEFD1D7F8F43007F1D8001E4407F06A
:103C0000CBFBE7E707F1980007F0C6FB00E00646AC
:103C100093498A4803F051FD9249884803F04DFDCD
:103C2000314686480CF0C4FA8F49844803F045FDBC
:103C3000414682480CF0BCFA8C49804803F03DFDB7
:103C4000B04501D88A4941E18A497C4803F035FDF5
:103C50002846894904F0CCFB284604F03DFD0028A5
:103C600000F0378107F164000AF01BF87B4907F187
:103C70006C000AF01FF807F190000AF012F807F143
:103C80006C0107F1980009F0CFFF0646002800F00C
:103C9000A88097F8983013F0700FECD107F13C0131
:103CA00007F1980005F059F9FF2207F1D00107F15B
:103CB000980007F00EF907F13C0010F009FD07F13C
:103CC000D0026E49104613F097FB07F13C026C4995
:103CD00007F1500013F090FB07F1500210466949BC
:103CE00013F08AFB07F1D0015448D7F8B46003F011
:103CF000E4FC6549514803F0E0FC07F150014F48EE
:103D000003F0DBFC61494D4803F0D7FC31464B48DA
:103D10000CF04EFA5E49494803F0CFFC052006F04E
:103D2000FBFE07F13C0107F12C0009F00BFD59499E
:103D300007F12C0009F0D2FB804607F12C0009F0B6
:103D400067FBB8F1000F0DD053493C4803F0B5FCB8
:103D5000524B1B7813F0100F14BF4FF480224FF416
:103D6000803204E04E49354803F0A7FC4246314614
:103D700007F13C0008F060F930B307F13C0107F1AE
:103D80002C0008F0DBF8FB6A002B00F03F874FF0B7
:103D9000000846451CD9EB46C0B00DF1280A4FF487
:103DA0008072514607F1980006F068FF1FFA80F90B
:103DB0004A46514607F12C0003F050F9052006F061
:103DC000ABFEC844DD46E4E736491C4803F075FC09
:103DD00007F1980007F0E0FA2449184803F06DFC59
:103DE00049E707F16C0007F0D7FA2F49134803F0B1
:103DF00064FC2E49284604F0FBFA2D4B1E8007F187
:103E00009002142107F1D00008F03AF8002855D0AC
:103E100007F1D001094803F050FC2649074803F098
:103E20004CFCD7F8901005480CF0C2F92249034821
:103E300003F043FCE3E700BF95970100E894FF1F00
:103E4000C49701000F980100B0D0FF1F199801001E
:103E5000299A01000494010055980100397B010062
:103E6000729801008E9801009D9801004E9101000A
:103E7000AD980100CC980100ED980100099901006E
:103E80000F990100149901000A7B01008999010032
:103E90001A990100F775010025990100C49CFF1FC4
:103EA00037990100469901005E990100739901005C
:103EB000C0CEFF1F889901008B99010076492846E2
:103EC00004F096FA284604F05DFD7449744803F046
:103ED000F4FB284611F02CFF00200EF013F901230B
:103EE000237023786F4D1F2B40F007814FF49360B0
:103EF00011F016FF95F8FC3995F8FE2995F8FD1993
:103F000006460FF0F7F9684930460FF0A1F9304640
:103F1000664904F06DFA304604F0D0FA002800F04B
:103F2000E480304604F0DEF86149304604F060FA7F
:103F3000304604F07BFA30465E4904F059FA3046C8
:103F400004F0CAFB002800F0D080304604F0B6FA36
:103F5000002800F0CA8007F1D00009F0A2FE5649FF
:103F600007F1D80009F0A6FE08B95449BAE054494F
:103F70004B48D7F8F48003F0A0FB97F8DB3000251E
:103F800087F8905087F891506BB907F1640107F1F9
:103F9000D80004F0E2FF002865D007F16401404832
:103FA00005F000FD5FE007F1D80107F1900006F091
:103FB0007AFF002854D04FF0010A97F8DB305345C0
:103FC0004ED3B7F8DC10CAEB0101490107F19000AC
:103FD00006F00BFE002843D0002107F1900006F008
:103FE0002DFF834600283BD0C37A0F2B38D10378AE
:103FF00003F01F039A4533D14FF00009B9F1040FC4
:104000005FFA89F304D80BEB4902537890780EE0FD
:104010000A2B95BF09F1FF3209F101020BEB4202B5
:104020000BEB420299BF9379D0791379507943EA27
:10403000002060B17F2828BF3F20C0B209F10109EC
:104040000EF054F8B9F10D0F05F10105D6D19BF82A
:1040500000305B0606D40AF1010A5FFA8AFAACE77F
:10406000002000E0284601460D480CF0A1F8154953
:104070000B4803F022FBD7F8F41009480CF098F82D
:104080001149074803F019FB002241460A4807F08E
:10409000D3FFE8B90D4925E094990100B0990100DA
:1040A000E894FF1FB0D0FF1FF9930100299A010087
:1040B00004940100CC990100189A0100D8990100DC
:1040C0006C7901003A7801004E910100EC990100F1
:1040D000584907F1640007F031FF7B6E002B40F078
:1040E000BB855549554803F0E8FA304611F020FEEB
:1040F00000200EF007F8012323702378504E202B68
:1041000029D14FF4936011F00BFE96F8FC3996F824
:10411000FE2996F8FD1905460FF0ECF849492846A6
:104120000FF096F8284604F0C9F94749284604F0EC
:104130005FF9284603F0D6FF4449284604F058F9B1
:10414000284604F073F9284611F0F2FD00200DF026
:10415000D9FF012333702378394D0C2B23D1D5F8A7
:10416000E80909F0C3FD4FF4936011F0D9FD95F80B
:10417000FC3995F8FE2995F8FD1906460FF0BAF8B6
:10418000334930460FF064F83249304604F030F9D4
:10419000304604F0F7FB304611F0CAFD00200DF068
:1041A000B1FF01232B702378254E172B22D14FF41A
:1041B000936011F0B5FD96F8FC3996F8FE2996F853
:1041C000FD1905460FF096F8234928460FF040F8F0
:1041D0002249284604F00CF9284604F06FF92846D5
:1041E00003F080FF284611F0A3FD00200DF08AFFA8
:1041F0000123337023781A2B40D1114B0121D3F8BE
:10420000F80903F095FA94F8193A0D4D53BB0DF0E7
:1042100003FE28B10DF0BCFE0146114802F061FB1F
:1042200006F052FB0028EED006F01AFBC0B20DF0EB
:104230005DFFE8E7189A0100219C0100E894FF1F48
:10424000B0D0FF1F04940100219A0100379A0100A9
:104250004198010094990100299A0100459A0100B2
:10426000DC95FF1F0021D5F8F80903F061FA002062
:1042700085F8190A0DF046FF01232B7023789D4D18
:10428000012B0DD1D5F8E80909F030FD002105F624
:10429000E8100CF0D5FAE86808F02EFB02232B702A
:1042A0002378944D062B39D1D5F81C6A09F07AFC95
:1042B000864233D009F08AFC064609F07DFC804630
:1042C00009F070FC814609F063FC824609F056FC57
:1042D000834609F047FC3246434607F190060390B7
:1042E00085498DE8000E07F1D00013F085F807F13D
:1042F000D001304609F026FA01233722002101932C
:1043000005F6E8104FF6E073009609F08BFF304693
:1043100009F07EF809F046FCC5F81C0A2378754DB3
:10432000032B2CD195F8183A4BBB382011F0F8FC30
:104330000121064602F04EFEC5F8F0696F4907F10B
:10434000D00009F0FFF9D5F8F01901234A7C097C67
:1043500007F1D00000F0B6FE07F1D00009F058F8E0
:10436000D5F8F0592DB1284603F0E1F8284611F0B0
:10437000DFFC00200DF0C6FE012384F8183A2378F4
:104380005C4D122B2CD195F8186A4EBB382011F0D9
:10439000C7FC0121804602F01DFEC5F8F08958498E
:1043A00007F1D00009F0CEF9D5F8F01933464A7C70
:1043B000097C07F1D00000F085FE07F1D00009F07C
:1043C00027F8D5F8F0592DB1284603F0B0F8284663
:1043D00011F0AEFC00200DF095FE012384F8183A90
:1043E0002378444E0D2B40F0F08096F818BABBF1BC
:1043F000000F40F0EA80382011F092FC05460121C0
:1044000002F0E8FDD6F8D080C6F8F05995F8109083
:1044100095F811A03B4907F1D005284609F092F91B
:10442000294640460CF026F8284608F0F1FFD6F859
:10443000CC3086F8D7B0186809F058FC08F094F82A
:10444000804600283DD1D6F8CC0057210CF0F8F971
:10445000D6F8CC902C49284609F074F929464846EC
:1044600003F03EF9284608F0D3FF4FF6FF724146AD
:10447000D6F8CC0003F040FAD6F8CC902349284671
:1044800009F060F94FF478430A22414648468DE826
:10449000200109F0C7FE284608F0BAFFD6F8D090F0
:1044A0001B49284609F04EF9294648460BF0E2FF21
:1044B000284608F0ADFF4146D6F8C8000BF033FEA1
:1044C00074E00F49284609F03DF95B4652464946DB
:1044D000284600F0F7FD8346284608F099FF96F835
:1044E000D73003F0FF08002B60D1BBF1000F40F084
:1044F0002E845BE0B0D0FF1F589A01007A9A010029
:10450000F7750100899A01008A990100AA9A0100B1
:10451000A09A010008F028F8061C4FF4FA7018BFA2
:10452000012606F0F9FA002E40F03C84D4F8CC8045
:10453000DB49284609F006F901233C223146019364
:1045400040464FF4FC63009509F06CFE284608F0E5
:104550005FFFD4F8D060D349284609F0F3F8294624
:1045600030460BF087FF284608F052FF07F0FCFFAB
:10457000061C18BF0126002E00F02A8494F8D720CC
:1045800002F0FF0692B9C84BD3F8CC30186809F096
:10459000ADFBC649284609F0D5F8284633465246B1
:1045A000494601F027FC284608F032FFD4F8F059BC
:1045B0002DB1284602F0BBFF284611F0B9FB0020C0
:1045C0000DF0A0FD012384F8183A2378B64D132B83
:1045D0002CD195F8186A4EBB382011F0A1FB0121AF
:1045E000804602F0F7FCC5F8F089B04907F1D00029
:1045F00009F0A8F8D5F8F01933464A7C097C07F190
:10460000D00001F0F7FB07F1D00008F001FFD5F86A
:10461000F0592DB1284602F08AFF284611F088FB98
:1046200000200DF06FFD012384F8183A23789E4E88
:10463000042B40F0EE8096F8188AB8F1000F40F095
:10464000E880382011F06CFB0546012102F0C2FC25
:104650006B7CD6F8D090C6F8F05907F1D005944994
:104660007B60284609F06EF8294648460BF002FFA9
:10467000284608F0CDFED6F8CC9086F8D7808D4934
:10468000284609F05FF82946484603F029F82846ED
:1046900008F0BEFE4FF6FF724146D6F8CC0003F09C
:1046A0002BF9D6F8D0808449284609F04BF82946E2
:1046B00040460BF0DFFE284608F0AAFE07F054FF44
:1046C000804620BBD6F8CC907C49284609F03AF8C1
:1046D0004FF478430A22414648468DE8200109F00C
:1046E000A1FD284608F094FED6F8D09074492846DB
:1046F00009F028F8294648460BF0BCFE284608F089
:1047000087FE4146D6F8C8000BF00DFD72E007F1B8
:10471000640008F02BF8D6F8CC8007F16401284635
:1047200009F005F82946404602F0DAFF284608F06D
:104730006FFED6F8CC301E68B6F906B0BBF1000F9C
:1047400006DDB6F90830552B02DD72E30DF0E2FC10
:104750005C49D4F8D060284608F0F4FF07F1640102
:10476000284608F04EFF014607F1900008F0DFFFF1
:1047700007F1900130460BF07DFE07F1900008F044
:1047800047FE284608F044FE002694F8D730DFF8AC
:1047900018A103F0FF085FFA86F91BB148460CF038
:1047A00003F823E043467A68414648460BF08AFE08
:1047B000012007F067FE01365522062148460EF01B
:1047C000A7FCA02EE1D142463F49DAF8C80002F02A
:1047D0005CFCDAF8D0603D49284608F0B3FF30466B
:1047E00029460BF047FE284608F012FE07F1640048
:1047F00008F00EFED4F8F0592DB1284602F097FECD
:10480000284611F095FA00200DF07CFC012384F875
:10481000183A2378244D182B40F0B28095F8189A56
:10482000B9F1000F40F0AC80D5F8D060284907F10D
:10483000D008404608F086FF414630460BF01AFE8D
:10484000404608F0E5FD85F8D79007F08DFE064656
:1048500000283FD1D5F8CC901849404608F072FFA7
:104860004FF478433246314648460196CDF80080F1
:1048700009F0D8FC404608F0CBFDD5F8D09010499F
:10488000404608F05FFF414648460BF0F3FD4046C6
:1048900008F0BEFD3146D5F8C8000BF044FC69E0D5
:1048A000D19A0100EB9A0100B0D0FF1FF77501000B
:1048B000239B01008A9901003A9B0100AA9A0100FA
:1048C000A09A0100449B01000F980100519B010038
:1048D000699B0100CF4D94F8D730DFF844A303F073
:1048E000FF061BB1FF200BF05FFF43E0484607F0D7
:1048F00083FE5FFA89FB01231A46314658460BF0C6
:10490000E1FD013008D0012007F0BCFD3246022154
:1049100058460EF0FDFB15E03146DAF8C8000BF002
:1049200002FCDAF8CC301E68B6F906200FFA89F3DB
:104930009A4207DDB6F908B0BBF1000F02DD2DE3A6
:104940000DF0E8FB09F10109B9F1A00FC3D1002274
:10495000B149D4F8C80002F098FBD4F8D050AF4960
:10496000404608F0EFFE284641460BF083FD4046E6
:1049700008F04EFD00200DF0C5FB012384F8183A25
:104980002378A74D192B2CD195F8186A4EBB3820E7
:1049900011F0C6F90121804602F01CFBC5F8F08930
:1049A000A04907F1D00008F0CDFED5F8F019334644
:1049B0004A7C097C07F1D00001F01CFA07F1D00015
:1049C00008F026FDD5F8F0592DB1284602F0AFFDCC
:1049D000284611F0ADF900200DF094FB012384F876
:1049E000183A23788E4D0E2B0CD195F8186A4EB9D3
:1049F000D5F8E80909F07AF930460DF09BFE01235D
:104A000085F8183A2378DFF81882072B57D198F8E1
:104A1000186A002E53D107F1D005D8F8E80909F03B
:104A200065F98149284608F08DFE4FF6FF7337225D
:104A3000314608F6E8108DE8600009F0F3FB2846DF
:104A400008F0E6FC794907F1900008F07BFE784910
:104A500007F1640008F076FE07F1640107F19000A9
:104A600008F0CFFD0146284608F061FE4FF4FC63D4
:104A70004122314608F6E8108DE8600009F0D2FBCB
:104A8000284608F0C5FC07F1640008F0C1FC07F1F6
:104A9000900008F0BDFC6749284608F053FE4FF629
:104AA000E0734B22314608F6E8108DE8600009F00B
:104AB000B9FB284608F0ACFC012388F8183A2378A3
:104AC000022B40F0F28200200DF01CFBEDE206F01C
:104AD00005F8D7F81CA07860BAF1000F10D0BAF52D
:104AE000807F534628BF4FF480731A46314607F142
:104AF0003C003B6004F064FF3B68C3EB0A0AEBE751
:104B000005F0ECFF4C4938604C4802F0D6FD7A685D
:104B10003B684A489B1A19467B600BF049FB4849A1
:104B2000464802F0CAFD7B68184612F0D3F9786057
:104B3000F86912F0CFF9434912F024FA796812F0BB
:104B4000D5FA11F0C5FD0223024600933B480B46FF
:104B50000EF04EFD3C49394802F0AFFD07F12C0143
:104B6000404608F0E4FD3949404608F03CFD386015
:104B7000F86912F0AFF9334912F004FA796812F0CB
:104B8000B5FA014607F150000CF08CFB3B6807F1C9
:104B90005001184608F035FD2B4908F024FD014668
:104BA00007F12C0008F097FD07F1500008F030FCE9
:104BB000404608F02DFC6B6825497B60404608F0B4
:104BC000C1FD01230193CDF800805A2251464FF4D4
:104BD0007843786809F026FB404608F019FC6B68BA
:104BE0007B6007F12C01404608F0A1FD01230193F1
:104BF000CDF8008078684FF4FC636422514609F0D8
:104C000011FB404608F004FCFEF747BF1149FFF7CF
:104C1000DCB800BF00C002400F9801007D9B01007E
:104C2000B0D0FF1F9A9B0100A49B0100027B0100F2
:104C300090900100BC9B010070970100E894FF1F59
:104C40007B97010000007A44899701006697010074
:104C50000A940100FB9B0100C049C14802F02DFDF0
:104C60004FF48071BE480BF0A3FABE49BC4802F075
:104C700024FD4FF00009C84520D9EA46C0B00AAD6E
:104C80004FF48072294607F1D80005F0F7FF1FFAAC
:104C900080FB5A46294607F1640002F0DFF9D94447
:104CA000AB445D4505D015F8011BAD480EF091FCF5
:104CB000F7E7022005F030FFD546DCE707F1D80022
:104CC00006F06AFB4FF47A7005F026FFA6493046DD
:104CD00003F08EFBA54907F1900007F02FF9D7F8F4
:104CE00090307BB3A2499E4802F0E7FCA1499C4862
:104CF00002F0E3FCD7F8941099480BF059FA99495F
:104D0000974802F0DAFC4FF0000AD7F89430534588
:104D10007FF6EBA9E946C0B00AAD4FF48072294690
:104D200007F1900004F04CFE80B2824405EB0008CD
:104D3000454505D015F8011B89480EF04AFCF7E7F8
:104D4000CD46E2E78C49864802F0B7FCCAE7D6F8C0
:104D5000CC30186808F0CAFFD6F8CCB0874928468E
:104D600008F0F0FC4FF6E0733C22414658468DE8CF
:104D7000200109F057FA284608F04AFBD6F8D0601F
:104D80007F49284608F0DEFC294630460BF072FBCE
:104D9000284608F03DFB07F0E7FB061C18BF01267C
:104DA000FFF7C1BB94F8D730002B3FF4B3AB754B82
:104DB0007549D3F8CC60284608F0C4FC0021019165
:104DC00000954FF478434622304609F02BFA20E054
:104DD00094F8D730DFF8AC8103B3D8F8CCB06A4987
:104DE000284608F0AFFC31464FF4784346228DE860
:104DF0006000584609F016FA284608F009FBD8F872
:104E0000D0606249284608F09DFC294630460BF0E8
:104E100031FB284608F0FCFAFFF7B0BB07F0A4FB13
:104E2000061C40F6B83018BF012605F075FEFFF7E6
:104E3000A2BB574BDFF8609118680DF0A9F996F8FE
:104E40003720544B13F8128003EB420393F801A070
:104E500096F842301B0443F0004343F02A03C9F89C
:104E6000343006F0F3FB96F8413048EA034343F050
:104E70001043C9F83430D84406F0E8FB08F1FF339A
:104E80001FFA83F896F8413048EA034343F0104391
:104E9000C9F8343006F0DAFB96F842301B0443F0D0
:104EA000004343F02B03C9F8343006F0CFFB96F8EB
:104EB00041300AF1550A4AEA034343F01043C9F866
:104EC000343006F0C3FB96F841304AEA034A4AF010
:104ED0001043C9F8343006F0B9FB96F842301B0491
:104EE00043F0004343F02C03C9F8343006F0AEFB26
:104EF00096F84130DFF8A0801B0443F0104343F4E0
:104F0000FC63C9F834300BF1FF3B06F09FFB1FFA3E
:104F10008BF30FFA83FB002BEAD196F84230D8F8D6
:104F200000101B0443F00063C8F834304046D8F842
:104F30002C20194B12F0805F04D112F0F00FF6D044
:104F4000836BF4E74FF08052DA6219601A46D96A2F
:104F500011F0F00F3FF4FAAB916BF8E7389C0100C9
:104F6000E894FF1F4E910100079A0100189A010072
:104F7000129A01003A780100219C0100469C010030
:104F80005D9C0100B0D0FF1FBB9A01000F9B010088
:104F90009CCFFF1F44A7010000C00240454B18688A
:104FA0000DF0F6F896F83720434B13F812A003EBF8
:104FB0004203CA445B787B6096F842301B0443F09E
:104FC000004343F02A036B6306F040FB96F8413040
:104FD0001FFA8AFA4AEA034343F010436B6306F070
:104FE00035FB96F841304AEA034A4AF010436B63B6
:104FF00006F02CFB96F842301B0443F0004343F0CC
:105000002B036B6306F022FB7A6896F8413042EA84
:10501000034343F010436B6306F018FB7B6896F87C
:1050200041205B44013B9BB243EA024343F01043FF
:105030006B6306F00BFB96F842301B0443F0004311
:1050400043F02C036B6306F001FB96F841201B4BE9
:10505000120413436B630BF1FF3B06F0F7FA1FFAE0
:105060008BF30FFA83FB002BEFD1154B144A196811
:1050700096F842301B0443F000635363EB6A104A16
:1050800013F0805F05D113F0F00FF7D013469B6B40
:10509000F4E70B484FF08053C3620160D36A13F00A
:1050A000F00F3FF44DACAB6BF8E707F5EA77BD4680
:1050B000BDE8F08F9CCFFF1F44A701001FF80090B0
:1050C00000C002402DE9F04F8C4FADF54F7D4EAC46
:1050D000D7F8D05006900B91204689490A929A46FB
:1050E00008F030FB214628460BF0C4F94FF00008C9
:1050F000204608F08DF95721D7F8CC0087F8D780E3
:105100000BF09EFBD7F8CC507E49204608F01AFBE6
:105110002146284602F0E4FA204608F079F94FF6D5
:10512000FF724146D7F8CC0002F0E6FBD7F8D0502A
:105130007549204608F006FB214628460BF09AF9EF
:10514000204608F065F907F00FFA3D46064628BBF1
:10515000D7F8CC506D49204608F0F4FA4FF4784364
:105160000A22314628468DE8500009F05BF82046B7
:1051700008F04EF9D7F8D0506549204608F0E2FA19
:10518000214628460BF076F9204608F041F93146D1
:10519000D7F8C8000AF0C7FF00F00EBE0DA807F050
:1051A000E5FAD7F8CC600DA9204608F0C0FA2146F0
:1051B000304602F095FA204608F02AF95549D7F80A
:1051C000D06041A808F0BEFA0DA941A808F019FA6C
:1051D0000146204608F0ABFA214630460BF04AF96A
:1051E000204608F015F941A808F012F934A80CF08F
:1051F00001FA41A80CF0FEF91022414611A80EF068
:1052000027FCBAF1010F40F0788297F8D460424948
:1052100020460CF0F9FF3146226807F1D80003F070
:1052200063F9064620BBD7F8CC503C49204608F02D
:1052300089FA4FF478430A22314628468DE8500017
:1052400008F0F0FF204608F0E3F8D7F8D0503449D2
:10525000204608F077FA214628460BF00BF9204645
:1052600008F0D6F83146D7F8C8000AF05CFF9AE398
:10527000DFF8B08007F21450414602F009FF2BAE70
:10528000002856D195F8143530700CAF13F0700F1C
:105290007070C7F80080207060704AD005F2145911
:1052A000B0463A4625A9386804F0B6F8002840D040
:1052B0003B681B78C3B3002325AA4946404603F048
:1052C00088FE90B1C446BCE80F00A646AEE80F00C9
:1052D000BCE80F00AEE80F00DCF80030CEF800307C
:1052E000404606F059F8A146DBE725AA4946404664
:1052F00006F0E8F80028E5D11BE000BFB0D0FF1FA2
:10530000739C01008A9901003A9B0100AA9A01004E
:10531000A09A0100449B010080F0FA02939C0100D6
:10532000899C0100A29C010025AA4946404606F03E
:10533000C9F808F017FC074608F020FC804608F082
:1053400027FC814608F042FC834608F035FC3A46CB
:105350004346029099499A4F8DE8000A304612F070
:105360004BF8314625A808F0EDF925A9204608F0AC
:10537000DEF99449204608F036F90DA908F041F904
:10538000914908F030F9014615A808F0D0F92046F7
:1053900008F03EF825A808F03BF88C49204608F0B4
:1053A000D1F98B4925A808F0CDF925A9204608F0A8
:1053B00028F9864908F017F915A908F022F90146DD
:1053C00019A808F0B4F925A808F022F8204608F03A
:1053D0001FF819997F48002908BF394602F058FE86
:1053E00028B11998002808BF38460DF01CFE314638
:1053F00025A808F0A7F925A9204608F098F97149D1
:105400006F4E204608F0EFF80DA908F0FAF872493F
:1054100008F0E9F801461DA808F089F9204607F0D0
:10542000F7FF25A807F0F4FF6849204608F08AF93D
:10543000674925A808F086F925A9204608F0E1F873
:10544000624908F0D0F81DA908F0DBF801461DA854
:1054500008F041F925A807F0DBFF204607F0D8FF48
:105460001D995C48002908BF314602F011FE28B1A1
:105470001D98002808BF30460DF0D5FD504F199EED
:10548000DFF86C81554BC8F80030002E08BF3E464F
:1054900020460CF0AFF8324644F202234D4952A8A0
:1054A00005F081FF0DF5A47EBEE80F0038AE0FC6F3
:1054B000BEE80F000FC6DEF80030336023791D9E72
:1054C0008DF8D430A3683693002E08BF3E46237B68
:1054D0008DF8DC3020460CF08DF8324644F2022381
:1054E0003C4952A852AE05F05EFF0FCE45AF0FC744
:1054F0000FCE0FC733683B6023798DF808319DF8D4
:10550000E070A36843930026237B8DF81031C8F820
:105510000060DFB938A805F03FFF45A805F03CFF63
:10552000D5F8CC602E49204608F00CF939463046B3
:105530004FF478430A228DE8900008F073FE20466D
:1055400007F066FFD5F8D06026491EE09DF814717B
:10555000002F4FD138A805F01FFF45A805F01CFF0C
:10556000D5F8CC602049204608F0ECF839463046A2
:105570004FF478430A228DE8900008F053FE20464D
:1055800007F046FFD5F8D0601849204608F0DAF851
:10559000214630460AF06EFF204607F039FF3946B3
:1055A000D5F8C8000AF0BFFD1DA807F031FF19A803
:1055B00007F02EFF15A807F02BFFF4E1B29C0100C5
:1055C00048AE01000A7B0100C89C0100397B010044
:1055D000A29C0100C4D5FF1FCD9C0100A17F00004B
:1055E000DC9C0100D29C0100FE9C0100F49C0100A7
:1055F000C09CFF1FC24941A802F055F8C14920468E
:1056000008F0A0F80DA9204607F0FBFFBE4907F0FF
:10561000EAFF014641A80DF069FB204607F0F8FEBD
:1056200008F0A0FA074608F0A9FA804608F0B0FA98
:10563000814608F0CBFA059008F0BEFA834608F0E0
:10564000B1FA059B03903A460193CDF808B0434662
:10565000CDF80090AD492BA811F0CEFEAC49204604
:1056600008F070F82BA925A808F06CF825A92046A9
:1056700007F0C7FFA44907F0B6FF014641A80DF0A7
:1056800035FB25A807F0C4FE204607F0C1FEA1495E
:1056900041A802F008F8A04925A808F053F808F03E
:1056A00019FA0A2221462196229623968DF89060B7
:1056B00009F0D6FF214621A807F0D8FF21A925A887
:1056C00007F09FFF954907F08EFF014641A80DF0B6
:1056D0000DFB21A807F09CFE25A807F099FE904934
:1056E00041A801F0E0FF1DA807F092FE19A807F0FD
:1056F0008FFE15A807F08CFE2CE1BAF1000F40F0E8
:10570000298197F8D50006F0BDFA064610BBD7F8F8
:10571000CC508449204608F015F84FF478430A220B
:10572000314628468DE8500008F07CFD204607F001
:105730006FFED7F8D0507C49204608F003F8214688
:1057400028460AF097FE204607F062FE3146D7F859
:10575000C8002EE3069B1968744B2046002908BF39
:10576000194606F0EBFB94E80F0011AE07C670492E
:1057700033802046D7F8CC6007F0E4FF01230A22EB
:1057800051463046019300944FF47C4308F04AFDA3
:10579000204607F03DFED7F8D0606649204607F066
:1057A000D1FF30462146644E0AF064FE204607F0E1
:1057B0002FFE3379119A13F0100F0CBF4FF4803382
:1057C0004FF480230593013B134245D1129A1342B3
:1057D00042D1D046129B43453ED9119F737996F82A
:1057E00004B047440BB109F091F9544920460CF03C
:1057F0000BFD20680CF0CCFC4F4BD3F80890012334
:1058000089F80031062007930CF0A4FC079B89F867
:1058100080302022013AFDD11BF0010F89F80031C0
:105820004FEA174BBFB204D0D8200CF093FC584677
:1058300003E05FFA8BF040F458400CF099FC3846D6
:105840000CF096FC012389F880300CF063FC0223F5
:105850007371059B9844BDE706F098FA0028FBD0C9
:10586000D5F8CC603649204607F06CFF214630461B
:105870000DF0D6FB204607F0CBFDD5F8D0603149BE
:10588000204607F05FFF214630460AF0F3FD204630
:1058900007F0BEFD069B1968244B2046002908BF6F
:1058A000194606F04BFB94E80F0011AE07C6338093
:1058B000119E002E4CD1D5F8CC702349204607F01C
:1058C00041FF01230A2231463846019300944FF4E8
:1058D000784308F0A7FC204607F09AFDD5F8D07071
:1058E0001A49204607F02EFF214638460AF0C2FD2D
:1058F000204607F08DFD3146D5F8C80059E200BFBB
:10590000169D0100189D01006A9D0100259D010062
:10591000439D01004E9D01006D9D01006B9D0100A6
:105920007C9D0100939D0100899D010048AE01000E
:10593000AC9D0100BD9D0100C09CFF1F80F0FA02DC
:10594000F59D0100D99D0100C29E0100B89E010095
:1059500000231393D5F8D040B649DFF814B34EA80E
:1059600007F0F0FE20464EA900250AF083FD4EA860
:1059700007F04EFD2E4605950695A9462C469BF848
:10598000D720E1B202F0FF03079172B108460AF096
:105990000BFFA94941A801F086FE45A805F0FCFCD3
:1059A00038A805F0F9FC0026FFE10A9A0798194685
:1059B0000AF088FDA14BA24A1B68D35C1BB1994435
:1059C000069B0133069340B1721C03D0431C14BFE5
:1059D00036180646059B01330593BAF1010F40F0D6
:1059E000868004F00103974F08934FF00008B8F148
:1059F000000F09D144B94FF0FF3339461DA81D935C
:105A00000DF036FA054607E039461DA80DF030FACC
:105A10000546B8F1000F05D1089B1BB94FF0FF33C5
:105A2000ADF86430394619A80DF06AF908F101089B
:105A3000B8F10B0F099007F50777D8D1089B002B19
:105A400055D0671E7F1080494EA807F07BFEF9B243
:105A50002BA807F059FE2BA94EA807F0D2FD7B49D1
:105A600007F0C1FD014641A807F0DBFE2BA807F0B7
:105A7000CFFC4EA807F0CCFC00231022099941A8C6
:105A800007F073FE72494EA807F05CFE0A22314609
:105A90002BA807F026FE2BA94EA807F0B2FD6D49F2
:105AA00007F0A1FD0A220646494625A807F019FE7F
:105AB00025A9304607F0A5FD674907F094FD01468A
:105AC00041A807F0AEFE25A807F0A2FC2BA807F01E
:105AD0009FFC4EA807F09CFC604B614941A84F2FEA
