:1000000000800020BD0100004DC9000019C900009A
:1000100019C9000019C9000019C9000019C9000058
:1000200019C9000019C9000019C900004DC9000014
:100030004DC9000019C90000DDDC0000A1DD000091
:100040004DC900004DC900004DC900004DC9000058
:100050004DC900004DC900004DC900004DC9000048
:100060004DC900004DC900004DC900004DC9000038
:100070004DC900004DC900004DC900004DC9000028
:100080004DC900004DC900004DC900004DC9000018
:100090004DC900004DC900004DC900004DC9000008
:1000A00009C3000015C300004DC900004DC9000080
:1000B0004DC900004DC900004DC900004DC90000E8
:1000C0004DC900004DC900004DC900004DC90000D8
:1000D0004DC900004DC900004DC900004DC90000C8
:1000E0004DC900004DC900004DC900004DC90000B8
:1000F0004DC90000F1E900004DC900000DEB000002
:100100004DC9000029EC00004DC900004DC9000098
:100110004DC900004DC900004DC900004DC9000087
:100120004DC900004DC900004DC900004DC9000077
:100130004DC900004DC90000210E00004DC900004E
:100140004DC900004DC900004DC900004DC9000057
:1001500089DE00009DDE0000B1DE0000C5DE00008B
:100160004DC90000B5CE00004DC900004DC90000CA
:100170004DC900004DC900004DC900004DC9000027
:100180004DC900004DC900004DC900004DC9000017
:100190004DC900004DC900004DC900004DC9000007
:1001A0004DC900004DC900004DC900004DC90000F7
:1001B0004DC900004DC900003DDB0000564B4CF21C
:1001C000205210B51A804DF628121A8000BF00BFC9
:1001D0000CF0C0FB514B4FF010621A60504A9A600D
:1001E000504ADA60504A136813F4807301BF4F49D4
:1001F0000B604FF4A85313604D4B4E491A7810070B
:1002000042BF1A7842F008021A704B4B2A221A7029
:100210004A4A4B4B8B4204D252F8040F43F8040B6A
:10022000F8E7484B484A0021934202D243F8041BA6
:10023000FAE7464A4648002350F8231042F82310B4
:1002400001336F2BF8D1434B434A802103F8011B44
:100250009342FBD1414B3D4A1A60414B8A221A70AE
:10026000A3F5805324225A70A0221A709A7991071C
:10027000FCD59A79D206FCD43A4A937903F00C0360
:10028000082B384BF9D103221A7140225A719A79FE
:100290009406FCD533498A79324B5006FBD5324A55
:1002A000324911600221516020221A709A7902F0BD
:1002B0000C020C2AFAD12E4B2E4A1A602E4B2F4AD2
:1002C0001A6000225A60072243F8042C2C4AC3F813
:1002D0000C2D62B60CF0D2FC144B1B68DA0705D566
:1002E00028480CF0AFFB284B284A1A60284B1B7893
:1002F0005B0609D5244C254B22689A4204D121483B
:100300000CF0A0FB002323600FF020FD0CF028FB75
:100310000EF0A0F9FEE700BF0E200540308004403B
:10032000823F04000100002B10D0034014D0034092
:1003300002D007400099FF1F00E00740504B01002A
:100340001C93FF1F0099FF1F90D6FF1F008EFF1FF9
:100350000000000000E400E05FE400E008ED00E0E1
:100360000050064000400640448004400000030165
:1003700004800440C010050014E000E0FF76010096
:10038000000020205292815C1CE00340A5C3945AD7
:1003900000F00740FFFFFFFFFFFFFFFFFFFFFFFF32
:1003A000FFFFFFFFFFFFFFFFFFFFFFFFFFFFFFFF5D
:1003B000FFFFFFFFFFFFFFFFFFFFFFFFFFFFFFFF4D
:1003C000FFFFFFFFFFFFFFFFFFFFFFFFFFFFFFFF3D
:1003D000FFFFFFFFFFFFFFFFFFFFFFFFFFFFFFFF2D
:1003E000FFFFFFFFFFFFFFFFFFFFFFFFFFFFFFFF1D
:1003F000FFFFFFFFFFFFFFFFFFFFFFFFFFFFFFFF0D
:10040000FFFFFFFFFFFFFFFFFFFFFFFFDEF9FFFF23
:1004100010B5054C237833B9044B13B10448AFF33E
:1004200000800123237010BD0099FF1F0000000011
:10043000544B0100084B10B51BB108490848AFF3F5
:1004400000800848036803B910BD074B002BFBD0A0
:10045000BDE81040184700BF000000000499FF1FCE
:10046000544B01000099FF1F00000000820738B5BF
:1004700005460C4604D5A30702D5114806F08BFEAD
:10048000E80704D5E10702D50D4806F0AEFEEA06FE
:1004900004D5E30602D50A4806F080FF680704D5B4
:1004A000610702D5064806F0CBFE2A0706D52307CA
:1004B00004D50348BDE8384007F0CAB938BD00BFCD
:1004C0006499FF1F10B50446EC300DF069FE04F18D
:1004D000C0000DF0EEFA04F1AC000DF0EAFA04F100
:1004E00014000DF05DFE204610BDFFFF10B5074B58
:1004F000074802220A2100F06DF802231722162174
:100500000448BDE8104001F0C1BF00BF6D04000009
:10051000909AFF1F6499FF1F08B5044800F098F8EF
:100520000348BDE8084002F079BA00BF909AFF1F67
:100530006499FF1F37B5114D114C0B220D238DE827
:100540000C000A2115231422284607F003FA1F2164
:1005500021238DE80A001E2220231D21094800F0D6
:1005600017F82946204601F02DFF074A0749204683
:1005700003B0BDE830400FF0B5BB00BF1C99FF1FB2
:100580006499FF1F909AFF1FF893FF1FC504000096
:10059000F8B5044604301D460F4616460CF026F802
:1005A00004F118000CF022F804F12C000CF01EF8F5
:1005B00004F140000CF01AF804F154000CF016F8A5
:1005C000069BE367079B27676667A567C4F88030CB
:1005D0002046F8BDF8B5071D0D46C3660446ADB20A
:1005E000016F384616460CF023F82946384604F1C8
:1005F00018070CF029F83246616F38460CF018F8ED
:100600002946384604F12C070CF01EF83246A16F3B
:1006100038460CF00DF82946384604F140070CF036
:1006200013F83246E16F38460CF002F82946384696
:1006300004F154070CF008F8D4F88010384632461C
:100640000BF0F6FF29463846BDE8F8400BF0FCBF3A
:100650002DE9F047037880F868300446051D2846E8
:1006600004F118090BF0F2FF04F12C0848460BF0D6
:10067000EDFF04F1400740460BF0E8FF04F154069B
:1006800038460BF0E3FF30460BF0E0FF28460CF055
:1006900024F8824618B1237843F0010306E0284687
:1006A0000CF014F818B123786AF30003237048465D
:1006B0000CF013F8824618B1237843F0020306E0E9
:1006C00048460CF003F818B123786AF3410323700D
:1006D00040460CF002F8824618B1237843F0040338
:1006E00006E040460BF0F2FF18B123786AF382036C
:1006F000237038460BF0F1FF824618B1237843F09F
:10070000080306E038460BF0E1FF18B123786AF3DE
:10071000C303237030460BF0E0FF824618B1237804
:1007200043F0100306E030460BF0D0FF18B12378F9
:100730006AF304132370227894F8683002F00102FF
:1007400003F001039A4204D028460BF0BDFF0125B7
:1007500001E000200546227894F86830C2F3400298
:10076000C3F340039A4204D0484645F002050BF01B
:10077000ABFF227894F86830C2F38002C3F38003A1
:100780009A4204D0404645F004050BF09DFF2278C4
:1007900094F86830C2F3C002C3F3C0039A4204D095
:1007A000384645F008050BF08FFF227894F8683042
:1007B000C2F30012C3F300139A4204D0304645F04E
:1007C00010050BF081FFE36E33B12DB102462178A5
:1007D0002846BDE8F0471847BDE8F087024A13688D
:1007E00001331360704700BF149CFF1F10B504460F
:1007F0000DF028FB204610BD144B1A7870B51D462D
:1008000012B3134A134913680968134851F8236057
:1008100000781249012426B951F8306086F88040EA
:1008200003E051F8306086F80041013313600C4A50
:1008300012680132B3EBC20F06DB00232B7051F8B4
:100840003030012283F8802070BD00BFF89BFF1F6D
:10085000289DFF1F9CCBFF1FF49CFF1F7C460100BF
:100860001094FF1F134B1E221A70134B55221A703F
:10087000124B7D221A70124BC8221A70114B16228D
:100880001A70114B08221A60104B46F28A721A60D5
:100890000F4B00221A600F4B46F24A321A600E4B81
:1008A0000E4A1A600E4B0F221A600E4B01221A607C
:1008B000704700BF0494FF1F1494FF1F1694FF1F7E
:1008C0001594FF1F0594FF1FFC93FF1F0094FF1F4B
:1008D000109CFF1F1094FF1F2094FF1F48E17A3FD8
:1008E0001C94FF1FE09CFF1F70B5044608460D4690
:1008F0000FF0DAFB23680246294620465B68BDE814
:100900007040184708B5FFF7EFFF08BD00230A2223
:100910000DF038BB38B5D2B2002305460DF032FBDE
:10092000044628460DF00AFB204438BD002A10B4C6
:100930000BDB074B541E9C4207D830235A43013A25
:10094000232A02D910BC0DF035BA002010BC704724
:1009500057555505212810B537D81C4A02EBC0035E
:1009600001295B68144601D004290FD154F83020C6
:10097000012082F880024FF4A0721A601A680429DC
:100980000CBF42F0200222F020021DE052F830207D
:10099000002082F8800211B18A1E012A12D84FF479
:1009A000807202291A6003D11A6842F003020BE038
:1009B00003290AD11A6842F002021A601A6822F06A
:1009C000010201E040F203121A6010BD7C460100F2
:1009D00000487047349DFF1F014B1868704700BFE7
:1009E000349BFF1F014B1870704700BF0C94FF1F12
:1009F000014B1860704700BF1894FF1F08B5044BE7
:100A000018780CF04FF8B0FA80F0400908BD00BF2C
:100A10003C9BFF1F014B1868704700BF149CFF1FD1
:100A2000014B1878704700BFDC9CFF1F014B18700A
:100A3000704700BFDC9CFF1F2DE9F047934C9449A1
:100A40009448A0B0FFF75EFF21789248FFF75EFF61
:100A500091499048FFF756FF61788E48FFF756FF9F
:100A60008E498C48FFF74EFFA1788A48FFF74EFF6A
:100A70008B498848FFF746FFE1788648FFF746FF35
:100A800088498448FFF73EFF00231022A16981486E
:100A90000DF078FA84497F48FFF734FF102261692E
:100AA0007C48FFF737FF81497A48FFF72BFF8049E1
:100AB0007848FFF727FF7F497648FFF723FF002696
:100AC00025464FF4077808FB06F84FEA462900242C
:100AD00079497048FFF716FF102209EB040118A8A6
:100AE0000DF0D1FB1A9B022B16D8744968460DF005
:100AF00097FB1A9B0022C3F10303694604A80DF07B
:100B000035FD04A908A80DF0F5FB18A908A80DF0FB
:100B10006CFC0127014601E0002718A91CA80DF074
:100B2000E9FB1CA95B480DF0E8F91CA80DF038FBA7
:100B300047B108A80DF034FB04A80DF031FB68465E
:100B40000DF02EFB5E495348FFF7DCFE002708EB53
:100B5000040A07EB0A032B440137187FA0F1200396
:100B60005E2B88BF2E200CF00BFE402FF1D1554993
:100B70004848FFF7C7FE403418A80DF011FBB4F544
:100B8000007FA5D10136022E9BD14F494148FFF786
:100B9000B9FE00264FF4077808FB06F84FEA46290D
:100BA000002745493B48FFF7ADFE102209EB07013E
:100BB0000CA80DF068FB0E9B022B16D83F4910A81D
:100BC0000DF02EFB0E9B0022C3F1030310A914A805
:100BD0000DF0CCFC14A918A80DF08CFB0CA918A8DA
:100BE0000DF003FC0124014601E000240CA91CA81F
:100BF0000DF080FB1CA927480DF07FF91CA80DF013
:100C0000CFFA44B118A80DF0CBFA14A80DF0C8FA29
:100C100010A80DF0C5FA2A491E4807F11B04FFF77A
:100C200071FE44442C444FF0000A14F8013F0F2B8E
:100C300003D826491748FFF765FE002310222178C4
:100C400014480DF09FF90AF1010A21491148FFF7F4
:100C500059FEBAF1200FE8D11E490E48FFF752FEA7
:100C600020370CA80DF09CFAB7F5007F99D101361A
:100C7000022E8FD118490748FFF744FE174905484F
:100C8000FFF740FE20B0BDE8F08700BF349DFF1F96
:100C9000C82101008096FF1FD6210100DF2101003D
:100CA000E9210100F72101000322010011220100C6
:100CB0005F220100AD220100FB22010000230100A0
:100CC000EB230100A82201000823010006230100F4
:100CD00064290100A922010075230100FE250100FD
:100CE000024B034A1B68D05C704700BF0894FF1F8B
:100CF000449BFF1F064B1A78064B53F832300122F3
:100D000083F800214FF44863013BFDD1704700BFD9
:100D1000D89CFF1F7C460100054B1A78054B53F801
:100D20003230012283F88020A023013BFDD170479F
:100D3000D89CFF1F7C460100084B00221A70084B0C
:100D40001A78084B53F83230012283F880204FF490
:100D5000C863013BFDD1FFF7DFBF00BF6CD0FF1FB1
:100D6000409BFF1F7C460100044B1A6801321A6049
:100D70001B68052B01DDFFF7DFBF7047149DFF1FC8
:100D800008B501210D200BF06DFE044B1B781BB143
:100D9000BDE80840FFF7D0BF08BD00BF6CD0FF1F03
:100DA000030143EA1010C0B2831003F03302830042
:100DB00003F0CC03134358105B0003F0AA0300F0C8
:100DC000550018437047FFFF0E4B1A680E4B1A6010
:100DD000052243F8242C0D4A00234FF6FF711360BF
:100DE000536091600A4A126848211160094A1370E1
:100DF000094B4FF080421A60084B1B6840F20342D7
:100E00001A607047109CFF1F7880034000800340E9
:100E1000D09CFF1F3EE400E004E100E00C9CFF1FBB
:100E20003F4B40491B681B68F0B50B603E4B0022EE
:100E30001A603E4B1A68136823F0800313603C4A23
:100E40001368013313603B4A0B6812789A4266DBE1
:100E5000394A0B6812789A4261DC384A384C136878
:100E600024789B0043F002031360364B187802305D
:100E7000C0B218700868844206DA1068400010603A
:100E800018780130C0B218702F4C0868247884425A
:100E900006DA10684000106018780130C0B218708F
:100EA0001878284D0728294812D90768DFF8C0E0CC
:100EB00016682C78DEF800E0083C26FA04F40EF8F8
:100EC00007402C78083CE4B22C70046801340460BC
:100ED00014681F4A944211D11E4C1F4D22782D7860
:100EE00095420BD9267802681C4D073A45F8362002
:100EF00022780132D2B2227004221A700968184A8C
:100F000052F82130013342F82130164B02681B6839
:100F10009A4204DD144A00231370144A1360F0BD92
:100F2000E89CFF1F189BFF1F04800340D09CFF1FFD
:100F3000149CFF1F1594FF1F0494FF1F309BFF1F7D
:100F40001494FF1F2C9DFF1F1694FF1F249DFF1F4D
:100F5000489448A4DC9CFF1F0594FF1FA0CBFF1FF3
:100F60006CCCFF1F0094FF1F189DFF1F00800340E3
:100F7000349BFF1F0E4B0F490F4810B500241C7007
:100F80000E4B1C600E4B1C600E4B1C700E4B1C60FD
:100F90000DF0C3F90D480E49224603689C4203DA5E
:100FA0000B681A550134F8E7BDE81040FFF70CBF95
:100FB0002C9DFF1FE2230100049DFF1F249DFF1FA6
:100FC000149CFF1FDC9CFF1FEC9CFF1F0094FF1F65
:100FD000349BFF1F054B01221A70054B00221A603B
:100FE000044B1A68044B1A60704700BF189DFF1F1E
:100FF00004800340FC93FF1F00800340024A00234B
:101000001370024A13607047189DFF1F0080034051
:10101000094B00221A60094B094A98701278094B53
:1010200053F83230012210B983F8802001E083F8B0
:10103000002114200BF00CBE149DFF1FF09CFF1F1D
:10104000149BFF1F7C460100094B5870094B00227E
:101050001A60094A094B127853F83230012210B94C
:1010600083F8802001E083F8002102200BF0F0BD1E
:10107000F09CFF1F149DFF1FF89CFF1F7C46010082
:1010800008B50F4B00221A600E4B0F4A197852F820
:101090003100012380F8003140200138FDD152F8A1
:1010A0003120032082F880300BF0D2FD074A91787E
:1010B000137809B9013B00E00133137008BD00BF8C
:1010C000149DFF1F1C9BFF1F7C460100F09CFF1F0F
:1010D00010B50A4CFFF70EFE32200BF0B9FD207858
:1010E0000BF0E0FC012807D00020FFF791FFFFF78D
:1010F000C7FF20780BF0D6FC10BD00BF68CCFF1FE7
:10110000F0B500220B4F6FF01D0164251346441803
:1011100057F82460AE4202DB04D1224602E02346A7
:101120003546224601311E29F1D11344022093FB9A
:10113000F0F0F0BD6CCCFF1F10B5054C2078FFF728
:10114000DFFF2070034C2078FFF7DAFF207010BD1E
:101150001494FF1F1694FF1FF7B5374D002455F860
:10116000043F002B32DD20460EF06CFB33490EF0BD
:10117000BDFB4FF07A510EF0B1FA0DF05DFF022386
:10118000024600932E480B460CF042FF2D492C4896
:10119000FFF7B8FB21462A480CF02FFF2A492848C0
:1011A000FFF7B0FB296826480CF027FF00268027B0
:1011B0002B6893FBF7F39E4205DA24492048FFF79A
:1011C000A1FB0136F4E71E480CF0B8FE0134B4F57B
:1011D000807FC4D11E4C1F491948FFF793FB20782C
:1011E000FFF78EFF014616480CF007FF1A49144816
:1011F000FFF788FB21781248184CFFF787FB184946
:101200000F48FFF77FFB17490D48FFF77BFB20785E
:10121000FFF776FF01460A480CF0EFFE1249084836
:10122000FFF770FB21780648FFF770FB0C49044874
:10123000FFF768FB03B0F0BD68CCFF1FACAA2A3DE6
:101240008096FF1F1A240100C73001000624010008
:101250001494FF1F08240100142401001694FF1F9A
:10126000FE2501001C2401002824010070B50B4E4E
:10127000002456F82450E8B20CF082FAC5F3072097
:101280000CF07EFAC5F307400CF07AFA0134280E10
:101290000CF076FAB4F5807FEBD170BD6CCCFF1FFB
:1012A0002DE9F041214BDFF8A0C01F78204B1978C1
:1012B000204B1E78204B93F800E000231D461C466F
:1012C0009F425CF8232005DC994205DB04EB4204D5
:1012D000154407E0994205DA9E4205DB02EB42081D
:1012E000444405E09E4204DA9E4502DB04EB82049E
:1012F00015440133B3F5807FE2D1A0B90F491048FE
:10130000FFF700FB29460E480CF077FE0D490C480C
:10131000FFF7F8FA21460A480CF06FFE0848BDE8CE
:10132000F0410CF00BBEBDE8F08100BF0494FF1F3C
:101330001494FF1F1694FF1F1594FF1F3024010003
:101340008096FF1F3E2401006CCCFF1F042330B5A4
:1013500092FBF3F20E4B0144186800230144184637
:10136000934201F1040110DA11F8045C11F8034C06
:1013700004EB052411F8025C05EB042511F8014C7F
:1013800004EB052460400133EAE700F0553030BD3E
:10139000349BFF1F834B2DE9F74F1E6800F10807B0
:1013A00006EB070E4AF6AA259EF803309EF80220A7
:1013B0009EF8014003EB022252009EF807301540D0
:1013C0009EF8062003EB022245F2555313401D43BD
:1013D0009EF805209EF8043002EB032245F2555397
:1013E0001340F25D04EB022464004AF6AA22224074
:1013F0001A4345EA02436C4A02EBC1016B4A127878
:10140000C3F3072494420C7116DC694A4FF4077C3D
:101410000CFB04FC02EB0C05190E02F80C10304416
:101420001A0C00266A70AC70EB702946AE46024674
:101430004FF00509B04606E05E4A5F49136843F085
:1014400000431360A5E092F8313092F830B003EB1E
:101450000B2B4FEA4B0B4AF6AA2A92F835300BEACF
:101460000A0A92F834B003EB0B2B45F255530BEA02
:1014700003034AEA0303019392F832A092F833304F
:1014800092F836B003EB0A235B004AF6AA2A03EA75
:101490000A0A92F8373003EB0B2B45F255530BEA4F
:1014A00003034AEA030A019B4AEA03434FEA136A29
:1014B000B9F1050F8EF814A009F101094FEA134A9A
:1014C0008EF815A018BF1E464FEA132A08BF98468B
:1014D000B9F1070F8EF816A08EF8173002F1080246
:1014E0000EF1040EAFD181464FF0000E99F8413055
:1014F00099F8402003EB022245F25553134005EBC7
:101500000E020EF1020E4FEAD31ABEF5007F4FEA2B
:10151000430382F81CA0537709F10209E6D1274B57
:101520009C4490F8413290F8402203EB022245F2AD
:10153000555313400A7F42EA13220A774A7F134326
:101540004B7702318C4500F10200EAD128220021BC
:101550003846FFF7FBFE80450AD01649184801239C
:1015600003FA04F20B6813430B6016490CF0D5FE26
:101570004FF4806238213846FFF7E8FE86420ED0ED
:101580000C4A10490123203403FA04F4136823435E
:1015900013600B4803B0BDE8F04F0CF0BEBE03B0C3
:1015A000BDE8F08F349BFF1FA0CBFF1F0594FF1FEA
:1015B000349DFF1FEC9CFF1F4B240100349FFF1F35
:1015C000049DFF1F612401002DE9F843054618B969
:1015D00016491748FFF796F9164F174E0024B946DB
:1015E0003B789C421ADA4FEAC40835B92B460A22E6
:1015F00056F834100E480CF0C5FC99F80030013B49
:101600009C4204D01DB90D490948FFF77BF92146DA
:1016100056F80800FFF7BEFE0134E1E725B904489B
:10162000BDE8F8430CF08ABCBDE8F8837B240100D8
:101630008096FF1FDC9CFF1FA0CBFF1F8E240100A4
:1016400070B500230A4D0B481A464FF407742E78E4
:10165000B34203F1010306DA04FB03F1A1F21B21FB
:10166000415C0A44F3E7044B187892FBF0F070BD3C
:10167000DC9CFF1F349DFF1F0594FF1FF8B54FF43E
:1016800007754543314E324932487419FFF73AF92C
:10169000715D3048FFF73AF92F492E48FFF732F9CC
:1016A00061782C48FFF732F92C492A48FFF72AF9CC
:1016B000A1782848FFF72AF929492648FFF722F997
:1016C000E1782448FFF722F926492248FFF71AF962
:1016D00000231022A1691F480CF054FC22491D4828
:1016E000FFF710F9102261691A48FFF713F904F5A2
:1016F000007704F11B06002516F8013F0F2B03D8D5
:101700001A491448FFF7FEF80023102231781148D7
:101710000CF038FC013516490E48FFF7F3F8202D80
:10172000EAD1002563190135187FA0F120035E2B53
:1017300088BF2E200CF024F8202DF3D1054820344A
:101740000CF0FCFBA742D4D1F8BD00BF349DFF1FB5
:10175000C82101008096FF1FD6210100DF21010072
:10176000E9210100F7210100032201000623010005
:101770006429010038B5054D00242B789C4204DA19
:101780002046FFF77BFF0134F7E738BDDC9CFF1FE5
:10179000400800F05530430883F0AA32430083F03C
:1017A000AA3313401843704700F05530430883F0C4
:1017B000AA32430083F0AA33134018437047421003
:1017C00002F055035A1010B582F0AA045A0082F0B4
:1017D000AA0222401A4300F055035810CC0780F0AB
:1017E000AA044FEA430080F0AA0000EA040040EA9D
:1017F000030048BF02F07F02CB0548BF00F07F0026
:1018000042EA002010BD030E0B70030C4B70030A5C
:101810008B70C8707047FFFF2DE9F8431C464FF0EE
:10182000AA08174644221A7183F8008083F80180C1
:1018300083F8028083F8038089236371E371324B5C
:10184000A2711D786D1A45EA012545F07F4545EAEC
:10185000004528460E46FFF79BFF04F10801FFF7FD
:10186000D2FF2846FFF7A0FF04F10C01FFF7CBFFE2
:10187000E17B04F1100304F130052A22C9074CBFB3
:101880001A7083F8008013F8011BAB42F6D1013FB8
:1018900004F13F0804F23F2917F8010FFFF78FFF0B
:1018A00008F8010F030AC145014688F80032F3D158
:1018B000164F2822082157F83600FFF747FD8046CB
:1018C000FFF766FF2946FFF79EFF4046FFF76CFFD4
:1018D00004F13401FFF797FF4FF48062402157F87D
:1018E0003600FFF733FD0546FFF752FF04F13801DC
:1018F000FFF789FF2846FFF757FF04F13C01BDE8D9
:10190000F843FFF780BF00BF0594FF1FA0CBFF1F68
:1019100010B50346AA221C1AA14202DD03F8012BCE
:10192000F9E710BD2DE9F0470C46804640F2CA5158
:1019300010461746FFF7ECFFDFF834A0DFF83490CD
:101940001C3440F2CA5600259AF800309D420DDA48
:1019500049F83560BB19224629464046FFF75CFF2F
:10196000013506F5886604F50774EDE7BDE8F087F4
:101970000594FF1FA0CBFF1F194B0E221A60194BB5
:101980000F221A60184B10221A60184B11221A608D
:10199000174B12221A60174B13221A60164B09229A
:1019A0001A60164B08221A60154B07221A60154B55
:1019B00006221A60144B05221A60144B04221A6086
:1019C000134B03221A60134B134A1A60134B043A49
:1019D0001A6002F59F32124B02F5EC721A607047E2
:1019E0001C9DFF1FF49BFF1FD89CFF1F409BFF1FE8
:1019F000149BFF1F1C9BFF1FF49CFF1FE49CFF1FF9
:101A0000209DFF1F3C9BFF1F389BFF1FF89CFF1F63
:101A100068CCFF1FE89CFF1F48800340D09CFF1F3D
:101A20000C9CFF1F73B55D4C5D4D5E4E0120FFF7B2
:101A3000A3FF207801210BF043F8237855F83330C9
:101A4000012483F88040584B022118780BF038F8B5
:101A5000214630780BF034F83378544E55F8333053
:101A6000307883F8804021460BF02AF83378504EC6
:101A700055F83330307883F8804021460BF020F859
:101A800033784C4E55F83330307883F88040214617
:101A90000BF016F83378484E55F83330307883F829
:101AA00080402146FEF756FF3378444E55F83330D8
:101AB000307883F8804021460BF002F83378404EAE
:101AC00055F8333083F880403E4B022118780AF0F5
:101AD000F7FF3D4B022118780AF0F2FF21463078DB
:101AE0000AF0EEFF337855F8333083F88040374CF6
:101AF000022120780AF0E4FF0222354920780BF019
:101B000011F8344B1968FF221A7121B1324B0B4482
:101B10001B1132495A54324A32492E48FEF706FF09
:101B2000C82131480CF04FFB1F2130480CF04BFB13
:101B300014212F480CF047FB14212E480CF043FBD6
:101B400001200EF05DF90446C4F100540EF060F976
:101B500020460EF055F90444054646F2947001946F
:101B60000EF04EF9244B254A186000F188735B0192
:101B7000136038B922492348FEF7B6FE21480CF01D
:101B8000DDF9FEE728460EF043F9FFF7F3F91E4BA7
:101B900000229A705A701A7002B070BD1C9DFF1F0F
:101BA0007C460100409BFF1FF49BFF1FD89CFF1F3A
:101BB000149BFF1F1C9BFF1FF49CFF1FE49CFF1F37
:101BC000F89CFF1F209DFF1F3C9BFF1F68CCFF1F41
:101BD000810D0000EC9BFF1F008FFCBF44E400E080
:101BE00040420F00690D0000209BFF1F049DFF1F56
:101BF000FC9BFF1FC09CFF1F349BFF1F9CCBFF1F44
:101C0000A52401008096FF1FF09CFF1F012801D131
:101C1000FEF728BE124B1E221A70124B63221A7056
:101C2000114B9B221A70114BFF221A70104B0B2282
:101C30001A70104B09221A600F4B43F6CA021A6041
:101C40000E4A002313600E4A43F28A4111600D4A86
:101C50000D4911600D4A062111600D4A136070474D
:101C60000494FF1F1494FF1F1694FF1F1594FF1F69
:101C70000594FF1FFC93FF1F0094FF1F109CFF1F84
:101C80001094FF1F2094FF1F48E1FA3F1C94FF1F90
:101C9000E09CFF1F08B500F043F8074B1A684EF6AA
:101CA00060239A4203D9BDE80840FEF7DBBD00205F
:101CB000BDE80840FFF7AABF149CFF1F08B5FFF757
:101CC000E9FF00210D20BDE808400AF0CBBEFFFF70
:101CD00008B50E4B0E4900221A600B78ABB9FFF71E
:101CE00009F80C4B1A780C4B53F83220012382F878
:101CF00000314FF416700B700AF0AAFF074B1B78E7
:101D00001BB1BDE80840FFF7D9BF08BD149DFF1FF8
:101D10006CD0FF1F409BFF1F7C4601000C94FF1FEF
:101D200070B5194C194DFFF7D3FF022218492078DE
:101D30000AF0F8FE2878154E0AF0B4FE0128F9D012
:101D400030780AF0AFFE0028FAD00AF063FF114B9A
:101D50000546002205201A600AF07AFF30780AF062
:101D6000A1FE0128FAD030780AF09CFE0028FAD0B3
:101D700020780AF01FFE0AF04DFF4FF47A73401BE3
:101D800090FBF3F070BD00BF389BFF1FF49BFF1F5B
:101D9000DD070000149CFF1F38B5FFF799FF064DC3
:101DA0002878054C0AF07EFE0128F9D020780AF048
:101DB00079FE0028FAD038BDF49BFF1FF8B5FFF775
:101DC00087FF40480CF03EF83F4B18780AF06AFE57
:101DD00018B100213D4E3E4D0BE03E4A3E49394888
:101DE000FEF7A4FD3D493E480CF097FA4FF0FF3056
:101DF000F8BD3368994206DA2C68605CFEF7D0FFC4
:101E000060540131F5E7374B374F00221A60374BEA
:101E10001A602F4B1B681978354B197001233B70E2
:101E2000344B19681A7121B1334B0B441B113349E0
:101E30005A544FF44863013BFDD1FFF7ADFF304BDF
:101E40001C68002120460DF0F9FEA8B92D49204656
:101E50000DF008FF80B92C4920460DF047FD4FF0EA
:101E60007C510DF039FC0DF01DFF2328024603D9EB
:101E7000264920480BF09EFF254A264B117853F83F
:101E80003110012081F800011D4616463B7803F011
:101E9000FF04002BFAD117480BF0D4FF4023013B7D
:101EA000FDD1337855F83330012283F880200520A6
:101EB0000AF0CEFE074A08490248FEF737FD2046E1
:101EC000F8BD00BFEC9BFF1F3C9BFF1F1094FF1F42
:101ED000349BFF1F40420F00690D0000B324010036
:101EE000049DFF1F289DFF1FF89BFF1F309DFF1FB4
:101EF000D49CFF1FFC9CFF1F008FFCBF44E400E04C
:101F00002094FF1FABAAAA4C00004042F907000032
:101F1000E49CFF1F7C46010038B5FFF7D9FE002086
:101F2000FFF776F80E4D562428780AF0BBFD0128FD
:101F30000AD1FFF7A5F8013CF6D10A490A480CF08E
:101F4000ECF94FF0FF3038BD084B09490648002432
:101F50001C60084B1C700CF0E0F9204638BD00BF37
:101F6000209DFF1FCC240100049DFF1F1894FF1F1C
:101F7000E2230100F09CFF1F70B50546FFF7A8FEA5
:101F8000002D04D1164B4FF0FF321A6000E024DB25
:101F9000134B1A6801321C4604D02368104E9D4230
:101FA00007D104E0FFF7B8FF0130F6D115E00020BB
:101FB00070BD05DA0020FFF72BF83468641B04E0DD
:101FC0000120FFF725F834682C1B35600025AC4252
:101FD000EDDDFFF755F80135F9E74FF0FF3070BD43
:101FE0001894FF1F0C4B10B5044618600B48204096
:101FF0000028BEBF00F1FF3060F001000130FFF7A4
:1020000023F8022094FBF0F0FFF7B6FF1220BDE8A2
:1020100010400AF01DBE00BF0894FF1F01000080A1
:10202000694B2DE9F74306461868684FFFF7EEFD48
:102030000024674D2B689C4265DA0023654A1946E7
:1020400042F823100133B3F5807FF9D1FFF740FE4A
:10205000FEF790FFFEF7BEFF5F4B1A680092DDF8B7
:10206000008099463B78C3B1D9F800300193019BB9
:10207000C8EB0303B3F5967FF4D91EB95749584806
:10208000FEF740FCFEF7BAFF564B574957484FF052
:10209000FF321A600CF041F9E4E70AF0BBFD80461C
:1020A0003046FFF791FA0AF0B5FD814666B950490E
:1020B0004B48FEF727FCC8EB090149480BF09DFF90
:1020C0004C494748FEF71EFCDFF83C81DFF81491CD
:1020D000FFF7B6FAD8F80030984207D04FF0FF3338
:1020E00045494248C9F800300CF017F9D9F80030DA
:1020F00003BB424B424A1B7812789A421AD141499B
:102100003A480CF00AF9404B1D68404B5C55FFF70C
:1021100097FA3F4B3A4A5855384B12781B78314C56
:102120009A424DD04FF0FF333A49304823600CF0CB
:10213000F4F845E0FEB938492948FEF7E3FB296881
:102140002748091B0BF059FF34492548FEF7DAFBF5
:10215000D8F8001022480BF050FF31492048FEF714
:10216000D1FB33460222D9F800101D480BF00AFFBC
:102170001B480BF0E3FEFEF7DFFF0A2CD8F80050F7
:102180000ED008DC052C19D1A81EFFF72BFF28461E
:10219000FFF728FF12E00F2C06D0142C04D00DE01E
:1021A000A81CFFF71FFF03E01E4B4FF0FF321A6021
:1021B0002846FFF717FF64200AF04AFD013438E78C
:1021C000206803B0BDE8F083E09CFF1F189DFF1F4F
:1021D0001C94FF1F6CCCFF1FA4D3FF1FE024010041
:1021E0008096FF1FEC9CFF1FF2240100049DFF1F3F
:1021F0000E250100FE2501001B250100DC9CFF1FB0
:102200000594FF1F822501000894FF1F449BFF1FB8
:10221000189CFF1F5B2501002825010043250100B4
:10222000532501001894FF1FF0B585B00021054625
:1022300068460BF0F5FF5020FFF7D4FE0120FFF7B2
:10224000EFFE344968460CF068F8334A92F8CC61E6
:102250001E2E04DD2F4928460BF0E2FF54E0042037
:10226000002314180130247F2B490C282344F8D173
:1022700091F82C00034491F82D00034491F82E00AE
:1022800091F82F1003440B4440F2CF115018013144
:10229000007FB1F5EC7F0344F8D14FF4F87150188A
:1022A0000131007F1C4CB1F5FC7F0344F7D1002BBA
:1022B000D0D1227F637F1344A27F1344E27F134473
:1022C000022BC7D194F8192294F81832134494F8C9
:1022D0001A22134494F81B221344012BBAD10F493C
:1022E00068460CF01AF806F5E67604F5E67734440D
:1022F000A74205D017F8011F68460CF068F8F7E709
:10230000694628460BF03CFF68460BF049FF28461B
:1023100005B0F0BD87250100349DFF1FF630010098
:10232000F8B51E4C1E4E1F48002580272246314618
:10233000056007710DF0D6FC1B4807711B4F056047
:10234000224631460DF0CEFC194E1A4938460BF0A4
:1023500067FF3846184F224631460DF0C3FC294628
:1023600038460BF05DFF3846144F224631460DF0DB
:10237000B9FC294638460BF053FF3846104F224629
:1023800031460DF0AFFC294638460BF049FF224696
:1023900031463846BDE8F8400DF0A4BCF893FF1F65
:1023A000ED070000EC9BFF1FFC9CFF1F209BFF1F05
:1023B000A1E10000F6300100049DFF1FFC9BFF1F00
:1023C000C09CFF1F38B50123044600F8083B0D46AA
:1023D00004F008FE002104F114000BF021FF04F1C9
:1023E000240000F09BFD04F1D40003F0ADFA04F1E9
:1023F000E00002F013FF4FF0FF33C4F828316560AE
:10240000204638BDF0B500F5847787B002AC0546AC
:102410001E23002238461A4904F0D2FC002619492E
:1024200020460BF0FDFE4FF4FC6355223221384666
:102430008DE8500004F050FB20460BF0B1FE12492D
:1024400020460BF0EDFE4FF6FF735F223221384637
:102450008DE8500004F040FB20460BF0A1FE012166
:1024600005F1240000F0C8FD4FF4FA700AF0F0FB0B
:102470003146D5F8080105F035FE07B0F0BD00BFC4
:102480008C25010051290100962501002DE9F0411C
:102490000546C8B28EB085F81A2185F8183185F83E
:1024A000190102210AF00CFB022195F81A010AF029
:1024B00007FB022195F818010AF002FB3849394858
:1024C000FEF720FA38493748FEF71CFA37493548F5
:1024D000FEF718FA36493348FEF714FA3549314801
:1024E000FEF710FA34492F48FEF70CFA05F12404E0
:1024F00032492C48FEF706FA204600F065FD3049C7
:102500002848FEF7FFF9284605F0A6F92D49254889
:10251000FEF7F8F995F81A0109F02CF808B92A49DC
:1025200000E02A491F48FEF7EDF90021686805F030
:1025300069FE0321686805F02FFB05F58477022109
:10254000686805F0CEFC6968384604F0C3FA204993
:102550001448FEF7D7F995F81821019205F1D4082F
:1025600095F81A2195F819310092394622464046CD
:1025700005F1080403F0E9F93946204604F033FD7B
:1025800014200CF06FF80021064601F0FDFBC5F8A1
:102590001061304601F0A4FBF0B10E491DE000BF10
:1025A000A12501008096FF1FB4250100012601002E
:1025B00096250100152601004526010096260100FA
:1025C0009E260100BC260100D12601000227010041
:1025D0002927010045270100AF49B048FEF792F9CD
:1025E000AF490AA80BF01CFE00231A460AA9204690
:1025F00004F03CFD06460AA80BF0D2FDA9490AA842
:102600000BF00EFE334603220AA9204604F055FDC6
:102610000AA80BF0C5FDA4490AA80BF001FE334639
:1026200005220AA9204604F048FD0AA80BF0B8FDCF
:102630009E490AA80BF0F4FD33460D220AA9204654
:1026400004F03BFD0AA80BF0ABFD99490AA80BF07A
:10265000E7FD334612220AA9204604F02EFD0AA8FF
:102660000BF09EFD93490AA80BF0DAFD33461322C6
:102670000AA9204604F021FD0AA80BF091FD8E491D
:102680000AA80BF0CDFD00231A460AA9204604F043
:10269000EDFC06460AA80BF083FD88490AA80BF05A
:1026A000BFFD334604220AA9204604F006FD0AA80D
:1026B0000BF076FD82490AA80BF0B2FD33460022EA
:1026C0000AA9204604F0F9FC0AA80BF069FD7D492F
:1026D0000AA80BF0A5FD334618220AA9204604F0EB
:1026E000ECFC0AA80BF05CFD77490AA80BF098FDFA
:1026F000334600220AA9204604F0DFFC0AA80BF0AA
:102700004FFD72490AA80BF08BFD00231A460AA957
:10271000204604F0ABFC06460AA80BF041FD6C49CC
:102720000AA80BF07DFD334608220AA9204604F0D2
:10273000C4FC0AA80BF034FD66490AA80BF070FD32
:10274000334617220AA9204604F0B7FC0AA80BF06A
:1027500027FD61490AA80BF063FD33460C220AA944
:10276000204604F0AAFC0AA80BF01AFD5B490AA84F
:102770000BF056FD334609220AA9204604F09DFCC1
:102780000AA80BF00DFD56490AA80BF049FD334687
:102790000A220AA9204604F090FC0AA80BF000FDCA
:1027A00050490AA80BF03CFD00231A460AA920460E
:1027B00004F05CFC0AA80BF0F3FC4A490AA80BF0F1
:1027C0002FFD00231A460AA9204604F04FFC0AA850
:1027D0000BF0E6FC43490AA80BF022FD00231A4641
:1027E0000AA9204604F042FC0AA80BF0D9FC3D4996
:1027F0000AA80BF015FD00231A460AA9204604F08A
:1028000035FC0AA80BF0CCFC37490AA80BF008FDF0
:1028100000231A460AA9204604F028FC06460AA806
:102820000BF0BEFC31490AA80BF0FAFC0622334635
:102830000AA9204604F041FC0AA80BF0B1FC2C497F
:1028400006A80BF0EDFCD5F8103102A8597C0BF06E
:1028500007FD02A906A80BF0C8FD01460AA80BF067
:1028600049FD334610220AA9204604F026FCC5F88B
:1028700020010AA80BF094FC02A80BF091FC06A81A
:102880000BF08EFC1B4906A80BF0CAFCD5F81031E2
:102890001B7C9BB3184932E05F2701008096FF1F25
:1028A000812701008B2701009D270100B02701002F
:1028B000C3270100D7270100EA270100F027010004
:1028C000FA27010006280100102801002428010031
:1028D0002E2801003D280100522801006B2801002C
:1028E00080280100F630010098280100A12801008D
:1028F000AA280100BC280100C9280100424902A8F9
:102900000BF08EFC02A906A80BF06FFD01460AA889
:102910000BF0F0FC33460F220AA9204604F0CDFB51
:10292000C5F81C010AA80BF03BFC02A80BF038FC10
:1029300006A80BF035FC35490AA80BF071FC3346AC
:1029400000220AA9204604F0B8FB0AA80BF028FCD4
:102950002E490AA80BF064FC334600220AA920463F
:1029600004F0ABFB0AA80BF01BFC28490AA80BF0EB
:1029700057FC334600220AA9204604F09EFB0AA811
:102980000BF00EFC21490AA80BF04AFC334600224A
:102990000AA9204604F091FB0AA80BF001FC1C498F
:1029A0000AA80BF03DFC334607220AA9204604F092
:1029B00084FB0AA80BF0F4FBD5F8106136B1304661
:1029C0000BF0EEFB142130460BF04EFE95F81A2169
:1029D00095F8193100923946424605F1E00002F0BF
:1029E00025FC0C490C48FDF78DFF05F1140000F0A3
:1029F000F9FD2846FFF706FDE968204604F082FB52
:102A00000EB0BDE8F08100BFCE280100F630010015
:102A1000D4280100E02801008096FF1F2DE9F04333
:102A20000378082B95B004461DD11C200BF01AFE2C
:102A300094F81821019294F81A2194F8193100920F
:102A4000054604F1240204F5847101F01EFC2846B9
:102A5000C4F8145101F0D4FC1C21D4F814010BF07B
:102A600003FE012323702378092B1DD11C200BF0BA
:102A7000F9FD94F81821019294F81A2194F819316B
:102A80000092054604F1240204F5847101F0FDFB77
:102A90002846C4F8145102F0E3F91C21D4F81401BB
:102AA0000BF0E2FD0123237023780A2B1ED11C209A
:102AB0000BF0D8FD94F81821019294F81A2194F89B
:102AC00019310092054604F1240204F5847101F0E5
:102AD000DCFB01212846C4F8145101F011FD1C2132
:102AE000D4F814010BF0C0FD0123237023780C2BC4
:102AF00023D10021D4F8080105F0F4FA1C200BF0D2
:102B0000B1FD94F81821019294F81A2194F8193122
:102B10000092054604F1240204F5847101F0B5FB2E
:102B200000212846C4F8145101F0EAFC1C21D4F815
:102B300014010BF099FD012323702378172B05D185
:102B400004F1D40003F00EFC012323702378012B41
:102B50000FD10021D4F8080105F0C4FA04F58470FF
:102B600004F038FAE16804F1080004F0CBFA02231B
:102B700023702378062B36D1D4F8285109F0F6FCBF
:102B8000854230D009F0DEFC054609F0E5FC06463A
:102B900009F0ECFC074609F0F3FC804609F0FAFC6A
:102BA000814609F001FD2A46334608AD0390C1492C
:102BB0008DE880030CA80DF033FA0CA928460BF021
:102BC0002FFB012337220021019304F584704FF677
:102BD000E073009503F080FF28460BF0E1FA09F05E
:102BE000C5FCC4F828012378032B30D194F82421A4
:102BF0006ABB5723B04904F5847004F0E1F814204F
:102C00000BF030FD0121054601F0BEF8C4F810516B
:102C1000AA490CA80BF004FBD4F810210121537C25
:102C2000127C009104F1D4000CA903F021FD0CA842
:102C30000BF0B6FAD4F8105135B128460BF0B0FAC3
:102C4000142128460BF010FD012384F82431237849
:102C5000122B30D194F824516DBB2A465723964944
:102C600004F5847004F0ACF814200BF0FBFC012197
:102C7000064601F089F89249C4F810610CA80BF0DF
:102C8000CFFAD4F810210CA9537C127C009504F1E2
:102C9000D40003F0EDFC0CA80BF082FAD4F810512C
:102CA00035B128460BF07CFA142128460BF0DCFCE9
:102CB000012384F8243123780D2B24D194F8242186
:102CC0000ABB57237C4904F5847004F079F814207A
:102CD0000BF0C8FC0546012101F056F8C4F810516C
:102CE0006A7C297C04F1D40003F0AEFED4F81051C4
:102CF00035B128460BF054FA142128460BF0B4FCE9
:102D0000012384F824312378132B30D194F82451F3
:102D10006DBB2A465723684904F5847004F050F8C7
:102D200014200BF09FFC0121064601F02DF86449A8
:102D3000C4F810610CA80BF073FAD4F810210CA998
:102D4000537C127C009504F1D40002F059FF0CA8CA
:102D50000BF026FAD4F8105135B128460BF020FAC2
:102D6000142128460BF080FC012384F824312378B9
:102D7000042B23D194F8242102BB57234E4904F598
:102D8000847004F01DF814200BF06CFC0546012142
:102D900000F0FAFFC4F81051697C04F1D40003F08C
:102DA00097F9D4F8105135B128460BF0F9F91421F0
:102DB00028460BF059FC012384F824312378182B82
:102DC00009D194F8243133B904F1D40003F0F4F8B4
:102DD000012384F8243123780E2B0FD194F8245149
:102DE00065B92946D4F8080105F07CF9294604F1B3
:102DF000E00002F0DFFA012384F824312378072B66
:102E000050D194F82461002E4CD10CAD3146D4F849
:102E1000080105F067F904F584772A4928460BF084
:102E2000FFF94FF6FF733722314638468DE86000D0
:102E300003F052FE28460BF0B3F9234908A80BF023
:102E4000EFF9224904A80BF0EBF904A908A80BF04C
:102E5000CCFA014628460BF04DFA4FF4FC634122B0
:102E6000314638468DE8600003F036FE28460BF008
:102E700097F904A80BF094F908A80BF091F91449FC
:102E800028460BF0CDF94FF6E0734B223146384619
:102E90008DE8600003F020FE28460BF081F9012345
:102EA00084F8243104F1140000F0A6FB15B0BDE84D
:102EB000F08300BF082901008C2501002A290100A8
:102EC00037290100442901005C29010096250100F1
:102ED000662901000F4B03600023417202610372F7
:102EE000C3601946427A934204DA026942F8231019
:102EF0000133F7E7084A13680BB9106004E05A6918
:102F00000AB11346FBE75861002343618380C38005
:102F100083727047882901009CD4FF1F0022F8B5F6
:102F2000114604460025FFF7D5FF244B236004F12A
:102F300034072046A561E5612562A58409F06CF897
:102F400004F15C0204213846FFF7C4FF1C4B6363A5
:102F500004F16C064FF4803304F184020121E36430
:102F600023656365A3653046FFF7B4FF154BE36641
:102F7000304608F00BFF04F18800C4F88840C4F81C
:102F80008C7084F8905084F89150C4F8945084F870
:102F900098500AF05CFD04F19C00C4F89C70C4F8E1
:102FA000A06084F8A45084F8A550C4F8A85084F810
:102FB000AC500AF04CFD2046F8BD00BFF8450100BA
:102FC000E0450100EC45010010B508210446034826
:102FD0000AF058FC4CF6CC43E36410BD0082FF1F9E
:102FE00038B51546044609F037F81DB194F830306D
:102FF000002BFBD138BDFFFF0A460149FFF7F0BFA8
:103000008C2901000A460149FFF7EABF9629010011
:103010000A460149FFF7E4BFA22901000A46014917
:10302000FFF7DEBFAB2901000A460149FFF7D8BF11
:10303000B52901000A460149FFF7D2BFBF290100A7
:1030400038B583681446426805461819904202D97B
:1030500093420AD2D41A28682246184407F06CFF1B
:10306000AB682344AB60204638BD002038BDFFFF6D
:1030700070B50D46ADF50C7D00220A2128460BF0F7
:103080009CFA00220D2128460BF097FA28460BF0F7
:10309000C2FA014668460BF02DF90CACBE4904A8F3
:1030A0000BF0BEF8BD4920460BF0BAF82146284681
:1030B0000BF02DFA064620460BF072F8002E26DDA6
:1030C000B64920460BF0ACF8214628460BF01FFA13
:1030D000AA68014668460BF084FA20460BF060F8B7
:1030E000AE4908A80BF09CF808A928460BF00FFA87
:1030F0002946421C20460BF059FA214604A80BF041
:1031000004F920460BF04CF808A80BF049F8A44944
:1031100068460BF0A9F9002840F0A281A149684651
:103120000BF0A2F9002840F09B819F4968460BF004
:103130009BF9002840F0A8819C4968460BF094F95F
:10314000002840F0A1819A4968460BF08DF90028CB
:1031500040F0E781974968460BF086F9002840F077
:10316000E081954968460BF07FF920B10020FEF719
:1031700097F8FDF7F1FF914968460BF075F920B11A
:103180000120FEF78DF8FEF771F88D4968460BF0C7
:103190006BF948B1FDF7A4FD01468A48FDF7B6FB7F
:1031A00089498848FDF7AEFB884968460BF05CF911
:1031B00088B187498348FDF7A5FB2046FFF734F81F
:1031C000214680480AF099FE7F497E48FDF79AFB28
:1031D00020460AF0E5FF7F4968460BF045F980B3C9
:1031E0006D4904A80BF040F918B17B4904A80BF015
:1031F00094F87A4908A808F07FFA04A80BF025FA99
:103200004FF4B05358430A90002541F234764FF4FE
:103210000072214608A8FFF713FFFDF7D9FB05F15F
:103220001B0318440023E25C00F8012F0133B3F5BF
:10323000007FF8D105F50775B542E8D10B20FDF701
:10324000F5FB674968460BF00FF9002849D004A840
:103250000BF0FBF9634902465A480AF086FE04A8BF
:103260000BF0F3F9FEF7BEFE0020FEF7D9FE5E4933
:1032700005465448FDF746FBFDF7D2FB0146514891
:10328000FDF744FB59494F48FDF73CFB0023022260
:10329000E9B24C480AF076FE55494A48FDF732FB40
:1032A00004A80BF0D2F9014646480AF0A6FE51499F
:1032B0004448FDF727FBFEF7C3F9014641480AF0F1
:1032C0009CFE4D493F48FDF71DFBFDF7A3FB002386
:1032D00001460A223B480AF055FE48493948FDF7A5
:1032E00011FB474968460BF0BFF838B145496846BD
:1032F0000BF013F8444904A80BF00FF84149684655
:103300000BF0B2F8002800F0978040492D480022C9
:103310000AF02BFE04A80BF07EF93D4904A80BF03F
:10332000A3F8002840F00281374904A80BF09CF86C
:103330000546002840F0FA80FEF754FE2846FEF7C6
:103340006FFE294904461F48FDF7DCFAFDF768FBCC
:1033500001461C48FDF7DAFA24491A48FDF7D2FA6B
:103360002B460222E1B217480AF00CFE204915480C
:10337000FDF7C8FA04A80BF068F9014611480AF0F5
:103380003CFE1C490F48FDF7BDFAFEF759F901460E
:103390000C480AF032FE3DE0F630010064290100DD
:1033A000C8290100D0290100D4290100D929010030
:1033B000DB290100E1290100E5290100EA290100DA
:1033C000EF2901008096FF1FFE250100F42901006E
:1033D000F9290100042A0100062301003729010010
:1033E0000A2A01000F2A0100212A0100312A0100C6
:1033F000412A0100532A0100622A01006E2A0100BD
:103400007B2A0100812A0100B53A0100862A0100C9
:10341000992A010057495848FDF774FAFDF7FAFA5E
:103420002B4601460A2254480AF0ACFD5349524843
:10343000FDF768FAFDF700FB514968460BF014F8F8
:1034400028B1FEF797F94F494B48FDF75BFA04A8FE
:103450000AF0A6FE68460AF0A3FE0DF50C7D70BDCD
:1034600049494548FDF74EFA484920460AF0D8FE3A
:10347000214641480AF041FD45493F48FDF742FADF
:1034800020460AF08DFE50E642493B48FDF73AFAE5
:1034900041493948FDF736FA40493748FDF732FAD5
:1034A0003F493548FDF72EFA3E493348FDF72AFAE1
:1034B0003D493148FDF726FA3C492F48FDF722FAED
:1034C0003B492D48FDF71EFA36492B48FDF71AFAFD
:1034D00038492948FDF716FA37492748FDF712FA07
:1034E00036492548FDF70EFA35492348FDF70AFA13
:1034F00034492148FDF706FA33491F48FDF702FA1F
:1035000032491D48FDF7FEF931491B48FDF7FAF92C
:1035100030491948FDF7F6F92F491748FDF7F2F938
:1035200011E62E491448FDF7EDF91AE62C4908A8D2
:10353000002508F0E1F841F234760A954FF4007264
:10354000214608A8FFF77CFDFDF742FA05F11B03B1
:1035500018440023E25C00F8012F0133B3F5007F2B
:10356000F8D105F50775B542E8D10B20FDF75EFAF5
:1035700060E700BF622A01008096FF1F6E2A0100EB
:103580009F2A010082250100A52A0100AF2A01001F
:10359000FE250100B72A0100082B0100592B01006C
:1035A000AA2B0100FB2B01004C2C01009D2C0100DB
:1035B000EE2C01003F2D0100902D0100E12D0100B6
:1035C000322E0100832E0100D42E0100252F010090
:1035D000762F0100C72F010018300100693001006B
:1035E0003729010008B502490248FDF78BF908BDEB
:1035F000713001008096FF1F30B5044685B00AF097
:1036000029F800284AD009F0E3FFC5B2082D14D1EB
:10361000A368002B42D0013B0022214668460AF0F5
:10362000A5FF694620460AF070FE68460AF0B8FD1C
:103630001B491C48FDF766F930E00D2D01D00A2D1D
:1036400024D119491748FDF75DF90A220D21684672
:103650000AF019FE694620460AF0F9FE054668465A
:103660000AF09EFD6DB9214668460AF043FE6946A0
:103670002046FFF7FDFC68460AF092FD2046FFF762
:10368000B1FF0A4920460AF048FEB8E7294620461D
:103690000AF09DFE28460AF073F8B0E705B030BD89
:1036A000753001008096FF1FFE250100F6300100F5
:1036B000C3688268033323F003031944914298BF1F
:1036C0004268C3609ABFC160D018002070470246AC
:1036D000084619B10B6811461B6818477047FFFF71
:1036E00038B5084D2B6813F0010409D1284609F0BC
:1036F00058F928B1044B28461C605C6009F056F963
:10370000014838BD7CD0FF1F80D0FF1F38B5084D61
:103710002B6813F0010409D1284609F042F928B1B9
:10372000044B28461C605C6009F040F9014838BD34
:1037300070D0FF1F74D0FF1F10B50146044608204B
:10374000FFF7C5FF18B100230460436010BDFFF709
:10375000DDFF10BD08B50A46034600B119B99B1A32
:103760005842584108BD0CF08DFCB0FA80F0400979
:1037700008BD38B544680D4634B161682846FFF786
:10378000E9FF08B92468F7E7204638BD10B501689D
:1037900004461020FFF79BFF10B100230360037263
:1037A00063682BB11A680AB11346FBE7186010BDB5
:1037B000606010BD70B5064614460D4609B900207C
:1037C00070BDFFF7D6FF28B93046FFF7DFFF0028AE
:1037D000F5D0456002230372C460012070BD70B54E
:1037E000064614460D4609B9002070BDFFF7C1FF1B
:1037F00028B93046FFF7CAFF0028F5D04560236896
:10380000002BAEBF04225B4205220272C36001207E
:1038100070BD03681A780D2A09D003D8093A012A25
:1038200026D804E0202A02D02F2A02D07047013384
:103830001CE05A782A2A02D02F2A10D07047013370
:10384000036003685A1C02605A788AB12A2AF8D1A8
:103850009A782F2AF5D1033308E00A2BD9D00368D0
:103860005A1C02605B78002BF7D101E00360D0E7BF
:10387000704738B504460D46FFF7CBFF23681A782A
:10388000AA4203BF013301202360002038BDFFFF9F
:10389000F8B584680546E3686068C618281DFFF718
:1038A000B8FF6A681378272B15D0222B13D047F660
:1038B000ED70A3F15F021B2A2ED86A68A768013257
:1038C0006A60E268511CB9429EBF6768E160BB5400
:1038D0006B681B78EDE701326A6069680A7822B389
:1038E000481C9A42686020D05C2A0CD14A7818485B
:1038F00007782FB1BA4201D1427801E00230F7E7F0
:103900009AB102316960E168A768481CB842E4D8FE
:103910006768E0607A54E0E7A3F14102192ACCD944
:10392000A3F12B02D2B20E2A0BD9E368A1685A1C6C
:103930008A424FF0000009D86168E260C8543046FE
:10394000F8BD20FA02F2D207EFD5B6E7F8BD00BF06
:1039500090300100036810B5044618680AF037FD7E
:1039600063680133636010BD70B50568044628685C
:1039700086680AF01EFD2B689A68636813449B1BD7
:10398000636070BD70B505460C4619B91149FFF763
:10399000EBFF70BD2221FFF7DDFF013C14F8011F92
:1039A00071B10D4B13F8026C7EB1023313F8032C86
:1039B0008A42F7D15C212846FFF7CCFF314604E06C
:1039C00022212846FFF7C6FF70BD2846FFF7C2FF39
:1039D000E4E700BF9B3001008E30010010B586B0D7
:1039E0000B4606A9002201F8032D0A24B3FBF4F2CA
:1039F00004FB1233303301F8013D1346002AF5D1A0
:103A0000FFF7B2FF06B010BD2DE9F341037B074677
:103A1000002B47D00468013B037321460820FFF7C1
:103A200056FE002841D00023046043603E1D04463A
:103A30005B213046FFF71DFFA0B35D213046FFF745
:103A400018FF50BB0546E846414638468DF8005001
:103A500000F031F830B321680C20FFF738FE08B1D0
:103A60000560057163682BB11A680AB11346FBE75C
:103A7000186000E06060A8B1031D98E8030083E8C7
:103A800003005D213046FFF7F4FE30B92C213046AB
:103A9000FFF7EFFE0028D7D104E03B7B01333B73F7
:103AA000204605E0FFF71CFE02E0FFF719FEBDE728
:103AB00002B0BDE8F08170B5064604300D46FFF750
:103AC000A8FE73681C785B2C02D07B2C09D013E015
:103AD0003046FFF799FF03680BB9002420E0062366
:103AE00006E0304600F01EF80368002BF5D00723EF
:103AF0002B706860012413E0272C04D0A4F122036A
:103B00005C425C4100E001243046FFF7C1FE002822
:103B1000E3D014B102232B7001E001242C70686003
:103B2000204670BD2DE9F743037B0546002B46D0A8
:103B3000013B0646037356F8040BFFF7FDFD7B219E
:103B400004463046FFF795FEC8B37D213046FFF7A7
:103B500090FE78BB0746E8462846FFF799FE814667
:103B600068B33A213046FFF784FE40B34146284609
:103B70008DF80070FFF79FFF08B349462046FFF716
:103B8000F8FD28B92046FFF701FEC0B1C0F8049047
:103B900000F1080398E8030083E803007D21304624
:103BA000FFF767FE30B92C213046FFF762FE002890
:103BB000D2D104E02B7B01332B73204601E0FFF7C9
:103BC000A5FD03B0BDE8F0831FB50B68074902905F
:103BD000002B08BF0B468DE8090068468DF80C20C5
:103BE000FFF7A0FF05B05DF804FB00BFF630010051
:103BF000F0B5ADF5057D04AB01934FF4007302936E
:103C00000023014603930A22304B00930446684682
:103C1000FFF7DAFF2E490746FFF7ABFD054668B10F
:103C2000067A012E05D1C16819B12A480CF02AFA8A
:103C300030B1013E012E05D8E96804E0014602E0FA
:103C4000014600E000212448FFF784FD2349207449
:103C50003846FFF78EFD002833D0037A052B28D88D
:103C6000DFE803F02C0707030305007B29E0C068A9
:103C70001DE0C06828B30378742B21D02B2B04D00F
:103C80002D2B03D10130012201E001300022411E21
:103C9000002011F8013F303BDBB2092B06D800EBC6
:103CA000800003EB400000F0FF00F2E74AB1404221
:103CB00002E0C0680BF0F6FFC0B202E0002000E0B6
:103CC000012060740DF5057DF0BD00BF8830010056
:103CD000A03001009B300100A7300100AC30010092
:103CE0002DE9F047CCB080462549684607F004FD31
:103CF000009C0CB920463FE02249029D40460AF054
:103D00000CFB019F3E469EB3FF2EB1464FF48072DE
:103D100028BF4FF0FF0900210CA808F07FFD05EB3C
:103D200009039F4204D2AF4209D9C5EB070A00E05C
:103D3000CA46601952460CA907F0FEF855444146A0
:103D400008A80AF0D7FA0CA904A80AF069FA04A98D
:103D500008A80AF04AFB014640460AF0C4FA04A843
:103D60000AF01EFA08A80AF01BFAC9EB0606CAE711
:103D70004046FFF73DFF01204CB0BDE8F08700BF93
:103D8000B7300100F630010038B504460D46002179
:103D90000AF046FA00232374637415B12046FFF736
:103DA0009FFF204638BDFFFF2DE9F041064684B055
:103DB0001C4800AF07F05AFDB468E31D23F0070369
:103DC000ADEB030D22460021684608F027FD0023D5
:103DD000621C694630460AF073FB002221461148F6
:103DE00007F050FDE8460546B8B138460D4907F0E2
:103DF00083FC386808B905460FE0BB687A68E118AB
:103E0000914202D9934205D2D41A2246414618441F
:103E100007F098F93046FFF7EBFE28461037BD460D
:103E2000BDE8F081B73001002DE9F04706230D46CB
:103E300006468372504928460BF00AFF00B300275C
:103E4000DFF83C91DFF83CA13C464FF0200807EB3F
:103E50000903294658690BF0F1FE40B107EB0A034C
:103E6000284659690BF042FD4444054624B2043FFC
:103E700017F1180F4FEA6808E9D14FF0FF3703E058
:103E80004FF0200805270446002128460BF0EAFEE3
:103E9000F0B13A4928460BF0D1FEC8B1DFF8E890FE
:103EA000DFF8DCA07B1C13D0294659F827000BF063
:103EB000D9FE40B128465AF827100BF017FDC8EB81
:103EC0000404054624B2013F4FEA68087FB2E9E7DF
:103ED000348128460BF0E6FEDFF8B08030600746FC
:103EE00003460A21092B07D9B8FBF1F8B3FBF1F31C
:103EF000B27A013AB272F5E738460BF09FFC014600
:103F000028460BF0E9FB054640460BF097FC0146BE
:103F100028460BF0EBFC81460BF0C4FE05460BF087
:103F20008DFC014648460BF0D7FB01460BF0D6FB53
:103F30000BF0B8FE2844804501D970600AE00023E8
:103F40000137736037602CB1092F81BF0134012321
:103F5000348133600A217368B3FBF1F201FB123341
:103F60003BB996F90A30002B03DD013B7260B37256
:103F7000F1E73046BDE8F0878096184BACC527378F
:103F80005494FF1F3C94FF1F2494FF1F40420F00D6
:103F9000F0B505468BB008460C460BF03BFE08B961
:103FA000404919E0002120460BF03EFE28B12D21AA
:103FB0002846FFF7CFFC04F10044002120460BF017
:103FC00029FE68B9214620460BF088FB01462046B1
:103FD0000BF020FE20B134492846FFF7C5FC5EE017
:103FE000214601A8FFF720FF01992846FFF7F6FCBC
:103FF0009DF90E20E2B10AA8002100F8091D029BDC
:10400000144601460A27013C64B2661C08D0B3FB83
:10401000F7F607FB1633303300F8013D3346F2E77D
:10402000D2B2891A2E2301F8013D2846FFF79CFCE5
:10403000BDF90C30002B18DA1C492846FFF794FC18
:104040000AA9BDF90C30002201F8032D5B420A20B9
:1040500093FBF0F200FB1233303301F8013D1346BD
:10406000002AF5D12846FFF77FFCBDF90C30002B64
:1040700015DD65212846FFF76DFC0AA90022BDF970
:104080000C3001F8032D0A2093FBF0F200FB1233F1
:10409000303301F8013D13B2002BF5D19CE70BB092
:1040A000F0BD00BFC2300100C9300100C6300100C0
:1040B00038B50378013B05460C46072B3FD8DFE8AF
:1040C00003F02924342F2B09200441682046FFF7F0
:1040D0005FFF38BD45685B212046FFF73BFC6D68FC
:1040E00055B1281D2146FFF7E3FF2D6825B12C218E
:1040F0002046FFF72FFCF3E75D212046FFF72AFC5F
:1041000038BD406800F020F838BD41682046FFF710
:1041100039FC38BD41680FE02D212046FFF71AFC1D
:1041200069682046FFF75AFC38BD4168044B054AD0
:10413000002914BF114619462046FFF715FC38BD6B
:10414000D7300100D230010070B505460C4620463C
:104150007B21FFF7FFFB6D68A5B12E46204656F880
:10416000041FFFF70FFC3A212046FFF7F3FB21461F
:10417000301DFFF79DFF2D6825B12C212046FFF74C
:10418000E9FBE9E77D212046FFF7E4FB70BD1FB5A1
:1041900004AB43F80C1D02A9029300230393FFF71D
:1041A000D3FF039805B05DF804FBFFFF30B5ADF514
:1041B000077D06AB03934FF400730493002304467A
:1041C0000191059301460C4B02930A2202A8FFF7C6
:1041D000FBFC01AA09490546FFF701FB08492046F7
:1041E0000AF09BF821462846FFF7D1FF019B637434
:1041F0000DF5077D30BD00BF88300100AC300100F7
:10420000F630010070B5ADF5047D04AB01934FF4B9
:1042100000730293002304460D46039301460D4BA1
:1042200000930A226846FFF7CFFC0B4B0B4A0C4960
:10423000002D08BF1A460646FFF7BCFA094920467A
:104240000AF06BF821463046FFF7A1FF25740DF503
:10425000047D70BD88300100DD300100A730010011
:10426000A0300100F63001000020704770470023A5
:104270000A2209F087BE38B50546FCF735FB04462F
:10428000284609F05BFE204438BD30B50372002596
:104290009DF80C308581C5810582458285828575B2
:1042A000C575437203259DF81030057641600260A4
:1042B000837230BD82B0F0B50E46ADF50D7D92A98A
:1042C000304681E80C0005F025FB0546304605F038
:1042D00002FB01463348FCF715FB33493148FCF734
:1042E00011FB304605F016FB01462E48FFF7BFFFD5
:1042F0002E492C48FCF706FB93992A48FFF7B7FF95
:104300002B492848FCF7FEFA0024D5B1B5F5807F8B
:104310002F4628BF4FF48077BAB20CA9304605F07B
:10432000E4FA3A464CA992A8FEF78AFE4FF480724E
:104330004CA90CA80BF086FD08B10134A4B2ED1B0A
:10434000E3E724B91B4908A809F06AFF11E01A49FC
:1043500004A809F065FF0A222146684609F093FF88
:10436000694604A80AF041F8014608A809F0C2FF0E
:10437000012408A90B4809F0C0FD10490948FCF7C1
:10438000C1FA08A809F00CFF2CB1684609F008FF33
:1043900004A809F005FF0DF50D7DBDE8F04002B061
:1043A000704700BF8096FF1FE3300100EA30010034
:1043B000F4300100F7300100FA300100FE25010061
:1043C0000D4B03600B7903718B6883600B7B037368
:1043D00003460A4A30B543F80D2B01F1190401F1E7
:1043E0000D0252F8045B43F8045BA242F9D1127843
:1043F0001A70CB69C36130BD984701009445010034
:1044000030B5284997B004462748FCF77BFA27497E
:104410002548FCF777FA26492348FCF773FA254923
:104420002148FCF76FFA24491F48FCF76BFA23492F
:104430001D48FCF767FA217A214805F02DFB08B9E1
:10444000204904E0607A07F095F840B91E49164803
:10445000FCF758FA01212068FEF7ECFD1FE001236C
:104460001A4A174906A802AD05F0B8FB18492846B4
:1044700007F042F906A90EA8FFF7A2FF04AB93E8E4
:1044800003008DE803000EA995E80C002046FFF715
:1044900011FF0EA805F01EFA06A805F01BFA17B0CA
:1044A00030BD00BFA12501008096FF1FB42501008B
:1044B0000331010045260100503101009D3101000A
:1044C0008CD0FF1FB3310100DD3101000932010042
:1044D000372901000B79037130B58B6883600B4677
:1044E00000F11A0413F80C2F027300F10D0213F8F7
:1044F000015F02F8015B9442F9D1CB69C36130BD21
:104500002DE9F0470446DAB00D46A648A649FCF767
:10451000F9F9A649A348FCF7F5F9A549A148FCF724
:10452000F1F9A4499F48FCF7EDF9A3499D48FCF730
:10453000E9F9217AA14805F0AFFA08B9A04904E0E9
:10454000607A07F017F820B99E499648FCF7DAF927
:10455000B8E10AA805F0B0F9002D00F0E4809A490E
:104560009048FCF7CFF999498E48FCF7CBF904A89D
:1045700006F0AAFE04A806F0D7FF0546002847D09B
:1045800093498848FCF7BEF929468648FFF76FFE35
:1045900090498448FCF7B6F906F0DCFE8E4B1A68A9
:1045A0000292029F0025984606F064FF0646B8B9BD
:1045B000D8F800300393039BDB1BB3F57A7FF3D964
:1045C000013586497748EDB2FCF79CF93B2D07F59C
:1045D0007A77E9D982497348FCF794F93546E3E7DD
:1045E00080497048FCF78EF97F496E48FCF78AF9DC
:1045F00076496C48FCF786F901237C4A6F491AA872
:1046000005F0ECFA1AA90AA8FFF764FF1AA806E059
:1046100077494BE112A805F060F968B112A805F0DE
:1046200059F912A801220AA905F034FB12A805F0D5
:1046300094F90028EED16CE012A805F04CF905467B
:1046400012A805F067F9294607465648FCF75AF9BB
:1046500068495448FCF756F939465248FFF707FEB7
:1046600065495048FCF74EF929461AA809F0D8FDCB
:1046700062491AA809F0F8FE06461AA809F090FD4A
:104680003EB15F494748FCF73DF906F0FFFF02469F
:1046900004E05C494348FCF735F932463946284680
:1046A00007F0F0F848B3294606A807F025F8DDF82A
:1046B00018A0BAF1000F00F00081089E4FF000082A
:1046C000B8451ED24FF480721AA912A805F00DF950
:1046D000079D1FFA80F909EB0603AB4203D9B542E7
:1046E00009D9AD1B00E04D460AEB06002A461AA97F
:1046F00006F028FD2E44C844E2E743492948FFF765
:10470000BAFD37492748FCF7FDF812A805F019F95A
:1047100084E712A805F0DEF80AA805F012F93B4973
:104720002048FCF7EFF83A491E48FCF7EBF8274918
:104730001C48FCF7E7F8374B00221A8012AA4021E8
:104740001AA807F07DF980B11AA91648FCF7DAF823
:1047500028491448FCF7D6F812991248FFF787FD4C
:104760002D491048FCF7CEF8E8E72C490D48FCF736
:10477000C9F816490B48FCF7C5F8217A0F4805F02F
:104780008BF908B9264905E0607A06F0F3FE0028A7
:104790004AD124490348FCF7B5F801212068FEF707
:1047A00049FC86E08096FF1FA1250100B425010089
:1047B0000331010045260100503101008CD0FF1F5C
:1047C00013320100343201005A320100C6340100B4
:1047D0006A3201007C320100A4D3FF1FC7390100F7
:1047E000FE250100863201009A32010037370100B0
:1047F000BA320100F4300100EA3201003729010029
:10480000F532010008330100183301003033010094
:1048100045330100F6D2FF1F5E330100673301000C
:10482000B3310100DD3101000123284A28491AA8CB
:1048300005F0D4F91AA90AA8FFF74CFE1AA805F04A
:1048400049F806AD08AE12A801220AA905F022FA1D
:1048500012A805F082F810B312A805F03EF8B8B916
:1048600012A805F038F80146284606F045FF12A9BF
:104870001AA8FFF7A5FD96E803008DE8030020467F
:1048800095E80C001AA9FFF715FD1AA805F022F803
:1048900012A805F056F812A805F01CF8D3E712A8E4
:1048A00005F018F80AA805F04CF80A490A48FCF780
:1048B00029F80AA805F00EF804E008490648FCF7B4
:1048C00021F81EE75AB0BDE8F08700BF3737010076
:1048D0008CD0FF1F873301008096FF1FA333010098
:1048E00008B5807A08F0DEF8B0FA80F0400908BD1B
:1048F0002DE9F047D6B00446884602A800211746A5
:1049000009F08EFC0EA80122414605F0C3F90EA85D
:1049100005F023F8002800F0FD80A38A0133A3826C
:104920000025BD4205D080498048FBF7EBFF0135EB
:10493000F7E70EA804F0CFFF01467C48FBF7E2FF43
:104940000EA804F0CAFF054688B179497748FBF7FD
:10495000D9FF0EA916A8FFF733FD7A1C2046D2B264
:1049600016A9FFF7C5FF16A804F0B4FF0CE07149C3
:104970006E48FBF7C7FF0EA804F0CCFF2B4601469C
:104980000A226A4809F0FEFA257E05F0FD05012D90
:1049900040F0B5800EA804F0E0FF002800F0A480ED
:1049A00008F038F982460EA804F0B4FF064676B146
:1049B000B6F5807FB14628BF4FF480791FFA89F29F
:1049C00016A90EA804F091FFC9EB0606EFE708F060
:1049D00021F90546CAEB050557495448FBF792FFF4
:1049E00029465248FFF743FC54495048FBF78AFFD9
:1049F0000EA804F08FFF814628460AF01FFF0546E7
:104A000048460AF01BFF4E490AF070FF29460BF09A
:104A100021F80AF011FB4FF002090B460246CDF8CF
:104A20000090424809F0F4FA46494048FBF76AFF13
:104A30000EA804F050FF014602A809F06EFC02A97E
:104A400006A809F057FC404906A809F0D6FC8246A2
:104A50000EA804F05FFF0AF0F1FE39490AF046FFA4
:104A600029460AF0F7FF0AAD4A460146284609F0F2
:104A70005DFC2946504609F0B8FC324909F0BDFCFE
:104A8000014602A809F02FFC284609F089FB06A878
:104A900009F086FBD4F804A02C494FF00109284600
:104AA00009F0BEFB4FF478435A22314650468DE858
:104AB000200202F011F8284609F072FBD4F804A095
:104AC00002A9284609F016FC4FF4FC636422314623
:104AD00050468DE8200201F0FFFF284609F060FBF8
:104AE0000EA804F02EFF0AE019491048FBF70AFF50
:104AF00029462068FEF79EFAE3890133E3811549D0
:104B00000A48FBF7FFFE0EA804F01BFF0EA804F0F6
:104B1000E1FEF7E60EA804F0DDFE02A809F040FB76
:104B200056B0BDE8F08700BFF53001008096FF1F4A
:104B3000C9330100F4300100CD330100D833010046
:104B400000007A44E63301008E240100F2330100B4
:104B5000FB330100FE25010030B59DB00A22054659
:104B60008189684609F08FFB694604A809F0C2FBF9
:104B70002C4904A809F041FC0446032007F092FFE9
:104B8000014608A809F06CFB08A9204609F02DFC95
:104B9000254909F032FC0446042007F083FF014652
:104BA0000CA809F05DFB0CA9204609F01EFC1F4C67
:104BB000014614A809F09EFB14A9204609F09DF9AE
:104BC0001B492046FBF79EFE14A809F0E9FA0CA841
:104BD00009F0E6FA08A809F0E3FA04A809F0E0FAF7
:104BE000684609F0DDFA13492046FBF78BFE0123E6
:104BF000114A12490CA804F0F1FF0CA914A8FFF700
:104C0000DFFB002214A92846FFF772FE14A804F067
:104C100061FE0CA804F095FE0CA804F05BFE1DB02C
:104C200030BD00BF1E340100263401008096FF1FF6
:104C3000FE2501002C340100373701008CD0FF1F06
:104C40002DE9F043794B0027E5B004461F80002191
:104C500004A809F0E5FA03AA402114A8BDB206F0A1
:104C6000EFFE00283FD0638A7149724801336382A6
:104C7000FBF748FE14A96F48FBF744FE6E496D48E8
:104C8000FBF740FE03996B48FFF7F1FA6B4969485F
:104C9000FBF738FE14A908A806F02EFD14A924A8D5
:104CA00009F0BEFA24A904A809F02FFB24A809F0F2
:104CB00077FA237E0BB1032B0CD1089B2BBB6049E9
:104CC0005C48FBF71FFE01212068FEF7B3F9238A39
:104CD000013323825B495748FBF714FE04A809F00F
:104CE0005FFA0137B3E755B9238A57495148013371
:104CF0002382FBF707FE01212068FEF79BF904A839
:104D000009F04EFA65B0BDE8F08307F083FF039E1B
:104D100081466EB1B6F5807FB04628BF4FF48078EB
:104D2000424624A908A8FEF78BF9C8EB0606F0E76F
:104D300007F070FF0546C9EB050544493D48FBF700
:104D4000E1FD29463B48FFF792FA41493948FBF714
:104D5000D9FD28460AF072FD054603980AF06EFD5B
:104D60003C490AF0C3FD29460AF074FE0AF064F9D2
:104D70004FF002080B460246CDF800802D4809F09E
:104D800047F935492B48FBF7BDFD04A90CA809F0EC
:104D9000B1FA29490CA809F030FB814603980AF0C2
:104DA0004DFD2C490AF0A2FD29460AF053FE10AD34
:104DB00042460146284609F0B9FA2946484609F014
:104DC00014FB254909F019FB014604A809F08BFAE8
:104DD000284609F0E5F90CA809F0E2F9D4F80490A6
:104DE0001E494FF00108284609F01AFA4FF478439B
:104DF0005A22314648468DE8200101F06DFE2846D2
:104E000009F0CEF9D4F8049004A9284609F072FA02
:104E100048468DE820014FF4FC636422314601F0DE
:104E20005BFE284609F0BCF954E700BFF6D2FF1F2D
:104E3000632901008096FF1F8E2401003934010090
:104E4000FB330100FE25010040340100CD33010099
:104E5000D833010000007A44E6330100D127010075
:104E600070B5B249A2B00446B148FBF74BFDB14959
:104E7000AF48FBF747FDB049AD48FBF743FDAF49ED
:104E8000AB48FBF73FFDAE49A948FBF73BFDAD49F9
:104E90001AA809F0C5F9A189013189B20A22A181B4
:104EA00016A809F0F0F916A91AA809F09EFAA64961
:104EB00009F0A3FA1EAD0146284609F01BFA29465F
:104EC0009B4809F01AF8284609F06AF916A809F073
:104ED00067F91AA809F064F99C4916A809F0A0F925
:104EE0000A22218A12A809F0CEF912A916A809F0FF
:104EF0007CFA974909F081FA0A220646618A1AA8C3
:104F000009F0C1F91AA9304609F06FFA8E4909F083
:104F100074FA0146284609F0EDF92946844808F05C
:104F2000ECFF284609F03CF91AA809F039F912A853
:104F300009F036F916A809F033F9864916A809F0E0
:104F40006FF90A22E18912A809F09DF912A916A8A1
:104F500009F04BFA7E4909F050FA0A220646A18A66
:104F60001AA809F090F91AA9304609F03EFA7649D4
:104F700009F043FA0146284609F0BCF929466C4875
:104F800008F0BBFF284609F00BF91AA809F008F948
:104F900012A809F005F916A809F002F92046FFF752
:104FA0009FFC6D49A0756248FBF7ACFC6B4A6C4BEB
:104FB000A17D5F48002914BF11461946FBF7A2FCEA
:104FC00068495B48FBF79EFC67495948FBF79AFC28
:104FD00063680021186803F085F800231A466349C6
:104FE000606801F0EDFE62490AA809F019F90A2289
:104FF000A18906A809F047F906A90AA809F0F5F958
:105000005C4909F0FAF90A220646218A0EA809F03D
:105010003AF90EA9304609F0E8F9574909F0EDF9D7
:105020000A220646618A12A809F02DF912A9304613
:1050300009F0DBF9514909F0E0F90A220646E18955
:1050400016A809F020F916A9304609F0CEF94A4908
:1050500009F0D3F90A220646A18A1AA809F013F921
:105060001AA9304609F0C1F9454909F0C6F90A22E2
:105070000646A17D284609F006F92946304609F082
:10508000B4F9014602A809F035F9284609F088F874
:105090001AA809F085F816A809F082F812A809F0F4
:1050A0007FF80EA809F07CF806A809F079F80AA89C
:1050B00009F076F8666802A9284609F01BF9002174
:1050C0004FF6FF732D2201913046009501F004FD4B
:1050D000284609F065F82B491548FBF713FC2A49C7
:1050E0001348FBF70FFC29491148FBF70BFCA37D84
:1050F000002B53D0217A264804F0CEFC58B925491C
:105100000B48FBF7FFFB01212068FDF793FFE389C4
:105110000133E38146E00123E3751F490448FBF7AF
:10512000F1FB2046FFF718FD3CE000BFA125010080
:105130008096FF1FB42501000331010045260100C0
:10514000503101006A3401008F2601007C340100D7
:105150009234010096340100AC340100A730010004
:10516000DD300100FE250100C23401008C25010064
:105170006F3401001335010037370100233501007A
:1051800035350100443501009235010045350100F7
:105190008CD0FF1FB3310100AB350100174918480F
:1051A000FFF769F817491648FBF7ACFB1649144896
:1051B000FBF7A8FB15491248FBF7A4FB607A06F041
:1051C000D9F938B9238A12490D4801332382FBF7F4
:1051D00099FB06E00F490A48FBF794FB2046FFF7CE
:1051E0002FFD0D490648FBF78DFB01212068FDF7D7
:1051F0001BFF02A808F0D4FF22B070BDCB35010020
:105200008096FF1F44350100E5350100453501005A
:10521000DD310100003601002236010010B5002109
:1052200004460C3008F0FCFF204610BD03779DF8C3
:105230000030016243774262704738B5002304684A
:105240004360036003818CB104F12400E56B08F036
:10525000A7FF04F1140008F0A3FF204608F0A0FF08
:105260002046442109F000FA2C46ECE738BD43689B
:105270003BB19B6B2BB143600389013B0381012050
:1052800070471846704743683BB1DB6B2BB14360F6
:10529000038901330381012070471846704791420A
:1052A0000DD00AB1936B00E013468B6302B191639A
:1052B0008B6BCA630BB1D96301E0016041600846A2
:1052C00070470268FFF7EBBF19B18B6B0BB1194642
:1052D000FBE70846704719B1CB6B0BB11946FBE7EA
:1052E00008467047F8B5036806460C46002A14BF06
:1052F00017461F4613B9346074601BE03946FFF748
:10530000E3FF054685B12946204609F0BFF808B9F4
:10531000ED6BF7E7AB6BA363AB6BE56303B1DC63EA
:10532000AC63A36B33B9E6E739463046FFF7D3FFEA
:10533000A063C4632046F8BD10B50468A1420346CB
:105340000A4604D1C96B0020886319600BE0FFF79F
:10535000C2FF8242936B1DBFD16BD963D16B002119
:105360000CBFD9638B630023D3639363104610BDD6
:10537000914270B506460C46154608D0FFF7DCFF93
:105380002A4621463046BDE87040FFF788BF0846F0
:1053900070BD10B50C46FFF797FF00220346D96B8E
:1053A00090B229B1A34202F1010201D00B46F6E707
:1053B00010BDFFFF2DE9F04F054689B021B1036A0A
:1053C0000021186802F08EFE2B6A0121186802F095
:1053D00088FD2B6A0021186802F077FD2B892E6862
:1053E0000B2B0BDD00220C3B9A4202DAF66B0132EA
:1053F000FAE72B6A0021186802F074FE0027286A79
:10540000002E6DD0822F6BD000233AB205210068A8
:1054100002F0F4FC96F8403004ACBBB196F834309E
:10542000D5F82080324920462BB908F0F9FE2246F3
:1054300040F2FF7104E008F0F3FE22464FF6E071FF
:10544000404601F071FB204608F0AAFE6B684FF65B
:10545000FF789E4208BF4FF4FC682B6A0021186851
:1054600002F03CFDD5F820903146204608F042FF7E
:1054700022464146484601F057FB204608F090FE80
:1054800096F8403043BB6B681A4906F1240B4FF67F
:10549000E07858469E4208BF4FF47C4808F0E4FF8D
:1054A00002460390D5F820905FFA87FA59462046C5
:1054B00022B908F01FFF039A019203E008F01AFFD7
:1054C000002301934846009443465246592101F077
:1054D00003FB204608F064FE0A37F66BBFB28EE786
:1054E0000221006802F0FDFC09B0BDE8F08F00BFAA
:1054F00071300100F630010010B50021044608F0BB
:105500008FFE002104F1140008F08AFE002104F14E
:10551000240008F085FE0023A363E363204610BD4A
:105520002DE9F04305469BB0407F0C4690469946D6
:1055300006F020F820B93F493F48FBF7E3F976E051
:10554000CCB1442009F08EF80446FFF7D5FF0123C3
:1055500084F84030002384F834303849204608F07D
:10556000DCFE374904F1140008F0D7FE2146284636
:10557000FFF7A7FE5BE02846FFF75FFE304905F125
:105580000C0008F0CAFE2F4B1C8001AA40210AA87B
:1055900006F056FA00284AD00AA906A808F040FEEC
:1055A00006A809F045F80446484609F041F80146C6
:1055B000204608F070FF044606A808F0F1FD002C14
:1055C000E3D0442009F04EF804460026FFF794FF8C
:1055D0000AA984F84060204608F09FFE04F12407E1
:1055E000019B236184F834601749384608F095FE22
:1055F000214606A808F07EFE06AA3346414602A8C8
:1056000000F0BAFD02A9384608F07FFE02A808F0B3
:10561000C7FD06A808F0C4FD0C4904F1140008F009
:105620007CFE324621462846FFF75CFEADE71BB004
:10563000BDE8F083F23601008096FF1F11370100AC
:1056400024370100F6D2FF1F39370100F630010080
:105650002DE9F04FA1B000AF05468846994697F86E
:10566000A830BB609246FFF7E8FD414605F10C000B
:1056700008F039FE6B6A987A07F014FA064600289B
:1056800040F04081297FAC4804F006FA002800F081
:10569000398107F14000C7F80CD004F00DF9D8F8B3
:1056A0000840E31D23F00703ADEB030D224631460E
:1056B000684607F0B3F8621C33466946404607F176
:1056C000600408F0FDFE01236A469B49204604F071
:1056D00085FA97F8643087F84430BB6EBB6497F85E
:1056E0006C3087F84C30A21907F14003334401367F
:1056F000527B5A730D2EF6D1FB6FFB65204604F0EA
:10570000E9F8012207F14001204604F0C3FA2046DF
:1057100004F023F906462046002E00F0D98004F05C
:10572000DCF8002848D0204604F0D5F8014607F1FF
:10573000300008F075FD07F1300008F079FF7F496F
:1057400008F092FE834607F1300008F029FDBBF116
:10575000000F31D1442008F085FF0646FFF7CCFE4C
:10576000204604F0B8F80146304608F0D6FD204641
:1057700004F0D0F8012386F840304146306107F14B
:1057800030007B6008F0B6FD204604F0A4F8014626
:1057900007F1300008F031FE2F2108F03CFE0146F1
:1057A00006F1140008F09FFD07F1300008F0F8FC46
:1057B0007B6886F8343082E0204604F08CF801469D
:1057C00007F1200008F02CFD07F1200008F023FF6E
:1057D0000646484608F01FFF0146304608F05BFECB
:1057E000B0B1204604F077F8014607F1300008F028
:1057F00017FD07F1300008F01BFF504908F034FE98
:10580000B0FA80F607F13000760908F0C9FC06E02E
:105810004B49484608F028FE0028E2D1064607F129
:10582000200008F0BDFC002E4ED0442008F01AFFE6
:105830000646FFF761FE204604F04DF8014630466B
:1058400008F06BFD204604F065F84FF0000B06F100
:10585000140230614146104686F840B03A6008F0C4
:1058600042FD3A680123114686F8343007F11000F2
:105870007B6008F03FFD314607F1100008F0B5FDF0
:10588000014607F1200008F035FD7B6807F1200292
:10589000514607F1300000F06FFC07F1300106F1CE
:1058A000240008F032FD07F1300008F079FC07F120
:1058B000200008F075FC07F1100008F071FC5A4652
:1058C00031462846FFF70EFD204604F03AF815E76A
:1058D00004F000F8BB687BB12C68324664B194F8E0
:1058E0004030E66B33B102B92A6821462846FFF7FB
:1058F0003FFDE26B3446F1E707F1400003F0EAFFB9
:10590000D7F80CD00F49404608F0AEFD78B10C49ED
:1059100007F1600008F084FC284607F160030022CC
:105920000121FFF7FDFD07F1600008F039FC843725
:10593000BD46BDE8F08F00BF8CD0FF1F413701008E
:10594000F630010037370100704730B49DF8085039
:105950009DF80C404572847241600260037230BC55
:10596000FCF760B870B5436886B0064602AC1868AC
:10597000002102F0B7FB75682149204608F050FC71
:10598000002101914FF6E0733C222846009401F07B
:10599000A3F8204608F004FCFBF79AFB051C18BF8F
:1059A00001254DB1FBF794FB051C4FF4FA7018BFAD
:1059B000012507F04DF9F4E776681249204608F012
:1059C0002FFC01233C222946019300944FF4FC63F1
:1059D000304601F081F8204608F0E2FBFBF778FB47
:1059E000041C18BF01244CB9FBF772FB041C40F6E1
:1059F000B83018BF012407F02BF9F4E706B070BDEA
:105A00004A3701005F3701002DE9F04F87B00446A7
:105A1000059301F0010304939DF810908B461746FF
:105A20004E080025059BAB4259DD4FF6E0734FF061
:105A300000084A4631460393606802970123CDF877
:105A40000480CDF8008001F07BF85846FCF7CAFAD4
:105A50000120FCF7E5FAB0F1FF3F824611D04FF488
:105A6000FC6303930297CDF80480CDF800800123F6
:105A70004A463146606801F063F8BAF1000F22D05F
:105A80003AE04FF4784301350393012300934A46EB
:105A9000314660680297019501F052F8184919489B
:105AA000FAF730FF2946174808F0A7FA16491548B3
:105AB000FAF728FF20684146FDF7BCFA4FF47A70E8
:105AC00007F0C6F8AEE7BDB14FF47C4303930297ED
:105AD000CDF804A0CDF800A001234A4608E04FF419
