:1000000000800020BD01000069F3000035F300000E
:1000100035F3000035F3000035F3000035F3000040
:1000200035F3000035F3000035F3000069F30000FC
:1000300069F3000035F300004DDD00003DDD0000F8
:1000400069F3000069F3000069F3000069F3000040
:1000500069F3000069F3000069F3000069F3000030
:1000600069F3000069F3000069F3000069F3000020
:1000700069F3000069F3000069F3000069F3000010
:1000800069F3000069F3000069F3000069F3000000
:1000900069F3000069F3000069F3000069F30000F0
:1000A00069F3000069F3000069F3000069F30000E0
:1000B00069F3000069F3000069F3000069F30000D0
:1000C00069F3000069F3000069F3000069F30000C0
:1000D00069F3000069F3000069F3000069F30000B0
:1000E00069F3000069F3000069F3000069F30000A0
:1000F00069F30000219E000069F30000599D000093
:1001000069F30000CF9C000069F3000069F3000070
:1001100069F3000069F3000069F3000069F300006F
:1001200069F3000069F3000069F3000069F300005F
:1001300069F3000069F3000071C1000069F3000079
:1001400069F3000069F3000069F3000069F300003F
:1001500029DD000015DD000001DD0000EBDC000002
:1001600069F3000071A0000069F3000069F300006A
:1001700069F3000069F3000069F3000069F300000F
:1001800069F3000069F3000069F3000069F30000FF
:1001900069F3000069F3000069F3000069F30000EF
:1001A00069F3000069F3000069F3000069F30000DF
:1001B00069F3000069F300007DDD000008B55B4BCA
:1001C0004CF220521A804DF628121A8000BF00BF50
:1001D000102223F80E2CA3F51F43DE3B4FF01062D4
:1001E0001A60534A9A60534ADA60534A136813F408
:1001F000807301BF51490B604FF4A8531360504BFB
:1002000050491A78100742BF1A7842F008021A7053
:100210004D4B2A221A704D4A4D4B8B4204D252F854
:10022000040F43F8040BF8E74A4B4B4A0021934272
:1002300002D243F8041BFAE7484A4948002350F821
:10024000231042F8231001336F2BF8D1454B464A57
:10025000802103F8011B9342FBD1444B3F4A1A60B3
:10026000434B8A221A70A3F5805324225A70A0228D
:100270001A709A799107FCD59A79D206FCD43D4A36
:10028000937903F00C03082B3A4BF9D103221A712E
:1002900040225A719A799406FCD536498A79354BB1
:1002A0005006FBD5344A35491160022151602022A5
:1002B0001A709A7902F00C020C2AFAD1304B314AAA
:1002C0001A60314B314A1A60002407225C6043F8FF
:1002D000042C2F4AC3F80C2D62B60FF093F8174B7D
:1002E0001A68D1070AD52B4A2B491C60146042F8C2
:1002F000041C10221A60294A29491160294A1278DF
:1003000052060ED52549264A0868904209D121484F
:10031000214C00221A60026040F8044C1020186042
:100320000A6013F0B1FE0FF0C1F900BF0E200540C6
:10033000823F04000100002B10D0034014D0034082
:1003400002D007400498FF1F00E0074024CC0100C2
:100350001C93FF1F0498FF1F1CDBFF1F008EFF1F55
:100360000000000000E400E05FE400E008ED00E0D1
:100370000050064000400640448004400000030155
:1003800004800440C010050014E000E0FF76010086
:100390000000202004D00340EC2A37621CE0034018
:1003A000A5C3945A00F00740FFFFFFFFFFFFFFFFC8
:1003B000FFFFFFFFFFFFFFFFFFFFFFFFFFFFFFFF4D
:1003C000FFFFFFFFFFFFFFFFFFFFFFFFFFFFFFFF3D
:1003D000FFFFFFFFFFFFFFFFFFFFFFFFFFFFFFFF2D
:1003E000FFFFFFFFFFFFFFFFFFFFFFFFFFFFFFFF1D
:1003F000FFFFFFFFFFFFFFFFFFFFFFFFFFFFFFFF0D
:10040000FFFFFFFFFFFFFFFFFFFFFFFFDEF9FFFF23
:1004100010B5054C237833B9044B13B10448AFF33E
:1004200000800123237010BD0498FF1F000000000E
:1004300028CC0100084B10B51BB108490848AFF3A0
:1004400000800848036803B910BD074B002BFBD0A0
:10045000BDE81040184700BF000000000898FF1FCB
:1004600028CC01000498FF1F000000002DE9F04F88
:100470000B68ADF60C5D0D46049043B1013B0021C5
:1004800013F8012F1AB10A2AFAD11970F8E72B686C
:1004900043B1013B002113F8012F1AB10D2AFAD103
:1004A0001970F8E729460EA80DF0D3FE0DF60814D2
:1004B000B04912A80DF0D8FEAF4920460DF0D4FE89
:1004C0002146284613F00DFA064620460DF032FD6F
:1004D000002E3EDDA8490DF5A1600DF0C5FE0DF51D
:1004E000A161284613F0FDF9AB68421C294620465D
:1004F0000DF063FE214612A80DF0AAFD20460DF076
:1005000019FD0DF5A1600DF015FD9B4920460DF07C
:10051000ABFE2146284613F0E4F9109A904212D21D
:10052000A96881B143189A4238BF111A0E9B521A1A
:10053000014419441092121A184415F011FF0E9A32
:10054000109B0021D15420460DF0F4FC0EA80DF0B4
:100550000EFD8A490EA80DF053FD20B988490EA85A
:100560000DF04EFDE8B18749874807F064F804991B
:10057000204610310DF06DFE214683480DF0E3FE5C
:100580008249814807F057F820460DF0D3FC12A8A5
:100590000DF0D0FC0EA80DF0CDFC0DF60C5DBDE805
:1005A000F08F7B490EA80DF02BFD28B979490EA8D4
:1005B0000DF026FD002865D07749734807F03BF819
:1005C0007649714807F037F875496F4807F033F8F6
:1005D00074496D4807F02FF873496B4807F02BF802
:1005E0007249694807F027F87149674807F023F80E
:1005F0007049654807F01FF86F49634807F01BF81A
:100600006E49614807F017F86D495F4807F013F825
:100610006C495D4807F00FF86B495B4807F00BF831
:100620006A49594807F007F86949574807F003F83D
:100630006849554806F0FFFF6749534806F0FBFF3D
:100640006649514806F0F7FF65494F4806F0F3FF49
:1006500059494D4806F0EFFF62494B4806F0EBFF61
:100660006149494806F0E7FF6049474806F0E3FF63
:100670005F49454806F0DFFF5E49434806F0DBFF6F
:100680005D490AE05D490EA80DF0BAFC20B95C494D
:100690000EA80DF0B5FC20B15A493B4806F0CBFF3F
:1006A00075E759490EA80DF0ABFC08B1574905E0B4
:1006B00057490EA80DF0A4FC00B3564920460DF092
:1006C000D3FDFA23012221460DF5A1600FF0E0FDD4
:1006D00020460DF02FFC0DF5A16120460DF0B9FD6F
:1006E000214629480DF02FFE2849274806F0A3FF90
:1006F00020460DF01FFC0DF5A16046E746490EA807
:100700000DF07EFC08B14549D8E745490EA80DF02B
:1007100077FC002800F0FA80174920460DF0A4FD70
:10072000214612A813F0DDF80022034612A942A8C0
:100730000DF043FD20460DF0FDFB0F4920460DF066
:1007400093FD214612A813F0CCF812A9421C149B69
:10075000C2A80DF032FD20460DF0ECFB054942A881
:100760000DF04EFC00285FD02E49074806F063FFCD
:10077000C7E000BF829801009A7A0100AB740100C3
:10078000B3740100957D0100D894FF1FDE90010035
:100790009F7D0100B7740100A47D0100F67D01007A
:1007A000487E01009A7E0100EC7E01003E7F010040
:1007B000907F0100E27F010034800100868001000B
:1007C000D88001002A8101007C810100CE810100D6
:1007D0002082010072820100C482010016830100A0
:1007E00068830100BA8301000C8401005E8401006B
:1007F000B08401000285010054850100A685010036
:10080000B9740100AC850100B4850100BD7401001C
:10081000C5740100CA740100D0740100D3740100D2
:10082000D7740100DF740100AA49C2A80DF0E8FBEB
:10083000002899D1A84920460DF016FD214612A89E
:1008400013F04FF8054620460DF074FB01358BD0B0
:10085000049B9D6A42A920460DF0FBFC21462846D8
:1008600012F094FF20460DF065FB049B9D6AC2A91F
:1008700020460DF0EEFC2146284612F061FF20468E
:100880000DF058FB049B986A10F082FB049B42A970
:100890005D6A20460DF0DDFCC2A90DF5A1600DF0EA
:1008A000D8FC0DF5A1622146284612F095FF0546B9
:1008B0000DF5A1600DF03EFB20460DF03BFB6DB148
:1008C0008649874806F0B7FE42A920460DF0C1FCD4
:1008D000214683480DF037FD82490CE0824980486B
:1008E00006F0A9FE42A920460DF0B3FC21467C4843
:1008F0000DF029FD7D497A4806F09DFE20460DF059
:1009000019FBC2A80DF016FB42A83EE678490EA8D6
:100910000DF076FB0546002867D000200BF062FD45
:10092000744D002455F8043F002B32DD204616F0AC
:100930009DFA714916F0EEFA4FF07A5116F0E2F98D
:1009400015F08EFE02230246009365480B4612F016
:1009500017FE6A49624806F06EFE214660480FF0B5
:10096000DDFB67495E4806F066FE29685C480FF0CB
:10097000D5FB002680272B6893FBF7F3B34205DDF8
:100980006049574806F057FE0136F4E754480DF029
:10099000C0FC0134B4F5807FC4D15B4C5B49504846
:1009A00006F049FE20780BF073FD01464C480FF02D
:1009B000B5FB57494A4806F03EFE207812F0D8FDB4
:1009C0005449474806F037FE5349454806F033FE80
:1009D00060780BF05DFD014641480FF09FFB4F49E9
:1009E0003F4806F028FE607827E04D490EA80DF03C
:1009F00007FBC8B101200BF0F5FC4A4E2C4656F817
:100A00002450E8B211F038FBC5F3072011F034FB95
:100A1000C5F3074011F030FB0134280E11F02CFB18
:100A2000B4F5807FEBD1B2E53F490EA80DF0E8FAAE
:100A300038B13E4B3E4A1B68D05C12F099FD01F084
:100A4000AEB93C490EA80DF0DBFA38B13A4924485A
:100A500006F0F1FD20460BF039FE8DE537490EA872
:100A60000DF0CEFA0546002870D01A4912A80DF0F4
:100A7000C7FA18B1324912A80DF08AFB3149324F3A
:100A80000DF5A1600BF00AFA12A812F0E7FE4FF480
:100A9000B0535843CDF81005002541F234764FF499
:100AA000007221460DF5A16008F03AFF05F11B0226
:100AB0003A440023E15C02F8011F0133B3F5007FE3
:100AC000F8D105F50775B542E9D1164B0B2283F82D
:100AD00000245CE5829801009A7A01000775010004
:100AE000D894FF1FA2850100167501002D75010025
:100AF000387501001C98FF1FACAA2A3D51750100F2
:100B000024AD01003D7501000094FF1F3F750100F9
:100B10004B750100DE900100537501005F75010007
:100B2000677501002098FF1F6C750100F095FF1F8D
:100B3000C9CEFF1F71750100767501008175010036
:100B4000897C010087750100D09CFF1F9D490EA87C
:100B50000DF056FA0646002842D012A812F07EFE8A
:100B600099499A4C02469A4812F02CFF12A812F0AA
:100B700075FE0BF0F1FC28460EF076FF9549054610
:100B8000934806F058FD94F8000412F0F1FC9249E5
:100B90008F4806F050FD0222E9B28D4812F0E4FCC5
:100BA0008E498B4806F047FD12A812F057FE014609
:100BB00087480DF0C1FB8A49854806F03CFD0BF0E3
:100BC000CFFB014682480FF0A9FA8649804806F01B
:100BD00032FDD4F804147E480FF0A2FA82495CE595
:100BE00082490EA80DF00CFA002800F0D986802268
:100BF000334622A912A80EF043FD7D4974487D4F6B
:100C000006F019FD049BD3F8208022A920460DF0A0
:100C10002BFB214608F10C000DF02EFA20460DF0BA
:100C200089F975496A4806F006FD282015F040F854
:100C3000054618B9BB687148984747E1D7F828902E
:100C4000012242600262D9F8003022A9984720B1FF
:100C5000284615F035F8354638E1AB68B3F55C2F1A
:100C600014D0674A934211D002F5305293420DD00E
:100C700002F53052934209D0B3F5DC1F08D009DCED
:100C8000BB68604898474FF0FF3304E0012302E05F
:100C9000022300E00323012B2B60C0F20681022B0C
:100CA00002DD032B4ED000E1012B4FF050026A61B0
:100CB00008BF0B234FF0020218BF1623AA61EB6195
:100CC000402014F0F5FF064608B9BB6835E0002364
:100CD000E9694360A02359434B1E83600127022327
:100CE00091FBF3F14FF40073C1608762036205600A
:100CF00022460EF0E5FA014618B1304614F0E0FF46
:100D0000D6E023220DF5A16012F06AFE94F8B0211E
:100D10000DF6B9210DF5A16013F054FA0DF5A1609F
:100D200016F056FB7062042014F0C2FF286130B93F
:100D3000304614F0C5FF2F4B9B683348B7E0066080
:100D4000EF60C3E0296A49B1D9F804600DF5A163E9
:100D50004FF4007200212846B04706E00DF5A1636C
:100D60004FF40072284606F0D7FA82462B6A60B12B
:100D7000BA6A1BB113692846984702E0284606F074
:100D8000A9FDBB68214898479CE0002B40F0888073
:100D900003220DF5A1611E4814F00CF900287FD143
:100DA00004202860C5F80CA014F082FF8346286157
:100DB00020B1402014F07CFF064668BBBB68154894
:100DC00075E000BF94750100997501002098FF1F20
:100DD000D894FF1FAB750100BB750100CB750100F6
:100DE000DD750100EC750100F87501000576010064
:100DF0000A760100289CFF1F147601002C76010062
:100E000000EC0D0047760100687601007A7601005B
:100E100008A60100A17601000123A968EB60AB617F
:100E2000EB619B4BCBF800000B40002BBEBF03F1E6
:100E3000FF336FEAC3536FEAD3534FF40072B8BF66
:100E4000013391FBF2F26A6101F50072D31AC0F826
:100E500024A04FF48062C0F804A093FBF2F3C360B7
:100E600023464FF40072F168284606F055FA2368CD
:100E7000B3F1007F41F03B80D4F8FC311BBA012B69
:100E800041F03580F268012A02DD002BE8D003E052
:100E900002D1BB687F480AE05200013AB26015E017
:100EA000284606F025FD88B102E0BB687A489847DD
:100EB0002B6A23B1D9F810302846984702E028461B
:100EC00006F008FD284614F0FBFE00257349C8F81B
:100ED0000450734806F0AFFB7249714806F0ABFB53
:100EE000049B1B6A5B68002B00F014856E496C48FC
:100EF00006F0A1FB049B6D491E6A6948756806F0FF
:100F00009AFB6B49664806F096FB06F10C012046F9
:100F10000DF09FF9214662480DF015FA65496048C9
:100F200006F089FB20460DF005F863495C4806F0A1
:100F300082FB2B68013B032B0DD8DFE803F0020492
:100F400006085E4904E05E4902E05E4900E05E4951
:100F5000534806F070FB5D4951485D4F5D4E06F009
:100F60006AFB69694E480DF0E7F952494C4806F0B2
:100F700062FB59494A4806F05EFBA96948480DF0F2
:100F8000DBF94C49464806F056FB5449444806F004
:100F900052FBE96942480DF0CFF94649404806F056
:100FA0004AFB4F493E4806F046FBA9683C480DF015
:100FB000C3F940493A4806F03EFB4A49384806F032
:100FC0003AFB296A364800290CBF3946314606F0FB
:100FD00032FB3849324806F02EFB4349304806F0D0
:100FE0002AFB69682E4800290CBF3946314606F0B5
:100FF00022FB30492A4806F01EFB3C49284806F0EF
:101000001AFBE96826480FF089F82A49244806F0B7
:1010100012FB3749224806F00EFB049B1B6A05931E
:101020005B6813B1DA68002A03DC324B32489B68F4
:101030008EE01A69156801262B60AE6222460021F7
:10104000284606F07FF900287FD131460DF6083298
:10105000284606F077F90646002876D14FF48062DC
:1010600021460DF5A16013F0ADF831460DF5A160F4
:101070000EF0C6F803220DF5A161204813F09AFF87
:1010800000283FD01B4B1E485B6898475DE000BFBF
:10109000FF010080B9760100DE76010000770100D3
:1010A000D894FF1F0A76010018770100217701000C
:1010B00028770100DE900100397701004A770100AE
:1010C0006277010078770100837701008E77010055
:1010D0009D740100987401009F770100B0770100B2
:1010E000C1770100D2770100E3770100F4770100B6
:1010F00005780100289CFF1F0E78010008A601005A
:101100002E7801009DF814354BB327460646012E74
:101110000FD07B7814F82610FA7843EA0121BB78C7
:1011200042EA032343EA0143C243934288BF0130AA
:1011300018440136B6F5807F07F10407E7D1DDF8E2
:101140000C35C043834206D109E06C4B6C485B68A8
:1011500098470025E0E0694B6A485B6898479DF82E
:101160000B352B74DB074CBF4FF400734FF4F47353
:10117000EB610123AB6142AAE96828460EF0A0F8B2
:1011800018B15E4B60485B68E2E76A68AB689B1A1F
:10119000013B4FF47E6293FBF2F702FB173303B17E
:1011A00001374FEA8709EF62484614F081FD064691
:1011B000686318B9514B55489B680BE0484614F0DA
:1011C00077FD8046286338B9304614F079FD4B4BE3
:1011D0004F489B6898479DE0484614F069FDA86316
:1011E00018B14FF00008C14606E0304614F068FD23
:1011F0004046EAE708F1010847451FDDAB6B6E6B1F
:1012000043F828904FF4007014F052FD46F828007F
:101210006B6B53F82860002EECD1A86B14F050FDD6
:10122000286B14F04DFDB04506D06B6B53F82600CB
:1012300014F046FD0136F6E7686BC6E7DFF8BCA0A0
:101240000DF51079002659F8048FB8F1000F17D06A
:101250002B6B4FEA860B43F82680C0F24E86AB68B4
:101260006A689B1A984500F348866B6B414653F8B1
:101270000B20284606F0DEFD90BB0136192EE2D188
:10128000AA99DFF87890002944D02246284606F033
:1012900059F8834620BB0DF542784FF40072214681
:1012A000404612F08FFF052140460DF0A9FF4FEA9E
:1012B000860AB7421FDD58F80B100029C0F22386BA
:1012C000AB686A689B1A994200F31D860AEB0B0310
:1012D0002A6BD1506A6B2846D25806F0ABFD18B184
:1012E000284606F08BFD15E00BF1040BBBF5FE7FE5
:1012F00006F10106DDD1D8F8FC11C4E7289CFF1FD8
:1013000052780100BB8501006F7801008C780100E4
:10131000B5780100EB68EB63059B9D60049B1B6A3D
:101320009B68002B00F0F4828349844806F083F91F
:10133000049B83491B6A81489D6806F07CF98149BA
:101340007E4806F078F9696A7C4806F074F97E49AF
:101350007A4806F070F97D49784806F06CF92B7CE4
:101360007B4A7C49754813F0010F7B4B18BF1A4626
:1013700012F028FB2B7C9F0703D578496F4806F0B5
:101380005AF92B7C5E0703D575496C4806F053F972
:101390006D496A4806F04FF97249684806F04BF902
:1013A000296A66480EF0BAFE6749644806F043F9B8
:1013B0006D49624806F03FF9E96960480EF0AEFEFB
:1013C00061495E4806F037F968495C4806F033F930
:1013D00069695A480EF0A2FE5B49584806F02BF99D
:1013E0006349564806F027F9284606F04FFD0146A6
:1013F00052480CF0A1FF5F49504806F01CF9AB6859
:1014000069684E48591A01310CF096FF4E494B4815
:1014100006F011F95849494806F00DF9284606F03A
:1014200035FD15F023FD554915F074FDAB680646F2
:101430006868181A013015F019FD0146304615F09C
:101440001DFE01464D484E4E15F05AFC15F008F9A8
:1014500002230246009339480B4612F091F849499D
:10146000364806F0E8F84849344806F0E4F84749B9
:10147000324806F0E0F84649304806F0DCF8736A76
:10148000E96BB146002B00F083812B7C580740F1BB
:101490007F81C2AA284605F08FFF002840F0EF8127
:1014A000DDF8007505900446B1460DF60812394680
:1014B000284605F047FF002840F0E1814FF4007214
:1014C0000DF608110DF5A16012F07CFE04210DF55A
:1014D000A1600DF095FE4FF4007214210DF6081076
:1014E0000DF070FEDDF81C65864203D0D9F804309B
:1014F00028489847DDF80835212B03D0D9F8043067
:1015000025489847DDF80C359F4203D0D9F80430C0
:101510002248984700260696DDF81435069A93422D
:1015200040F33081382014F0C3FB0746C0BB20468F
:1015300005F0A9FF3C46A3E1DF780100D894FF1F26
:10154000E8780100F2780100DE90010003790100E3
:10155000A7740100CD7A0100A37401001479010081
:101560001A790100247901003579010046790100DA
:1015700057790100C97A0100687901000000C8426A
:10158000289CFF1F797901007D7901008A7901008B
:10159000C2790100107A0100347A0100587A010002
:1015A0000DF5A46306F118089A5D0DF221530DF2B2
:1015B0001D109B5D43EA02220DF22253995D0DF24C
:1015C00023539B5D43EA012343EA0243089342937A
:1015D0000DF224539A5D0DF225539B5D43EA0222DE
:1015E0000DF22653995D0DF227539B5D43EA0123CB
:1015F00043EA0243099343930DF5A5639A5D0DF207
:1016000029539B5D43EA02220DF22A53995D0DF2A4
:101610002B539B5D43EA012343EA02430A9344931D
:101620000DF5A6639A5D0DF231539B5D43EA0223EB
:101630001BB20B93BDF82C30ADF814310DF23253C0
:101640009A5D0DF233539B5D43EA02231BB207936D
:10165000BDF81C30ADF816310DF234539A5D0DF221
:1016600035539B5D43EA02231BB20C93BDF8303027
:10167000ADF818310DF5A163334493F92E2093F89A
:101680002FA00D929DF834208DF81A210DF5A4633A
:1016900003EB080152468DF81BA112F093FD42ABFB
:1016A000534400225A75D0440DF5A163434493F886
:1016B00018B08DF81CB1BBF1000F09D006F119016B
:1016C00051440DF5A4635A4619444FA812F07AFD0F
:1016D00042AB5B44002208F1010683F834205E44EB
:1016E0000D9B3B60F1070DF21D1048BF013615F050
:1016F0006FFE8046786018B9384614F0E1FA71E060
:10170000089BBB604FA815F063FE8246786118B94C
:10171000404614F0D5FA80E0099BBB610A9BFB614F
:1017200007F1240207F1280307F120010B980DF0BF
:10173000C1FC0799079B3C2293FBF2F3FB6202FB7F
:1017400013131BB23B630C9A3223394692FBF3F31B
:101750007B632CB920460DF01CFD0446059003E088
:1017600005980DF016FD0590059B3BB9384605F030
:1017700079FE204605F087FE059C81E0069B01333B
:101780000693C9E6DDF81875002F7FF48EAE77E07A
:101790002246284605F010FE002870D10DF61C17D1
:1017A0000646044657F8048FB8F1000F62D038207F
:1017B00014F07EFA824638B9204605F064FED9F866
:1017C00008307F4898472BE041460DF5A162284636
:1017D00005F0F2FD8046E0B951460DF5A16006F036
:1017E0008DFA20B1204605F04EFE444648E03B68A5
:1017F000CAF808305146FCB90DF0CBFC0646044649
:101800001EE00DF5A1624146284605F0D5FD824651
:1018100040B1204605F037FE31E0204605F033FEAA
:1018200054462DE059460DF5A16006F067FA0028F0
:10183000F3D1CBF80880594630460DF0AAFC064695
:101840009EB1DDF8F886B8F1000F13D0382014F0FF
:101850002FFA83460028D4D1204605F014FED9F88B
:101860000820574890475C460AE0204605F00BFEEA
:10187000344605E00DF63C239F4293D100E000245E
:101880002646002E40D035682B681A1D3AD0DA1E45
:10189000012A37D9022B04D14A494B4812F092F859
:1018A00004E0AA694949484812F08CF86B6B03932D
:1018B0002B6B0293EB6A0193AB6A00936B6A2A6A03
:1018C0004349414812F07EF8AA6842493E4812F066
:1018D00079F841493C4812F075F82B686A683A4833
:1018E000022B0CBF3D493E4912F06CF86A692AB1DF
:1018F00013781BB13B49344812F064F83A49324836
:1019000012F060F8B668BCE7204605F0BCFD0DE0BB
:10191000364900E036492C4805F08DFE22A92A48B8
:1019200005F089FE3349284805F085FE049B1D6AB1
:10193000AC6824B9304B31489B68984704E0204696
:1019400006F05CFA0023A3626C68002C3EF41FAE24
:101950000025E368AB420CDD236953F82530586A53
:1019600014F0AEF9236953F8250014F0A9F90135F4
:10197000EFE7002B02DD206914F0A2F90023E360F9
:10198000226A1D4B9B6A1AB11B692046984702E0E8
:10199000204605F09FFF204614F092F9FEF7F7BDB0
:1019A00017490EA80CF02CFB054616490EA86DB37E
:1019B0000CF0EEFB144912A80CF0EAFBFEF7E7BDB1
:1019C0007C7A0100927A0100D894FF1F9C7A010072
:1019D000A27A0100C07A01009A7A0100C77A010058
:1019E000CD7A0100CB7A0100DE900100D07A0100AF
:1019F000EF7A0100A2850100289CFF1F0E7B0100E9
:101A0000277B01002D7B0100C39B01000CF0F8FA3D
:101A1000002800F0C7812A46A049A148A14D11F035
:101A2000D1FF12A80CF0A3FA9F4912A80CF0E8FA13
:101A3000002840F070829D4912A80CF0E1FA064699
:101A4000002840F068820AF087FD30460EF00CF85E
:101A5000974E98490746924805F0EDFD96F8000428
:101A600011F086FD94498E4805F0E5FD0222F9B299
:101A70008B4811F079FD9149894805F0DCFD12A8E9
:101A800011F0ECFE014686480CF056FC8C49844867
:101A900005F0D1FD0AF064FC014681480EF03EFBE2
:101AA00088497F4805F0C7FDD6F804147C480EF03D
:101AB00037FB85497A4805F0BEFD8449784805F032
:101AC000BAFD287811F054FD8149754805F0B3FD41
:101AD000687811F04DFD7F49714805F0ACFDA8789C
:101AE00011F046FD7C496E4805F0A5FDE87811F03F
:101AF0003FFD7A496A4805F09EFD2B7E697EE87EAF
:101B000043EA0121AB7E41EA03411022002341EA6E
:101B1000006163480CF0BBFB7149614805F08BFD27
:101B20002B7D697DE87D43EA0121AB7D41EA0341DC
:101B30001022002341EA006159480CF0A8FB5848E4
:101B40000CF0E7FB6749564805F075FD66495448B7
:101B500005F071FD6549524805F06DFD00264FF412
:101B6000077909FB06F94FEA462A002760494C48E5
:101B700005F061FD102207EB0A0122A80CF043FBDF
:101B8000249B022B19D85B4942A80CF06DFB249BC7
:101B90000022C3F1030342A9C2A80CF00EFBC2A9A4
:101BA0000DF5A1600CF055FB22A90DF5A1600CF01C
:101BB000BAFA4FF00108014602E04FF0000822A9EE
:101BC00020460CF046FB214635480CF0BCFB204675
:101BD0000CF0B0F9B8F1000F09D00DF5A1600CF0D0
:101BE000A9F9C2A80CF0A6F942A80CF0A3F9424941
:101BF0002B4805F020FD4FF0000807EB090B08EB20
:101C00000B032B442648197FA1F120035E2B88BFCC
:101C10002E2108F1010811F0A4FCB8F1400FEED11B
:101C200036491F4805F007FD403722A80CF082F91D
:101C3000B7F5007F9AD10136022E90D1304918486D
:101C400005F0F9FC00264FF4077808FB06F84FEA88
:101C5000462900272649124805F0EDFC102207EB23
:101C6000090116A80CF0CFFA189B022B4AD821497B
:101C70001AA80CF0F9FA189B0022C3F103031AA961
:101C80001EA80CF09AFA1EA922A80CF0E2FA16A9D6
:101C900022A80CF048FA0124014635E0327B01000D
:101CA000D894FF1FD09CFF1F457B0100C39B010000
:101CB0002098FF1FAB750100BB750100CB750100BB
:101CC000DD750100EC750100F87501004B7B01002A
:101CD000597B0100627B01006C7B01007A7B010073
:101CE000867B0100947B0100E27B0100307C0100D7
:101CF0007E7C0100837C0100339D01002B7C010070
:101D00008B7C0100002416A90DF608100CF0A1FA36
:101D10000DF6081192480CF016FB0DF608100CF0A9
:101D200009F944B122A80CF005F91EA80CF002F93B
:101D30001AA80CF0FFF88B49894807F11B0405F03D
:101D40007AFC44442C444FF0000A14F8013F0F2B56
:101D500003D88549824805F06EFC1022217880481E
:101D600011F002FC0AF1010A80497D4805F063FC8C
:101D7000BAF1200FE9D17E49794805F05CFC2037A3
:101D800016A80CF0D7F8B7F5007F7FF463AF0136E3
:101D9000022E7FF458AF7749714805F04CFC764924
:101DA000FEF77BBC75490EA80CF02AF9002870D00C
:101DB000734CDFF80892002799F80034BB4265DDC8
:101DC0007049674805F037FC207811F0D1FB6E4967
:101DD000634805F030FC607811F0CAFB6B4960483D
:101DE00005F029FCA07811F0C3FB69495C4805F0B7
:101DF00022FCE07811F0BCFB6649594805F01BFC59
:101E000000231022A16956480CF041FA6249544857
:101E100005F011FC00231022616951480CF037FADB
:101E20004F480CF076FA04F5007A254605F11B08B8
:101E3000002618F8013F0F2B03D84B49484805F0FE
:101E4000FAFB102298F80010454811F08DFB01367E
:101E50004649434805F0EFFB202EEAD10026AB1996
:101E60003F48197FA1F120035E2B88BF2E21013648
:101E700011F077FB202EF2D1394820350CF049FAC9
:101E8000AA45D3D1013704F5077495E74349FEF716
:101E900004BC43490EA80CF0B3F890B1049B5D6AF2
:101EA00012A920460CF0D5F9214628460EF09AFAE0
:101EB00020460CF03FF83B49294805F0BCFB12A92D
:101EC0000BE039490EA80CF09BF800287EF45FABBC
:101ED0003649234805F0AFFB0EA920460CF0B9F9AE
:101EE00021461F480CF02FFA3149FEF74ABBF36830
:101EF000013BF3600023FEF7C5BF2E48DAF804303B
:101F00009847FFF7B2B92B48D9F8043006919847A3
:101F10000699FFF7DBB928490DF5A160002609F005
:101F2000BDFF41F23477CDF810654FF400722146C1
:101F30000DF5A16007F0F4FC06F11B022A44002312
:101F4000E15C02F8011F0133B3F5007FF8D106F51B
:101F50000776BE42E9D1194B0B2283F80024ACE589
:101F6000D894FF1F339D0100897C01009A7A0100FB
:101F70002C7C0100F87C0100DE900100657D0100F1
:101F8000D09CFF1F4B7B0100597B0100627B01004D
:101F90006C7B01007A7B0100867B010053AC010061
:101FA0006B7D0100757D010082980100827D01003A
:101FB000A2850100E1850100877501002098FF1FBF
:101FC0002DE9F04FAE4E93B005F078F8172386F860
:101FD000FE391823022486F8FF39192316202146DA
:101FE00086F8003A1A2386F8013A86F8FD0986F841
:101FF000FC4908F056FD214696F8FE0908F051FD0F
:10200000214696F8FC0908F04CFD012196F8FF09DD
:1020100008F047FD012196F8000A08F042FD012171
:1020200096F8010A08F03DFD9649974805F003FB34
:102030009649954805F0FFFA9549934805F0FBFA53
:102040009449914805F0F7FA93498F4805F0F3FA5F
:1020500092498D4805F0EFFA91498B4805F0EBFA6B
:102060001C2013F025FE1C220446002111F0B8FCB0
:10207000002396F8FD2923762270C6F8F449894C8E
:10208000894A6260894AA260894A2260894AE2607C
:10209000894A6261894AE2616362A36123612362C2
:1020A000874A884B8849784811F08CFC142013F03B
:1020B000FFFDA046A06210B9636884489847D8F82D
:1020C0002830834A1A60834A5A60834A9A60834A56
:1020D0001A61834ADA6096F8FE0909F083FD08B9AF
:1020E000804900E08049684805F0A5FA382013F0DF
:1020F000DFFD0021044604F02BFF2046C6F8F0491E
:102100000EF09EFF08B1794900E079495E4805F07C
:1021100092FAD6F8F0395C6972B6764BC8F82C3072
:102120000022A8F83020C8F83820C8F83C20C8F8A9
:102130004020C8F84420C8F848205A800122A3F85B
:1021400006210222A3F80A220322A3F80E23042266
:10215000A3F812240522A3F816250622FF21A3F8CE
:102160001A260722C8F83410A3F81E2762B662495F
:10217000204615F08BF830B96049204615F068F814
:1021800010B15E4C00E05C4C4FF08F41204614F0E3
:10219000C1FE15F09BF85A4970663B4805F04BFAB2
:1021A000584BC8F84C30D8F85430C8F850300CF0C0
:1021B00023FA5549344805F03EFA7568534900231F
:1021C00001226B8185F83030AB8185F8242085F8B9
:1021D000383085F82530EA77AA7785F820306B8685
:1021E000AB8685F821302B766B8785F822204FF659
:1021F000FF73474AAB87AB836B83AA6285F8403095
:102200006FF05902C0230EACEA6285F839302046DF
:102210000FF0C0FF3F4B0E9A1A6095F843200B2A2F
:10222000994602D0072A40F0DB8095F844300D3BF8
:10223000012B00F2D580384F38487B6883420ED19D
:102240000B2A04D198F8581021F0010105E0072A63
:1022500005D198F8581041F0010188F85810797AA2
:10226000194491F824E0724578D093F824109142F3
:1022700056D093F82510914270D1012251E000BF51
:10228000B0D0FF1FAC8F0100D894FF1FBF8F01009B
:102290000C900100209001002B9001005B90010048
:1022A000AC900100289CFF1FC9720000B5720000AD
:1022B000A172000095720000F1720000DD72000052
:1022C000C7900100B4900100CF900100E19001009F
:1022D000C5E900008DE8000075E8000069E800002D
:1022E00065E80000FC9001002D910100549101006F
:1022F0006E9101000082FF1F00FEFF4600FEFFC638
:102300009091010097720000AE91010080C3C90155
:102310000000B4439CCFFF1FFC95FF1FACAF010032
:1023200000221968D1F800C059681CEA010F14D0C6
:10233000754901EBCE0E4FF0000CDEF804E0CEF84C
:1023400000C003EB020E9EF824E001EBCE0102F187
:102350000A0E496853F82E300B607A727B6895F844
:10236000442083420ED10D2A04D198F8581021F050
:10237000040105E00E2A05D198F8581041F0040137
:1023800088F85810B97A194491F8300082422CD05C
:1023900093F83010914205D093F83110914224D136
:1023A000012200E000221968D1F800E059681EEA15
:1023B000010F13D0544901EBC0004FF0000E4068EC
:1023C000C0F800E0981890F8300001EBC00102F16D
:1023D0000C0003EB800349685B680B60BA7204E091
:1023E00095F8253043F001038AE00FF027F878686C
:1023F00095F845C095F83EA000F13B0E72460023CB
:1024000012F8011F614507D1034493F86C20002A9C
:102410006DD07346002106E00133092BF0D166E050
:102420000131092963D013F801BFD345F8D1014424
:1024300091F86C30002B5AD0134058D11A461EF830
:10244000011F61450ED1304901EBCC0C02F1120E97
:10245000DCF8041050F82EE0C1F800E0024492F8D5
:102460006CE004E00132092AE9D14FF0000E7F68E8
:1024700095F83E0085F841E007F13B01002211F894
:1024800001CF84450CD1204901EBC0014B6802F11A
:1024900012013A4457F82110196092F86C3002E0AA
:1024A0000132092AEBD195F83F0043EA0E03FF28D9
:1024B00085F842302AD0012108F0F3FA012195F87D
:1024C0003F0008F02FFB0A2008F0D6FA002195F80B
:1024D0003F0008F027FB0A2008F0CEFA95F83F00ED
:1024E000012108F01FFB0A2008F0C6FA0EE00023C5
:1024F00085F8413085F8423095F8253043F00203E5
:1025000085F82530DCE200BF38AD0100D9F80000C5
:10251000D84FDFF864B30FF001FE95F842301B048A
:1025200043F0004343F001037B6309F03FF87A2056
:1025300008F0A2FA95F842301B0443F0004343F040
:1025400011037B6309F032F8052008F095FA95F83D
:1025500042301B0443F0004343F0B1037B6309F0B6
:1025600025F84FF0000AB94695F841201AF80B30CB
:10257000C04F43EA024343F00043C9F834300AF144
:10258000010A09F013F8BAF1030FEDD195F84230C2
:10259000DFF8E8B21B0443F0004343F0B2037B636F
:1025A00009F004F84FF00009BA4695F8412019F8EF
:1025B0000B30B04F43EA024343F00043CAF83430D3
:1025C00009F1010908F0F2FFB9F1030FEDD195F817
:1025D0004230DFF8ACB21B0443F0004343F0B303D6
:1025E0007B6308F0E3FF4FF00009BA4695F84120FD
:1025F00019F80B309F4F43EA024343F00043CAF8F7
:10260000343009F1010908F0D1FFB9F1030FEDD120
:1026100095F84230DFF86CB21B0443F0004343F0FE
:10262000B4037B6308F0C2FF95F841301B0443F00C
:1026300000437B6308F0BAFF95F842301B0443F077
:10264000004343F0C0037B6308F0B0FF4FF0000A83
:10265000B94695F841201AF80B30864F43EA0243F9
:1026600043F00043C9F834300AF1010A08F09EFF34
:10267000BAF1030FEDD195F84230DFF80CB21B042C
:1026800043F0004343F0C1037B6308F08FFF95F8EC
:1026900041301B0443F0004343F0C5037B6308F063
:1026A00085FF95F842301B0443F0004343F0C2031A
:1026B0007B6308F07BFF95F841301B0443F0004337
:1026C00043F00A037B6308F071FF95F841301B0467
:1026D00043F000437B6308F069FF95F842301B0428
:1026E00043F0004343F0C3037B6308F05FFF95F8BA
:1026F00041301B0443F0004343F08A037B6308F03E
:1027000055FF95F841301B0443F0004343F02A0382
:102710007B6308F04BFF95F842301B0443F0004305
:1027200043F0C4037B6308F041FF95F841301B047C
:1027300043F0004343F08A037B6308F037FF95F8CA
:1027400041301B0443F0004343F02A037B6308F04D
:102750002DFF95F842301B0443F0004343F0C503BE
:102760007B6308F023FF95F841301B0443F00043DE
:1027700043F03C037B6308F019FF95F841301B04DC
:1027800043F0004343F038037B6308F00FFF95F8F4
:1027900042301B0443F0004343F020037B6308F006
:1027A00005FF95F842301B0443F0004343F03A0321
:1027B0007B6308F0FBFE95F841301B0443F00043B7
:1027C00043F005037B6308F0F1FE95F842301B04EB
:1027D00043F0004343F026037B6308F0E7FE95F8DF
:1027E00041301B0443F0004343F001037B6308F0D6
:1027F000DDFE95F842301B0443F0004343F0E00354
:102800007B6308F0D3FE4FF0000A95F841201AF8D8
:102810000B30DFF8609043EA024343F000437B63F0
:102820000AF1010A08F0C2FEBAF10F0FEDD195F8D6
:102830004230DFF858B01B0443F0004343F0E1039B
:10284000C9F8343008F0B2FE4FF0000A95F8412084
:102850001AF80B30074F43EA024343F00043C9F82C
:1028600034300AF1010A08F0A1FEBAF10F0FEDD1E0
:102870000EE000BF00C00240088601000B86010088
:102880000B8601000E8601001186010020860100E2
:1028900095F842301B0443F0004343F038037B6358
:1028A00008F084FE95F842301B0443F0004343F0E7
:1028B0002A037B6308F07AFE95F841301B0443F04D
:1028C00010437B6308F072FE95F841301B0443F01F
:1028D000104343F080037B6308F068FE95F84230B4
:1028E0001B0443F0004343F02B037B6308F05EFEC0
:1028F00095F841301B0443F010437B6308F056FE0B
:1029000095F841301B0443F0104343F0A0037B6370
:1029100008F04CFE95F842301B0443F0004343F0AE
:1029200013037B6308F042FE95F8423039681B04BC
:1029300043F0006343F029037B633846FA6ABD4BDA
:1029400012F0805F04D112F0F00FF7D0836BF5E73F
:102950004FF08052DA6219601A46D96AB54F11F009
:10296000F00901D0916BF8E7012008F085F80FF02D
:1029700097FB012008F080F84946284608F0C8FF78
:10298000AD4B18680FF0CAFB95F83720AB4B13F826
:1029900012A003EB420393F8019095F842301B0418
:1029A00043F0004343F02A037B6308F0FFFD95F8F2
:1029B00041304AEA034343F010437B6308F0F6FDDD
:1029C00095F841300AF1800A4AEA034343F0104384
:1029D0007B6308F0EBFD95F842301B0443F00043A5
:1029E00043F02B037B6308F0E1FD95F8413049EAA1
:1029F000034343F010437B6308F0D8FD95F8413062
:102A000009F1A00949EA034343F010437B6308F04E
:102A1000CDFD95F842301B0443F0004343F02C03F6
:102A20007B6308F0C3FD698F28464FF4A0420AF08B
:102A3000ABFB95F8423039681B0443F000637B63BD
:102A40003846FB6A7B4A13F0805F04D113F0F00F25
:102A5000F7D0836BF5E74FF08053D36211601146D6
:102A6000D36A13F0F00701D08B6BF9E70FF018FB76
:102A700085F83670698F284608F0BEFE95F840301C
:102A8000FF2B07D06E4A52F83320012382F8003121
:102A900085F82430DFF8F4910027C5F8149085F804
:102AA00023702021284608F0A6FD0028F5DB654BA1
:102AB00003EBC000C36B1B792B611E2007F0DCFF0A
:102AC0000321706808F024FF73685F495F480222A1
:102AD0001A76C6F8E83904F0AEFD1E215C480027DE
:102AE0000DF066FE5B4920460BF0BEFB4FF4FC6325
:102AF0005522322156488DE890000AF0F5FD204617
:102B00000BF018FA544920460BF0AEFB4FF6FF735A
:102B10005F2232214E488DE890000AF0E5FD204604
:102B20000BF008FA01224D494D4804F06CFA4FF0C1
:102B300001094C4920460BF097FB4FF6FF737322B7
:102B4000394643488DE810020AF0CEFD20460BF0CE
:102B5000F1F9382013F0ACF805224349054611F08D
:102B600031FB0522A818414911F02CFB4049EF60C8
:102B70002F616F612F7605F11C000BF075FB4FF490
:102B8000E1313C480BF0DDF91A2319206B6328630F
:102B9000494607F0C7FF494695F8340007F0C2FFE1
:102BA0002846C6F8F85904F048FD3946D6F8F80921
:102BB00004F07CFD304920460BF056FBFA234A46D0
:102BC00021460AA80DF064FB20460BF0B3F92B490F
:102BD00020460BF049FB0C9B3BB10A9D0E99284601
:102BE00014F024FC08B1451B01E04FF0FF352046EE
:102BF0000BF0A0F90AA80BF09DF9013548D0D6F8E2
:102C0000F8391F4ADA621F49012520460BF02CFBD8
:102C10004FF6FF73732200210D488DE830000AF053
:102C200063FD20460BF086F91749084804F003FDC0
:102C3000294632E000C002409CCFFF1F24A60100BD
:102C400038AD010008860100C3910100D894FF1F30
:102C500098DAFF1FA99A010020900100DF9101007E
:102C6000C8D0FF1FE991010053AC01005AAC01002C
:102C700002920100DC95FF1F1092010017920100E3
:102C80000F7200001C920100369201003086010094
:102C900099499A4804F0CFFC01219848DFF8A8929E
:102CA000DFF8A8A2DFF8A8B20DF038FA94499348EB
:102CB00004F0C1FC4FF4E13190480DF02FFA914936
:102CC0008E4804F0B8FC904920460BF0CDFA2C2039
:102CD00012F0EEFFD6F8F039D6F8F4290093054645
:102CE000D6F8F839214610F0E5FD75612046A9F5C2
:102CF0001D650BF01FF996F8FC39C6F8C850834DD6
:102D000086F8D6300F232B601023C8F860301123CB
:102D1000C8F864301223C8F868301323C8F86C3040
:102D20000923C8F870300823CAF800300723C8F810
:102D300074300623CBF800300523C8F8783004231C
:102D4000C8F87C300323C8F88030714BC8F8843051
:102D5000043BD6F8F80996F8FD19C8F8883003F551
:102D60009F3396F8FE29C6F8D00003F5EC730E20C9
:102D700086F8D410012186F8D520C8F85C00C8F880
:102D80008C30C6F8CC9007F08CFE624B02211960A3
:102D90002878614D07F085FE98F864700121384667
:102DA00007F07FFE55F83730012783F8807098F8D8
:102DB000603003931846394607F073FE039B55F8BD
:102DC000333083F8807098F868300393184639469A
:102DD00007F067FE039B55F8333083F8807098F84E
:102DE0006C3003931846394607F05BFE039B98F856
:102DF000702055F83330212A83F880700DD805EB08
:102E0000C20355F832205B6882F880724FF4A072DA
:102E10001A601A6822F020021A6098F870309AF846
:102E2000000055F83330012783F88070394607F0E9
:102E300038FE9AF8003098F8740055F833300221C3
:102E400083F8807007F02DFE02219BF8000007F048
:102E500028FE98F87CA03946504607F022FE55F827
:102E60003A3098F8805083F880700221284607F0A5
:102E700018FE212D03D8294928460DF013F9284BB7
:102E80001968FF221A7121B1264B0B441B112649E8
:102E90005A540DF049F9C8212448254F0BF0F4F895
:102EA0001F2124480BF0F0F8142123480BF0ECF814
:102EB000142122480BF0E8F8012012F0F9FE054633
:102EC000C5F1005512F0FCFE284612F0F1FE054453
:102ED000824646F29470059512F0EAFE184B18608F
:102EE00000F188735B01C8F8903098BB154903481E
:102EF00004F097FBFEE700BF6E920100D894FF1F1D
:102F00006292010066920100209001000CCCFF1F2C
:102F100048800340C4F00F4038AD01009D6C0000B4
:102F2000A0CFFF1F008FFCBF44E400E0B0CFFF1F25
:102F3000289CFF1FC0CFFF1FD0CFFF1FE0CFFF1F78
:102F400038CBFF1FA492010098DAFF1F10CCFF1F9F
:102F5000CC9CFF1F5046002512F0B2FE09F064FB26
:102F6000CF4987F89650204687F8955087F89450B7
:102F7000C6F808900BF078F9204610F075FC07466B
:102F800020460AF0D7FFC74920460BF06DF93A46B4
:102F90000521204609F040FC20460AF0CBFFC2493B
:102FA00020460BF061F93A460321204609F034FC33
:102FB00020460AF0BFFFBD4920460BF055F93A46BE
:102FC0002946204609F028FC20460AF0B3FFB849FC
:102FD00020460BF049F93A460D21204609F01CFC29
:102FE00020460AF0A7FFB34920460BF03DF93A46C8
:102FF0001221204609F010FC20460AF09BFFAE4942
:1030000020460BF031F93A461321204609F004FC22
:1030100020460AF08FFFA94920460BF025F92046EB
:1030200010F022FC074620460AF084FFA4492046FF
:103030000BF01AF93A460421204609F0EDFB204630
:103040000AF078FF9F4920460BF00EF93A46192105
:10305000204609F0E1FB20460AF06CFF9A49204621
:103060000BF002F93A461821204609F0D5FB20461C
:103070000AF060FF954920460BF0F6F83A462946DB
:10308000204609F0C9FB20460AF054FF904920462B
:103090000BF0EAF8204610F0E7FB804620460AF0E5
:1030A00049FF8C4920460BF0DFF84246294620466E
:1030B00009F0B2FB074620460AF03CFF864920464D
:1030C0000BF0D2F83A461A21204609F0A5FB20461B
:1030D0000AF030FF814920460BF0C6F83A461B2122
:1030E000204609F099FB20460AF024FF7C4920463F
:1030F0000BF0BAF83A461E21204609F08DFB204617
:103100000AF018FF774920460BF0AEF842462946F0
:10311000204609F081FB054620460AF00BFF724964
:1031200020460BF0A1F82A461F21204609F074FB27
:1031300020460AF0FFFE6D4920460BF095F82A461E
:103140002021204609F068FB20460AF0F3FE68497A
:1031500020460BF089F82A461721204609F05CFB2F
:1031600020460AF0E7FE634920460BF07DF82A4628
:103170000821204609F050FB20460AF0DBFE5E499C
:1031800020460BF071F82A460921204609F044FB3D
:1031900020460AF0CFFE594920460BF065F82A4632
:1031A0000C21204609F038FB20460AF0C3FE5449A2
:1031B00020460BF059F82A460A21204609F02CFB3C
:1031C00020460AF0B7FE394920460BF04DF820465C
:1031D00010F04AFB20460AF0ADFE344920460BF0C1
:1031E00043F8204610F040FB20460AF0A3FE2F498A
:1031F00020460BF039F8204610F036FB20460AF046
:1032000099FE2A4920460BF02FF8204610F02CFB9F
:1032100020460AF08FFE3B4920460BF025F8204659
:1032200010F022FB054620460AF084FE364920466F
:103230000BF01AF82A460621204609F0EDFA20463E
:103240000AF078FE31490AA80BF00EF8D6F8F039EA
:1032500006A8597C0AF0EAFF06A90AA80AF063FF4B
:10326000014620460AF0F5FF2A461021204609F0C3
:10327000D3FAC6F8080A20460AF05CFE06A80AF04F
:1032800059FE0AA80AF056FE21490AA80AF0ECFFE6
:10329000D6F8F0391B7C002B3ED01E493DE000BF24
:1032A000B2920100BC920100CF920100829801000D
:1032B000E1920100F4920100089301001B930100C8
:1032C000219301002B9301006B9A010037930100B9
:1032D0004B93010085930100559301006A9301000F
:1032E0007F9301009A930100899301009493010058
:1032F000A0930100B5930100C4930100D99301008C
:10330000F29301000A940100139401001C9401003F
:103310002E9401003B9401005A4906A80AF0A4FF2C
:1033200006A90AA80AF0FFFE014620460AF091FF0E
:103330002A460F21204609F06FFAC6F8040A2046F3
:103340000AF0F8FD06A80AF0F5FD0AA80AF0F2FD59
:103350004D490AA80AF088FFD6F8F03906A859693D
:103360000DF066FF06A90AA80AF0DDFE0146204618
:103370000AF06FFF2A461121204609F04DFAC6F8DF
:103380000C0A20460AF0D6FD06A80AF0D3FD0AA8CA
:103390000AF0D0FD3D490AA80AF066FFD6F8F019F8
:1033A00006A818310AF055FF06A90AA80AF0BBFEC4
:1033B000014620460AF04DFF2A461C21204609F00E
:1033C0002BFAC6F8100A20460AF0B4FD06A80AF047
:1033D000B1FD0AA80AF0AEFD2D490AA80AF044FF83
:1033E000D6F8F01906A828310AF033FF06A90AA872
:1033F0000AF099FE014620460AF02BFF2A461D21BD
:10340000204609F009FAC6F8140A20460AF092FD8F
:1034100006A80AF08FFD0AA80AF08CFD1D49204677
:103420000AF022FF2A460021204609F0F5F920463D
:103430000AF080FD184920460AF016FF2A460721A7
:10344000204609F0E9F920460AF074FD96F8FE39A5
:1034500096F8FD2986F869351049114B114886F810
:103460006825C6F87035C6F86C9504F0E4F80E4986
:103470000C4804F0E0F8F06809F0EEF913B0BDE88C
:10348000F08F00BF40940100469401005394010066
:103490005A94010082980100659401007194010022
:1034A00078D1FF1FD894FF1F999401002DE9F04FA8
:1034B000D84CFFB02378082B0AAF4AD14FF4936061
:1034C00012F0F6FB94F8FC3994F8FE2994F8FD19F3
:1034D00080460FF0D5FED04940460FF07FFECF4921
:1034E000CF4804F0A8F8404605F0A2F848B340469B
:1034F00004F090FF28B307F1E00907F1D0000EF0C7
:103500003FF807F190050023C64A08F58B6148464D
:1035100007F0F9FE2846C44908F0C0FC95E80F0002
:1035200006AE86E80F0007F1EC060FCE6D460FC51C
:1035300096E8030085E80300404699E80E0005F090
:1035400019F9404612F0BCFB00200EF0A1FD01234A
:1035500023702378AF4E092B40F0FF824FF4936025
:1035600012F0A6FB96F8FC3996F8FE2996F8FD199C
:10357000054607F190090FF083FEAC4928460FF08D
:103580002DFEAB4948460AF06FFEA989013107F1CB
:10359000D00689B20A22A98130460AF034FE3146AB
:1035A00048460AF0C0FDA3490AF0AFFD07F16408E0
:1035B000014640460AF04DFE414699480AF0C3FED6
:1035C00040460AF0B7FC30460AF0B4FC48460AF020
:1035D000B1FC994940460AF047FE0A22298A48462A
:1035E0000AF011FE494640460AF09DFD93490AF053
:1035F0008CFD0A228246698A30460AF004FE314672
:1036000050460AF090FD8B490AF07FFD014607F114
:1036100050000AF01EFE07F1500181480AF093FEA7
:1036200007F150000AF086FC30460AF083FC484659
:103630000AF080FC40460AF07DFC814940460AF0D1
:1036400013FE0A22E98948460AF0DDFD4946404654
:103650000AF069FD79490AF058FD0A228246A98AD2
:1036600030460AF0D0FD314650460AF05CFD714903
:103670000AF04BFD014607F150000AF0EAFD07F1A0
:10368000500167480AF05FFE07F150000AF052FC53
:1036900030460AF04FFC48460AF04CFC40460AF01F
:1036A00049FCA87A07F030FAB0FA80F04009A87512
:1036B00064495B4803F0BFFF634A644BA97D5848E7
:1036C000002914BF1146194603F0B5FF604954485C
:1036D00003F0B1FF5F49524803F0ADFF6B68186813
:1036E00009F066FD002168680DF062F85A4907F19B
:1036F0001C000AF0B9FD0A22A98907F12C000AF082
:1037000082FD07F12C0107F11C000AF00CFD534962
:103710000AF0FBFC0A228246298A07F13C000AF0E3
:1037200072FD07F13C0150460AF0FDFC4C490AF0DD
:10373000ECFC0A228246698A07F150000AF063FD18
:1037400007F1500150460AF0EEFC46490AF0DDFC54
:103750000A228246E98940460AF055FD4146504614
:103760000AF0E1FC3E490AF0D0FC0A228246A98A0E
:1037700048460AF048FD494650460AF0D4FC3A490A
:103780000AF0C3FC0A228246A97D30460AF03BFDBE
:10379000314650460AF0C7FC014607F10C000AF01A
:1037A00058FD30460AF0C6FB48460AF0C3FB4046C7
:1037B0000AF0C0FB07F150000AF0BCFB07F13C0027
:1037C0000AF0B8FB07F12C000AF0B4FB07F11C006B
:1037D0000AF0B0FBD5F804B007F10C014FF0000A75
:1037E00030460AF036FD4FF6FF732D2251465846FB
:1037F0008DE8400409F078FF30460AF09BFB1B4936
:10380000074803F018FF1A49054803F014FF194947
:1038100032E000BFB0D0FF1FA8940100BA940100AD
:10382000D894FF1FD094010087750100C493010054
:10383000DA940100A5900100EC94010002950100CA
:10384000069501001C9501009D940100A2940100C1
:10385000DE90010032950100DF94010083950100A4
:10386000C97A010093950100A5950100B495010066
:1038700002960100B59501008D4803F0DCFEAB7D9A
:10388000002B00F09A8095F808B08A4930460EF077
:1038900081FC3268594605F11C0004F0D1FD58B98D
:1038A0008549834803F0C7FE012128680CF0F3FB2B
:1038B000EB890133EB8184E00123EB757F497C4880
:1038C00003F0B9FE0A22A98940460AF09CFC414651
:1038D00048460AF0BEFC7A4948460AF016FC794B85
:1038E000834693F8001207F150000AF09FFC07F19D
:1038F000500158460AF017FC73490AF006FC734B56
:10390000834693F8001207F13C000AF08FFC07F1A0
:103910003C0158460AF007FC014630460AF099FC83
:10392000314663480AF00FFD6949614803F083FEA0
:1039300030460AF0FFFA07F13C000AF0FBFA07F103
:1039400050000AF0F7FA48460AF0F4FA40460AF046
:10395000F1FA6049564803F06EFE48460DF010FE3D
:10396000534605F58B615C4A07F1A00007F0CBFCDC
:1039700007F1A00CBCE80F0007F1E00EAEE80F0065
:10398000BCE80F00AEE80F00DCF80030CEF80030E5
:1039900099F804303371D9F80830B36099F80C30D5
:1039A000337328464D4B3360524631460FF098FC36
:1039B00007F1A00007F0A0FC03E049493C4803F0F0
:1039C00030FE48493A4803F036FE4749384803F08C
:1039D00032FE4649364803F02EFE687A08F002F9B6
:1039E00038B92B8A4249324801332B8203F023FE37
:1039F0009EE040492E4803F01EFE3F4B4FF0000B67
:103A0000A3F800B0002307F11C02402148461FFA2A
:103A10008BFAFB623B637B6387F8383008F0E0F990
:103A2000002873D06B8A3549214801336B8203F03B
:103A300002FE49461E4803F0FEFD31491C4803F0D2
:103A4000FAFDF9691A480CF06BFB2E49184803F08F
:103A5000F2FD494607F13C0008F020FA494630469D
:103A60000AF002FC314607F12C000AF0F1FA304668
:103A70000AF060FA2B7E0BB1032B0ED1FB6B002BEF
:103A800040F0E38720490A4803F0D5FD012128686A
:103A90000CF001FB2B8A01332B820D49044803F003
:103AA000CAFD07F12C000AF045FA0BF1010BA9E75A
:103AB000D894FF1F80F0FA021B9601004596010082
:103AC000659601003000FE436D9601003400FE4310
:103AD000DE9001007D790100C97A010050AE01003D
:103AE00073960100B49501008D960100B595010013
:103AF000A8960100D49601009CCEFF1F997A010080
:103B0000F6960100F9960100CE9A0100BAF1000F75
:103B10000AD12B8AA849A94801332B8203F08BFDD7
:103B2000012128680CF0B7FA07F12C000AF002FA1C
:103B3000A349A24803F07FFD0122A249286803F0AF
:103B400062FA07F10C000AF0F5F9284612F0B8F80D
:103B500000200EF09DFA0123237023789A4E0A2B41
:103B600040F075814FF4936012F0A2F896F8FC399A
:103B700096F8FE2996F8FD1905460FF081FB93494A
:103B800028460FF02BFB2846914904F0DDFB284620
:103B900004F040FC002800F05281284604F060FA4E
:103BA0008C49284604F0D0FB284604F0EBFB28465D
:103BB000894904F0C9FB284604F03AFD002800F0CA
:103BC0003E810026DFF85C82844987F86C6007F14B
:103BD0006C0087F86D6087F86860C7F8648009F04A
:103BE000CAFAC7F804807B6887F8986007F16C010F
:103BF00007F1980087F8996087F89460C7F89030CB
:103C000009F07CFA8046002800F0AA8097F89830E6
:103C100013F0700FE7D107F13C0107F1980005F0B0
:103C20004CF9FF2207F1D00107F1980007F001F9E4
:103C300007F13C0010F014FD07F1D002684910466E
:103C400013F0A2FB07F13C02664907F1500013F0A4
:103C50009BFB07F150021046634913F095FB07F1F7
:103C6000D0015648D7F8B48003F0E5FC5F495348CB
:103C700003F0E1FC07F15001504803F0DCFC5C4923
:103C80004E4803F0D8FC41464C480CF049FA5949DB
:103C90004A4803F0D0FC052006F0EEFE07F13C0197
:103CA00007F12C000AF0E0FA534907F12C000AF062
:103CB000A7F9814607F12C000AF03CF9B9F1000F91
:103CC0000DD04E493D4803F0B6FC4D4B1B7813F028
:103CD000100F14BF4FF480224FF4803204E04949A2
:103CE000364803F0A8FC4A46414607F13C0008F07C
:103CF00053F940B307F13C0107F12C0008F0CEF86E
:103D0000FB6A002B00F040874FF00009C8451ED920
:103D1000C7F800D0C0B00DF1280B4FF4807259469F
:103D200007F1980006F05AFF1FFA80FA52465946EA
:103D300007F12C0003F050F9052006F09DFE3B68CA
:103D4000D1449D46E2E730491C4803F074FC07F17A
:103D5000980007F0D1FA2D49184803F06CFC42E7AF
:103D600007F16C0007F0C8FA2949144803F063FC16
:103D70002849284604F0E8FA274BA3F8008007F109
:103D80009002142107F1D00008F02AF800284BD047
:103D900007F1D001094803F04EFC2049074803F021
:103DA0004AFCD7F8901005480CF0BAF91C490348B2
:103DB00003F041FCE3E700BF25970100D894FF1F03
:103DC000549701009F970100B0D0FF1FA9970100F1
:103DD0002199010094930100E5970100C97A01003F
:103DE00001980100079801000C9801009A7A0100DF
:103DF0008198010012980100877501001D9801004B
:103E0000C49CFF1F2F9801003E980100DE90010026
:103E1000569801006B9801009CCEFF1F809801000E
:103E2000839801005CA601007949284604F08CFAC9
:103E3000284604F047FD7749774803F0FCFB284605
:103E400011F03EFF00200EF023F9012323702378A8
:103E5000724D1F2B40F00F814FF4936011F028FF3B
:103E600095F8FC3995F8FE2995F8FD1906460FF0EE
:103E700007FA6B4930460FF0B1F93046694904F052
:103E800063FA304604F0C6FA002800F0EC803046B1
:103E900004F0E6F86449304604F056FA304604F07F
:103EA00071FA3046614904F04FFA304604F0C0FB25
:103EB000002800F0D880304604F0ACFA002800F06A
:103EC000D28000255A4B5B4987F8D85007F1D800BB
:103ED00087F8D95087F8D450C7F8D03009F04BF99B
:103EE00008B95549BCE055494B48D7F8F48003F070
:103EF000A2FB97F8DB3087F8905087F891506BB9A8
:103F000007F1640107F1D80004F0D7FF002865D05D
:103F100007F16401404805F0F5FC5FE007F1D801C6
:103F200007F1900006F06FFF002854D04FF0010A0F
:103F300097F8DB3053454ED3B7F8DC10CAEB0101DC
:103F4000490107F1900006F000FE002843D000214F
:103F500007F1900006F022FF834600283BD0C37A89
:103F60000F2B38D1037803F01F039A4533D14FF05C
:103F70000009B9F1040F5FFA89F304D80BEB490289
:103F8000537890780EE00A2B95BF09F1FF3209F1C2
:103F900001020BEB42020BEB420299BF9379D079FD
:103FA0001379507943EA002060B17F2828BF3F2071
:103FB000C0B209F101090EF05FF8B9F10D0F05F17A
:103FC0000105D6D19BF800305B0606D40AF1010A40
:103FD0005FFA8AFAACE7002000E0284601460E4866
:103FE0000CF09EF816490C4803F025FBD7F8F410A6
:103FF00009480CF095F81349074803F01CFB002210
:1040000041460C4807F0C8FF00BB0F4928E000BF3D
:104010008C980100A8980100D894FF1FB0D0FF1F12
:10402000899301002199010094930100C498010033
:104030005CA6010010990100D0980100FC780100F5
:10404000CA770100DE900100E4980100584907F1A9
:10405000640007F023FF7B6E002B40F0BB855549C1
:10406000554803F0E8FA304611F02AFE00200EF021
:104070000FF8012323702378504E202B29D14FF4C1
:10408000936011F015FE96F8FC3996F8FE2996F823
:10409000FD1905460FF0F4F8494928460FF09EF83F
:1040A000284604F0B7F94749284604F04DF9284658
:1040B00003F0D6FF4449284604F046F9284604F0A8
:1040C00061F9284611F0FCFD00200DF0E1FF01230D
:1040D00033702378394D0C2B23D1D5F8E80909F03A
:1040E00067F84FF4936011F0E3FD95F8FC3995F80B
:1040F000FE2995F8FD1906460FF0C2F833493046FF
:104100000FF06CF83249304604F01EF9304604F0E6
:10411000D9FB304611F0D4FD00200DF0B9FF01238A
:104120002B702378254E172B22D14FF4936011F07A
:10413000BFFD96F8FC3996F8FE2996F8FD1905465C
:104140000FF09EF8234928460FF048F822492846E8
:1041500004F0FAF8284604F05DF9284603F080FFE1
:10416000284611F0ADFD00200DF092FF01233370C1
:1041700023781A2B40D1114B0121D3F8F80903F011
:1041800095FA94F8193A0D4D53BB0DF00BFE28B17A
:104190000DF0C4FE0146114802F061FB06F044FB3D
:1041A0000028EED006F00CFBC0B20DF065FFE8E78A
:1041B00010990100199B0100D894FF1FB0D0FF1F78
:1041C00094930100199901002F990100D1970100E2
:1041D0008C980100219901003D990100DC95FF1F99
:1041E0000021D5F8F80903F061FA002085F8190AD2
:1041F0000DF04EFF01232B7023789D4D012B0DD127
:10420000D5F8E80908F0D4FF002105F6E8100CF015
:10421000CFFAE86808F020FB02232B702378944D36
:10422000062B39D1D5F81C6A0AF04EFA864233D0F3
:104230000AF05EFA06460AF051FA80460AF044FA9D
:1042400081460AF037FA82460AF02AFA83460AF0D3
:104250001BFA3246434607F19006039085498DE8E4
:10426000000E07F1D00013F08FF807F1D0013046AF
:1042700009F0FAFF012337220021019305F6E81027
:104280004FF6E073009609F02FFA304609F052FE1F
:104290000AF01AFAC5F81C0A2378754D032B2CD1A5
:1042A00095F8183A4BBB382011F002FD0121064663
:1042B00002F04EFEC5F8F0696F4907F1D00009F031
:1042C000D3FFD5F8F01901234A7C097C07F1D0000F
:1042D00000F0B6FE07F1D00009F02CFED5F8F05939
:1042E0002DB1284603F0E1F8284611F0E9FC002042
:1042F0000DF0CEFE012384F8183A23785C4D122B82
:104300002CD195F8186A4EBB382011F0D1FC012150
:10431000804602F01DFEC5F8F089584907F1D0002B
:1043200009F0A2FFD5F8F01933464A7C097C07F161
:10433000D00000F085FE07F1D00009F0FBFDD5F8B4
:10434000F0592DB1284603F0B0F8284611F0B8FC1A
:1043500000200DF09DFE012384F8183A2378444E86
:104360000D2B40F0F08096F818BABBF1000F40F02A
:10437000EA80382011F09CFC0546012102F0E8FD9E
:10438000D6F8D080C6F8F05995F8109095F811A09D
:104390003B4907F1D005284609F066FF294640460B
:1043A0000CF020F8284609F0C5FDD6F8CC3086F888
:1043B000D7B0186808F0FCFE08F086F880460028A0
:1043C0003DD1D6F8CC0057210CF0F2F9D6F8CC90BC
:1043D0002C49284609F048FF2946484603F03EF993
:1043E000284609F0A7FD4FF6FF724146D6F8CC00EB
:1043F00003F040FAD6F8CC902349284609F034FF60
:104400004FF478430A22414648468DE8200109F0DE
:104410006BF9284609F08EFDD6F8D0901B49284646
:1044200009F022FF294648460BF0DCFF284609F038
:1044300081FD4146D6F8C8000BF02DFE74E00F490F
:10444000284609F011FF5B4652464946284600F0CF
:10445000F7FD8346284609F06DFD96F8D73003F046
:10446000FF08002B60D1BBF1000F40F02E845BE011
:10447000B0D0FF1F509901007299010087750100AB
:104480008199010082980100A29901009899010088
:1044900008F01AF8061C4FF4FA7018BF012606F04F
:1044A000EBFA002E40F03C84D4F8CC80DB4928465F
:1044B00009F0DAFE01233C223146019340464FF4D5
:1044C000FC63009509F010F9284609F033FDD4F893
:1044D000D060D349284609F0C7FE294630460BF084
:1044E00081FF284609F026FD07F0EEFF061C18BFE5
:1044F0000126002E00F02A8494F8D72002F0FF064F
:1045000092B9C84BD3F8CC30186808F051FEC649B0
:10451000284609F0A9FE284633465246494601F08E
:1045200027FC284609F006FDD4F8F0592DB128469D
:1045300002F0BBFF284611F0C3FB00200DF0A8FDE0
:10454000012384F8183A2378B64D132B2CD195F813
:10455000186A4EBB382011F0ABFB0121804602F0F7
:10456000F7FCC5F8F089B04907F1D00009F07CFEEE
:10457000D5F8F01933464A7C097C07F1D00001F0E8
:10458000F7FB07F1D00009F0D5FCD5F8F0592DB1B3
:10459000284602F08AFF284611F092FB00200DF019
:1045A00077FD012384F8183A23789E4E042B40F0BF
:1045B000EE8096F8188AB8F1000F40F0E8803820B5
:1045C00011F076FB0546012102F0C2FC6B7CD6F8A7
:1045D000D090C6F8F05907F1D00594497B60284681
:1045E00009F042FE294648460BF0FCFE284609F039
:1045F000A1FCD6F8CC9086F8D7808D49284609F0E2
:1046000033FE2946484603F029F8284609F092FC73
:104610004FF6FF724146D6F8CC0003F02BF9D6F8DE
:10462000D0808449284609F01FFE294640460BF0F9
:10463000D9FE284609F07EFC07F046FF804620BBE5
:10464000D6F8CC907C49284609F00EFE4FF478430A
:104650000A22414648468DE8200109F045F82846DF
:1046600009F068FCD6F8D0907449284609F0FCFDA2
:10467000294648460BF0B6FE284609F05BFC414649
:10468000D6F8C8000BF007FD72E007F1640008F0EF
:104690001DF8D6F8CC8007F16401284609F0D9FD51
:1046A0002946404602F0DAFF284609F043FCD6F8D6
:1046B000CC301E68B6F906B0BBF1000F06DDB6F9C6
:1046C0000830552B02DD72E30DF0EAFC5C49D4F8AA
:1046D000D060284609F0C8FD07F16401284609F0BA
:1046E00022FD014607F1900009F0B3FD07F19001AA
:1046F00030460BF077FE07F1900009F01BFC2846CE
:1047000009F018FC002694F8D730DFF818A103F060
:10471000FF085FFA86F91BB148460BF0FDFF23E066
:1047200043467A68414648460BF084FE012007F074
:1047300059FE01365522062148460EF0AFFCA02E48
:10474000E1D142463F49DAF8C80002F05CFCDAF8F1
:10475000D0603D49284609F087FD304629460BF0D8
:1047600041FE284609F0E6FB07F1640009F0E2FB90
:10477000D4F8F0592DB1284602F097FE284611F0E2
:104780009FFA00200DF084FC012384F8183A237866
:10479000244D182B40F0B28095F8189AB9F1000F0B
:1047A00040F0AC80D5F8D060284907F1D0084046E9
:1047B00009F05AFD414630460BF014FE404609F020
:1047C000B9FB85F8D79007F07FFE064600283FD159
:1047D000D5F8CC901849404609F046FD4FF478438F
:1047E0003246314648460196CDF8008008F07CFFFD
:1047F000404609F09FFBD5F8D0901049404609F09B
:1048000033FD414648460BF0EDFD404609F092FB72
:104810003146D5F8C8000BF03EFC69E0C9990100AB
:10482000E3990100B0D0FF1F877501001B9A0100BA
:1048300082980100329A0100A29901009899010022
:104840003C9A01009F970100499A0100619A01007A
:10485000CF4D94F8D730DFF844A303F0FF061BB127
:10486000FF200BF059FF43E0484607F075FE5FFA62
:1048700089FB01231A46314658460BF0DBFD013017
:1048800008D0012007F0AEFD3246022158460EF056
:1048900005FC15E03146DAF8C8000BF0FCFBDAF84D
:1048A000CC301E68B6F906200FFA89F39A4207DD6C
:1048B000B6F908B0BBF1000F02DD2DE30DF0F0FBFF
:1048C00009F10109B9F1A00FC3D10022B149D4F80F
:1048D000C80002F098FBD4F8D050AF49404609F028
:1048E000C3FC284641460BF07DFD404609F022FB03
:1048F00000200DF0CDFB012384F8183A2378A74D52
:10490000192B2CD195F8186A4EBB382011F0D0F92C
:104910000121804602F01CFBC5F8F089A04907F18F
:10492000D00009F0A1FCD5F8F01933464A7C097C87
:1049300007F1D00001F01CFA07F1D00009F0FAFAF3
:10494000D5F8F0592DB1284602F0AFFD284611F0F8
:10495000B7F900200DF09CFB012384F8183A237866
:104960008E4D0E2B0CD195F8186A4EB9D5F8E80982
:1049700008F01EFC30460DF0A3FE012385F8183A1E
:104980002378DFF81882072B57D198F8186A002E81
:1049900053D107F1D005D8F8E80908F009FC81499E
:1049A000284609F061FC4FF6FF733722314608F6BE
:1049B000E8108DE8600008F097FE284609F0BAFA82
:1049C000794907F1900009F04FFC784907F164003C
:1049D00009F04AFC07F1640107F1900009F0A3FB1C
:1049E0000146284609F035FC4FF4FC63412231466C
:1049F00008F6E8108DE8600008F076FE284609F019
:104A000099FA07F1640009F095FA07F1900009F0AE
:104A100091FA6749284609F027FC4FF6E0734B22CC
:104A2000314608F6E8108DE8600008F05DFE284683
:104A300009F080FA012388F8183A2378022B40F015
:104A4000F28200200DF024FBEDE205F0F7FFD7F82D
:104A50001CA07860BAF1000F10D0BAF5807F5346E1
:104A600028BF4FF480731A46314607F13C003B6083
:104A700004F056FF3B68C3EB0A0AEBE705F0DEFFE4
:104A80004C4938604C4802F0D6FD7A683B684A4889
:104A90009B1A19467B600BF043FB4849464802F0DD
:104AA000CAFD7B68184612F0DDF97860F86912F0EB
:104AB000D9F9434912F02EFA796812F0DFFA11F0B1
:104AC000CFFD0223024600933B480B460EF058FDF3
:104AD0003C49394802F0AFFD07F12C01404609F08E
:104AE000B8FB3949404609F010FB3860F86912F00C
:104AF000B9F9334912F00EFA796812F0BFFA01469B
:104B000007F150000CF094FB3B6807F15001184688
:104B100009F009FB2B4909F0F8FA014607F12C00CE
:104B200009F06BFB07F1500009F004FA404609F068
:104B300001FA6B6825497B60404609F095FB01232B
:104B40000193CDF800805A2251464FF4784378689B
:104B500008F0CAFD404609F0EDF96B687B6007F18B
:104B60002C01404609F075FB01230193CDF800802C
:104B700078684FF4FC636422514608F0B5FD404666
:104B800009F0D8F9FEF789BF1149FFF7DDB800BF7A
:104B900000C002409F970100759A0100B0D0FF1F2E
:104BA000929A01009C9A0100927A010020900100E3
:104BB000B49A010000970100D894FF1F0B970100E1
:104BC00000007A4419970100F69601009A930100BB
:104BD000F39A0100C049C14802F02DFD4FF48071E5
:104BE000BE480BF09DFABE49BC4802F024FD4FF0D0
:104BF0000009C84520D9EA46C0B00AAD4FF480721A
:104C0000294607F1D80005F0E9FF1FFA80FB5A4654
:104C1000294607F1640002F0DFF9D944AB445D4551
:104C200005D015F8011BAD480EF09BFCF7E70220FC
:104C300005F022FFD546DCE707F1D80006F05CFB63
:104C40004FF47A7005F018FFA649304603F07CFB5C
:104C5000A54907F1900007F021F9D7F890307BB310
:104C6000A2499E4802F0E7FCA1499C4802F0E3FCFF
:104C7000D7F8941099480BF053FA9949974802F0E5
:104C8000DAFC4FF0000AD7F8943053457FF6EBA9D1
:104C9000E946C0B00AAD4FF48072294607F1900092
:104CA00004F03EFE80B2824405EB0008454505D085
:104CB00015F8011B89480EF054FCF7E7CD46E2E7F2
:104CC0008C49864802F0B7FCCAE7D6F8CC301868A1
:104CD00008F06EFAD6F8CCB08749284609F0C4FA35
:104CE0004FF6E0733C22414658468DE8200108F01B
:104CF000FBFC284609F01EF9D6F8D0607F4928460B
:104D000009F0B2FA294630460BF06CFB284609F050
:104D100011F907F0D9FB061C18BF0126FFF7C1BB2C
:104D200094F8D730002B3FF4B3AB754B7549D3F8EB
:104D3000CC60284609F098FA0021019100954FF4C3
:104D400078434622304608F0CFFC20E094F8D73074
:104D5000DFF8AC8103B3D8F8CCB06A49284609F033
:104D600083FA31464FF4784346228DE86000584676
:104D700008F0BAFC284609F0DDF8D8F8D06062499E
:104D8000284609F071FA294630460BF02BFB2846DD
:104D900009F0D0F8FFF7B0BB07F096FB061C40F611
:104DA000B83018BF012605F067FEFFF7A2BB574BCE
:104DB000DFF8609118680DF0B1F996F83720544B80
:104DC00013F8128003EB420393F801A096F84230E7
:104DD0001B0443F0004343F02A03C9F8343006F0C3
:104DE000E5FB96F8413048EA034343F01043C9F825
:104DF0003430D84406F0DAFB08F1FF331FFA83F8A9
:104E000096F8413048EA034343F01043C9F8343080
:104E100006F0CCFB96F842301B0443F0004343F00D
:104E20002B03C9F8343006F0C1FB96F841300AF183
:104E3000550A4AEA034343F01043C9F8343006F0F8
:104E4000B5FB96F841304AEA034A4AF01043C9F8E4
:104E5000343006F0ABFB96F842301B0443F00043BD
:104E600043F02C03C9F8343006F0A0FB96F841302B
:104E7000DFF8A0801B0443F0104343F4FC63C9F83F
:104E800034300BF1FF3B06F091FB1FFA8BF30FFA66
:104E900083FB002BEAD196F84230D8F800101B04AF
:104EA00043F00063C8F834304046D8F82C20194B42
:104EB00012F0805F04D112F0F00FF6D0836BF4E7AC
:104EC0004FF08052DA6219601A46D96A11F0F00F79
:104ED0003FF4FAAB916BF8E7309B0100D894FF1FC9
:104EE000DE900100FF980100109901000A9901006D
:104EF000CA770100199B01003E9B0100559B0100F0
:104F0000B0D0FF1FB3990100079A01009CCFFF1F8B
:104F100024A6010000C00240454B18680DF0FEF8C1
:104F200096F83720434B13F812A003EB4203CA4410
:104F30005B787B6096F842301B0443F0004343F0FB
:104F40002A036B6306F032FB96F841301FFA8AFAA7
:104F50004AEA034343F010436B6306F027FB96F8DD
:104F600041304AEA034A4AF010436B6306F01EFBE5
:104F700096F842301B0443F0004343F02B036B636D
:104F800006F014FB7A6896F8413042EA034343F096
:104F900010436B6306F00AFB7B6896F841205B4484
:104FA000013B9BB243EA024343F010436B6306F0BC
:104FB000FDFA96F842301B0443F0004343F02C0303
:104FC0006B6306F0F3FA96F841201B4B120413436F
:104FD0006B630BF1FF3B06F0E9FA1FFA8BF30FFA54
:104FE00083FB002BEFD1154B144A196896F8423019
:104FF0001B0443F000635363EB6A104A13F0805FB5
:1050000005D113F0F00FF7D013469B6BF4E70B4874
:105010004FF08053C3620160D36A13F0F00F3FF486
:105020004DACAB6BF8E707F5EA77BD46BDE8F08F0E
:105030009CCFFF1F24A601001FF8009000C0024073
:105040002DE9F04F8C4FADF54F7D4EACD7F8D050D9
:1050500006900B91204689490A929A4609F004F974
:10506000214628460BF0BEF94FF00008204608F014
:1050700061FF5721D7F8CC0087F8D7800BF098FB59
:10508000D7F8CC507E49204609F0EEF82146284654
:1050900002F0E4FA204608F04DFF4FF6FF72414659
:1050A000D7F8CC0002F0E6FBD7F8D050754920467F
:1050B00009F0DAF8214628460BF094F9204608F06A
:1050C00039FF07F001FA3D46064628BBD7F8CC5019
:1050D0006D49204609F0C8F84FF478430A2231465A
:1050E00028468DE8500008F0FFFA204608F022FF1D
:1050F000D7F8D0506549204609F0B6F82146284631
:105100000BF070F9204608F015FF3146D7F8C800BB
:105110000AF0C1FF00F00EBE0DA807F0D7FAD7F8CD
:10512000CC600DA9204609F094F82146304602F0E3
:1051300095FA204608F0FEFE5549D7F8D06041A800
:1051400009F092F80DA941A808F0EDFF01462046AC
:1051500009F07FF8214630460BF044F9204608F06C
:10516000E9FE41A808F0E6FE34A80CF009FA41A8CF
:105170000CF006FA1022414611A80EF031FCBAF1EB
:10518000010F40F0788297F8D460424920460DF034
:1051900001F83146226807F1D80003F051F90646BC
:1051A00020BBD7F8CC503C49204609F05DF84FF4BD
:1051B00078430A22314628468DE8500008F094FAD8
:1051C000204608F0B7FED7F8D0503449204609F001
:1051D0004BF8214628460BF005F9204608F0AAFEB8
:1051E0003146D7F8C8000AF056FF9AE3DFF8B080DE
:1051F00007F21450414602F009FF2BAE002856D1A9
:1052000095F8143530700CAF13F0700F7070C7F84C
:105210000080207060704AD005F21459B0463A46BA
:1052200025A9386804F0A8F8002840D03B681B780E
:10523000C3B3002325AA4946404603F07AFE90B145
:10524000C446BCE80F00A646AEE80F00BCE80F005D
:10525000AEE80F00DCF80030CEF80030404606F033
:105260004BF8A146DBE725AA4946404606F0DAF8A6
:105270000028E5D11BE000BFB0D0FF1F6B9B0100F1
:1052800082980100329A0100A299010098990100C8
:105290003C9A010080F0FA028B9B0100819B010087
:1052A0009A9B010025AA4946404606F0BBF809F042
:1052B000EBF9074609F0F4F9804609F0FBF981465D
:1052C00009F016FA834609F009FA3A464346029075
:1052D00099499A4F8DE8000A304612F055F8314648
:1052E00025A808F0C1FF25A9204608F0B2FF94497F
:1052F000204608F00AFF0DA908F015FF914908F0B3
:1053000004FF014615A808F0A4FF204608F012FE8D
:1053100025A808F00FFE8C49204608F0A5FF8B4910
:1053200025A808F0A1FF25A9204608F0FCFE864923
:1053300008F0EBFE15A908F0F6FE014619A808F0E2
:1053400088FF25A808F0F6FD204608F0F3FD19991E
:105350007F48002908BF394602F058FE28B1199845
:10536000002808BF38460DF024FE314625A808F075
:105370007BFF25A9204608F06CFF71496F4E20463F
:1053800008F0C3FE0DA908F0CEFE724908F0BDFE7C
:1053900001461DA808F05DFF204608F0CBFD25A8BA
:1053A00008F0C8FD6849204608F05EFF674925A857
:1053B00008F05AFF25A9204608F0B5FE624908F01A
:1053C000A4FE1DA908F0AFFE01461DA808F015FFB8
:1053D00025A808F0AFFD204608F0ACFD1D995C48FB
:1053E000002908BF314602F011FE28B11D9800289F
:1053F00008BF30460DF0DDFD504F199EDFF86C817F
:10540000554BC8F80030002E08BF3E4620460CF031
:10541000B7F8324644F202234D4952A805F073FF13
:105420000DF5A47EBEE80F0038AE0FC6BEE80F0033
:105430000FC6DEF80030336023791D9E8DF8D4301E
:10544000A3683693002E08BF3E46237B8DF8DC30E0
:1054500020460CF095F8324644F202233C4952A80B
:1054600052AE05F050FF0FCE45AF0FC70FCE0FC79E
:1054700033683B6023798DF808319DF8E070A368AC
:1054800043930026237B8DF81031C8F80060DFB904
:1054900038A805F031FF45A805F02EFFD5F8CC60FF
:1054A0002E49204608F0E0FE394630464FF4784356
:1054B0000A228DE8900008F017F9204608F03AFD1E
:1054C000D5F8D06026491EE09DF81471002F4FD109
:1054D00038A805F011FF45A805F00EFFD5F8CC60FF
:1054E0002049204608F0C0FE394630464FF4784344
:1054F0000A228DE8900008F0F7F8204608F01AFD1F
:10550000D5F8D0601849204608F0AEFE2146304656
:105510000AF068FF204608F00DFD3946D5F8C800AE
:105520000AF0B9FD1DA808F005FD19A808F002FD54
:1055300015A808F0FFFCF4E1AA9B010034AD0100BE
:105540009A7A0100C09B0100C97A01009A9B010070
:10555000C4D5FF1FC59B01001D7F0000D49B010027
:10556000CA9B0100F69B0100EC9B0100C09CFF1F41
:10557000C24941A802F055F8C149204608F074FE1E
:105580000DA9204608F0CFFDBE4908F0BEFD01463A
:1055900041A80DF071FB204608F0CCFC09F074F82E
:1055A000074609F07DF8804609F084F8814609F045
:1055B0009FF8059009F092F8834609F085F8059B5D
:1055C00003903A460193CDF808B04346CDF80090D9
:1055D000AD492BA811F0D8FEAC49204608F044FE96
:1055E0002BA925A808F040FE25A9204608F09BFD20
:1055F000A44908F08AFD014641A80DF03DFB25A80D
:1056000008F098FC204608F095FCA14941A802F05A
:1056100008F8A04925A808F027FE08F0EDFF0A22A7
:1056200021462196229623968DF8906009F0D0FFAE
:10563000214621A808F0ACFD21A925A808F073FD9A
:10564000954908F062FD014641A80DF015FB21A81F
:1056500008F070FC25A808F06DFC904941A801F005
:10566000E0FF1DA808F066FC19A808F063FC15A867
:1056700008F060FC2CE1BAF1000F40F0298197F8A6
:10568000D50006F0AFFA064610BBD7F8CC508449D7
:10569000204608F0E9FD4FF478430A2231462846B7
:1056A0008DE8500008F020F8204608F043FCD7F8B9
:1056B000D0507C49204608F0D7FD214628460AF004
:1056C00091FE204608F036FC3146D7F8C8002EE39C
:1056D000069B1968744B2046002908BF194606F03E
:1056E000DDFB94E80F0011AE07C6704933802046F9
:1056F000D7F8CC6008F0B8FD01230A2251463046A5
:10570000019300944FF47C4307F0EEFF204608F02D
:1057100011FCD7F8D0606649204608F0A5FD304658
:105720002146644E0AF05EFE204608F003FC337901
:10573000119A13F0100F0CBF4FF480334FF48023F5
:105740000593013B134245D1129A134242D1D046F0
:10575000129B43453ED9119F737996F804B0474494
:105760000BB109F08BF9544920460CF013FD206869
:105770000CF0D4FC4F4BD3F80890012389F800318A
:10578000062007930CF0ACFC079B89F880302022A0
:10579000013AFDD11BF0010F89F800314FEA174B98
:1057A000BFB204D0D8200CF09BFC584603E05FFA4F
:1057B0008BF040F458400CF0A1FC38460CF09EFCF5
:1057C000012389F880300CF06BFC02237371059B78
:1057D0009844BDE706F08AFA0028FBD0D5F8CC60E3
:1057E0003649204608F040FD214630460DF0DEFBEC
:1057F000204608F09FFBD5F8D0603149204608F0DC
:1058000033FD214630460AF0EDFD204608F092FBBC
:10581000069B1968244B2046002908BF194606F04C
:105820003DFB94E80F0011AE07C63380119E002E99
:105830004CD1D5F8CC702349204608F015FD012342
:105840000A2231463846019300944FF4784307F01A
:105850004BFF204608F06EFBD5F8D0701A49204661
:1058600008F002FD214638460AF0BCFD204608F04B
:1058700061FB3146D5F8C80059E200BF0E9C01001B
:10588000109C0100629C01001D9C01003B9C0100DA
:10589000469C0100659C0100639C0100749C010012
:1058A0008B9C0100819C010034AD0100A49C01008F
:1058B000B59C0100C09CFF1F80F0FA02ED9C010026
:1058C000D19C0100BA9D0100B09D010000231393FB
:1058D000D5F8D040B649DFF814B34EA808F0C4FCA0
:1058E00020464EA900250AF07DFD4EA808F022FBB7
:1058F0002E4605950695A9462C469BF8D720E1B281
:1059000002F0FF03079172B108460AF005FFA949AA
:1059100041A801F086FE45A805F0EEFC38A805F088
:10592000EBFC0026FFE10A9A079819460AF082FD6F
:10593000A14BA24A1B68D35C1BB19944069B01335F
:10594000069340B1721C03D0431C14BF36180646A0
:10595000059B01330593BAF1010F40F0868004F0F6
:105960000103974F08934FF00008B8F1000F09D1D9
:1059700044B94FF0FF3339461DA81D930DF03EFA90
:10598000054607E039461DA80DF038FA0546B8F17E
:10599000000F05D1089B1BB94FF0FF33ADF8643001
:1059A000394619A80DF072F908F10108B8F10B0F8A
:1059B000099007F50777D8D1089B002B55D0671EB3
:1059C0007F1080494EA808F04FFCF9B22BA808F0D0
:1059D0002DFC2BA94EA808F0A6FB7B4908F095FBEF
:1059E000014641A808F0AFFC2BA808F0A3FA4EA886
:1059F00008F0A0FA00231022099941A808F047FCFA
:105A000072494EA808F030FC0A2231462BA808F053
:105A1000FAFB2BA94EA808F086FB6D4908F075FB30
:105A20000A220646494625A808F0EDFB25A930467E
:105A300008F079FB674908F068FB014641A808F0C7
:105A400082FC25A808F076FA2BA808F073FA4EA875
:105A500008F070FA604B614941A84F2F18BF1946F2
:105A600001F0DFFD4FF000094E460027BAF1010FAB
:105A700009D15B4B07F11C014FF40072194434A8A3
:105A800000F0DFFF0FE0BAF1000F0CD1544B07F12B
:105A90001C014FF40072194411A801F09DFA06F0A0
:105AA00025F90028FBD007F5077741F234739F42B0
:105AB000DCD10B9B002B00F0CA8000230A9A0798C8
:105AC00001210AF0B7FCBAF1010F06D13D9938A8BF
:105AD000A1F5B05105F039F806E0BAF1000F03D195
