:1000000000800020BD010000A1EA00006DEA0000B0
:100010006DEA00006DEA00006DEA00006DEA000084
:100020006DEA00006DEA00006DEA0000A1EA000040
:10003000A1EA00006DEA000069D4000059D4000074
:10004000A1EA0000A1EA0000A1EA0000A1EA000084
:10005000A1EA0000A1EA0000A1EA0000A1EA000074
:10006000A1EA0000A1EA0000A1EA0000A1EA000064
:10007000A1EA0000A1EA0000A1EA0000A1EA000054
:10008000A1EA0000A1EA0000A1EA0000A1EA000044
:10009000A1EA0000A1EA0000A1EA0000A1EA000034
:1000A000A1EA0000A1EA0000A1EA0000A1EA000024
:1000B000A1EA0000A1EA0000A1EA0000A1EA000014
:1000C000A1EA0000A1EA0000A1EA0000A1EA000004
:1000D000A1EA0000A1EA0000A1EA0000A1EA0000F4
:1000E000A1EA0000A1EA0000A1EA0000A1EA0000E4
:1000F000A1EA0000F5890000A1EA00002D890000B6
:10010000A1EA0000A3880000A1EA0000A1EA000023
:10011000A1EA0000A1EA0000A1EA0000A1EA0000B3
:10012000A1EA0000A1EA0000A1EA0000A1EA0000A3
:10013000A1EA0000A1EA000075970000A1EA000012
:10014000A1EA0000A1EA0000A1EA0000A1EA000083
:1001500045D4000031D400001DD4000007D40000B5
:10016000A1EA0000458C0000A1EA0000A1EA00001D
:10017000A1EA0000A1EA0000A1EA0000A1EA000053
:10018000A1EA0000A1EA0000A1EA0000A1EA000043
:10019000A1EA0000A1EA0000A1EA0000A1EA000033
:1001A000A1EA0000A1EA0000A1EA0000A1EA000023
:1001B000A1EA0000A1EA000099D4000008B55B4B59
:1001C0004CF220521A804DF628121A8000BF00BF50
:1001D000102223F80E2CA3F51F43DE3B4FF01062D4
:1001E0001A60534A9A60534ADA60534A136813F408
:1001F000807301BF51490B604FF4A8531360504BFB
:1002000050491A78100742BF1A7842F008021A7053
:100210004D4B2A221A704D4A4D4B8B4204D252F854
:10022000040F43F8040BF8E74A4B4B4A0021934272
:1002300002D243F8041BFAE7484A4948002350F821
:10024000231042F8231001336F2BF8D1454B464A57
:10025000802103F8011B9342FBD1444B3F4A1A60B3
:10026000434B8A221A70A3F5805324225A70A0228D
:100270001A709A799107FCD59A79D206FCD43D4A36
:10028000937903F00C03082B3A4BF9D103221A712E
:1002900040225A719A799406FCD536498A79354BB1
:1002A0005006FBD5344A35491160022151602022A5
:1002B0001A709A7902F00C020C2AFAD1304B314AAA
:1002C0001A60314B314A1A60002407225C6043F8FF
:1002D000042C2F4AC3F80C2D62B60EF047FC174BC6
:1002E0001A68D1070AD52B4A2B491C60146042F8C2
:1002F000041C10221A60294A29491160294A1278DF
:1003000052060ED52549264A0868904209D121484F
:10031000214C00221A60026040F8044C1020186042
:100320000A6014F06BFC0EF075FD00BF0E20054056
:10033000823F04000100002B10D0034014D0034082
:1003400002D007400498FF1F00E0074044DA010094
:100350001C93FF1F0498FF1F2CDBFF1F008EFF1F45
:100360000000000000E400E05FE400E008ED00E0D1
:100370000050064000400640448004400000030155
:1003800004800440C010050014E000E0FF76010086
:100390000000202004D00340502641621CE00340AE
:1003A000A5C3945A00F00740FFFFFFFFFFFFFFFFC8
:1003B000FFFFFFFFFFFFFFFFFFFFFFFFFFFFFFFF4D
:1003C000FFFFFFFFFFFFFFFFFFFFFFFFFFFFFFFF3D
:1003D000FFFFFFFFFFFFFFFFFFFFFFFFFFFFFFFF2D
:1003E000FFFFFFFFFFFFFFFFFFFFFFFFFFFFFFFF1D
:1003F000FFFFFFFFFFFFFFFFFFFFFFFFFFFFFFFF0D
:10040000FFFFFFFFFFFFFFFFFFFFFFFFDEF9FFFF23
:1004100010B5054C237833B9044B13B10448AFF33E
:1004200000800123237010BD0498FF1F000000000E
:1004300048DA0100084B10B51BB108490848AFF372
:1004400000800848036803B910BD074B002BFBD0A0
:10045000BDE81040184700BF000000000898FF1FCB
:1004600048DA01000498FF1F000000002DE9F04F5A
:100470000B68ADF60C5D0D46049043B1013B0021C5
:1004800013F8012F1AB10A2AFAD11970F8E72B686C
:1004900043B1013B002113F8012F1AB10D2AFAD103
:1004A0001970F8E729460EA80DF06FFA0DF608143A
:1004B000A14912A80DF074FAA04920460DF070FA77
:1004C0002146284613F0C9FC064620460DF0C0F828
:1004D000002E3EDD99490DF5A1600DF061FA0DF594
:1004E000A161284613F0B9FCAB68421C294620469E
:1004F0000DF0FFF9214612A80DF038F920460DF055
:10050000A7F80DF5A1600DF0A3F88C4920460DF079
:1005100047FA2146284613F0A0FC109A904212D2C6
:10052000A96881B143189A4238BF111A0E9B521A1A
:10053000014419441092121A184416F0C9FC0E9A7C
:10054000109B0021D15420460DF082F80EA80DF02A
:100550009CF87B490EA80DF0E1F820B979490EA866
:100560000DF0DCF8E8B17849784807F018FD0499F7
:10057000204610310DF009FA214674480DF07FFA3B
:100580007349724807F00BFD20460DF061F812A880
:100590000DF05EF80EA80DF05BF80DF60C5DBDE8F1
:1005A000F08F6C490EA80DF0B9F828B96A490EA869
:1005B0000DF0B4F800286DD06849644807F0EFFCEE
:1005C0006749624807F0EBFC6649604807F0E7FCC2
:1005D00065495E4807F0E3FC64495C4807F0DFFCCE
:1005E00063495A4807F0DBFC6249584807F0D7FCDA
:1005F0006149564807F0D3FC6049544807F0CFFCE6
:100600005F49524807F0CBFC5E49504807F0C7FCF1
:100610005D494E4807F0C3FC5C494C4807F0BFFCFD
:100620005B494A4807F0BBFC5A49484807F0B7FC09
:100630005949464807F0B3FC5849444807F0AFFC15
:100640005749424807F0ABFC5649404807F0A7FC21
:100650004A493E4807F0A3FC53493C4807F09FFC39
:1006600046493A4807F09BFC5049384807F097FC48
:100670004F49364807F093FC4E49344807F08FFC49
:100680004D49324807F08BFC4C49304807F087FC55
:100690004B490AE04B490EA80DF040F820B94A49F1
:1006A0000EA80DF03BF820B14849284807F077FC28
:1006B0006DE747490EA80DF031F808B1454905E04E
:1006C00045490EA80DF02AF800B3444920460DF024
:1006D00067F9FA23012221460DF5A16010F0F4F824
:1006E00020460CF0B5FF0DF5A16120460DF04DF947
:1006F000214616480DF0C3F91549144807F04FFC80
:1007000020460CF0A5FF0DF5A1603EE734490EA888
:100710000DF004F808B13349D8E733490EA80CF0BE
:10072000FDFF002864D0049B30499D6A074807F00C
:1007300036FC294601F0CDBB97930100429601009B
:100740001B8001002380010003890100BC95FF1F6D
:10075000ACA101000D890100278001001289010070
:1007600064890100B6890100088A01005A8A0100E3
:10077000AC8A0100FE8A0100508B0100A28B0100AF
:10078000F48B0100468C0100988C0100EA8C01007A
:100790003C8D01008E8D0100E08D0100328E010044
:1007A000848E0100D68E0100288F01007A8F01000F
:1007B000CC8F01001E90010070900100C2900100DA
:1007C0001491010066910100298001006C910100E3
:1007D000749101002D800100358001003A800100F4
:1007E0004080010043800100478001004E800100ED
:1007F000A7490EA80CF092FF0546002800F09E8045
:10080000A44920460DF0CCF8214612A813F025FB90
:100810000022034612A942A80DF06BF820460CF006
:1008200017FF9C4920460DF0BBF8214612A813F093
:1008300014FB12A9421C149BC2A80DF05AF82046C2
:100840000CF006FF944942A80CF068FF20B19349D0
:10085000934807F0A4FB6CE08F49C2A80CF05EFF40
:100860000028F4D18B4920460DF09AF8214612A8B1
:1008700013F0F3FA054620460CF0EAFE0135E6D007
:10088000049B9D6A42A920460DF07FF82146284628
:1008900013F034FE20460CF0DBFE049B9D6AC2A9D7
:1008A00020460DF072F82146284613F001FE20463E
:1008B0000CF0CEFE049B986A10F078FE049B42A9CF
:1008C0005D6A20460DF061F8C2A90DF5A1600DF03A
:1008D0005CF80DF5A1622146284613F085FB05461C
:1008E0000DF5A1600CF0B4FE20460CF0B1FE6DB128
:1008F0006C496B4807F053FB42A920460DF045F8C0
:10090000214667480DF0BBF867490CE06749644829
:1009100007F045FB42A920460DF037F82146604814
:100920000DF0ADF862495E4807F039FB20460CF047
:100930008FFEC2A80CF08CFE42A826E65D490EA8E8
:100940000CF0ECFE0646002867D0284613F0ECF8C1
:10095000594E2C4656F8043F002B32DD204617F046
:100960003DF8564917F08EF84FF07A5116F082FF95
:1009700016F02EFC02230246009349480B4613F062
:10098000B7FC4F49464807F00AFB214644480FF0A0
:10099000E1FE4C49424807F002FB316840480FF045
:1009A000D9FE00258027336893FBF7F3AB4205DDC2
:1009B00045493B4807F0F3FA0135F4E738480DF0B4
:1009C00044F80134B4F5807FC4D1404C40493448E8
:1009D00007F0E5FA207813F0F9F8014630480FF0F7
:1009E000B9FE3C492E4807F0DAFA207813F077FC7C
:1009F00039492B4807F0D3FA3849294807F0CFFA8C
:100A0000607813F0E3F8014625480FF0A3FE34495F
:100A1000234807F0C4FA607827E032490EA80CF0AA
:100A20007DFEC8B1012013F07FF834462E4E56F8F3
:100A30002450E8B212F034FCC5F3072012F030FC69
:100A4000C5F3074012F02CFC0134280E12F028FCEC
:100A5000B4F5807FEBD19AE524490EA80CF05EFE38
:100A600038B1234B234A1B68D05C13F038FC01F0EB
:100A70005EB921490EA80CF051FE002840D01F4954
:100A8000074807F08CFA204609F00EFA74E500BF1B
:100A90005880010042960100979301006080010098
:100AA000BC95FF1F888001006291010097800100C2
:100AB000AE800100B98001001C98FF1FACAA2A3D3E
:100AC000D280010094D10100BE8001000094FF1F7C
:100AD000C0800100CC800100ACA10100D4800100E5
:100AE000E0800100E88001002098FF1FED800100F8
:100AF0001896FF1FDFD9FF1FF2800100F780010069
:100B0000AB490EA80CF00AFE0646A0B3A94912A8EC
:100B10000CF004FE18B1A84912A80CF0D5FEA749A4
:100B2000A74F0DF5A1600BF0E5F912A813F00CFD2D
:100B30004FF4B0535843CDF81005002541F23476F8
:100B40004FF4007221460DF5A16004F045FD05F15A
:100B50001B023A440023E15C02F8011F0133B3F5A4
:100B6000007FF8D105F50775B542E9D1954B0B2209
:100B700083F800240BE594490EA80CF0CFFD054640
:100B8000002842D012A813F0DFFC90498D4C024699
:100B90008F4813F0D3F912A813F0D6FC13F078F8AD
:100BA000304608F01BFF8B490546894807F0F7F9E6
:100BB00094F8000413F093FB8749854807F0EFF998
:100BC0000222E9B2824813F086FB8449804807F08C
:100BD000E6F912A813F0B8FC01467D480CF048FF76
:100BE0007F497B4807F0DBF912F05BFF014678484C
:100BF0000FF0B0FD7B49764807F0D1F9D4F8041422
:100C000073480FF0A9FD78494FE578490EA80CF01C
:100C100085FD002800F0DE8680222B4622A912A83E
:100C20000EF0E2F872496A48724F07F0B8F9049B77
:100C3000D3F8209022A920460CF0B2FE214609F1FB
:100C40000C000CF0A7FD20460CF002FD6A4960483C
:100C500007F0A5F9282015F0E3FD054618B9BB6893
:100C60006648984749E1D7F828800122426002622D
:100C7000D8F8003022A99847002840F03A81AB68A4
:100C8000B3F55C2F14D05E4A934211D002F5305276
:100C900093420DD002F53052934209D0B3F5DC1FD8
:100CA00008D009DCBB68574898474FF0FF3304E091
:100CB000012302E0022300E00323012B2B60C0F29A
:100CC0000B81022B02DD032B4ED005E1012B4FF0EF
:100CD00050026A6108BF0B234FF0020218BF1623AF
:100CE000AA61EB61402015F09BFD064608B9BB6880
:100CF00035E00023E9694360A02359434B1E83601C
:100D00000127022391FBF3F14FF40073C160876266
:100D10000362056022460DF06FFE014618B13046B1
:100D200015F086FDDBE023220DF5A16013F012FC27
:100D300094F8B0210DF6B9210DF5A16013F0FCFF78
:100D40000DF5A16017F0FCF87062042015F068FD45
:100D5000286130B9304615F06BFD264B9B682A4858
:100D6000BCE00660EF60C8E0296A49B1D8F80460C9
:100D70000DF5A1634FF4007200212846B04706E04C
:100D80000DF5A1634FF40072284606F079FF824604
:100D90002B6A00283CD0BA6A1BB1136928469847D1
:100DA00002E0284607F04AFABB6818489847A0E0D6
:100DB0000281010097930100F7870100088101007B
:100DC000B09CFF1F2098FF1F158101001A810100B0
:100DD000BC95FF1F2C8101003C8101004C8101006A
:100DE0005E8101006D810100798101008681010031
:100DF0008B810100309CFF1F95810100AD810100B6
:100E000000EC0D00C8810100E9810100FB810100B7
:100E1000002B5CD103220DF5A161914814F084FEF2
:100E2000002854D104202860C5F80CA015F0F8FC67
:100E30008346286120B1402015F0F2FC064610B927
:100E4000BB6888484AE00123A968EB60AB61EB61AD
:100E5000854BCBF800000B40002BBEBF03F1FF33E6
:100E60006FEAC3536FEAD3534FF40072B8BF013334
:100E700091FBF2F26A6101F50072D31AC0F824A066
:100E80004FF48062C0F804A093FBF2F3C3602346E2
:100E90004FF40072F168284606F0F2FE2368B3F1C1
:100EA000007F41F02080D4F8FC311BBA012B41F0C7
:100EB0001A80F268012A02DD002BE8D003E002D19B
:100EC000BB686A480AE05200013AB26015E0284661
:100ED00007F0C2F988B102E0BB68654898472B6A01
:100EE00023B1D8F810302846984702E0284607F08A
:100EF000A5F9284615F09CFC00255E49C9F8045068
:100F00005D4807F04CF85D495B4807F048F8049BE2
:100F10001B6A5B68002B00F017855949564807F09B
:100F20003EF8049B57491E6A5348756807F037F826
:100F30005549514807F033F806F10C0120460CF0F2
:100F400024FD21464C480CF09AFD50494A4807F0D0
:100F500026F820460CF07CFB4D49474807F01FF867
:100F60002B68013B032B0DD8DFE803F002040608D1
:100F7000484904E0484902E0484900E048493E4801
:100F800007F00DF847493C48474F484E07F007F82F
:100F9000696939480CF06CFD3C49374806F0FFFFA1
:100FA0004349354806F0FBFFA96933480CF060FD62
:100FB0003649314806F0F3FF3E492F4806F0EFFF6F
:100FC000E9692D480CF054FD30492B4806F0E7FF45
:100FD0003949294806F0E3FFA96827480CF048FD85
:100FE0002A49254806F0DBFF3449234806F0D7FF9D
:100FF000296A214800290CBF3946314606F0CFFF47
:1010000022491D4806F0CBFF2D491B4806F0C7FFBB
:101010006968194800290CBF3946314606F0BFFF00
:101020001A49154806F0BBFF2649134806F0B7FFDA
:10103000E96811480FF08EFB14490F4806F0AFFF26
:1010400021490D4806F0ABFF049B1B6A05935B68C2
:1010500013B1DA68002A3DDC1C4B1D489B688CE00C
:10106000B5B1010022820100FF0100803A82010037
:101070005F82010081820100BC95FF1F8B8101000E
:1010800099820100A2820100A9820100ACA10100A5
:10109000BA820100CB820100E3820100F9820100E3
:1010A000048301000F8301000D800100088001000E
:1010B000208301003183010042830100538301003A
:1010C000648301007583010086830100309CFF1F4B
:1010D0008F8301001A69156801262B60AE622246D3
:1010E0000021284606F0E2FD002843D131460DF6E6
:1010F0000832284606F0DAFD064600283AD14FF4B9
:10110000806221460DF5A16013F016FE31460DF503
:10111000A1600DF011FC03220DF5A161824814F0CD
:1011200003FD20B1814B82485B68984722E09DF81F
:1011300014354BB327460646012E0FD07B7814F8A2
:101140002610FA7843EA0121BB7842EA032343EAF6
:101150000143C243934288BF013018440136B6F5BB
:10116000807F07F10407E7D1DDF80C35C0438342E7
:1011700006D109E06D4B6F485B6898470025E5E0B4
:101180006A4B6D485B6898479DF80B352B74DB07FD
:101190004CBF4FF400734FF4F473EB610123AB6168
:1011A00042AAE96828460DF027FC18B15F4B634856
:1011B0005B68E2E76A68AB689B1A013B4FF47E62AA
:1011C00093FBF2F702FB173303B101374FEA8709AC
:1011D000EF62484615F024FB0646686318B9534B86
:1011E00057489B680BE0484615F01AFB8046286379
:1011F00038B9304615F01CFB4C4B52489B68984759
:10120000A2E0484615F00CFBA86318B14FF00008A7
:10121000C14606E0304615F00BFB4046EAE708F110
:10122000010847451FDDAB6B6E6B43F828904FF408
:10123000007015F0F5FA46F828006B6B53F828603B
:10124000002EECD1A86B15F0F3FA286B15F0F0FA2C
:10125000B04506D06B6B53F8260015F0E9FA01365D
:10126000F6E7686BC6E7DFF8C4A00DF51079002635
:1012700059F8048FB8F1000F17D02B6B4FEA860B8B
:1012800043F82680C0F23586AB686A689B1A984599
:1012900000F32F866B6B414653F80B20284607F06E
:1012A0007DFA90BB0136192EE2D1AA99DFF87C9025
:1012B000002949D02246284606F0F8FC834620BB88
:1012C0000DF542784FF400722146404613F034FD8C
:1012D000052140460DF030FB4FEA860AB7421FDD7C
:1012E00058F80B100029C0F20A86AB686A689B1A8E
:1012F000994200F304860AEB0B032A6BD1506A6B08
:101300002846D25807F04AFA18B1284607F02AFAB8
:101310001AE00BF1040BBBF5FE7F06F10106DDD1EF
:10132000D8F8FC11C4E700BFB5B10100309CFF1F25
:10133000AF830100D38301007B910100F0830100A2
:101340000D84010036840100EB68EB63059B9D6012
:10135000049B1B6A9B68002B00F0F482834984483D
:1013600006F01DFE049B83491B6A81489D6806F0B8
:1013700016FE81497E4806F012FE696A7C4806F036
:101380000EFE7E497A4806F00AFE7D49784806F04E
:1013900006FE2B7C7B4A7C49754813F0010F7B4B82
:1013A00018BF1A4612F0CAFD2B7C9F0703D5784957
:1013B0006F4806F0F4FD2B7C5E0703D575496C4839
:1013C00006F0EDFD6D496A4806F0E9FD724968488E
:1013D00006F0E5FD296A66480FF0BCF967496448E4
:1013E00006F0DDFD6D49624806F0D9FDE969604807
:1013F0000FF0B0F961495E4806F0D1FD68495C48DC
:1014000006F0CDFD69695A480FF0A4F95B495848C8
:1014100006F0C5FD6349564806F0C1FD284607F0B1
:10142000E9F9014652480CF023FB5F49504806F0A9
:10143000B6FDAB6869684E48591A01310CF018FBCB
:101440004E494B4806F0ABFD5849494806F0A7FD08
:10145000284607F0CFF916F0C1FA554916F012FBED
:10146000AB6806466868181A013016F0B7FA0146EC
:10147000304616F0BBFB01464D484E4E16F0F8F9CB
:1014800015F0A6FE02230246009339480B4612F0DF
:101490002FFF4949364806F082FD4849344806F096
:1014A0007EFD4749324806F07AFD4649304806F04D
:1014B00076FD736AE96BB146002B00F083812B7CCB
:1014C000580740F17F81C2AA284606F029FC00286F
:1014D00040F0EF81DDF8007505900446B1460DF649
:1014E00008123946284606F0E1FB002840F0E18169
:1014F0004FF400720DF608110DF5A16013F01CFCFD
:1015000004210DF5A1600DF017FA4FF400721421BB
:101510000DF608100DF0F2F9DDF81C65864203D0D7
:10152000D9F8043028489847DDF80835212B03D036
:10153000D9F8043025489847DDF80C359F4203D090
:10154000D9F804302248984700260696DDF814356D
:10155000069A934240F33081382015F061F907462E
:10156000C0BB204606F043FC3C46A3E1608401007A
:10157000BC95FF1F6984010073840100ACA10100C8
:10158000848401001780010044860100138001005B
:10159000958401009B840100A5840100B6840100AC
:1015A000C7840100D884010040860100E98401005D
:1015B0000000C842309CFF1FFA840100FE84010035
:1015C0000B8501004385010091850100B58501006F
:1015D000D98501000DF5A46306F118089A5D0DF296
:1015E00021530DF21D109B5D43EA02220DF222539E
:1015F000995D0DF223539B5D43EA012343EA0243C5
:10160000089342930DF224539A5D0DF225539B5D8E
:1016100043EA02220DF22653995D0DF227539B5D9A
:1016200043EA012343EA0243099343930DF5A5637B
:101630009A5D0DF229539B5D43EA02220DF22A5373
:10164000995D0DF22B539B5D43EA012343EA02436C
:101650000A9344930DF5A6639A5D0DF231539B5D99
:1016600043EA02231BB20B93BDF82C30ADF81431C2
:101670000DF232539A5D0DF233539B5D43EA022320
:101680001BB20793BDF81C30ADF816310DF2345380
:101690009A5D0DF235539B5D43EA02231BB20C9316
:1016A000BDF83030ADF818310DF5A163334493F92E
:1016B0002E2093F82FA00D929DF834208DF81A213A
:1016C0000DF5A46303EB080152468DF81BA113F03E
:1016D00033FB42AB534400225A75D0440DF5A1634D
:1016E000434493F818B08DF81CB1BBF1000F09D03A
:1016F00006F1190151440DF5A4635A4619444FA847
:1017000013F01AFB42AB5B44002208F1010683F898
:1017100034205E440D9B3B60F1070DF21D1048BF65
:10172000013616F00DFC8046786018B9384615F081
:101730007FF871E0089BBB604FA816F001FC824661
:10174000786118B9404615F073F880E0099BBB61D9
:101750000A9BFB6107F1240207F1280307F120012E
:101760000B980DF043F80799079B3C2293FBF2F38B
:10177000FB6202FB13131BB23B630C9A3223394604
:1017800092FBF3F37B632CB920460DF09EF80446E0
:10179000059003E005980DF098F80590059B3BB97E
:1017A000384606F013FB204606F021FB059C81E03D
:1017B000069B01330693C9E6DDF81875002F7FF408
:1017C0008EAE77E02246284606F0AAFA002870D1AD
:1017D0000DF61C170646044657F8048FB8F1000FA3
:1017E00062D0382015F01CF8824638B9204606F041
:1017F000FEFAD9F808307F4898472BE041460DF5AE
:10180000A162284606F08CFA8046E0B951460DF5F3
:10181000A16006F027FF20B1204606F0E8FA444612
:1018200048E03B68CAF808305146FCB90DF04DF865
:10183000064604461EE00DF5A1624146284606F024
:101840006FFA824640B1204606F0D1FA31E02046D8
:1018500006F0CDFA54462DE059460DF5A16006F08C
:1018600001FF0028F3D1CBF80880594630460DF02F
:101870002CF806469EB1DDF8F886B8F1000F13D0BB
:10188000382014F0CDFF83460028D4D1204606F03E
:10189000AEFAD9F80820574890475C460AE020463F
:1018A00006F0A5FA344605E00DF63C239F4293D19D
:1018B00000E000242646002E40D035682B681A1D13
:1018C0003AD0DA1E012A37D9022B04D14A494B48B3
:1018D00012F034FB04E0AA694949484812F02EFB93
:1018E0006B6B03932B6B0293EB6A0193AB6A0093D0
:1018F0006B6A2A6A4349414812F020FBAA684249B0
:101900003E4812F01BFB41493C4812F017FB2B6884
:101910006A683A48022B0CBF3D493E4912F00EFB63
:101920006A692AB113781BB13B49344812F006FBAF
:101930003A49324812F002FBB668BCE7204606F08E
:1019400056FA0DE0364900E036492C4806F027FBF0
:1019500022A92A4806F023FB3349284806F01FFB3A
:10196000049B1D6AAC6824B9304B31489B6898478A
:1019700004E0204606F0F6FE0023A3626C68002C0B
:101980003EF405AE0025E368AB420CDD236953F855
:101990002530586A14F04CFF236953F8250014F0E1
:1019A00047FF0135EFE7002B02DD206914F040FF0F
:1019B0000023E360226A1D4B9B6A1AB11B69204613
:1019C000984702E0204606F039FC204614F030FF2C
:1019D000FEF7DDBD17490EA80BF0A0FE164978B33F
:1019E0000EA80BF071FF154912A80BF06DFFFEF762
:1019F000CEBD00BFFD8501003A960100BC95FF1FDA
:101A00001386010019860100378601004296010005
:101A10003E8601004486010042860100ACA101001F
:101A2000478601006686010062910100309CFF1F1D
:101A3000858601009E860100A48601008FA6010014
:101A40000EA80BF06BFE002800F0A8810022B94917
:101A5000B948BA4D12F072FA12A80BF016FEB84946
:101A600012A80BF05BFE38B9B64912A80BF056FE6F
:101A70000646002800F05282B3490DF5A160002609
:101A80000AF038FA41F23477CDF810654FF400725D
:101A900021460DF5A16003F09FFD06F11B022A44CB
:101AA0000023E15C02F8011F0133B3F5007FF8D198
:101AB00006F50776BE42E9D1A44B0B2283F8002439
:101AC000A3499D4806F06BFA287812F008FCA1495A
:101AD000994806F064FA687812F001FC9E4996482D
:101AE00006F05DFAA87812F0FAFB9C49924806F0DD
:101AF00056FAE87812F0F3FB99498F4806F04FFA4E
:101B00002B7E697EE87E43EA0121AB7E41EA0341F8
:101B10001022002341EA006187480BF054FF9149ED
:101B2000854806F03CFA2B7D697DE87D43EA01217A
:101B3000AB7D41EA03411022002341EA00617E4867
:101B40000BF041FF7C480BF080FF87497A4806F094
:101B500026FA8649784806F022FA8549764806F042
:101B60001EFA00264FF4077909FB06F94FEA462AC8
:101B700000278049704806F012FA102207EB0A018C
:101B800022A80BF0DCFE249B022B00F2C0817A49D4
:101B900042A80BF005FF249B0022C3F1030342A9D6
:101BA000C2A80BF0A6FEC2A90DF5A1600BF0EDFED8
:101BB00022A90DF5A1600BF044FE4FF0010801468B
:101BC00020460BF0E2FE21465B480BF058FF204612
:101BD0000BF03EFDB8F1000F09D00DF5A1600BF040
:101BE00037FDC2A80BF034FD42A80BF031FD63496C
:101BF000514806F0D4F94FF0000807EB090B08EB49
:101C00000B032B444C48197FA1F120035E2B88BFA6
:101C10002E2108F1010812F05BFBB8F1400FEED164
:101C20005749454806F0BBF9403722A80BF010FD94
:101C3000B7F5007F9DD10136022E93D151493E4820
:101C400006F0ADF900264FF4077808FB06F84FEAD6
:101C5000462900274749384806F0A1F9102207EB2A
:101C6000090116A80BF06BFE189B022B00F25381A2
:101C700041491AA80BF094FE189B0022C3F10303FC
:101C80001AA91EA80BF035FE1EA922A80BF07DFE96
:101C900016A922A80BF0D5FD012401460DF6081067
:101CA0000BF073FE0DF6081123480BF0E8FE0DF65D
:101CB00008100BF0CDFC44B122A80BF0C9FC1EA803
:101CC0000BF0C6FC1AA80BF0C3FC2C491A4807F10C
:101CD0001B0406F064F944442C444FF0000A14F845
:101CE000013F0F2B03D82849134806F058F910225A
:101CF0002178114812F0EFFA0AF1010A23490E483F
:101D000006F04DF9BAF1200FE9D121490A4806F051
:101D100046F9203716A80BF09BFCB7F5007F99D148
:101D20000136022E8FD11B49034806F038F91A49B3
:101D3000FEF7BBBCA9860100BC95FF1FB09CFF1F2E
:101D4000BC8601008FA60100088101002098FF1FBA
:101D5000C2860100D4950100D0860100DA86010018
:101D6000E8860100F4860100028701005087010027
:101D70009E870100EC870100F187010054A8010053
:101D800099870100F9870100F78701004296010059
:101D90009A87010066880100ACA101007D490EA868
:101DA0000BF0BCFC002870D07B4CDFF83092002791
:101DB00099F80034BB4265DD7849794806F0EFF8C0
:101DC000207812F08CFA7749754806F0E8F86078C8
:101DD00012F085FA7449724806F0E1F8A07812F022
:101DE0007EFA72496E4806F0DAF8E07812F077FA77
:101DF0006F496B4806F0D3F800231022A1696848A8
:101E00000BF0E1FD6B49664806F0C9F8002310228B
:101E1000616963480BF0D7FD61480BF016FE04F5CD
:101E2000007A254605F11B08002618F8013F0F2B04
:101E300003D861495A4806F0B2F8102298F8001009
:101E4000574812F048FA01365C49554806F0A7F8A1
:101E5000202EEAD10026AB195148197FA1F12003A9
:101E60005E2B88BF2E21013612F032FA202EF2D1DD
:101E70004B4820350BF0E9FDAA45D3D1013704F5D5
:101E8000077495E74E49FEF710BC4E490EA80BF0BB
:101E900045FC90B1049B5D6A12A920460BF075FDCC
:101EA000214628460EF0BAFD20460BF0D1FB4649EC
:101EB0003B4806F074F812A90BE044490EA80BF059
:101EC0002DFC00287EF463AB4149354806F067F8E5
:101ED0000EA920460BF059FD214631480BF0CFFDED
:101EE0003C49FEF74EBBF368013BF3600023FEF76D
:101EF000E0BF3948DAF804309847FFF7CBB93648E5
:101F0000D9F80430069198470699FFF7F4B94FF0D5
:101F1000000822A954E6002416A9BFE611F0B8FE75
:101F2000304607F05BFD2D4E2D4907461C4806F054
:101F300036F896F8000412F0D2F92A49184806F04B
:101F40002EF80222F9B2164812F0C5F926491448B3
:101F500006F025F812A812F0F7FA014610480BF027
:101F600087FD22490E4806F01AF811F09AFD014645
:101F70000B480EF0EFFB1E49094806F010F8D6F8A2
:101F8000041407480EF0E8FB1A49054806F007F864
:101F900096E500BFD3880100B09CFF1FC2860100F8
:101FA000BC95FF1FD4950100D0860100DA860100A0
:101FB000E8860100F4860100F787010042960100DF
:101FC000C3D00100D9880100E38801009793010084
:101FD000F088010062910100A19101002098FF1F8B
:101FE0002C8101003C8101004C8101005E810100D7
:101FF0006D810100798101002DE9F04FB84CF1B0FD
:102000002378082B0AAF4AD14FF4936014F008FCF0
:1020100094F8003A94F8022A94F8011A80460FF0D6
:10202000AFFBB04940460FF059FBAF49AF4805F050
:10203000B6FF404605F04EFC48B3404605F03CFB79
:1020400028B307F1A80907F1980010F0DDFA07F1AD
:102050006C050023A64A08F58B61484609F07FF914
:102060002846A44909F046FF95E80F0006AE86E829
:102070000F0007F1B4060FCE6D460FC596E80300BA
:1020800085E80300404699E80E0005F0C5FC40468F
:1020900014F0CEFB002010F037F8012323702378D2
:1020A0008F4D092B17D14FF4936014F0B9FB95F8BD
:1020B000003A95F8022A95F8011A06460FF060FBDF
:1020C00030460FF0BFFC304614F0B2FB002010F099
:1020D0001BF801232B702378814E0A2B40F0AE8130
:1020E0004FF4936014F09CFB96F8003A96F8022A9D
:1020F00096F8011A05460FF043FB7F4928460FF07A
:10210000EDFA28467D4905F071FA284605F0D4FA23
:10211000002800F08B81284605F0E2F878498046D7
:10212000284605F063FA284605F07EFA28467549E8
:1021300005F05CFA284605F0CDFB30B307F16C00E2
:102140000DF04FF8704907F174000DF053F80026B8
:1021500007F198000DF045F807F1740107F1A000B0
:102160000DF002F860B197F8A03013F0700FEFD1C6
:10217000D7F8BC3007F1A0001E4409F0E9F8E7E702
:1021800007F1740009F0E4F800E006465F4957489B
:1021900005F005FF5E49554805F001FF31465348FB
:1021A0000EF0DAFA5B49514805F0F9FE41464F4816
:1021B0000EF0D2FA58494D4805F0F1FEB04501D86D
:1021C000564930E15649494805F0E9FE2846554947
:1021D00005F00CFA284605F07DFB002800F026816A
:1021E00007F140000CF0FDFF474907F148000DF0F2
:1021F00001F807F16C000CF0F4FF07F1480107F15A
:1022000074000CF0B1FF0646002800F0DC8097F85F
:10221000743013F0700FECD107F1180107F174005E
:1022200008F065F9FF2207F1980107F1740008F042
:102230002CFE07F1180012F0CDFF07F198023A4981
:10224000104615F059FE07F11802384907F12C0025
:1022500015F052FE07F12C021046354915F04CFEE0
:1022600007F198012148D7F8906005F098FE3149B0
:102270001E4805F094FE07F12C011C4805F08FFE66
:102280002D491A4805F08BFE314618480EF064FAC5
:102290002A49164805F083FE052007F055FA07F194
:1022A000180107F108000BF07BFB124907F1080049
:1022B0000BF034FA804607F108000BF0C9F9B8F1C9
:1022C000000F41D01E49094805F069FE1D4B1B78DF
:1022D00013F0100F14BF4FF480224FF4803238E017
:1022E000A8CFFF1FE8910100FA910100BC95FF1FE4
:1022F00010920100088101001A920100419401002E
:102300005692010062920100408601007F92010016
:102310009B920100AA920100ACA10100BA920100B7
:10232000D9920100FA920100169301001C9301005A
:10233000219301004296010096930100279301002A
:1023400032930100A49CFF1FAA49AB4805F027FE69
:102350004246314607F1180009F04AFE30B307F152
:10236000180107F1080009F0C5FDBB68002B01F05A
:102370009E814FF0000846451CD9EB46C0B00DF1D8
:10238000280A4FF48072514607F1740008F052FC9D
:102390001FFA80F94A46514607F108000AF03CFF4F
:1023A000052007F0D1F9C844DD46E4E79349924897
:1023B00005F0F5FD07F1740008F0CAFF90498E485A
:1023C00005F0EDFD15E707F1480008F0C1FF8D4964
:1023D000894805F0E4FD8C49284605F007F98B4B48
:1023E0001E8007F16C02142107F1980009F024FD0A
:1023F00088B107F19801804805F0D1FD84497E48F5
:1024000005F0CDFDF96E7C480EF0A6F981497A48B9
:1024100005F0C5FDE5E78049284605F0E7F82846C0
:1024200005F0A2FB7D49744805F0B9FD284614F07B
:10243000FFF900200FF068FE012323702378784D08
:102440001F2B40F016814FF4936014F0E9F995F8D2
:10245000003A95F8022A95F8011A06460FF090F90D
:10246000704930460FF03AF930466F4905F0BEF832
:10247000304605F021F9002800F0F380304604F0E2
:102480002FFF6A49304605F0B1F8304605F0CCF828
:102490003046674905F0AAF8304605F01BFA0028D7
:1024A00000F0DF80304605F007F9002800F0D98001
:1024B00007F198000CF095FE5E4907F1A0000CF0C2
:1024C00099FE08B95C49C9E05C494B48D7F8BC8023
:1024D00005F065FD97F8A330002587F86C5087F864
:1024E0006D506BB907F1400107F1A00007F0FFFF45
:1024F000002865D007F140013F4803F04FF85FE046
:1025000007F1A00107F16C0008F0A9FC002854D0E5
:102510004FF0010A97F8A33053454ED3B7F8A410F3
:10252000CAEB0101490107F16C0008F03AFB0028F1
:1025300043D0002107F16C0008F05CFC83460028C2
:102540003BD0C37A0F2B38D1037803F01F039A4591
:1025500033D14FF00009B9F1040F5FFA89F304D8C1
:102560000BEB4902537890780EE00A2B95BF09F1E6
:10257000FF3209F101020BEB42020BEB420299BF61
:102580009379D0791379507943EA002060B17F289C
:1025900028BF3F20C0B209F1010910F081FEB9F156
:1025A0000D0F05F10105D6D19BF800305B0606D46E
:1025B0000AF1010A5FFA8AFAACE7002000E0284637
:1025C00001460D480EF0C8F81D490B4805F0E7FC20
:1025D000D7F8BC1008480EF0BFF80949064805F0C6
:1025E000DEFC00224146134809F002FD60BB15499C
:1025F00034E000BF44930100BC95FF1F53930100DA
:10260000ACA101006B9301008093010098CEFF1FE5
:102610009593010098930100A1930100BD930100DF
:10262000A8CFFF1FD99301004194010056920100E9
:10263000E493010030940100F09301007D840100D7
:102640004B83010004940100584907F1400009F050
:1026500051FC3B6C002B41F02D805549554805F04D
:102660009EFC304614F0E4F800200FF04DFD0123ED
:1026700023702378504E202B29D14FF4936014F00F
:10268000CFF896F8003A96F8022A96F8011A05460D
:102690000FF076F8494928460FF020F8284605F053
:1026A0000BF84749284604F0A1FF284604F018FE1D
:1026B0004449284604F09AFF284604F0B5FF28460E
:1026C00014F0B6F800200FF01FFD012333702378BB
:1026D000394D0C2B23D1D5F8E8090FF0E9FD4FF463
:1026E000936014F09DF895F8003A95F8022A95F851
:1026F000011A06460FF044F8334930460EF0EEFF5B
:102700003249304604F072FF304605F02DFA30466B
:1027100014F08EF800200FF0F7FC01232B702378C3
:10272000254E172B22D14FF4936014F079F896F8C8
:10273000003A96F8022A96F8011A05460FF020F89A
:10274000234928460EF0CAFF2249284604F04EFFCE
:10275000284604F0B1FF284604F0C2FD284614F0D4
:1027600067F800200FF0D0FC0123337023781A2B78
:1027700040D1114B0121D3F8F80905F04BFC94F836
:10278000213A0D4D53BB10F021FC28B110F0DAFCBA
:10279000014611480AF0ADF906F030FE0028EED0EF
:1027A00006F0F8FDC0B210F07BFDE8E730940100C0
:1027B0008E960100BC95FF1FA8CFFF1F5692010007
:1027C000399401004F94010042920100A19301004D
:1027D000419401005D9401000496FF1F0021D5F88B
:1027E000F80905F017FC002085F8210A0FF08CFC91
:1027F00001232B7023789D4D012B0DD1D5F8E809CD
:102800000FF056FD002105F6E8100EF0EDFAE8682D
:1028100011F0A1FB02232B702378944D062B39D1A4
:10282000D5F8246A0BF0ECFA864233D00BF0FCFAB0
:1028300006460BF0EFFA80460BF0E2FA81460BF009
:10284000D5FA82460BF0C8FA83460BF0B9FA324645
:10285000434607F16C06039085498DE8000E07F1A9
:10286000980015F049FB07F1980130460BF098F8F5
:10287000012337220021019305F6E8104FF6E0739B
:1028800000960CF057FF30460AF0E2FE0BF0B8FA63
:10289000C5F8240A2378754D032B2CD195F8203ADE
:1028A0004BBB3C2013F0BCFF012106460AF06EFC36
:1028B000C5F8F0696F4907F198000BF071F8D5F889
:1028C000F01901234A7C097C07F1980003F02CF8E9
:1028D00007F198000AF0BCFED5F8F0592DB1284652
:1028E00005F097FA284613F0A3FF00200FF00CFC28
:1028F000012384F8203A23785C4D122B2CD195F8D3
:10290000206A4EBB3C2013F08BFF012180460AF069
:102910003DFCC5F8F089584907F198000BF040F8E4
:10292000D5F8F01933464A7C097C07F1980002F08B
:10293000FBFF07F198000AF08BFED5F8F0592DB196
:10294000284605F066FA284613F072FF00200FF0C3
:10295000DBFB012384F8203A2378444E0D2B40F012
:10296000F08096F820BABBF1000F40F0EA803C20DE
:1029700013F056FF054601210AF008FCD6F8D08076
:10298000C6F8F05995F8109095F811A03B4907F159
:10299000980528460BF004F8294640460EF03EF80C
:1029A00028460AF055FED6F8CC3086F8D7B018681D
:1029B0000FF07EFC11F026F9804600283DD1D6F8B4
:1029C000CC0057210EF010FAD6F8CC902C492846AE
:1029D0000AF0E6FF2946484605F0F4FA28460AF0D0
:1029E00037FE4FF6FF724146D6F8CC0005F0F6FBF5
:1029F000D6F8CC90234928460AF0D2FF4FF478430A
:102A00000A22414648468DE820010CF093FE2846F4
:102A10000AF01EFED6F8D0901B4928460AF0C0FFE7
:102A2000294648460DF0FAFF28460AF011FE4146B5
:102A3000D6F8C8000DF087FE74E00F4928460AF06A
:102A4000AFFF5B4652464946284602F06DFF83467B
:102A500028460AF0FDFD96F8D73003F0FF08002B5A
:102A600060D1BBF1000F40F09D865BE0A8CFFF1F57
:102A7000709401009294010008810100A19401006A
:102A800097930100C2940100B894010011F0BAF8C4
:102A9000061C4FF4FA7018BF012606F055FE002EF2
:102AA00040F0AB86D4F8CC80DC4928460AF078FFA9
:102AB00001233C223146019340464FF4FC630095CC
:102AC0000CF038FE28460AF0C3FDD4F8D060D44993
:102AD00028460AF065FF294630460DF09FFF28463C
:102AE0000AF0B6FD11F08EF8061C18BF0126002E64
:102AF00000F0998694F8D72002F0FF0692B9C94BEE
:102B0000D3F8CC3018680FF0D3FBC74928460AF039
:102B100047FF284633465246494603F09DFD284666
:102B20000AF096FDD4F8F0592DB1284605F071F958
:102B3000284613F07DFE00200FF0E6FA012384F80A
:102B4000203A2378B74D132B2CD195F8206A4EBB31
:102B50003C2013F065FE012180460AF017FBC5F802
:102B6000F089B14907F198000AF01AFFD5F8F01979
:102B700033464A7C097C07F1980003F06DFD07F1AC
:102B800098000AF065FDD5F8F0592DB1284605F0FA
:102B900040F9284613F04CFE00200FF0B5FA01234F
:102BA00084F8203A23789F4E042B40F0EF8096F86B
:102BB000208AB8F1000F40F0E9803C2013F030FE8D
:102BC000054601210AF0E2FA6B7CD6F8D090C6F8EF
:102BD000F05907F1980595497B6028460AF0E0FE18
:102BE000294648460DF01AFF28460AF031FDD6F86E
:102BF000CC9086F8D7808E4928460AF0D1FE294627
:102C0000484605F0DFF928460AF022FD4FF6FF722C
:102C10004146D6F8CC0005F0E1FAD6F8D0808549D7
:102C200028460AF0BDFE294640460DF0F7FE28462C
:102C30000AF00EFD10F0E6FF804620BBD6F8CC90DF
:102C40007D4928460AF0ACFE4FF478430A224146FB
:102C500048468DE820010CF06DFD28460AF0F8FC8E
:102C6000D6F8D090754928460AF09AFE294648467B
:102C70000DF0D4FE28460AF0EBFC4146D6F8C80019
:102C80000DF061FD73E007F1400007F00DF9D6F893
:102C9000CC8007F1400128460AF077FE29464046DD
:102CA00005F090F928460AF0D3FCD6F8CC301E681F
:102CB000B6F906B0BBF1000F07DDB6F90830552BA9
:102CC00003DD00F005BE0DF024F85D49D4F8D060B6
:102CD00028460AF065FE07F1400128460AF0B1FDDA
:102CE000014607F16C000AF050FE07F16C01304616
:102CF0000DF094FE07F16C000AF0AAFC28460AF0D9
:102D0000A7FC002694F8D730DFF818A103F0FF08DD
:102D10005FFA86F91BB148460EF01AF823E04346E5
:102D20007A68414648460DF0A1FE012010F0FCFEF5
:102D3000013655220621484611F028FAA02EE1D18D
:102D400042464049DAF8C8000AF07DFADAF8D06065
:102D50003D4928460AF024FE304629460DF05EFE25
:102D600028460AF075FC07F140000AF071FCD4F81F
:102D7000F0592DB1284605F04CF8284613F058FDBF
:102D800000200FF0C1F9012384F8203A2378254D63
:102D9000182B40F0B98095F8209AB9F1000F40F057
:102DA000B380D5F8D060294907F1980840460AF069
:102DB000F7FD414630460DF031FE40460AF048FC32
:102DC00085F8D79010F01EFF0646002840D1D5F8B0
:102DD000CC90194940460AF0E3FD4FF4784332465F
:102DE000314648460196CDF800800CF0A3FC4046E1
:102DF0000AF02EFCD5F8D090104940460AF0D0FDDC
:102E0000414648460DF00AFE40460AF021FC314694
:102E1000D5F8C8000DF097FC70E000BFE994010000
:102E200003950100A8CFFF1F088101003B95010019
:102E30009793010052950100C2940100B8940100DB
:102E40005C95010069950100739501008B95010067
:102E50001B4D94F8D730DFF86CA003F0FF061BB1D0
:102E6000FF200DF075FF49E0484610F011FF5FFAB2
:102E700089FB01231A46314658460DF0F7FD013013
:102E800008D0012010F050FE32460221584611F0C1
:102E90007DF91BE03146DAF8C8000DF054FCDAF891
:102EA000CC301E68B6F906200FFA89F39A420DDD80
:102EB000B6F908B0BBF1000F08DD00F09EBD00BF01
:102EC00000C00240A8CFFF1F0CF023FF09F1010949
:102ED000B9F1A00FBDD10022B749D4F8C8000AF05B
:102EE000B2F9D4F8D050B54940460AF059FD284609
:102EF00041460DF093FD40460AF0AAFB00200FF07A
:102F000003F9012384F8203A2378AD4D192B2CD1F5
:102F100095F8206A4EBB3C2013F082FC01218046CC
:102F20000AF034F9C5F8F089A64907F198000AF0CB
:102F300037FDD5F8F01933464A7C097C07F1980033
:102F400003F08AFB07F198000AF082FBD5F8F059EC
:102F50002DB1284604F05DFF284613F069FC0020DF
:102F60000FF0D2F8012384F8203A2378944D0E2BE9
:102F70000CD195F8206A4EB9D5F8E8090FF098F908
:102F8000304610F0C7F9012385F8203A23788C4D9C
:102F9000222B40F0298395F820BABBF1000F40F0B6
:102FA0007E83142013F03CFCD5F8F839C5F8FC09F1
:102FB00005F6E8121835836080464260056080F8A7
:102FC00010B040F2544013F02BFC40F2544205463E
:102FD000594611F0BFFA1E2385F80434632385F89F
:102FE00005349B2385F80634FF2385F807340B232B
:102FF00085F808340923C5F80C3443F6CA03C5F82C
:10300000143443F28A43C5F818346F4BC5F81C34A6
:103010004FF0060385F820346423C5F824340523D3
:10302000C5F828344FF41673C5F82C343223C5F88C
:1030300030340323C5F838341423C5F83C34634BCB
:10304000C5F84834043BC5F84C3403F59F330226D9
:1030500003F5EC73C5F8503401210E20C5F8346433
:10306000C5F84064C8F80C5006F002FB584BDFF876
:1030700074A11E6031460F2006F0FAFA01211120DA
:103080004FF0010906F0F4FA01211020CAF800609F
:1030900006F0EEFA4946CAF80090122006F0E8FA67
:1030A0000823CAF80030494613207B6006F0E0FA96
:1030B00048490422CAF800203A6081F8809201F160
:1030C0007C4101F5D4214FF4A070086008687B684A
:1030D00020F02000086001F53421783118460B609B
:1030E00049467B6006F0C4FA394A7B681360314672
:1030F000072006F0BDFA3146062006F0B9FA3A6814
:103100004946104606F0B4FA334B4FF400521A60A9
:103110003146032006F0ACFAD8F80C202F4985F888
:1031200045B485F844B485F846B482F84794C1F8AC
:103130000090D2F824345B01894601D0013BFDD1D7
:10314000C9F80060D2F82C0406F0FEFAD8F80C504A
:103150000123C9F80030D5F824345B0101D0013BCC
:10316000FDD11F4E322006F0EFFA96F80032002B08
:103170000CBF0123002369D0012385F844340823C0
:10318000C9F80030D5F83C0406F0DEFA0422C9F88C
:103190000020D5F834345B0101D0013BFDD1CAF8E1
:1031A0000020D5F8380406F0CFFA95F8442495F8B5
:1031B0004534CAB9013B18E0699501009F950100AB
:1031C000A8CFFF1FBC95010048E1FA3F48800340AB
:1031D000C4F00F400C10FE4304F00F4048F00F40C5
:1031E0003000FE4344F00F40013385F84534CE49AA
:1031F000CE4804F0D4FECE4BCE4A95F84414CB48CA
:1032000000290CBF1146194604F0C9FECA49C74837
:1032100004F0C5FE95F8450411F061F8C749C348AC
:1032200004F0BDFEC64BC74A95F84614BF480129B5
:103230000CBF1146194604F0B2FEC349BB4804F066
:10324000AEFE96F80032B3FA83F35B09BF4EC04975
:1032500033700422032006F0BDF90422BD4910207A
:1032600006F0B8F90422BC49112006F0B3F9D4F8ED
:10327000FC99BA4907F16C000AF092FBD9F80C30BE
:10328000B74A93F84714B74B07F16C00002914BFF5
:10329000114619460AF0EBFAD9F804301868737829
:1032A000002B4FF00A0514BF4FF478434FF4FC6332
:1032B000002211460193009514230CF0E3F9D9F88C
:1032C00004301868B3780095002B14BF4FF478438E
:1032D0004FF4FC6301930022142319210CF0D2F95E
:1032E000D9F804301868F3780095002B14BF4FF418
:1032F00078434FF4FC6301930022142332210CF035
:10330000C1F9D9F80430186833780095002B14BF40
:103310004FF478434FF4FC634FF6FF7A0193002299
:1033200014234B210CF0AEF9D9F804008DE82004E9
:1033300014230022642100680CF0A4F9D9F80400D9
:103340008DE82004142300227D21006807F19805F0
:103350000CF098F9D9F804B083494FF000082846DA
:103360000AF01EFB53460C22414658468DE82001C8
:103370000CF0E0F928460AF06BF9D9F804B07B4963
:1033800028460AF00DFB53460C22192158468DE8B9
:1033900020010CF0CFF928460AF05AF9D9F804B008
:1033A000734928460AF0FCFA53460C22322158464B
:1033B0008DE820010CF0BEF928460AF049F9D9F849
:1033C00004B06C4928460AF0EBFA53460C224B2114
:1033D00058468DE820010CF0ADF928460AF038F97E
:1033E000D9F804B0644928460AF0DAFA53460C22A8
:1033F000642158468DE820010CF09CF928460AF01B
:1034000027F9D9F804B05D4928460AF0C9FA5346AD
:103410000C227D2158468DE820010CF08BF92846BE
:103420000AF016F94FF0010BD9F8043054497B60CB
:1034300028460AF0B5FA8DE8200853461E22414678
:1034400078680CF077F928460AF002F9D9F80430C8
:103450007B6007F16C0128460AF097FA8DE8200896
:1034600053462822414678680CF064F928460AF051
:10347000EFF8D9F8043043497B6028460AF090FA07
:103480008DE8200853463222414678680CF052F904
:1034900028460AF0DDF8D9F804903B4928460AF09E
:1034A0007FFA53463C22414648468DE820080CF0FE
:1034B00041F928460AF0CCF807F16C000AF0C8F888
:1034C000B146B2464FF00A0B3379D4F8FC599BB1A0
:1034D0006B68186899F80130CDF800B0002B14BF64
:1034E0004FF478434FF4FC630022019311461423F8
:1034F0000CF0C8F886F804807379002B46D06B680E
:10350000186899F80230CDF800B0002B14BF4FF4C2
:1035100078434FF4FC6301930022142319210CF02B
:10352000B1F886F8058031E0C6950100BC95FF1F13
:10353000CE910100C5910100D2950100DD950100F9
:10354000DD910100D6910100ACA10100289CFF1F74
:10355000617100004571000029710000E7950100CC
:10356000E1910100E4910100EF950100F395010064
:10357000F7950100FB950100FF95010002960100FF
:10358000059601001096010015960100B3799BB1D4
:103590006B68186899F80330CDF800B0002B14BFA1
:1035A0004FF478434FF4FC6301930022142332213B
:1035B0000CF068F886F80680F379002B84D06B68ED
:1035C00018689AF80030002B14BF4FF478434FF47A
:1035D000FC6301930A230093002214234B210CF077
:1035E00051F886F807806DE7072B58D195F8208AA7
:1035F000B8F1000F53D107F19806D5F8E8090EF09D
:1036000057FEA14930460AF0CBF94FF6FF73372237
:10361000414605F6E8108DE840010CF08BF8304685
:103620000AF016F8994907F16C000AF0B9F99849BF
:1036300007F140000AF0B4F907F1400107F16C000E
:103640000AF0FFF8014630460AF09FF94FF4FC6398
:103650004122414605F6E8108DE840010CF06AF879
:10366000304609F0F5FF07F1400009F0F1FF07F1DE
:103670006C0009F0EDFF874930460AF091F94FF6EA
:10368000E0734B22414605F6E8108DE840010CF04E
:1036900051F8304609F0DCFF012385F8203A237801
:1036A000022B40F0318200200EF02EFD2CE27A49F0
:1036B000FEF77DBE79497A4804F071FC4FF48071C1
:1036C00077480DF049F87749754804F068FC4FF0E9
:1036D0000009C84520D9EA46C0B00AAD4FF480724F
:1036E000294607F1A00007F0A5FA1FFA80FB5A4609
:1036F000294607F1400009F08FFDD944AB445D45F0
:1037000005D015F8011B664810F0E2FDF7E702202E
:1037100006F01AF8D546DCE707F1A00007F018FE1E
:103720004FF47A7006F010F85F49304603F05EFF00
:103730005E4907F16C0008F0DDFBFB6E6BB35C4982
:10374000574804F02CFC5B49554804F028FC396FBD
:1037500053480DF001F85349514804F020FC4FF054
:10376000000A3B6F53457EF67CAFE946C0B00AAD18
:103770004FF48072294607F16C0001F02DFF80B2F2
:10378000824405EB0008454505D015F8011B444867
:1037900010F09EFDF7E7CD46E3E74749404804F0C7
:1037A000FEFBCCE7D6F8CC3018680EF081FDD6F8D9
:1037B000CCB0424928460AF0F3F84FF6E0733C22B9
:1037C000414658468DE820010BF0B4FF284609F029
:1037D0003FFFD6F8D0603A4928460AF0E1F829467A
:1037E00030460DF01BF9284609F032FF10F00AFAB6
:1037F000061C18BF0126FFF752B994F8D730002BEA
:103800003FF444A92F4B3049D3F8CC6028460AF046
:10381000C7F80021019100954FF4784346223046C5
:103820000BF088FF20E094F8D730DFF8988003B3DE
:10383000D8F8CCB0244928460AF0B2F831464FF403
:10384000784346228DE8600058460BF073FF284607
:1038500009F0FEFED8F8D0601C4928460AF0A0F80E
:10386000294630460DF0DAF8284609F0F1FEFFF758
:1038700041B910F0C7F9061C40F6B83018BF012650
:1038800005F062FFFFF733B920960100389601007A
:10389000449601004E96010068960100A59601002D
:1038A000BC95FF1FACA101001F94010030940100E2
:1038B0002A9401004B8301008E960100B39601000B
:1038C000CA960100A8CFFF1FD394010027950100DD
:1038D000904BDFF8489218680CF058FA96F83720A9
:1038E0008D4B13F8128003EB420393F801A096F876
:1038F00042301B0443F0004343F02A03C9F834303C
:1039000007F080FE96F8413048EA034343F0104345
:10391000C9F83430D84407F075FE08F1FF331FFAB8
:1039200083F896F8413048EA034343F01043C9F85E
:10393000343007F067FE96F842301B0443F0004332
:1039400043F02B03C9F8343007F05CFE96F84130A1
:103950000AF1550A4AEA034343F01043C9F83430E8
:1039600007F050FE96F841304AEA034A4AF0104305
:10397000C9F8343007F046FE96F842301B0443F095
:10398000004343F02C03C9F8343007F03BFE96F8AF
:103990004130DFF888811B0443F0104343F4FC639B
:1039A000C9F834300BF1FF3B07F02CFE1FFA8BF304
:1039B0000FFA83FB002BEAD196F84230D8F80010BA
:1039C0001B0443F00063C8F834304046D8F82C207C
:1039D000524B12F0805F04D112F0F00FF6D0836BDF
:1039E000F4E74FF08052DA6219601A46D96A11F092
:1039F000F00F3FF468A9916BF8E7464B18680CF09C
:103A0000C5F996F83720444B13F812A003EB420394
:103A1000CA445B787B6096F842301B0443F0004355
:103A200043F02A036B6307F0EDFD96F841301FFA6F
:103A30008AFA4AEA034343F010436B6307F0E2FD5E
:103A400096F841304AEA034A4AF010436B6307F0A4
:103A5000D9FD96F842301B0443F0004343F02B039A
:103A60006B6307F0CFFD7A6896F8413042EA034372
:103A700043F010436B6307F0C5FD7B6896F8412067
:103A80005B44013B9BB243EA024343F010436B6348
:103A900007F0B8FD96F842301B0443F0004343F0B2
:103AA0002C036B6307F0AEFD96F841201C4B12040B
:103AB00013436B630BF1FF3B07F0A4FD1FFA8BF37D
:103AC0000FFA83FB002BEFD1144B144A196896F8B8
:103AD00042301B0443F000635363EB6A0F4A13F058
:103AE000805F05D113F0F00FF7D013469B6BF4E71E
:103AF0000A484FF08053C3620160D36A13F0F00F9D
:103B00003FF4E2A9AB6BF8E707F5CE77BD46BDE819
:103B1000F08F00BF9CCEFF1F4CB6010000C00240DA
:103B20001FF800902DE9F047A84EA94F8EB009F07C
:103B3000E5FB172386F8023A1823022486F8033A95
:103B400019231620214686F8043A1A2386F8053AE6
:103B500086F8010A86F8004A0AF0A5FF214696F881
:103B6000020A0AF0A0FF214696F8000A0AF09BFF1D
:103B7000012196F8030A0AF096FF012196F8040A3B
:103B80000AF091FF012196F8050A0AF08CFF91498D
:103B9000914804F004FA91498F4804F000FA9049E2
:103BA0008D4804F0FCF98F498B4804F0F8F98E49F0
:103BB000894804F0F4F98D49874804F0F0F98C49FC
:103BC000854804F0ECF91C2012F02AFE1C22044661
:103BD000002110F0BFFC96F8012A2270854A7A6015
:103BE000854ABA60854A3A60854AFA60854A7A61B0
:103BF0000023854A2376FA617B62BB613B613B62AD
:103C0000824A834B83497448C6F8F44910F096F908
:103C1000142012F005FEB86210B97B687E48984700
:103C2000BB6A7E4A1A607E4A5A607E4A9A607E4A21
:103C30001A617E4ADA6096F8020A07F0FFFF08B9B7
:103C40007B4900E07B49644804F0A9F93C2012F06C
:103C5000E7FD0021044609F099FA2046C6F8F0492C
:103C60000DF0FCFC08B1744900E074495A4804F0B6
:103C700096F9D6F8F0395C6972B6714BFB62002296
:103C80003A86BA63FA633A647A64BA645A80012263
:103C9000A3F806210222A3F80A220322A3F80E2386
:103CA0000422A3F812240522A3F816250622FF21D8
:103CB000A3F81A2607227963A3F81E2762B6614982
:103CC000204614F09BF830B95F49204614F078F88C
:103CD00010B15D4C00E05B4C4FF08F41204613F07B
:103CE000D1FE14F0ABF8594970663B4804F057F91F
:103CF000574BFB647B6D3B650AF01AF85549364813
:103D000004F04DF975685449002301226B8185F850
:103D10003030AB8185F8242085F8383085F825309F
:103D2000EA77AA7785F820306B86AB8685F8213054
:103D30002B766B8785F822204FF6FF73474AAB87B7
:103D4000AB836B83AA6285F840306FF05902C023C1
:103D50000AACEA6285F8393020460CF053F8404B43
:103D60000A9A1A6095F843200B2A994602D0072A2E
:103D700040F0DC8095F844300D3B012B00F2D680FA
:103D8000384939484B68834288460ED10B2A04D102
:103D900097F8581021F0010105E0072A05D197F89E
:103DA000581041F0010187F8581098F8091019448B
:103DB00091F824E0724578D093F82410914255D0C0
:103DC00093F82510914270D1012150E0A8CFFF1F38
:103DD000309CFF1F84A00100BC95FF1F97A001002D
:103DE000E4A0010044960100F8A0010029A101000F
:103DF0007AA10100317C00001D7C0000097C0000DC
:103E0000FD7B0000597C0000457C000095A101006D
:103E100082A101009DA10100AFA10100FDE0000011
:103E2000C5DF0000ADDF0000A1DF00009DDF000066
:103E3000CAA10100FBA1010022A201003CA20100D5
:103E40000082FF1F00FEFF4600FEFFC65EA20100CB
:103E5000FF7B00007CA2010080C3C9010000B443C5
:103E60009CCEFF1FCC95FF1FC0CF010000211A6818
:103E7000D2F800C05A681CEA020F14D0744A02EB50
:103E8000CE0E4FF0000CDEF804E0CEF800C003EBDD
:103E9000010E9EF824E002EBCE0201F10A0E5268F8
:103EA00053F82E30136088F80910D8F8043095F8CC
:103EB000442083420ED10D2A04D197F8581021F0E6
:103EC000040105E00E2A05D197F8581041F00401CD
:103ED00087F8581098F80A10194491F83000824277
:103EE00029D093F83010914205D093F831109142C7
:103EF00021D1012200E0002219680F6859680F42A1
:103F000011D0534901EBC0000027406807609818A2
:103F100090F8300001EBC00102F10C0003EB8003CC
:103F200049685B680B6088F80A2004E095F8253042
:103F300043F0010389E00EF0C5FAD8F8040095F8C3
:103F400045E000F13B073A46002312F8011F714596
:103F500009D1034493F86C20002A6DD095F83EC037
:103F60003B46002106E00133092BEED164E001312C
:103F7000092961D013F801AFE245F8D1014491F865
:103F80006C30002B58D0134056D11A4617F8011F39
:103F900071450DD12E4901EBCE0E02F11207DEF86C
:103FA000041050F827700F60024492F86C7003E020
:103FB0000132092AEAD10027D8F804E095F83E003A
:103FC00085F841700EF13B01002211F801CF8445C4
:103FD0000CD11F4901EBC0014B6802F11201724480
:103FE0005EF82110196092F86C3002E00132092A63
:103FF000EBD195F83F003B43FF2885F8423029D0AC
:1040000001210AF050FD012195F83F000AF05EFD04
:104010000A2005F099FB002195F83F000AF056FDB3
:104020000A2005F091FB95F83F0001210AF04EFDB2
:104030000A2005F089FB0DE0002385F8413085F862
:10404000423095F8253043F0020385F82530DFE251
:10405000F8D40100D9F80000D74FDFF860A30BF0C7
:1040600095FE95F842301B0443F0004343F00103F2
:104070007B6307F0C7FA7A2005F066FB95F84230BB
:104080001B0443F0004343F011037B6307F0BAFACB
:10409000052005F059FB95F842301B0443F000431E
:1040A00043F0B1037B6307F0ADFA4FF0000995F8D8
:1040B000412019F80A30DFF8008343EA024343F055
:1040C00000437B6309F1010907F09CFAB9F1030F82
:1040D000EDD195F84230DFF8E8A21B0443F000432D
:1040E00043F0B203C8F8343007F08CFA4FF00009FF
:1040F00095F8412019F80A30AF4F43EA024343F0E4
:104100000043C8F8343009F1010907F07BFAB9F12E
:10411000030FEDD195F84230DFF8A8A21B0443F05D
:10412000004343F0B3037B6307F06CFA4FF00008E1
:10413000B94695F8412018F80A309F4F43EA0243E8
:1041400043F00043C9F8343008F1010807F05AFA87
:10415000B8F1030FEDD195F84230DFF86CA21B04E3
:1041600043F0004343F0B4037B6307F04BFA95F848
:1041700041301B0443F000437B6307F043FA95F89A
:1041800042301B0443F0004343F0C0037B6307F05D
:1041900039FA4FF00009B84695F8412019F80A306D
:1041A000854F43EA024343F00043C8F8343009F135
:1041B000010907F027FAB9F1030FEDD195F8423064
:1041C000DFF808A21B0443F0004343F0C1037B6304
:1041D00007F018FA95F841301B0443F0004343F010
:1041E000C5037B6307F00EFA95F842301B0443F0D9
:1041F000004343F0C2037B6307F004FA95F84130B3
:104200001B0443F0004343F00A037B6307F0FAF911
:1042100095F841301B0443F000437B6307F0F2F94B
:1042200095F842301B0443F0004343F0C3037B6323
:1042300007F0E8F995F841301B0443F0004343F0E0
:104240008A037B6307F0DEF995F841301B0443F0E5
:10425000004343F02A037B6307F0D4F995F842301A
:104260001B0443F0004343F0C4037B6307F0CAF927
:1042700095F841301B0443F0004343F08A037B630D
:1042800007F0C0F995F841301B0443F0004343F0B8
:104290002A037B6307F0B6F995F842301B0443F01C
:1042A000004343F0C5037B6307F0ACF995F8413058
:1042B0001B0443F0004343F03C037B6307F0A2F987
:1042C00095F841301B0443F0004343F038037B630F
:1042D00007F098F995F842301B0443F0004343F08F
:1042E00020037B6307F08EF995F842301B0443F0FE
:1042F000004343F03A037B6307F084F995F84130BB
:104300001B0443F0004343F005037B6307F07AF995
:1043100095F842301B0443F0004343F026037B63CF
:1043200007F070F995F841301B0443F0004343F067
:1043300001037B6307F066F995F842301B0443F0F4
:10434000004343F0E0037B6307F05CF94FF00009A2
:1043500095F8412019F80A30DFF85C8043EA0243FF
:1043600043F000437B6309F1010907F04BF9B9F110
:104370000F0FEDD195F84230DFF854A01B0443F045
:10438000004343F0E103C8F8343007F03BF94FF045
:10439000000995F8412019F80A30074F43EA024313
:1043A00043F00043C8F8343009F1010907F02AF955
:1043B000B9F10F0FEDD10DE000C00240E096010011
:1043C000E3960100E3960100E6960100E9960100FC
:1043D000F896010095F842301B0443F0004343F087
:1043E00038037B6307F00EF995F842301B0443F065
:1043F000004343F02A037B6307F004F995F841304A
:104400001B0443F010437B6307F0FCF895F8413040
:104410001B0443F0104343F080037B6307F0F2F882
:1044200095F842301B0443F0004343F02B037B63B9
:1044300007F0E8F895F841301B0443F010437B6324
:1044400007F0E0F895F841301B0443F0104343F0C7
:10445000A0037B6307F0D6F895F842301B0443F0C5
:10446000004343F013037B6307F0CCF895F8423028
:1044700038681B0443F0006343F029037B633B4629
:10448000D96A4B4A11F0805F04D111F0F00FF7D0D8
:10449000BA6BF5E74FF08053D36210601346D16AD0
:1044A000434F11F0F00801D0996BF8E7012005F0B7
:1044B0004BF90BF02EFC012005F046F94146284649
:1044C00007F052FA3B4B18680BF060FC95F8372068
:1044D000394B13F8129003EB420393F8018095F8DF
:1044E00042301B0443F0004343F02A037B6307F090
:1044F00089F895F8413049EA034343F010437B6360
:1045000007F080F895F8412009F1800343EA02435F
:1045100043F010437B6307F075F895F842301B04B5
:1045200043F0004343F02B037B6307F06BF895F8EF
:10453000413048EA034343F010437B6307F062F8DD
:1045400095F8412008F1A00343EA024343F01043E9
:104550007B6307F057F895F842301B0443F00043A3
:1045600043F02C037B6307F04DF828464FF4A0423C
:10457000698F0DF089FE95F8423038681B0443F0CE
:1045800000637B633B46D96A094A11F0805F04D11E
:1045900011F0F00FF7D0BA6BF5E74FF08053D3620C
:1045A00011461060D36A13F0F00707D08B6BF9E760
:1045B00000C002409CCEFF1F4CB601000BF0A9FBCF
:1045C00085F83670698F284607F042F995F8403033
:1045D000FF2B07D0C94A52F83320012382F800315B
:1045E00085F82430DFF878830027C5F8148085F833
:1045F00023702021284607F02AF80028F5DBC04B5D
:1046000003EBC000C36B1B792B611E2005F09CF8E7
:1046100003217068BB4F07F0A7F97368BA49BB481C
:104620004FF0020983F81890C6F8E83903F0B7FC98
:104630001E2138460CF0D8FB4FF00008B449204644
:1046400009F0AEF94FF4FC635522322138468DE86B
:1046500010010BF06FF8204608F0FAFFAD49204634
:1046600009F09EF94FF6FF735F22322138468DE83C
:1046700010010BF05FF8A7F51D65204608F0E8FF74
:1046800028460122A44908F0DEFD96F8022A96F891
:10469000003AD6F8F81996F8010A86F8D52086F877
:1046A000D630C6F8C850C6F8D01086F8D400C6F880
:1046B000CC7000F02EFE9949204609F071F90123D3
:1046C00073224146019338464FF6FF7300940BF076
:1046D00031F8204608F0BCFF4FF4967005F034F82E
:1046E00040F2544012F09CF840F2544205464146D4
:1046F0000FF030FF1E2385F80434632385F805345A
:104700009B2385F80634FF2385F807340B2385F8AF
:1047100008340923C5F80C3443F6CA03C5F8143429
:1047200043F28A43C5F818347D4BC5F81C34062380
:1047300085F820346423C5F824340523C5F82834CB
:104740004FF41673C5F82C343223C5F830340323E4
:10475000C5F838341423C5F83C34724BC5F84834D6
:10476000043BC5F84C3403F59F3303F5EC73C5F8EF
:1047700050346D4BC5F83494C5F8409493F800124A
:1047800093F8F82103F60403414518BF424593F816
:104790000032DBB201D0002B43D164495B4803F007
:1047A000FEFB1E2157480CF01FFB4FF0010860492B
:1047B000204609F0F5F84FF478434B222F218DE87D
:1047C000100150480AF0B6FF204608F041FF594951
:1047D000204609F0E5F84FF4784355222D218DE865
:1047E000100148480AF0A6FF204608F031FF524960
:1047F000204609F0D5F84FF478435F222C218DE84C
:10480000100140480AF096FF204608F021FF42467A
:1048100041494A4808F017FD41F2883004F094FFFE
:1048200003E04749394803F0BAFB284612F000F884
:104830004FF001094349204609F0B2F84FF6FF73E3
:10484000732200212F488DE810020AF073FF2046E2
:1048500008F0FEFE382011F0E3FF05223A49054634
:1048600010F06AFA0522A8184FF00008374910F036
:1048700063FA3749C5F80C80C5F81080C5F8148074
:1048800085F8188005F11C0009F08AF84FF4E13131
:10489000304808F0E4FE1A2319206B632863494668
:1048A0000AF014F9494695F834000AF00FF9284641
:1048B000C6F8F85903F075FB4146D6F8F80903F03D
:1048C000A9FB2549204609F06BF8FA234A46214600
:1048D00006A80BF0F9FF204608F0BAFE1F49204653
:1048E00009F05EF8089B002B3CD0069D0A992846EB
:1048F00013F054FBB0B3451B36E000BFF8D4010001
:10490000E096010090D9FF1F91A20100BC95FF1F06
:104910002D96010044960100ADA20100B7A201004E
:1049200048E1FA3F488003400808FE43D0A2010056
:10493000C3A2010023A3010030A30100C0CFFF1FC9
:104940003EA301006CA30100C3D00100CAD0010046
:1049500085A301000496FF1F93A301009AA3010001
:10496000089701004FF0FF35204608F071FE06A8B9
:1049700008F06EFE013573D0D6F8F8392D4ADA62A8
:1049800001252D49204609F00BF84FF6FF737322DD
:1049900000218DE8300029480AF0CCFE204608F0BE
:1049A00057FE2749274803F0FAFA294625480BF015
:1049B000D1FE2549234803F0F2FA4FF4E1312148B2
:1049C0000BF0C8FE21491F4803F0E9FA20491D48B1
:1049D00003F0E5FAD6F8F0192046183108F0D5FFB3
:1049E0002146184809F04BF81A49164803F0D7FA3F
:1049F000204608F02DFED6F8F019D6F8F8591831EF
:104A0000204608F0C2FFD6F8F01906A8283108F0B1
:104A1000BCFF06AA214628460FF0E6FA054606A87E
:104A200008F016FE204608F013FE0DB10A4929E0F1
:104A30000A4927E055D300009FA3010090D9FF1F2A
:104A4000B9A30100BC95FF1FE5A30100E9A3010084
:104A5000F1A3010013A401001AA4010030A4010075
:104A6000E349E44803F09BFA0121E2480BF072FEAF
:104A7000E149E04803F093FA4FF4E131DD480BF0EF
:104A800069FEDE49DB4803F08AFADD49204608F07A
:104A900087FF2C2011F0C4FED6F8F039D6F8F4299F
:104AA00000932146D6F8F83905460FF0BFF92046A5
:104AB000756108F0CDFDD349B760204608F070FF5E
:104AC00020460FF08DF90546204608F0C1FDCE497D
:104AD000204608F065FF2A46052120460FF060F9C0
:104AE000204608F0B5FDC949204608F059FF2A467E
:104AF000032120460FF054F9204608F0A9FDC449CF
:104B0000204608F04DFF2A46002120460FF048F9C4
:104B1000204608F09DFDBF49204608F041FF2A4687
:104B20000D2120460FF03CF9204608F091FDBA49CE
:104B3000204608F035FF2A46122120460FF030F9B2
:104B4000204608F085FDB549204608F029FF2A4691
:104B5000132120460FF024F9204608F079FDB049D2
:104B6000204608F01DFF20460FF03AF90546204682
:104B700008F06EFDAB49204608F012FF2A460421DA
:104B800020460FF00DF9204608F062FDA6492046A8
:104B900008F006FF2A46192120460FF001F92046A9
:104BA00008F056FDA149204608F0FAFE2A461821D1
:104BB00020460FF0F5F8204608F04AFD9C492046B3
:104BC00008F0EEFE2A46002120460FF0E9F82046C4
:104BD00008F03EFD9749204608F0E2FE2A462221D1
:104BE00020460FF0DDF8204608F032FD92492046BD
:104BF00008F0D6FE20460FF0F3F88046204608F075
:104C000027FD8E49204608F0CBFE42460021204673
:104C10000FF0C6F80546204608F01AFD88492046E0
:104C200008F0BEFE2A461A2120460FF0B9F82046A9
:104C300008F00EFD8349204608F0B2FE2A461B21EB
:104C400020460FF0ADF8204608F002FD7E492046D0
:104C500008F0A6FE2A461E2120460FF0A1F82046A5
:104C600008F0F6FC7949204608F09AFE42460021F9
:104C700020460FF095F80546204608F0E9FC7449F7
:104C8000204608F08DFE2A461F2120460FF088F8A6
:104C9000204608F0DDFC6F49204608F081FE2A46D8
:104CA000202120460FF07CF8204608F0D1FC6A490C
:104CB000204608F075FE2A46172120460FF070F8AE
:104CC000204608F0C5FC6549204608F069FE2A46E2
:104CD000082120460FF064F8204608F0B9FC60492E
:104CE000204608F05DFE2A46092120460FF058F8BC
:104CF000204608F0ADFC5B49204608F051FE2A46EC
:104D00000C2120460FF04CF8204608F0A1FC564933
:104D1000204608F045FE2A460A2120460FF040F8BA
:104D2000204608F095FC3A49204608F039FE204616
:104D30000FF056F8204608F08BFC3549204608F065
:104D40002FFE20460FF04CF8204608F081FC304939
:104D5000204608F025FE20460FF042F8204608F0D5
:104D600077FC2B49204608F01BFE20460FF038F850
:104D7000204608F06DFC3D49204608F011FE204613
:104D80000FF02EF80546204608F062FC3849204610
:104D900008F006FE2A46062120460FF001F82046BC
:104DA00008F056FC334906A808F0FAFDD6F8F039A9
:104DB00002A8597C08F0D6FD02A906A808F041FD1A
:104DC0000146204608F0E1FD2A46102120460EF05B
:104DD000E7FFC6F80C0A204608F03AFC02A808F0E3
:104DE00037FC06A808F034FC234906A846E000BFBB
:104DF00043A40100BC95FF1FE5A30100E9A3010046
:104E00004496010079A4010083A4010096A4010046
:104E100097930100A8A40100BBA40100CFA4010046
:104E2000E2A40100E8A40100F2A4010095950100AC
:104E3000FEA4010012A501001DA5010057A5010057
:104E400027A501003CA5010051A501005C920100CD
:104E5000D9930100569201005BA5010070A50100E5
:104E60007FA5010094A50100ADA50100C5A5010025
:104E7000CEA50100D7A50100E9A5010008F090FD2D
:104E8000D6F8F0391B7C0BB1744900E0744902A8D4
:104E900008F086FD02A906A808F0D3FC01462046CA
:104EA00008F073FD2A460F2120460EF079FFC6F860
:104EB000080A204608F0CCFB02A808F0C9FB06A8A7
:104EC00008F0C6FB674906A808F06AFDD6F8F03975
:104ED00002A859690DF0EFF902A906A808F0B1FC83
:104EE0000146204608F051FD2A46112120460EF0C9
:104EF00057FFC6F8100A204608F0AAFB02A808F0DF
:104F0000A7FB06A808F0A4FB574906A808F048FD2F
:104F1000D6F8F0390A22198F02A808F010FD02A96C
:104F200006A808F08EFC514908F07DFC0146204699
:104F300008F02BFD2A46212120460EF031FFC6F84D
:104F40001C0A204608F084FB02A808F081FB06A892
:104F500008F07EFB4649204608F022FD2A46002143
:104F600020460EF01DFF8046204608F071FB4149A7
:104F700006A808F015FDD6F8F01902A8183108F0B7
:104F800004FD02A906A808F05CFC0146204608F0D2
:104F9000FCFC42461C2120460EF002FFC6F8140A13
:104FA000204608F055FB02A808F052FB06A808F0BE
:104FB0004FFB314906A808F0F3FCD6F8F01902A817
:104FC000283108F0E2FC02A906A808F03AFC0146E4
:104FD000204608F0DAFC42461D2120460EF0E0FE95
:104FE000C6F8180A204608F033FB02A808F030FB88
:104FF00006A808F02DFB2149204608F0D1FC2A46DE
:10500000002120460EF0CCFE204608F021FB1C4972
:10501000204608F0C5FC2A46072120460EF0C0FEB7
:10502000204608F015FB96F8023A96F8012A86F811
:1050300069351449144B154886F86825C6F870354B
:10504000C6F86C7502F0ABFF1149104802F0A7FFDB
:10505000F0680EF080FF0EB0BDE8F087F6A5010005
:10506000FBA5010001A601000EA601001FA601007C
:1050700022A601002AA6010031A601009793010093
:105080003CA6010048A6010070D0FF1FBC95FF1F81
:1050900070A60100134B144A1B6882B0019301995A
:1050A0001368CB1A962B1AD9104B11601A78033A51
:1050B000172A14D8DFE802F010101013131313137B
:1050C0001313101313131310101313131310100CC6
:1050D000012283F8212A02E0012283F8D72002B0BE
:1050E000704700BF88DAFF1F8C9CFF1FA8CFFF1FEF
:1050F000084611460EF066B808460EF0D1B810B555
:1051000008461446114604F08BF9204610BD08B538
:10511000044B1B685B0502D5084604F0D9F8012052
:1051200008BD00BF3480044038B5184B184C1A68CD
:1051300011681A79174B1A70174A6068914236BF86
:105140001346A2F5807303F5807280B1051D35F911
:10515000021B01F50041091123F8021B9A42F6D8FF
:1051600008F040FDA36863600023A36005E04FF4EE
:10517000006123F8021B9A42FBD8084B1B781BB135
:10518000074B4FF080421A6038BD00BFD4D9FF1FD3
:105190008C9CFF1F1F800040008DFF1FDDD9FF1F6B
:1051A00008E200E0437AA3B103691A68002119609C
:1051B0007AB172B6074B586808B95A6002E099682C
:1051C00011B99A6062B6704759609A6062B608F089
:1051D00009BD70478C9CFF1F2DE9F047002506464E
:1051E00000F118072C46A846737A002C3AD1AB423E
:1051F0007DD9336953F8259043F82540B9F1000F64
:1052000075D099F80030012B14D908F04EFD824674
:1052100030B14FF4807209F1040104300FF08CFDBD
:1052200099F80030013B89F80030BAF1000F5ED0E8
:10523000544600E04C463868B0F5803F57D0211DF9
:1052400004F5827E0B6830FB03F230FB13F302F3AC
:105250000F0203F30F03C2EA034341F8043B8E45F8
:10526000F0D844E0AB4242D9336953F8250043F803
:105270002580E0B3D7F800C0BCF5803F04F1040EF0
:1052800000F1040904F582711CD104F10C0E00F147
:105290000C0C5EF8083C5CF8082C93FA12F34EF8FC
:1052A000083C5CF8042C5EF8043C93FA12F38E453B
:1052B0004EF8043C0CF1080C0EF1080EE9D308F08E
:1052C00091FC14E059F8042B3CFB02F33CFB12FA6E
:1052D00003F30F020AF30F03C2EA0343DEF80020D0
:1052E00093FA12F34EF8043B7145EBD8E7E701352A
:1052F000042D07F104077FF477AF44B1304621460F
:105300000AF0F4FC2046BDE8F04708F06BBCBDE8AD
:10531000F0877F4B2DE9F74F0E207E4CDFF860922F
:105320007D4FD8600F237D4DDFF858B223601221E6
:105330001023C9F80030396011231321DFF84882A7
:105340002B60CBF80010764BDFF840A20921C8F89B
:105350000010082119600721724BCAF800100621BD
:1053600019607149714B05260E60714E0421316040
:10537000032119606F49704B0B607049043B0B604F
:105380006F4903F59F3303F5EC730B60012109F0BE
:105390008AFB6C480221016020786B4C09F083FB8A
:1053A0002878012109F07FFB297899F8000054F84A
:1053B0003110012581F88050294609F074FB99F8D5
:1053C0000020387854F83220DFF8589182F8805065
:1053D000294609F068FB3B789BF8000054F833300D
:1053E0004F4F83F88050294609F05DFB9BF8003051
:1053F00098F8002054F83330DFF830B183F880504B
:10540000212A0DD804EBC20354F832205B6882F8DD
:1054100080524FF4A0721A601A6822F020021A60BB
:1054200098F80030387854F83330012583F88050EC
:10543000294609F038FB3B789AF8000054F83330DD
:10544000022183F8805009F02EFB022199F8000018
:1054500009F029FB2946307809F025FB33789BF8C1
:10546000000054F83330022183F8805009F01BFB10
:105470009BF80000212803D80222344904F0AAF83E
:10548000334B1968FF221A7121B1324B0B441B11A7
:1054900031495A540BF064F9C821304808F082F9B8
:1054A0001F212F4808F07EF914212E4808F07AF9C0
:1054B00014212D4808F076F9012011F0B1F90446C5
:1054C000C4F1005411F0B4F9204611F0A9F90444D4
:1054D000054646F29470019411F0A2F9234B244A38
:1054E000186000F188735B01136020B921492248DC
:1054F00002F04BFDFEE7284611F09AF904F022FA7B
:105500001E4B00229A705A701A7003B0BDE8F08FDB
:105510008C9CFF1FECCBFF1F44CEFF1F94DAFF1FB4
:10552000F0CBFF1FAC9CFF1F9CDAFF1FD0DAFF1FE0
:10553000E0DAFF1F24CEFF1F488003402CCEFF1F60
:105540004CCEFF1FC4F00F40F8D4010071390100A8
:10555000A0CEFF1F008FFCBF44E400E0B0CEFF1FD1
:10556000C0CEFF1FD0CEFF1FE0CEFF1F18CBFF1F06
:1055700090DAFF1F74A60100BC95FF1FD8DAFF1F49
:1055800098DAFF1F40CEFF1F8CDAFF1FD4DAFF1F0F
:1055900010B5044608F093FA204610BD70B50446D5
:1055A00008460D4610F0B8FA236802462946204600
:1055B0005B68BDE87040184710B5044600F5AB6065
:1055C00008F046F804F1B40008F034FB04F1A00040
:1055D00008F030FB204610BD38B583681446426899
:1055E00005461819904202D993420AD2D41A286863
:1055F0002246184408F00CFFAB682344AB602046F9
:1056000038BD002038BD38B590F830300446002B46
:105610003DD008F04AFB0546002838D0226AE369ED
:105620009A4219D24FF48072011D04F11800FFF75D
:10563000D3FFE36A03444008E36201300022431CC5
:1056400001387F2803D825F813201846F7E72946A4
:1056500020460AF04BFB09E00D4A13885BB1013B81
:105660009BB213803BB1002384F830302846BDE85C
:10567000384008F0B7BA074B5A6922F080425A61A5
:10568000002AF0D1DA7A22F00402DA72EBE738BDB0
:1056900068CEFF1FCC95FF1F03790F2B0CD8074A4C
:1056A000137072B606490279012303FA02F20B88DD
:1056B00023EA02030B8062B6704700BF1A800040E5
:1056C000D0D9FF1F2DE9F0410646B00790B00F4634
:1056D0002AD5B90728D5904C2378013B012B0BD84C
:1056E0000EF04CFB40B104F1180000228B4907F08A
:1056F000AAFDE0680EF02FFC237887480E2B13D10B
:10570000D0F8503583B1DB6D73B1C0F85035B0F8C7
:10571000543582490133A0F854350022183007F07F
:1057200092FD00200DF0F6FDF2072AD5FB0728D5E3
:10573000794C2378013B012B0BD80EF00DFB40B1C7
:1057400004F118000022754907F07DFDE0680EF0B5
:1057500002FC237870480E2B13D1D0F8503583B15A
:105760009B6D73B1C0F85035B0F854356B49013BAF
:10577000A0F854350022183007F065FD00200DF028
:10578000C9FDF50603D5FC0601D506F015FD700729
:1057900040F1B580790740F1B2805F4C23785A1E02
:1057A000012A254610D823699B69002B00F0A780A9
:1057B0001A46116909B10A46FBE72B61EA6009F054
:1057C000DCFF01232B709AE0052B07D10E232370F9
:1057D00009F0D3FF01200DF09DFD90E00E2B40F06D
:1057E0008A8004F5AB61684608F0CFF84C496846FA
:1057F00007F094FF8046002873D1694604A808F09A
:10580000C4F847490CA808F0CBF80CA9684607F083
:1058100070FF04460CA807F01BFF54B1029A531EF8
:105820001AB1009A029302F803806946684608F0AC
:1058300080F83B4908A808F0B3F80A9B029A08A927
:10584000D21A684607F02EFF0022431C69460CA8B6
:1058500008F04FF80CA9684607F088FF0CA807F07D
:10586000F7FE08A807F0F4FE69460CA808F08DF8CA
:105870002C4908A808F094F808A90CA80AF03CF8EC
:1058800008A807F0E5FE0CA807F0E2FED5F84C45A5
:10589000DDF8188044B1E36B434537D104A904F126
:1058A000340007F04DFF88BBC5F8504523461CB1B6
:1058B0009A6D0AB11346FBE70022D96D90B229B167
:1058C0009C4202F1010201D00B46F6E7A5F854050F
:1058D00009F053FF01200DF01DFD04A807F0B8FEEC
:1058E00005E00CF0C7FD09F048FF0123237068466E
:1058F00007F0AEFE03E009F040FF012323703207FA
:1059000006D53B0704D506F057FC01E0E46DC1E77E
:1059100010B0BDE8F08100BFA8CFFF1F82A6010034
:10592000408601008CA601002DE9F04F8C4FADF5AB
:105930004F7D4EACD7F8D05006900B912046894948
:105940000A929A4608F02CF8214628460BF066F891
:105950004FF00008204607F07BFE5721D7F8CC0017
:1059600087F8D7800BF040FAD7F8CC507E49204614
:1059700008F016F82146284602F024FB204607F0DE
:1059800067FE4FF6FF724146D7F8CC0002F026FCC6
:10599000D7F8D0507549204608F002F8214628462D
:1059A0000BF03CF8204607F053FE0EF02BF93D4675
:1059B000064628BBD7F8CC506D49204607F0F0FFCB
:1059C0004FF478430A22314628468DE8500009F00A
:1059D000B1FE204607F03CFED7F8D050654920467E
:1059E00007F0DEFF214628460BF018F8204607F0A6
:1059F0002FFE3146D7F8C8000AF0A5FE00F00EBE13
:105A00000DA804F051FAD7F8CC600DA9204607F094
:105A1000BCFF2146304602F0D5FA204607F018FEBA
:105A20005549D7F8D06041A807F0BAFF0DA941A8A1
:105A300007F007FF0146204607F0A7FF2146304642
:105A40000AF0ECFF204607F003FE41A807F000FE35
:105A500034A80CF0D9FD41A80CF0D6FD1022414627
:105A600011A80EF077FDBAF1010F40F0788297F897
:105A7000D460424920460AF0C5F93146226807F150
:105A8000D80001F02FFE064620BBD7F8CC503C4989
:105A9000204607F085FF4FF478430A223146284616
:105AA0008DE8500009F046FE204607F0D1FDD7F8FA
:105AB000D0503449204607F073FF214628460AF0AB
:105AC000ADFF204607F0C4FD3146D7F8C8000AF004
:105AD0003AFE9AE3DFF8B08007F21450414601F035
