:1000000000800020BD010000211D0100ED1C010049
:10001000ED1C0100ED1C0100ED1C0100ED1C0100B8
:10002000ED1C0100ED1C0100ED1C0100211D010073
:10003000211D0100ED1C0100893901008D390100ED
:10004000211D0100211D0100211D0100211D0100B4
:10005000211D0100211D0100211D0100211D0100A4
:10006000211D0100211D0100211D0100211D010094
:10007000211D0100211D0100211D0100211D010084
:10008000211D0100211D0100211D0100211D010074
:10009000211D0100211D0100211D0100211D010064
:1000A00011FA00001DFA0000211D0100211D0100B0
:1000B000211D0100211D0100211D0100211D010044
:1000C000211D0100211D0100211D0100211D010034
:1000D000211D0100211D0100211D0100211D010024
:1000E000211D0100211D0100211D0100211D010014
:1000F000211D010005280100211D0100211D010015
:10010000211D0100211D0100211D0100211D0100F3
:10011000211D0100211D0100211D0100211D0100E3
:10012000211D0100211D0100211D0100211D0100D3
:10013000211D0100211D010069160000211D010083
:10014000211D0100211D0100211D0100211D0100B3
:10015000813B0100953B0100A93B0100BD3B010033
:10016000211D01003D2B0100211D0100211D010069
:10017000211D0100211D0100211D0100211D010083
:10018000211D0100211D0100211D0100211D010073
:10019000211D0100211D0100211D0100211D010063
:1001A000211D0100211D0100211D0100211D010053
:1001B000211D0100211D0100E9370100564B4CF2C1
:1001C000205210B51A804DF628121A8000BF00BFC9
:1001D00011F0AAFD514B4FF010621A60504A9A601C
:1001E000504ADA60504A136813F4807301BF4F49D4
:1001F0000B604FF4A85313604D4B4E491A7810070B
:1002000042BF1A7842F008021A704B4B2A221A7029
:100210004A4A4B4B8B4204D252F8040F43F8040B6A
:10022000F8E7484B484A0021934202D243F8041BA6
:10023000FAE7464A4648002350F8231042F82310B4
:1002400001336F2BF8D1434B434A802103F8011B44
:100250009342FBD1414B3D4A1A60414B8A221A70AE
:10026000A3F5805324225A70A0221A709A7991071C
:10027000FCD59A79D206FCD43A4A937903F00C0360
:10028000082B384BF9D103221A7140225A719A79FE
:100290009406FCD533498A79324B5006FBD5324A55
:1002A000324911600221516020221A709A7902F0BD
:1002B0000C020C2AFAD12E4B2E4A1A602E4B2F4AD2
:1002C0001A6000225A60072243F8042C2C4AC3F813
:1002D0000C2D62B611F0C4FE144B1B68DA0705D56D
:1002E000284811F0C7FD284B284A1A60284B1B7874
:1002F0005B0609D5244C254B22689A4204D121483B
:1003000011F0B8FD0023236011F014FD15F0A8FED4
:1003100014F0E7F8FEE700BF0E20054030800440EF
:10032000823F04000100002B10D0034014D0034092
:1003300002D00740C899FF1F00E0074058E40100C1
:100340001C93FF1FC899FF1FD0DCFF1F008EFF1FEB
:100350000000000000E400E05FE400E008ED00E0E1
:100360000050064000400640448004400000030165
:1003700004800440C010050014E000E0FF76010096
:1003800000002020A99932621CE00340A5C3945AC2
:1003900000F00740FFFFFFFFFFFFFFFFFFFFFFFF32
:1003A000FFFFFFFFFFFFFFFFFFFFFFFFFFFFFFFF5D
:1003B000FFFFFFFFFFFFFFFFFFFFFFFFFFFFFFFF4D
:1003C000FFFFFFFFFFFFFFFFFFFFFFFFFFFFFFFF3D
:1003D000FFFFFFFFFFFFFFFFFFFFFFFFFFFFFFFF2D
:1003E000FFFFFFFFFFFFFFFFFFFFFFFFFFFFFFFF1D
:1003F000FFFFFFFFFFFFFFFFFFFFFFFFFFFFFFFF0D
:10040000FFFFFFFFFFFFFFFFFFFFFFFFDEF9FFFF23
:1004100010B5054C237833B9044B13B10448AFF33E
:1004200000800123237010BDC899FF1F0000000049
:100430005CE40100084B10B51BB108490848AFF354
:1004400000800848036803B910BD074B002BFBD0A0
:10045000BDE81040184700BF00000000CC99FF1F06
:100460005CE40100C899FF1F00000000820738B556
:1004700005460C4604D5A30702D5114809F04FFDE7
:10048000E80704D5E10702D50D4809F072FDEA0638
:1004900004D5E30602D50A4809F052FE680704D5E0
:1004A000610702D5064809F08FFD2A0706D5230704
:1004B00004D50348BDE838400AF01EBA38BD00BF75
:1004C000349AFF1F07B5094B094A1B680193094974
:1004D000019B13600A689A1A962A03D906480B6092
:1004E00003F05FF803B05DF804FB00BFC0DAFF1F44
:1004F000309AFF1F2C9AFF1F349AFF1F10B5044635
:1005000000F5AB6013F0A8FC04F1B40013F01DF982
:1005100004F1A00013F019F9204610BDF0B51D4BF1
:100520001D4918681D4D1E4E85B00C4640F2EE2741
:100530000A784AB12A78D20706D51A68D6F800E0B8
:10054000CEEB02020E2A09D81A6894F800E0121ABB
:10055000BEF1000F1BD0B2F5FA6FE9D9114B12486A
:1005600002220A2100F046FC182119221A238DE8E4
:100570000E000E4802231722162102F0C5FB0C497B
:100580000222202005B0BDE8F04011F0E5BCBA42DF
:10059000E3E700BFC0DAFF1F3FDCFF1F50DCFF1F97
:1005A000C8DCFF1F6D04000054A4FF1F349AFF1F16
:1005B000C504000008B5044800F059FC0348BDE834
:1005C000084002F0E1BF00BF54A4FF1F349AFF1F90
:1005D00037B5114D114C0B220D238DE80C000A216B
:1005E0001523142228460CF0FBF81F2121238DE847
:1005F0000A001E2220231D21094800F0C0FB2946C5
:10060000204602F027FB074A0749204603B0BDE811
:10061000304014F014BA00BFE499FF1F349AFF1F52
:1006200054A4FF1FF893FF1FFD0400002DE9F843B9
:100630000025064600F118072C4629463046DCB94D
:1006400013F02FF80446002856D03868B0F5803FE4
:1006500052D0211D04F5827E0B6830FB03F230FB83
:1006600013F302F30F0203F30F03C2EA034341F84B
:10067000043B8E45F0D83FE013F006F8E0B3D7F81E
:1006800000C0BCF5803F04F1040E00F1040804F53D
:1006900082711CD104F10C0E00F10C0C5EF8083CC8
:1006A0005CF8082C93FA12F34EF8083C5CF8042C22
:1006B0005EF8043C93FA12F371454EF8043C0CF1D9
:1006C000080C0EF1080EE9D812F0A2FF14E058F859
:1006D000042B3CFB02F33CFB12F903F30F0209F37A
:1006E0000F03C2EA0343DEF8002093FA12F34EF838
:1006F000043B7145EBD8E7E70135042D07F104070A
:100700009BD14CB130462146002212F0A9FF204671
:10071000BDE8F84312F07CBFBDE8F88310B50021B6
:1007200012F0B2FF034690B172B60949086808B9E1
:100730000B6003E0074A146814B9136062B610BD79
:100740000C60136062B6BDE8104012F061BF10BDCE
:10075000D4A4FF1FC4A4FF1F38B5194B1A68116831
:100760001A79184B1A70184A91421849086836BF0E
:100770001346A2F5807303F580720C4688B1051DFF
:1007800035F9021B01F50041091123F8021B9A42B9
:10079000F6D812F03DFF0E4B1A68226000221A6054
:1007A00005E04FF4006123F8021B9A42FBD8094B85
:1007B0001B781BB1084B4FF080421A6038BD00BF58
:1007C000C8A4FF1F1F8000400083FF1FD4A4FF1F89
:1007D000C4A4FF1FD0A4FF1F08E200E010B5044628
:1007E00013F090F8204610BD70B501214148424EEB
:1007F00013F034F8414A136843F480531360404BBC
:1008000080221A70002440F6080534800120083444
:1008100011F010FCA3B2AB421CB2F6D1394B3A48EE
:100820001A683A4C3A4912F4800F4FD0394A156889
:1008300048F6A2722A4048F6A275AA4246D1056837
:1008400040F23F42954241D12268012A3ED10D68D3
:1008500040F20112954239D1264C2F4A23681A6082
:1008600002229A809A6040F20111A2F20222D980FB
:10087000DA604FF48071204A1A61D9820022D9834C
:10088000062199839A829A61237903F1804303F5C3
:1008900004331A70B0221A7012F092FF1F4B2279A3
:1008A00018701F4B1F481A7002F110011E4B43F8BD
:1008B000210053119B0003F1604303F5614302F0F3
:1008C0001F02012101FA02F21A6070BD1A6842F497
:1008D00080021A600123236040F23F4303600D4B06
:1008E00048F6A3721A60114A1A6040F201130B60B5
:1008F000B2E700BFC8A4FF1F00C00C402C8004401A
:1009000021C00C403C800440046003400C60034064
:1009100010600340006003400082FF1FD0A4FF1F4F
:100920001B80004059070000008EFF1FA28F0100AE
:10093000024A0349034814F082B800BFF893FF1F2E
:10094000DD070000C8A4FF1F90F8303070B50546E1
:10095000002B41D012F016FE064600283CD02B6A30
:10096000EC69A34221D203F5807294422CD2E41A9E
:10097000A86922461844311D0EF02EF92B6A234433
:100980002B62EB6A23446408EB6201340022631C8F
:10099000013C7F2C03D826F813201C46F7E70022E1
:1009A0003146284612F05CFE09E00C4A138873B108
:1009B000013B9BB2138053B1002385F830303046A1
:1009C000BDE8704012F024BE4FF48074D0E75E2181
:1009D00003480DF032FEEFE770BD00BFD8A4FF1F43
:1009E0006C94FF1F002380F830308362C36270472D
:1009F00072B690F830305BB1002380F8303062B6C8
:100A0000064A138833B1013B9BB2138013B1704780
:100A100062B670475E2102480DF00FBED8A4FF1FDA
:100A20006C94FF1F7FB5164D04460E46FFF7E0FF9E
:100A30005E2114480DF0EEFD2B88314601336846E7
:100A40002B800EF0B1FC0E22694604F1180011F063
:100A500057F8A06938B1E369A36201200023E3627B
:100A600084F830000AE02B881BB1013B9BB22B803D
:100A700023B904485E210DF0E0FD002004B070BDF4
:100A8000D8A4FF1F6C94FF1F2DE9F04F0388584D29
:100A90008C070DD0002A00F0A68011F8014BDEB2C1
:100AA0007440013A35F8144092B284EA1323EFE718
:100AB0004FEA121E4FEA0E1707F1140C4C4D0E1D93
:100AC0008C441036664578D056F8144C56F8109C75
:100AD00063409BB2C4F3074A240E4FEA13280AF579
:100AE000807ADBB235F8144035F81AA003F540736C
:100AF00089EA040435F8133008F5007884EA0A041A
:100B000035F818805C40A3B288EA0304230A03F591
:100B10000073C9F3074B4FEA19690BF5807BE4B208
:100B200035F813A056F80C8C35F8193035F81B90B1
:100B300004F5407488EA030335F8144083EA090396
:100B400063409BB28AEA03031C0A04F50074C8F3ED
:100B5000074B4FEA18680BF5807BDBB235F814A021
:100B600056F8089C35F8184035F81B8003F540739B
:100B700089EA040435F8133084EA08045C40A4B21E
:100B800084EA0A04230A03F50073E4B235F81380FB
:100B9000C9F3074303F580734FEA196904F54074FC
:100BA00035F813A035F8193035F814408AEA0303F4
:100BB00063409BB283EA080383E7CEEB0E3E02EB71
:100BC0000E120B4D394492B24FF6FF77013A92B2B2
:100BD000BA4208D011F8014BDEB2744035F8144027
:100BE00084EA1323F2E7038058BA80B2BDE8F08F9D
:100BF000C09401004FF6FF730380FFF745BFFFF776
:100C000043BF70472DE9F04F0368594D834688076D
:100C10000DD0002A00F0A68011F8014BDEB274401E
:100C2000013A55F8244092B284EA1323EFE74FEAE1
:100C3000121E4FEA0E1707F1140C4D4C0E1D8C447A
:100C40001036664578D056F8145C56F8100C6B4098
:100C50004FEA1368C3F3074554F8288088EA00096F
:100C60005FFA83F808F54078C3F3072303F50073B0
:100C700005F5807554F8288054F8233054F8255031
:100C800056F80C0C89EA080888EA03035D40C5F3AE
:100C9000074303F5807354F823902B0E54F8233048
:100CA00083EA0008EBB203F54073C5F3072505F5A9
:100CB000007554F8233054F8255056F8080C88EA8B
:100CC00003036B4089EA0308C8F3074303F5807305
:100CD00054F823504FEA186354F8233083EA00098C
:100CE0005FFA88F303F54073C8F3072854F82330FC
:100CF00008F5007889EA030954F8283089EA0303E3
:100D00005D40C5F3074303F580734FEA156A54F855
:100D10002380EBB203F54073C5F3072505F5007595
:100D200054F8239054F82A3054F8255089EA0303E4
:100D30006B4083EA080383E7CEEB0E3E02EB0E1214
:100D40000B4D394492B24FF6FF77013A92B2BA4254
:100D500008D011F8014BDEB2744055F8244084EA03
:100D60001323F2E7CBF80030D843BDE8F08F00BF83
:100D7000C08401004FF0FF330360FFF743BF2DE94C
:100D8000F3414FF4FA7504460095884617461E460F
:100D9000C16D32230A22043010F006FE216E009548
:100DA00032230A2204F1140010F0FEFD616E00955A
:100DB00032230A2204F1240010F0F6FDA16E009502
:100DC00032230A2204F1340010F0EEFD00953223A4
:100DD0000A22E16E04F1440010F0E6FD089BA366D0
:100DE000099BC4F85C80204627666666E36602B00D
:100DF000BDE8F081F8B5071D0D4683650446ADB228
:100E0000C16D3846164610F0F3FD2946384604F108
:100E1000140710F0FAFD3246216E384610F0E8FD56
:100E20002946384604F1240710F0EFFD3246616E82
:100E3000384610F0DDFD2946384604F1340710F03D
:100E4000E4FD3246A16E384610F0D2FD2946384600
:100E500004F1440710F0D9FDE16E3846324610F037
:100E6000C7FD29463846BDE8F84010F0CEBD2DE953
:100E7000F047037880F854300446051D284604F1F5
:100E8000140910F0C5FD04F12408484610F0C0FD17
:100E900004F13407404610F0BBFD04F14406384627
:100EA00010F0B6FD304610F0B3FD284610F01CFEE1
:100EB000824618B1237843F0010306E0284610F07B
:100EC0000BFE18B123786AF300032370484610F034
:100ED0000BFE824618B1237843F0020306E0484631
:100EE00010F0FAFD18B123786AF3410323704046ED
:100EF00010F0FAFD824618B1237843F0040306E0AF
:100F0000404610F0E9FD18B123786AF3820323709C
:100F1000384610F0E9FD824618B1237843F0080303
:100F200006E0384610F0D8FD18B123786AF3C30301
:100F30002370304610F0D8FD824618B1237843F074
:100F4000100306E0304610F0C7FD18B123786AF3AD
:100F500004132370227894F8543002F0010203F055
:100F600001039A4204D0284610F0C6FD012501E095
:100F700000200546227894F85430C2F34002C3F3AF
:100F800040039A4204D0484645F0020510F0B4FDF3
:100F9000227894F85430C2F38002C3F380039A425B
:100FA00004D0404645F0040510F0A6FD227894F8E0
:100FB0005430C2F3C002C3F3C0039A4204D038468F
:100FC00045F0080510F098FD227894F85430C2F3EB
:100FD0000012C3F300139A4204D0304645F01005C6
:100FE00010F08AFDA36D33B12DB102462178284659
:100FF000BDE8F0471847BDE8F087FFFF024A1368D5
:1010000001331360704700BFDCA5FF1F10B5044615
:1010100012F094FD204610BD144B1A7870B51D4691
:1010200012B3134A134913680968134851F823602F
:1010300000781249012426B951F8306086F88040C2
:1010400003E051F8306086F80041013313600C4A28
:1010500012680132B3EBC20F06DB00232B7051F88C
:101060003030012283F8802070BD00BFC0A5FF1F73
:10107000F0A6FF1F64D5FF1FBCA6FF1F6CDF010099
:101080001094FF1F134B1E221A70134B55221A7017
:10109000124B7D221A70124BC8221A70114B162265
:1010A0001A70114B08221A60104B46F28A721A60AD
:1010B0000F4B00221A600F4B46F24A321A600E4B59
:1010C0000E4A1A600E4B06221A600E4B01221A605D
:1010D000704700BF0494FF1F1494FF1F1694FF1F56
:1010E0001594FF1F0594FF1FFC93FF1F0094FF1F23
:1010F000D8A5FF1F1094FF1F2094FF1F48E17A3FDF
:101100001C94FF1FA8A6FF1F70B5044608460D4695
:1011100015F0EBFA23680246294620465B68BDE8D5
:101120007040184708B5FFF7EFFF08BD00230A22FB
:1011300012F094BD38B5D2B20023054612F08EFDF0
:101140000446284612F064FD204438BD002A10B43D
:101150000BDB074B541E9C4207D830235A43013AFD
:10116000232A02D910BC12F0A1BC002010BC704789
:1011700057555505212810B537D81C4A02EBC00336
:1011800001295B68144601D004290FD154F830209E
:10119000012082F880024FF4A0721A601A680429B4
:1011A0000CBF42F0200222F020021DE052F8302055
:1011B000002082F8800211B18A1E012A12D84FF451
:1011C000807202291A6003D11A6842F003020BE010
:1011D00003290AD11A6842F002021A601A6822F042
:1011E000010201E040F203121A6010BD6CDF010041
:1011F00000487047FCA6FF1F014B1868704700BFEE
:10120000FCA4FF1F014B1870704700BF0C94FF1F18
:10121000014B1860704700BF1894FF1F08B5044BBE
:10122000187810F059FEB0FA80F0400908BD00BFF0
:1012300004A5FF1F014B1868704700BFDCA5FF1F06
:10124000014B1878704700BFA4A6FF1F014B187010
:10125000704700BFA4A6FF1F2DE9F0479B4C9C4997
:101260009C48A0B0FFF75EFF21789A48FFF75EFF29
:1012700099499848FFF756FF61789648FFF756FF5F
:1012800096499448FFF74EFFA1789248FFF74EFF2A
:1012900093499048FFF746FFE1788E48FFF746FFF5
:1012A00090498C48FFF73EFF237E617EE07E43EA53
:1012B0000121A37E41EA03411022002341EA00619B
:1012C000844812F0CBFC88498248FFF72BFF617DF0
:1012D000237D804843EA0123A17D43EA0143E17D68
:1012E000102243EA0161FFF725FF80497948FFF7A3
:1012F00019FF7F497748FFF715FF7E497548FFF7CB
:1013000011FF00254FF4077808FB05F84FEA45293F
:10131000002679496F48FFF705FF102209EB060107
:1013200018A812F00CFE1A9B022B16D873496846B7
:1013300012F0D2FD1A9B0022C3F10303694604A8F0
:1013400012F0D4FF04A908A812F063FE18A908A897
:1013500012F0ECFE0127014601E0002718A91CA8A5
:1013600012F057FE1CA95B4812F032FC1CA812F0C8
:1013700073FD47B108A812F06FFD04A812F06CFDD0
:10138000684612F069FD5E495248FFF7CBFE002720
:1013900008EB060A07EB0A0323440137187FA0F184
:1013A00020035E2B88BF2E2012F036F8402FF1D19B
:1013B00054494848FFF7B6FE403618A812F04CFDD5
:1013C000B6F5007FA5D10135022D9BD14E4941488C
:1013D000FFF7A8FE00264FF4077808FB06F84FEA4F
:1013E0004629002744493B48FFF79CFE102209EBA1
:1013F00007010CA812F0A3FD0E9B022B16D83F4943
:1014000010A812F069FD0E9B0022C3F1030310A97E
:1014100014A812F06BFF14A918A812F0FAFD0CA979
:1014200018A812F083FE0125014601E000250CA951
:101430001CA812F0EEFD1CA9264812F0C9FB1CA83E
:1014400012F00AFD45B118A812F006FD14A812F01A
:1014500003FD10A812F000FD29491E4807F11B05E5
:10146000FFF760FE454425444FF0000A15F8013FA0
:101470000F2B03D825491748FFF754FE00231022ED
:101480002978144812F0EAFB0AF1010A20491148B0
:10149000FFF748FEBAF1200FE8D11E490D48FFF7CB
:1014A00041FE20370CA812F0D7FCB7F5007F99D188
:1014B0000136022E8FD118490648FFF733FE17492F
:1014C0000448FFF72FFE20B0BDE8F087FCA6FF1F01
:1014D000C09C01004497FF1FCE9C0100D79C0100D7
:1014E000E19C0100EF9C0100FB9C0100099D0100B3
:1014F000579D0100A59D0100F39D0100F89D01008D
:10150000C4C60100A09D0100009E010068CC01003E
:1015100025A60100A19D01006D9E0100F6C90100F4
:101520000048704734D6FF1F024B034A1B68D05C4B
:10153000704700BF0894FF1F0CA5FF1F064B1A78C9
:10154000064B53F83230012283F800214FF44863F0
:10155000013BFDD1704700BFA0A6FF1F6CDF01005B
:10156000054B1A78054B53F83230012283F880205E
:10157000A023013BFDD17047A0A6FF1F6CDF010037
:10158000084B00221A70084B1A78084B53F8323077
:10159000012283F880204FF4C863013BFDD1FFF79F
:1015A000DFBF00BF34DAFF1F08A5FF1F6CDF01009B
:1015B000044B1A6801321A601B68052B01DDFFF726
:1015C000DFBF7047DCA6FF1F08B501210D2010F01A
:1015D00063FC044B1B781BB1BDE80840FFF7D0BF8C
:1015E00008BD00BF34DAFF1F030143EA1010C0B288
:1015F000831003F03302830003F0CC03134358102D
:101600005B0003F0AA0300F0550018437047FFFF8A
:101610000E4B1A680E4B1A60052243F8242C0D4A13
:1016200000234FF6FF711360536091600A4A1268FD
:1016300048211160094A1370094B4FF080421A602B
:10164000084B1B6840F203421A607047D8A5FF1F81
:10165000788003400080034098A6FF1F3EE400E02E
:1016600004E100E0D4A5FF1F3F4B40491B681B6805
:10167000F0B50B603E4B00221A603E4B1A681368AF
:1016800023F0800313603C4A1368013313603B4A24
:101690000B6812789A4266DB394A0B6812789A42D4
:1016A00061DC384A384C136824789B0043F002030D
:1016B0001360364B18780230C0B218700868844244
:1016C00006DA10684000106018780130C0B2187057
:1016D0002F4C08682478844206DA106840001060B5
:1016E00018780130C0B218701878284D072829489A
:1016F00012D90768DFF8C0E016682C78DEF800E041
:10170000083C26FA04F40EF807402C78083CE4B2B2
:101710002C7004680134046014681F4A944211D18B
:101720001E4C1F4D22782D7895420BD926780268E1
:101730001C4D073A45F8362022780132D2B2227089
:1017400004221A700968184A52F82130013342F80D
:101750002130164B02681B689A4204DD144A0023AC
:101760001370144A1360F0BDB0A6FF1FE0A4FF1F62
:101770000480034098A6FF1FDCA5FF1F1594FF1FE0
:101780000494FF1FF8A4FF1F1494FF1FF4A6FF1F6B
:101790001694FF1FECA6FF1F489448A4A4A6FF1FA1
:1017A0000594FF1F68D5FF1F34D6FF1F0094FF1F4D
:1017B000E0A6FF1F00800340FCA4FF1F0E4B0F4953
:1017C0000F4810B500241C700E4B1C600E4B1C60A3
:1017D0000E4B1C700E4B1C6012F02EFC0D480E4977
:1017E000224603689C4203DA0B681A550134F8E775
:1017F000BDE81040FFF70CBFF4A6FF1FDA9E010002
:10180000CCA6FF1FECA6FF1FDCA5FF1FA4A6FF1F91
:10181000B4A6FF1F0094FF1FFCA4FF1F054B01226D
:101820001A70054B00221A60044B1A68044B1A60A8
:10183000704700BFE0A6FF1F04800340FC93FF1F1A
:1018400000800340024A00231370024A136070476D
:10185000E0A6FF1F00800340094B00221A60094BDD
:10186000094A98701278094B53F83230012210B9A6
:1018700083F8802001E083F80021142010F0DABB07
:10188000DCA6FF1FB8A6FF1FDCA4FF1F6CDF010052
:10189000094B5870094B00221A60094A094B12780B
:1018A00053F83230012210B983F8802001E083F828
:1018B0000021022010F0BEBBB8A6FF1FDCA6FF1F50
:1018C000C0A6FF1F6CDF010008B50F4B00221A6095
:1018D0000E4B0F4A197852F83100012380F800317D
:1018E00040200138FDD152F83120032082F88030A9
:1018F00010F0A0FB074A9178137809B9013B00E08A
:101900000133137008BD00BFDCA6FF1FE4A4FF1F56
:101910006CDF0100B8A6FF1F10B50A4CFFF70EFEE2
:10192000322010F087FB207810F0D6FA012807D07B
:101930000020FFF791FFFFF7C7FF207810F0CCFAE7
:1019400010BD00BF30D6FF1FF0B500220B4F6FF067
:101950001D0164251346441857F82460AE4202DB8B
:1019600004D1224602E023463546224601311E2993
:10197000F1D11344022093FBF0F0F0BD34D6FF1FE9
:1019800010B5054C2078FFF7DFFF2070034C20785E
:10199000FFF7DAFF207010BD1494FF1F1694FF1F8D
:1019A000F7B5374D002455F8043F002B32DD2046B3
:1019B00013F0B4FD334913F005FE4FF07A5113F0E4
:1019C000F9FC13F0A5F90223024600932E480B46BA
:1019D00012F08AF92D492C48FFF7A4FB21462A482A
:1019E00012F077F92A492848FFF79CFB2968264816
:1019F00012F06FF9002680272B6893FBF7F39E42C5
:101A000005DA24492048FFF78DFB0136F4E71E482C
:101A100012F0FEF80134B4F5807FC4D11E4C1F498A
:101A20001948FFF77FFB2078FFF78EFF0146164825
:101A300012F04FF91A491448FFF774FB2178124845
:101A4000184CFFF773FB18490F48FFF76BFB17495A
:101A50000D48FFF767FB2078FFF776FF01460A483D
:101A600012F037F912490848FFF75CFB2178064865
:101A7000FFF75CFB0C490448FFF754FB03B0F0BDD3
:101A800030D6FF1FACAA2A3D4497FF1F129F0100CA
:101A90005CB20100FE9E01001494FF1F009F010034
:101AA0000C9F01001694FF1FF6C90100149F01004E
:101AB000209F010070B50B4E002456F82450E8B268
:101AC00011F0AAFCC5F3072011F0A6FCC5F30740EE
:101AD00011F0A2FC0134280E11F09EFCB4F5807FB9
:101AE000EBD170BD34D6FF1F2DE9F041214BDFF85B
:101AF000A0C01F78204B1978204B1E78204B93F8FC
:101B000000E000231D461C469F425CF8232005DCB4
:101B1000994205DB04EB4204154407E0994205DADB
:101B20009E4205DB02EB4208444405E09E4204DA93
:101B30009E4502DB04EB820415440133B3F5807F3C
:101B4000E2D1A0B90F491048FFF7ECFA29460E4838
:101B500012F0BFF80D490C48FFF7E4FA21460A4895
:101B600012F0B7F80848BDE8F04112F051B8BDE8EE
:101B7000F08100BF0494FF1F1494FF1F1694FF1FF1
:101B80001594FF1F289F01004497FF1F369F0100F7
:101B900034D6FF1F042330B592FBF3F20E4B014401
:101BA0001868002301441846934201F1040110DA39
:101BB00011F8045C11F8034C04EB052411F8025CE5
:101BC00005EB042511F8014C04EB052460400133BA
:101BD000EAE700F0553030BDFCA4FF1F834B2DE930
:101BE000F74F1E6800F1080706EB070E4AF6AA2514
:101BF0009EF803309EF802209EF8014003EB02227B
:101C000052009EF8073015409EF8062003EB022292
:101C100045F2555313401D439EF805209EF80430AD
:101C200002EB032245F255531340F25D04EB02240C
:101C300064004AF6AA2222401A4345EA02436C4A4B
:101C400002EBC1016B4A1278C3F3072494420C7172
:101C500016DC694A4FF4077C0CFB04FC02EB0C0514
:101C6000190E02F80C1030441A0C00266A70AC7081
:101C7000EB702946AE4602464FF00509B04606E035
:101C80005E4A5F49136843F000431360A5E092F891
:101C9000313092F830B003EB0B2B4FEA4B0B4AF686
:101CA000AA2A92F835300BEA0A0A92F834B003EB0C
:101CB0000B2B45F255530BEA03034AEA0303019346
:101CC00092F832A092F8333092F836B003EB0A2340
:101CD0005B004AF6AA2A03EA0A0A92F8373003EBB5
:101CE0000B2B45F255530BEA03034AEA030A019B07
:101CF0004AEA03434FEA136AB9F1050F8EF814A0BC
:101D000009F101094FEA134A8EF815A018BF1E46C3
:101D10004FEA132A08BF9846B9F1070F8EF816A0AC
:101D20008EF8173002F108020EF1040EAFD1814691
:101D30004FF0000E99F8413099F8402003EB022251
:101D400045F25553134005EB0E020EF1020E4FEA19
:101D5000D31ABEF5007F4FEA430382F81CA05377E5
:101D600009F10209E6D1274B9C4490F8413290F8E2
:101D7000402203EB022245F2555313400A7F42EA08
:101D800013220A774A7F13434B7702318C4500F1C7
:101D90000200EAD1282200213846FFF7FBFE8045E9
:101DA0000AD016491848012303FA04F20B681343BA
:101DB0000B60164912F040F94FF480623821384622
:101DC000FFF7E8FE86420ED00C4A1049012320346A
:101DD00003FA04F41368234313600B4803B0BDE80F
:101DE000F04F12F029B903B0BDE8F08FFCA4FF1F3B
:101DF00068D5FF1F0594FF1FFCA6FF1FB4A6FF1F99
:101E0000439F0100FCA8FF1FCCA6FF1F599F0100A4
:101E10002DE9F843054618B916491748FFF782F926
:101E2000164F174E0024B9463B789C421ADA4FEA07
:101E3000C40835B92B460A2256F834100E4811F062
:101E40000DFF99F80030013B9C4204D01DB90D49AB
:101E50000948FFF767F9214656F80800FFF7BEFE6C
:101E60000134E1E725B90448BDE8F84311F0D0BEDC
:101E7000BDE8F883739F01004497FF1FA4A6FF1FCE
:101E800068D5FF1F869F010070B500230A4D0B48DF
:101E90001A464FF407742E78B34203F1010306DAB1
:101EA00004FB03F1A1F21B21415C0A44F3E7044B5C
:101EB000187892FBF0F070BDA4A6FF1FFCA6FF1FD0
:101EC0000594FF1FF8B54FF407754543314E32496D
:101ED00032487419FFF726F9715D3048FFF726F98B
:101EE0002F492E48FFF71EF961782C48FFF71EF99D
:101EF0002C492A48FFF716F9A1782848FFF716F968
:101F000029492648FFF70EF9E1782448FFF70EF932
:101F100026492248FFF706F900231022A1691F482D
:101F200011F09CFE22491D48FFF7FCF81022616960
:101F30001A48FFF7FFF804F5007704F11B060025A7
:101F400016F8013F0F2B03D81A491448FFF7EAF897
:101F5000002310223178114811F080FE0135164916
:101F60000E48FFF7DFF8202DEAD10025631901356F
:101F7000187FA0F120035E2B88BF2E2011F04CFAB1
:101F8000202DF3D10548203411F042FEA742D4D1D0
:101F9000F8BD00BFFCA6FF1FC09C01004497FF1FB7
:101FA000CE9C0100D79C0100E19C0100EF9C010048
:101FB000FB9C010068CC010025A6010038B5054D49
:101FC00000242B789C4204DA2046FFF77BFF013483
:101FD000F7E738BDA4A6FF1F400800F055304308BE
:101FE00083F0AA32430083F0AA33134018437047AA
:101FF00000F05530430883F0AA32430083F0AA333F
:10200000134018437047421002F055035A1010B5A0
:1020100082F0AA045A0082F0AA0222401A4300F079
:1020200055035810CC0780F0AA044FEA430080F013
:10203000AA0000EA040040EA030048BF02F07F0261
:10204000CB0548BF00F07F0042EA002010BD030E20
:102050000B70030C4B70030A8B70C8707047FFFF46
:102060002DE9F8431C464FF0AA08174644221A717E
:1020700083F8008083F8018083F8028083F803806E
:1020800089236371E371324BA2711D786D1A45EAA1
:10209000012545F07F4545EA004528460E46FFF7F5
:1020A0009BFF04F10801FFF7D2FF2846FFF7A0FFCE
:1020B00004F10C01FFF7CBFFE17B04F1100304F105
:1020C00030052A22C9074CBF1A7083F8008013F824
:1020D000011BAB42F6D1013F04F13F0804F23F2956
:1020E00017F8010FFFF78FFF08F8010F030AC1452A
:1020F000014688F80032F3D1164F2822082157F8FC
:102100003600FFF747FD8046FFF766FF2946FFF7D9
:102110009EFF4046FFF76CFF04F13401FFF797FF85
:102120004FF48062402157F83600FFF733FD054633
:10213000FFF752FF04F13801FFF789FF2846FFF748
:1021400057FF04F13C01BDE8F843FFF780BF00BF33
:102150000594FF1F68D5FF1F10B50346AA221C1A5D
:10216000A14202DD03F8012BF9E710BD2DE9F0478C
:102170000C46804640F2CA5110461746FFF7ECFF66
:10218000DFF834A0DFF834901C3440F2CA56002542
:102190009AF800309D420DDA49F83560BB192246A5
:1021A00029464046FFF75CFF013506F5886604F5D1
:1021B0000774EDE7BDE8F0870594FF1F68D5FF1FA2
:1021C000194B0E221A60194B0F221A60184B10225D
:1021D0001A60184B11221A60174B12221A60174B03
:1021E00013221A60164B09221A60164B08221A6035
:1021F000154B07221A60154B06221A60144B052254
:102200001A60144B04221A60134B03221A60134BFA
:10221000134A1A60134B043A1A6002F59F32124BAC
:1022200002F5EC721A607047E4A6FF1FBCA5FF1F01
:10223000A0A6FF1F08A5FF1FDCA4FF1FE4A4FF1F2B
:10224000BCA6FF1FACA6FF1FE8A6FF1F04A5FF1F2B
:1022500000A5FF1FC0A6FF1F30D6FF1FB0A6FF1F9F
:102260004880034098A6FF1FD4A5FF1F73B55D4C9F
:102270005D4D5E4E0120FFF7A3FF207801210FF096
:1022800039FE237855F83330012483F88040584BC9
:10229000022118780FF02EFE214630780FF02AFE2A
:1022A0003378544E55F83330307883F880402146E7
:1022B0000FF020FE3378504E55F83330307883F8E5
:1022C000804021460FF016FE33784C4E55F83330DF
:1022D000307883F8804021460FF00CFE3378484E6A
:1022E00055F83330307883F880402146FEF742FFBE
:1022F0003378444E55F83330307883F880402146A7
:102300000FF0F8FD3378404E55F8333083F88040B5
:102310003E4B022118780FF0EDFD3D4B022118785D
:102320000FF0E8FD214630780FF0E4FD337855F8E2
:10233000333083F88040374C022120780FF0DAFDEB
:102340000222354920780FF007FE344B1968FF222E
:102350001A7121B1324B0B441B1132495A54324A83
:1023600032492E48FEF7F2FEC821314811F087FDB0
:102370001F21304811F083FD14212F4811F07FFDFB
:1023800014212E4811F07BFD012013F023FF044699
:10239000C4F1005413F026FF204613F01BFF044441
:1023A000054646F29470019413F014FF244B254A1D
:1023B000186000F188735B01136038B92249234823
:1023C000FEF7A2FE214811F023FCFEE7284613F099
:1023D00009FFFFF7F3F91E4B00229A705A701A702A
:1023E00002B070BDE4A6FF1F6CDF010008A5FF1F4F
:1023F000BCA5FF1FA0A6FF1FDCA4FF1FE4A4FF1FB6
:10240000BCA6FF1FACA6FF1FC0A6FF1FE8A6FF1FAC
:1024100004A5FF1F30D6FF1FC9150000B4A5FF1F7C
:10242000008FFCBF44E400E040420F00B115000003
:10243000E8A4FF1FCCA6FF1FC4A5FF1F88A6FF1F8F
:10244000FCA4FF1F64D5FF1F9D9F01004497FF1F41
:10245000B8A6FF1F012801D1FEF714BE124B1E22A1
:102460001A70124B63221A70114B9B221A70114B77
:10247000FF221A70104B0B221A70104B09221A609F
:102480000F4B43F6CA021A600E4A002313600E4A2D
:1024900043F28A4111600D4A0D4911600D4A06212F
:1024A00011600D4A136070470494FF1F1494FF1FBE
:1024B0001694FF1F1594FF1F0594FF1FFC93FF1F29
:1024C0000094FF1FD8A5FF1F1094FF1F2094FF1F2B
:1024D00048E1FA3F1C94FF1FA8A6FF1F08B500F0B3
:1024E00043F8074B1A684EF660239A4203D9BDE8B9
:1024F0000840FEF7C7BD0020BDE80840FFF7AABFAF
:10250000DCA5FF1F08B5FFF7E9FF00210D20BDE89E
:1025100008400FF0C1BCFFFF08B50E4B0E4900226A
:102520001A600B78ABB9FFF709F80C4B1A780C4B13
:1025300053F83220012382F800314FF416700B70EB
:102540000FF078FD074B1B781BB1BDE80840FFF783
:10255000D9BF08BDDCA6FF1F34DAFF1F08A5FF1F87
:102560006CDF01000C94FF1F70B5194C194DFFF77B
:10257000D3FF0222184920780FF0EEFC2878154E80
:102580000FF0AAFC0128F9D030780FF0A5FC002844
:10259000FAD00FF031FD114B0546002205201A60DC
:1025A0000FF048FD30780FF097FC0128FAD0307812
:1025B0000FF092FC0028FAD020780FF037FC0FF0D3
:1025C0001BFD4FF47A73401B90FBF3F070BD00BF0E
:1025D00000A5FF1FBCA5FF1FFD0F0000DCA5FF1F0E
:1025E00038B5FFF799FF064D2878054C0FF074FCBD
:1025F0000128F9D020780FF06FFC0028FAD038BD00
:10260000BCA5FF1FF8B5FFF787FF404811F096FA09
:102610003F4B18780FF060FC18B100213D4E3E4D45
:102620000BE03E4A3E493948FEF790FD3D493E48A1
:1026300011F002FD4FF0FF30F8BD3368994206DA21
:102640002C68605CFEF7D0FF60540131F5E7374B32
:10265000374F00221A60374B1A602F4B1B681978CE
:10266000354B197001233B70344B19681A7121B135
:10267000334B0B441B1133495A544FF44863013B0D
:10268000FDD1FFF7ADFF304B1C680021204613F051
:1026900041F9A8B92D49204613F050F980B92C49C9
:1026A000204612F08FFF4FF07C5112F081FE13F0A4
:1026B0008BF92328024603D92649204811F0F6F960
:1026C000254A264B117853F83110012081F800017A
:1026D0001D4616463B7803F0FF04002BFAD117483D
:1026E00011F02CFA4023013BFDD1337855F83330FB
:1026F000012283F8802005200FF09CFC074A08493E
:102700000248FEF723FD2046F8BD00BFB4A5FF1F19
:1027100004A5FF1F1094FF1FFCA4FF1F40420F00E1
:10272000B1150000AB9F0100CCA6FF1FF0A6FF1F54
:10273000C0A5FF1FF8A6FF1F9CA6FF1FC4A6FF1F72
:10274000008FFCBF44E400E02094FF1FABAAAA4C1A
:102750000000404219100000ACA6FF1F6CDF010012
:1027600038B5FFF7D9FE0020FFF776F80E4D562456
:1027700028780FF0B1FB01280AD1FFF7A5F8013C3A
:10278000F6D10A490A4811F057FC4FF0FF3038BD26
:10279000084B0949064800241C60084B1C7011F0C6
:1027A0004BFC204638BD00BFE8A6FF1FC49F0100B8
:1027B000CCA6FF1F1894FF1FDA9E0100B8A6FF1FCA
:1027C00070B50546FFF7A8FE002D04D1164B4FF05B
:1027D000FF321A6000E024DB134B1A6801321C46FA
:1027E00004D02368104E9D4207D104E0FFF7B8FFE4
:1027F0000130F6D115E0002070BD05DA0020FFF7AA
:102800002BF83468641B04E00120FFF725F83468D6
:102810002C1B35600025AC42EDDDFFF755F8013586
:10282000F9E74FF0FF3070BD1894FF1F0C4B10B547
:10283000044618600B4820400028BEBF00F1FF305E
:1028400060F001000130FFF723F8022094FBF0F064
:10285000FFF7B6FF1220BDE810400FF0EBBB00BF42
:102860000894FF1F01000080694B2DE9F7430646DD
:102870001868684FFFF7EEFD0024674D2B689C42F7
:1028800065DA0023654A194642F823100133B3F58F
:10289000807FF9D1FFF740FEFEF790FFFEF7BEFF05
:1028A0005F4B1A680092DDF8008099463B78C3B10F
:1028B000D9F800300193019BC8EB0303B3F5967F71
:1028C000F4D91EB957495848FEF72CFCFEF7BAFF59
:1028D000564B574957484FF0FF321A6011F0ACFB86
:1028E000E4E70FF089FB80463046FFF791FA0FF0DE
:1028F00083FB814666B950494B48FEF713FCC8EB91
:102900000901494811F0E5F94C494748FEF70AFC2E
:10291000DFF83C81DFF81491FFF7B6FAD8F8003001
:10292000984207D04FF0FF3345494248C9F800307C
:1029300011F082FBD9F8003003BB424B424A1B78AE
:1029400012789A421AD141493A4811F075FB404B2E
:102950001D68404B5C55FFF797FA3F4B3A4A585574
:10296000384B12781B78314C9A424DD04FF0FF33E0
:102970003A493048236011F05FFB45E0FEB9384921
:102980002948FEF7CFFB29682748091B11F0A1F958
:1029900034492548FEF7C6FBD8F80010224811F04C
:1029A00098F931492048FEF7BDFB33460222D9F899
:1029B00000101D4811F052F91B4811F029F9FEF7DB
:1029C000DFFF0A2CD8F800500ED008DC052C19D1F6
:1029D000A81EFFF72BFF2846FFF728FF12E00F2C59
:1029E00006D0142C04D00DE0A81CFFF71FFF03E055
:1029F0001E4B4FF0FF321A602846FFF717FF642086
:102A00000FF018FB013438E7206803B0BDE8F0830D
:102A1000A8A6FF1FE0A6FF1F1C94FF1F34D6FF1FB0
:102A2000C0DAFF1FD89F01004497FF1FB4A6FF1F05
:102A3000EA9F0100CCA6FF1F06A00100F6C9010015
:102A400013A00100A4A6FF1F0594FF1FE8BE01000C
:102A50000894FF1F0CA5FF1FE0A5FF1F53A0010056
:102A600020A001003BA001004BA001001894FF1F13
:102A7000F0B585B000210546684611F02DFA5020CA
:102A8000FFF7D4FE0120FFF7EFFE3449684611F04E
:102A9000D3FA334A92F8CC611E2E04DD2F49284622
:102AA00011F01AFA54E00420002314180130247F96
:102AB0002B490C282344F8D191F82C00034491F8B9
:102AC0002D00034491F82E0091F82F1003440B447D
:102AD00040F2CF1150180131007FB1F5EC7F034473
:102AE000F8D14FF4F87150180131007F1C4CB1F54A
:102AF000FC7F0344F7D1002BD0D1227F637F1344A6
:102B0000A27F1344E27F1344022BC7D194F8192209
:102B100094F81832134494F81A22134494F81B22A0
:102B20001344012BBAD10F49684611F085FA06F516
:102B3000E67604F5E6773444A74205D017F8011F7E
:102B4000684611F0D3FAF7E76946284611F044FACF
:102B5000684611F081F9284605B0F0BD7AA0010061
:102B6000FCA6FF1FAFB80100F8B51E4C1E4E1F4853
:102B700000258027224631460560077111F05FFF6E
:102B80001B4807711B4F05602246314611F057FF65
:102B9000194E1A49384611F09FF93846184F224607
:102BA000314611F04CFF2946384611F095F9384668
:102BB000144F2246314611F042FF2946384611F0A3
:102BC0008BF93846104F2246314611F038FF29461E
:102BD000384611F081F9224631463846BDE8F840C2
:102BE00011F02DBFF893FF1F0D100000B4A5FF1FBB
:102BF000C4A6FF1FE8A4FF1F593E0100AFB80100A3
:102C0000CCA6FF1FC4A5FF1F88A6FF1F002070478A
:102C10007047FFFF30B50C4C0C4985B00546204687
:102C2000FEF780FA2946684611F0F3F96946204616
:102C300010F0CEFF06492046FEF774FA684611F000
:102C40000BF905B030BD00BF4497FF1F7FA0010006
:102C500020A9010038B50123044600F8083B0D46C1
:102C600007F084F804F1180000F026FF04F1C80012
:102C700004F0FEFA04F24C5003F0C6FD4FF0FF33AF
:102C8000C4F81C3A6560204638BD90F8FF090FF083
:102C900003B9FFFFF0B500F6E81587B002AC0646B1
:102CA0001E2300222846154906F042FE002714493B
:102CB000204611F011F94FF4FC63552232212846C9
:102CC0008DE8900006F059FC204611F0C5F80D493A
:102CD000204611F001F94FF6FF735F22322128469A
:102CE0008DE8900006F049FC204611F0B5F801216E
:102CF00006F1180000F088FF07B0F0BD95A00100B4
:102D00005FC00100A2A001002DE9F04F874DDFF860
:102D10006CE2D5F800C0DFF86892DFF868A291B0E5
:102D200004461C9FF04640F2EE2B9EF8000048B18E
:102D300099F80000C00705D52868DAF80060801B04
:102D40000E280AD82E6898F80000CCEB060600285A
:102D500000F00384B6F5FA6FE7D984F8FC391A9BC2
:102D600084F8FF39C8B29DF86C3084F8003A84F8D2
:102D7000FE2984F8FD09022184F8017A0FF0BAF8DF
:102D8000022194F8FE090FF0B5F8022194F8FC092D
:102D90000FF0B0F8012194F8FF090FF0ABF8012112
:102DA00094F8000A0FF0A6F8012194F8010A0FF038
:102DB000A1F85F495F48FEF7B5F95F495D48FEF746
:102DC000B1F95E495B48FEF7ADF95D495948FEF738
:102DD000A9F95C495748FEF7A5F95B495548FEF744
:102DE000A1F95A495348FEF79DF91C2011F081FBC7
:102DF0001C22054600210EF057FF002105F10C00B2
:102E000011F06AF82846C4F8F45994F8FD1900F056
:102E1000E2FB94F8FE090CF005FA08B94C4900E011
:102E20004C494448FEF77EF9382011F062FB00213E
:102E3000054602F007FBC4F8F059284602F0AEFA46
:102E400008B1454900E045493A48FEF76BF9D4F826
:102E5000F03904F1180A5969504600F083FE4049E0
:102E60003448FEF75FF908F021F83E493148FEF793
:102E700059F9002160680AF035FB0321606809F008
:102E8000D1FD04F6E818022160680AF09AF9616839
:102E9000404606F070FB34492648FEF743F90CAD76
:102EA0002046FFF7F7FE01263049284611F014F8B6
:102EB0004FF6FF737322002140468DE8600006F054
:102EC0005CFB284610F0C8FF382011F012FB3B468F
:102ED00081461B9A4FF4E13106F002FB4846C4F8E4
:102EE000F89906F015F9D4F8F809002106F070FAFF
:102EF000D4F8F80906F042FA002845D01C49D4F865
:102F0000F80906F0EBFA1B49284610F0E5FF00210E
:102F10004FF6FF73732240468DE8600006F02DFBEC
:102F2000284610F099FF14492FE000BFC0DAFF1FB8
:102F3000ADA001004497FF1FC0A001000DA101003A
:102F4000A2A0010021A1010051A10100A2A1010044
:102F5000AAA10100DBA1010002A201001CA2010044
:102F60003EA201005CA2010071A201008DA201003D
:102F7000152C0000A6A20100C0A201003FDCFF1F2B
:102F800050DCFF1FC8DCFF1FE649E748FEF7CAF820
:102F90003146E54810F09DFEE449E348FEF7C2F8EB
:102FA0004FF4E131E04810F094FEE149DE48FEF7CD
:102FB000B9F8E049284610F08FFF2C2011F099FA5B
:102FC000D4F8F039D4F8F42900930646D4F8F83947
:102FD000294600F054FE6661284610F03DFF94F843
:102FE000FC39029394F8FE39019304F1C80994F86E
:102FF000FD39009304F108065246D4F8F8394146E9
:10300000484604F047F94146304606F0B0FECA494A
:10301000284610F061FF00231A462946304606F084
:10302000E9FE0746284610F017FFC449284610F06D
:1030300053FF3B4605222946304606F002FF28464C
:1030400010F00AFFBE49284610F046FF3B46032217
:103050002946304606F0F5FE284610F0FDFEB94937
:10306000284610F039FF3B4600222946304606F03C
:10307000E8FE284610F0F0FEB349284610F02CFF79
:103080003B460D222946304606F0DBFE284610F06E
:10309000E3FEAE49284610F01FFF3B4612222946A8
:1030A000304606F0CEFE284610F0D6FEA849284647
:1030B00010F012FF3B4613222946304606F0C1FEAF
:1030C000284610F0C9FEA349284610F005FF00234A
:1030D0001A462946304606F08DFE0746284610F06F
:1030E000BBFE9D49284610F0F7FE3B4604222946C8
:1030F000304606F0A6FE284610F0AEFE9749284658
:1031000010F0EAFE3B4619222946304606F099FEA9
:10311000284610F0A1FE9249284610F0DDFE3B46FD
:1031200018222946304606F08CFE284610F094FE00
:103130008C49284610F0D0FE3B46002229463046F6
:1031400006F07FFE284610F087FE8749284610F0DB
:10315000C3FE00231A462946304606F04BFE82463F
:10316000284610F079FE8149284610F0B5FE5346F6
:1031700000222946304606F064FE0746284610F035
:103180006BFE7B49284610F0A7FE3B461A222946D3
:10319000304606F056FE284610F05EFE7549284679
:1031A00010F09AFE3B461B222946304606F049FEA7
:1031B000284610F051FE7049284610F08DFE3B461F
:1031C0001E222946304606F03CFE284610F044FEFA
:1031D0006A49284610F080FE5346002229463046B0
:1031E00006F02FFE0746284610F036FE64492846B2
:1031F00010F072FE3B4617222946304606F021FEAB
:10320000284610F029FE5F49284610F065FE3B462F
:1032100008222946304606F014FE284610F01CFE0F
:103220005949284610F058FE3B46092229463046A7
:1032300006F007FE284610F00FFE5449284610F00D
:103240004BFE3B460C222946304606F0FAFD284646
:1032500010F002FE4E49284610F03EFE3B460A2280
:103260002946304606F0EDFD284610F0F5FD3549BB
:10327000284610F031FE00231A462946304606F053
:10328000B9FD284610F0E8FD2E49284610F024FE2E
:1032900000231A462946304606F0ACFD284610F0B9
:1032A000DBFD2849284610F017FE00231A46294660
:1032B000304606F09FFD284610F0CEFD21492846F5
:1032C00010F00AFE00231A462946304606F092FD09
:1032D000284610F0C1FD2F49284610F0FDFD0023BF
:1032E0001A462946304606F085FD0746284610F066
:1032F000B3FD2949284610F0EFFD06223B4629463A
:10330000304606F09EFD284610F0A6FD234908A889
:1033100010F0E2FDD4F8F03904A8597C10F0FCFD5F
:103320003EE000BFF8A201004497FF1FECA201009D
:10333000F0A20100A2A001002EA3010038A3010009
:103340004BA30100AFB801005DA3010070A3010011
:1033500084A3010097A301009DA30100A7A301007E
:103360007FBB0100B3A30100C7A3010001A40100BA
:10337000D1A30100E6A30100FBA301007EA301008D
:1033800005A401001AA4010029A401003EA4010023
:1033900057A401006FA4010078A4010081A40100DA
:1033A00004A908A810F0C2FE0146284610F031FE1C
:1033B0003B4610222946304606F043FDC4F8080A71
:1033C000284610F049FD04A810F046FD08A810F0AA
:1033D00043FD634908A810F07FFDD4F8F0391B7C49
:1033E0000BB1604900E0604904A810F075FD04A924
:1033F00008A810F09BFE0146284610F00AFE3B4646
:103400000F222946304606F01CFDC4F8040A28465F
:1034100010F022FD04A810F01FFD08A810F01CFDFC
:10342000524908A810F058FDD4F8F0390222596921
:1034300004A810F00AFE04A908A810F077FE0146BF
:10344000284610F0E6FD3B4611222946304606F09C
:10345000F8FCC4F80C0A284610F0FEFC04A810F092
:10346000FBFC08A810F0F8FC414908A810F034FD56
:10347000D4F8F01904A8183110F0CBFD04A908A85D
:1034800010F054FE0146284610F0C3FD3B461C22B6
:103490002946304606F0D5FCC4F8100A284610F03C
:1034A000DBFC04A810F0D8FC08A810F0D5FC3149CA
:1034B00008A810F011FDD4F8F01904A8283110F074
:1034C000A8FD04A908A810F031FE0146284610F016
:1034D000A0FD3B461D222946304606F0B2FCC4F84A
:1034E000140A284610F0B8FC04A810F0B5FC08A88F
:1034F00010F0B2FC2049284610F0EEFC3B460022BA
:103500002946304606F09DFC284610F0A5FC1B49D4
:10351000284610F0E1FC3B4629460722304606F0DB
:1035200090FC284610F098FC94F8FE2994F8FD3998
:10353000009241464A4604F24C5003F07FF910498C
:103540001048FDF7EFFD606901F00CF8E1683046C6
:1035500006F09CFC11B0BDE8F08F5E45FFF7FCBBA8
:1035600093A40100A0A40100A5A40100ABA4010044
:10357000B8A40100BFA40100AFB80100CAA40100B3
:10358000D6A401004497FF1F10B5044607F0B6F912
:10359000606900F0F1FFD4F8F809BDE8104005F0CB
:1035A00051BF0378033B172B14D8DFE803F010104A
:1035B00010131313131313131013131313101013E7
:1035C00013131310100C012380F8193A7047C830F8
:1035D00004F0ECBA7047017008F0B4B97FB5044646
:1035E00068460E460D4D10F077FC694604F10C005C
:1035F00010F01AFD684610F02FFC09492846FDF727
:1036000091FD0121304608F03BFD064960602846E7
:10361000FDF788FD606804B070BD00BF4497FF1FD0
:10362000FEA4010016A5010010B5012204460846BB
:10363000002108F07FF8A06010BD10B50446806836
:1036400008F0C6F86068BDE8104008F0B3BAFFFFA4
:103650007FB505460C4647484749FDF763FD474996
:103660004448FDF75FFD05F10C01684610F0D1FC00
:103670006946404810F0ACFA41493E48FDF752FD1A
:10368000684610F0E9FB3F493A48FDF74BFD2368D7
:10369000013B032B0DD8DFE803F0020406083A498A
:1036A00004E03A4902E03A4900E03A493148FDF77E
:1036B00039FD39492F48394E394DFDF733FD6169E0
:1036C0002C4810F006FB2E492A48FDF72BFD354902
:1036D0002848FDF727FDA169264810F0FAFA284985
:1036E0002448FDF71FFD30492248FDF71BFDE16925
:1036F000204810F0EEFA22491E48FDF713FD2B4931
:103700001C48FDF70FFDA1681A4810F0E2FA1C49A9
:103710001848FDF707FD26491648FDF703FD216A05
:103720001448002914BF31462946FDF7FBFC144913
:103730001048FDF7F7FC1F490E48FDF7F3FC6168E0
:103740000C48002914BF31462946FDF7EBFC0C4913
:103750000848FDF7E7FC18490648FDF7E3FCE16877
:10376000044810F0B6FA06490248FDF7DBFC04B045
:1037700070BD00BF4497FF1F39A5010040A501009F
:10378000F6C9010051A5010062A501007AA501005A
:1037900090A501009BA50100A6A501002EA5010092
:1037A00033A50100B7A50100C8A50100D9A50100F6
:1037B000EAA50100FBA501000CA60100F0B51D461D
:1037C000136885B014461A1D9DF828709DF82C606A
:1037D00047D0DA1E012A44D9022B04D122492348BA
:1037E00010F02FFA04E0A2692149204810F029FACC
:1037F000636B0393236B0293E36A0193A36A0093C1
:10380000226A636A1B49194810F01BFA27B1A268A3
:103810001949164810F015FA2B782BB12A4617498A
:10382000124810F00EFA03E01549104810F009FA9A
:10383000236862680D48022B0CBF1249124910F030
:1038400000FA3EB162692AB113781BB10F490748EB
:1038500010F0F7F90E49054805B0BDE8F04010F04A
:10386000F0B905B0F0BD00BF1DA601004497FF1FD1
:1038700027A601002DA601004BA6010052A60100BB
:1038800025A6010053A6010059A6010057A6010074
:10389000F6C901002DE9F3410C4607465E495F4831
:1038A000FDF740FC5E495D48FDF73CFC616A5B4802
:1038B000FDF738FC5B495948FDF734FC5A49574835
:1038C000FDF730FC237C594A5949544813F0010F45
:1038D000584B08BF1A4610F0B4F9237C9A0703D559
:1038E00055494E48FDF71EFC237C5B0703D5534921
:1038F0004A48FDF717FC4B494848FDF713FC50496F
:103900004648FDF70FFC216A444810F0E2F94549AA
:103910004248FDF707FC4B494048FDF703FCE169CD
:103920003E4810F0D6F93F493C48FDF7FBFB4649BD
:103930003A48FDF7F7FB6169384810F0CAF9394990
:103940003648FDF7EFFB41493448FDF7EBFB2046D5
:1039500007F0DCFA0146314810F0BBF93C492F482A
:10396000FDF7E0FBA36861682C48591A013110F09B
:10397000B0F92C492948FDF7D5FB36492748FDF712
:10398000D1FB204607F0C2FA11F0C8FD324911F010
:1039900019FEA36805466068181A013011F0BEFDD3
:1039A0000146284611F0C2FE01462B4811F000FDE9
:1039B00011F0AEF902230246009318480B4610F0AE
:1039C00093F926491548FDF7ADFB25491348FDF746
:1039D000A9FB24491148FDF7A5FB23490F48FDF732
:1039E000A1FBE16B204607F095FE4FF0010806466B
:1039F00005465DB1CDF80480CDF800802A681B4BE8
:103A000021463846FFF7DAFEAD68F2E7304602B0ED
:103A1000BDE8F04107F0F0BC64A601004497FF1F29
:103A20006EA60100F6C901007FA601005CA6010098
:103A300059A6010060A6010090A6010096A601000B
:103A4000A0A60100B1A60100C2A60100D3A60100F4
:103A500055A60100E4A601000000C842F5A6010039
:103A6000F9A6010006A701003EA70100AFB80100BA
:103A70000F4B03600023417202610372C360194659
:103A8000427A934204DA026942F823100133F7E7DD
:103A9000084A13680BB9106004E05A690AB113466A
:103AA000FBE75861002343618380C38083727047C2
:103AB000DCA7010054DCFF1F0022F8B511460446C4
:103AC0000025FFF7D5FF244B236004F1340720467F
:103AD000A561E5612562A584FCF784FF04F15C0221
:103AE00004213846FFF7C4FF1C4B636304F16C06E6
:103AF0004FF4803304F184020121E364236563659C
:103B0000A3653046FFF7B4FF154BE3663046FCF77C
:103B10006BFE04F18800C4F88840C4F88C7084F807
:103B2000905084F89150C4F8945084F898500FF055
:103B3000DAFD04F19C00C4F89C70C4F8A06084F81D
:103B4000A45084F8A550C4F8A85084F8AC500FF0E5
:103B5000CAFD2046F8BD00BFBC840100A48401005A
:103B6000B084010038B50C46054608210C480FF01A
:103B7000D5FC0C49204611F0E1FE30B90A49204637
:103B800011F0BEFE10B1084C00E0064C4FF08F4122
:103B9000204611F017FD11F0F1FEE86438BD00BFBA
:103BA0000084FF1F00FEFF4600FEFFC610B504465E
:103BB000FCF738FF94F83030002BFBD110BDFFFF2D
:103BC000032970B506460D46144617D80C49104611
:103BD00011F0B4FE30B90B49204611F091FE10B13E
:103BE000084C00E0064C4FF08F41204611F0EAFCF3
:103BF000063511F0C3FE06EB8505686370BD00BF96
:103C000000FEFF4600FEFFC60A460149FFF7CEBF91
:103C1000E0A701000A460149FFF7C8BFEAA7010073
:103C20000A460149FFF7C2BFF6A701000A4601494B
:103C3000FFF7BCBFFFA701000A460149FFF7B6BF67
:103C400009A801000A460149FFF7B0BF13A8010007
:103C500038B583681446426805461819904202D95F
:103C600093420AD2D41A2868224618440AF0B4FFB4
:103C7000AB682344AB60204638BD002038BD2DE939
:103C8000F0410446884604F1100500211E461746FF
:103C900010F022F90021284610F01EF9414628466E
:103CA00010F0B0F9069B27626662A3622046BDE869
:103CB000F081FFFFF0B50E46ADF5177D00220A2119
:103CC0000546304610F039FB00220D21304610F039
:103CD00034FB314602A810F09CF916AC8D4906A8B9
:103CE00010F0FAF88C49204610F0F6F821463046DC
:103CF00010F0CDFA0746204610F0AEF8002F29DD6F
:103D0000854912A810F0E8F812A9304610F0BFFA61
:103D10003146421C204610F009FB214606A810F04F
:103D200083F9204610F098F812A810F095F87A4917
:103D3000204610F0D1F82146304610F0A8FAB268BB
:103D4000014602A810F094FB204610F085F802A866
:103D500010F0A8FB714902A810F027FA20B97049A9
:103D600002A810F022FAE0B16E496F48FDF7DAF9C7
:103D700005F11001204610F04CF921466A480FF079
:103D800027FF6A496848FDF7CDF9204610F064F82E
:103D900006A810F061F802A810F05EF80DF5177D86
:103DA000F0BD634902A810F000FA88B9614902A881
:103DB00010F0FBF960B9604902A810F0F6F900288C
:103DC0006CD15E4902A810F0F0F9002866D16AE0D3
:103DD0005B495548FDF7A6F95A495348FDF7A2F942
:103DE00059495148FDF79EF958494F48FDF79AF94E
:103DF00057494D48FDF796F956494B48FDF792F95A
:103E000055494948FDF78EF954494748FDF78AF965
:103E100053494548FDF786F952494348FDF782F971
:103E200051494148FDF77EF950493F48FDF77AF97D
:103E30004F493D48FDF776F94E493B48FDF772F989
:103E40004D493948FDF76EF94C493748FDF76AF995
:103E50004B493548FDF766F94A493348FDF762F9A1
:103E600049493148FDF75EF93D492F48FDF75AF9B8
:103E700046492D48FDF756F945492B48FDF752F9BB
:103E800044492948FDF74EF943492748FDF74AF9C7
:103E900042492548FDF746F9414900E04149224899
:103EA000FDF740F974E7404902A810F07EF910B11F
:103EB0006D6A3E4906E03E4902A810F076F900B36B
:103EC0006D6A3C49204610F007F8FA23224629463D
:103ED000009312A8012305F04BF920460FF0BCFF18
:103EE00012A9204610F095F821460F480FF070FEF9
:103EF0000E490D48FDF716F920460FF0ADFF12A848
:103F000044E72D4902A810F050F9002858D06D6AF6
:103F10002A49D7E7AFB8010025A601001CA8010077
:103F200024A80100E0A901004497FF1FF6C9010081
:103F3000EAA9010028A80100EFA901002AA80100B0
:103F4000F5A9010047AA010099AA0100EBAA010006
:103F50003DAB01008FAB0100E1AB010033AC0100D0
:103F600085AC0100D7AC010029AD01007BAD01009B
:103F7000CDAD01001FAE010071AE0100C3AE010066
:103F800015AF010067AF0100B9AF01000BB0010030
:103F90005DB00100AFB0010001B1010053B10100FB
:103FA000A5B10100F7B10100FFB101002EA8010089
:103FB00036A801003BA8010041A8010044A8010067
:103FC000AA4902A810F0F1F8002800F09780A8494B
:103FD00020460FF081FF214606A810F058F9002274
:103FE000034606A90AA810F081F920460FF034FF15
:103FF0009F4920460FF070FF214606A810F047F9B0
:1040000006A9421C0EA810F091F920460FF024FFDB
:1040100098490AA810F0C9F8002840F04282954952
:104020000EA810F0C2F8002840F03B8290492046CC
:104030000FF052FF214606A810F029F90646204647
:104040000FF00AFF013600F02C82AE6A0AA9204662
:104050000FF0DFFF2146304601F018F820460FF040
:10406000FBFEAE6A0EA920460FF0D3FF2146304674
:1040700001F032F820460FF0EFFEA86A01F000FAD6
:104080006D6A0AA912A80FF0C4FF0EA920460FF00E
:10409000C0FF44F62063224612A9284605F02CF9F9
:1040A000054620460FF0D8FE12A80FF0D5FE6DB1E0
:1040B00071497248FDF736F80AA920460FF0A9FFAA
:1040C00021466E480FF084FD6D490CE06D496B4848
:1040D000FDF728F80AA920460FF09BFF2146674804
:1040E0000FF076FD68496548FDF71CF820460FF093
:1040F000B3FE0EA80FF0B0FE0AA847E6634902A877
:1041000010F053F828B10020FDF7EEFCFDF748FC55
:104110003EE65F4902A810F048F828B10120FDF7FB
:10412000E3FCFDF7C7FC33E65A4902A810F03DF85E
:1041300038B1FDF7F9F901465048FCF7F7FF564949
:10414000ADE6564902A810F030F838B154494B4852
:10415000FCF7E8FF2046FEF78BFC0EE6514902A86B
:1041600010F023F8064688B3424906A810F01DF85F
:1041700018B14D4906A80FF05FFF4C4912A80BF08B
:1041800013F906A810F0A8F94FF4B053584314904F
:10419000002541F234764FF40072214612A8FFF751
:1041A00057FDFDF725F805F11B0318440023E25CD9
:1041B00000F8012F0133B3F5007FF8D105F507753D
:1041C000B542E8D10B20FDF741F8E1E5384902A8F6
:1041D0000FF0EBFF074600287AD006A810F07CF914
:1041E0003449024625480FF02CFD06A810F074F95A
:1041F000FEF71CFB3046FEF737FB2F4904461F48ED
:10420000FCF790FFFDF71CF801461C48FCF78EFFF9
:104210002A491A48FCF786FF33460222E1B21748C2
:104220000FF01CFD26491548FCF77CFF06A810F08E
:1042300053F9014611480FF04CFD22490F48FCF795
:1042400071FFFDF721FE01460C480FF042FD1E49AB
:104250000A48FCF767FFFCF7EDFF334601460A22E8
:1042600006480FF0FBFC194919E600BF48A80100F9
:1042700025A60100AFB8010050A801004497FF1F18
:10428000F3B101005FA8010076A8010081A8010038
:1042900086A801008BA80100F6C9010090A80100C2
:1042A00095A80100A0A8010068CC0100A6A8010003
:1042B000B3A80100B8A80100CAA80100DAA801004B
:1042C000EAA80100FCA801000BA9010017A9010040
:1042D000884902A80FF069FF002842D03B4680229F
:1042E000214606A80FF0ACFF83498448FCF71AFF6B
:1042F0002146286AFFF772F97F498048FCF712FFD0
:104300002B6A5B68EBB17E497C48FCF70BFF286A9F
:104310004168FFF79DF97B497848FCF703FF286A5D
:104320004168FFF781F92B6A9B6843B1764973486E
:10433000FCF7F8FE286A8168FFF7ACFA0DE07349D4
:1043400000E073496D48FCF7EDFE21466B48FCF731
:10435000E9FE70496948FCF7E5FE286AFFF76DF948
:1043600016E56D4902A80FF020FF06466B4902A82A
:1043700036B10FF061FE6A4906A80FF05DFE07E551
:104380000FF013FF002857D066495C4832460FF003
:1043900058FC06A810F086F8634906A80FF005FF40
:1043A000002840F083805E4906A80FF0FEFE054617
:1043B00000287BD1FEF73AFA2846FEF755FA5B490A
:1043C00004464E48FCF7AEFEFCF73AFF01464B4868
:1043D000FCF7ACFE56494948FCF7A4FE2B460222E6
:1043E000E1B246480FF03AFC52494448FCF79AFEC5
:1043F00006A810F071F8014640480FF06AFC4E49DB
:104400003E48FCF78FFEFDF73FFD01463B480FF0AD
:1044100060FC4A493948FCF785FEFCF70BFF2B4648
:1044200001460A2235480FF019FC45493348FCF78C
:1044300079FEFCF711FFABE4424902A80FF0B5FE8C
:1044400018B1FDF7BBFD404929E5404902A80FF02E
:10445000ACFE88B16D6A06A920460FF0DAFD214650
:10446000284604F01DFF20460FF0F6FC384923488B
:10447000FCF758FE06A90BE0364902A80FF095FE9E
:1044800000287FF485AC34491C48FCF74BFE02A998
:1044900020460FF0BEFD214618480FF099FB1D493C
:1044A00070E42E491548FCF73DFE22E62C4912A87F
:1044B00000250AF079FF41F2347614954FF400722A
:1044C000214612A8FFF7C4FBFCF792FE05F11B037F
:1044D00018440023E25C00F8012F0133B3F5007F9C
:1044E000F8D105F50775B542E8D10B20FCF7AEFE13
:1044F0009FE700BF24A9010029A901004497FF1FDD
:1045000033A901003CA9010045A901004EA9010001
:104510006DA90100F3B101008CA9010092A901006D
:104520005FBC010097A90100AAA90100CAA8010067
:10453000DAA80100EAA80100FCA801000BA901000B
:1045400017A90100B0A90100E8BE0100B6A9010049
:10455000C0A90100AFB80100CDA9010006B2010059
:10456000A6A8010008B502490248FCF7DBFD08BD1A
:104570002EB201004497FF1F30B5044685B00EF0FF
:10458000B5FE00284AD00EF06FFEC5B2082D14D13A
:10459000A368002B42D0013B0022214668460FF061
:1045A000A5FE694620460FF03FFD68460FF054FC1B
:1045B0001B491C48FCF7B6FD30E00D2D01D00A2D3B
:1045C00024D119491748FCF7ADFD0A220D21684690
:1045D0000FF0B5FC694620460FF0DAFD0546684647
:1045E0000FF03AFC6DB9214668460FF012FD69469E
:1045F0002046FFF75FFB68460FF02EFC2046FFF7D2
:10460000B1FF0A4920460FF017FDB8E729462046BA
:104610000FF06CFD28460EF0FFFEB0E705B030BD90
:1046200032B201004497FF1FF6C90100AFB8010084
:10463000C3688268033323F003031944914298BF8F
:104640004268C3609ABFC160D0180020704702461C
:10465000084619B10B6811461B6818477047FFFFE1
:1046600038B5084D2B6813F0010409D128460DF028
:1046700089FB28B1044B28461C605C600DF087FB69
:10468000014838BD44DAFF1F48DAFF1F38B5084D2E
:104690002B6813F0010409D128460DF073FB28B1F3
:1046A000044B28461C605C600DF071FB014838BD6E
:1046B00038DAFF1F3CDAFF1F10B501460446082018
:1046C000FFF7C5FF18B100230460436010BDFFF77A
:1046D000DDFF10BD00F1100242604FF400728260F5
:1046E0000022C260014A0260704700BF44B201006C
:1046F00008B50A46034600B119B99B1A58425841F9
:1047000008BD11F0C4FFB0FA80F0400908BD38B50B
:1047100044680D4634B161682846FFF7E9FF08B9DF
:104720002468F7E7204638BD10B50168044610201C
:10473000FFF78DFF10B100230360037263682BB194
:104740001A680AB11346FBE7186010BD606010BD1F
:1047500070B5064614460D4609B9002070BDFFF736
:10476000D6FF28B93046FFF7DFFF0028F5D04560B7
:1047700002230372C460012070BD70B50646144662
:104780000D4609B9002070BDFFF7C1FF28B93046BA
:10479000FFF7CAFF0028F5D045602368002BAEBFA5
:1047A00004225B4205220272C360012070BDFFFF3C
:1047B000F8B5054616460F4609B90020F8BDFFF7C3
:1047C000A6FF044630B92846FFF7AEFF044600288E
:1047D000F3D047602868B568036801351B6829462F
:1047E000984707460028E8D03168064B2A4600293A
:1047F00008BF19460DF084F902232372E7600120F7
:10480000F8BD00BFF2E0010003681A780D2A09D054
:1048100003D8093A012A26D804E0202A02D02F2AF8
:1048200002D0704701331CE05A782A2A02D02F2A7E
:1048300010D070470133036003685A1C02605A7835
:104840008AB12A2AF8D19A782F2AF5D1033308E0C1
:104850000A2BD9D003685A1C02605B78002BF7D171
:1048600001E00360D0E7704738B504460D46FFF716
:10487000CBFF23681A78AA4203BF013301202360CB
:10488000002038BDF8B584680546E3686068C6183E
:10489000281DFFF7B9FF6A681378272B15D0222B44
:1048A00013D047F6ED70A3F15F021B2A2ED86A6879
:1048B000A76801326A60E268511CB9429EBF67680E
:1048C000E160BB546B681B78EDE701326A60696890
:1048D0000A7822B3481C9A42686020D05C2A0CD126
:1048E0004A78184807782FB1BA4201D1427801E0DE
:1048F0000230F7E79AB102316960E168A768481CA5
:10490000B842E4D86768E0607A54E0E7A3F1410276
:10491000192ACCD9A3F12B02D2B20E2A0BD9E36803
:10492000A1685A1C8A424FF0000009D86168E26011
:10493000C8543046F8BD20FA02F2D207EFD5B6E7E8
:10494000F8BD00BF4CB2010038B5FFF7E0FE0446E9
:1049500068B1057A012D05D1C16819B1054811F07A
:1049600096FE30B1013D012D02D8E06838BD38BD5A
:10497000002038BD66C80100036810B504461868F9
:104980000FF0B4FB63680133636010BD70B5056858
:104990000446286886680FF09BFB2B689A6863685A
:1049A00013449B1B636070BD70B505460C4619B976
:1049B0001149FFF7EBFF70BD2221FFF7DDFF013C3E
:1049C00014F8011F71B10D4B13F8026C7EB1023364
:1049D00013F8032C8A42F7D15C212846FFF7CCFF5D
:1049E000314604E022212846FFF7C6FF70BD284665
:1049F000FFF7C2FFE4E700BF66C801004AB201004A
:104A000010B586B00B4606A9002201F8032D0A2432
:104A1000B3FBF4F204FB1233303301F8013D1346CB
:104A2000002AF5D1FFF7B2FF06B010BD2DE9F34122
:104A3000037B0746002B47D00468013B03732146E4
:104A40000820FFF704FE002841D0002304604360E3
:104A50003E1D04465B213046FFF706FFA0B35D21F3
:104A60003046FFF701FF50BB0546E8464146384651
:104A70008DF8005000F031F830B321680C20FFF7BA
:104A8000E6FD08B10560057163682BB11A680AB1CB
:104A90001346FBE7186000E06060A8B1031D98E8CA
:104AA000030083E803005D213046FFF7DDFE30B9E7
:104AB0002C213046FFF7D8FE0028D7D104E03B7BFD
:104AC00001333B73204605E0FFF7CAFD02E0FFF724
:104AD000C7FDBDE702B0BDE8F08170B50646043001
:104AE0000D46FFF791FE73681C785B2C02D07B2C7F
:104AF00009D013E03046FFF799FF03680BB9002493
:104B000020E0062306E0304600F01EF80368002B84
:104B1000F5D007232B706860012413E0272C04D004
:104B2000A4F122035C425C4100E001243046FFF71F
:104B3000A9FE0028E3D014B102232B7001E0012468
:104B40002C706860204670BD2DE9F743037B054655
:104B5000002B46D0013B0646037356F8040BFFF7C3
:104B6000ABFD7B2104463046FFF77EFEC8B37D21B6
:104B70003046FFF779FE78BB0746E8462846FFF740
:104B800081FE814668B33A213046FFF76DFE40B39F
:104B9000414628468DF80070FFF79FFF08B349464D
:104BA0002046FFF7B4FD28B92046FFF7BDFDC0B190
:104BB000C0F8049000F1080398E8030083E80300BC
:104BC0007D213046FFF750FE30B92C213046FFF7EB
:104BD0004BFE0028D2D104E02B7B01332B732046FF
:104BE00001E0FFF753FD03B0BDE8F0831FB50B688C
:104BF00007490290002B08BF0B468DE80900684664
:104C00008DF80C20FFF7A0FF05B05DF804FB00BF96
:104C1000F2E001002DE9F04706230D4606468372B7
:104C20005049284610F080FE00B30027DFF83C9181
:104C3000DFF83CA13C464FF0200807EB090329466A
:104C4000586910F067FE40B107EB0A03284659691E
:104C500010F0B8FC4444054624B2043F17F1180F85
:104C60004FEA6808E9D14FF0FF3703E04FF0200822
:104C7000052704460021284610F060FEF0B13A49AD
:104C8000284610F047FEC8B1DFF8E890DFF8DCA056
:104C90007B1C13D0294659F8270010F04FFE40B175
:104CA00028465AF8271010F08DFCC8EB040405467E
:104CB00024B2013F4FEA68087FB2E9E73481284611
:104CC00010F082FEDFF8B0803060074603460A210C
:104CD000092B07D9B8FBF1F8B3FBF1F3B27A013A2B
:104CE000B272F5E7384610F015FC0146284610F080
:104CF0005FFB0546404610F00DFC0146284610F0CB
:104D000061FC814610F060FE054610F003FC014690
:104D1000484610F04DFB014610F04CFB10F054FEDD
:104D20002844804501D970600AE000230137736090
:104D300037602CB1092F81BF0134012334813360E6
:104D40000A217368B3FBF1F201FB12333BB996F908
:104D50000A30002B03DD013B7260B372F1E730468D
:104D6000BDE8F0878096184BACC527375494FF1FD9
:104D70003C94FF1F2494FF1F40420F00F0B50546EE
:104D80008BB008460C4610F0B1FD08B9404919E057
:104D90000021204610F0B4FD28B12D212846FFF750
:104DA000EBFD04F100440021204610F09FFD68B99E
:104DB0002146204610F0FEFA0146204610F096FDEE
:104DC00020B134492846FFF7E1FD5EE0214601A805
:104DD000FFF720FF01992846FFF712FE9DF90E20EC
:104DE000E2B10AA8002100F8091D029B1446014601
:104DF0000A27013C64B2661C08D0B3FBF7F607FB38
:104E00001633303300F8013D3346F2E7D2B2891A47
:104E10002E2301F8013D2846FFF7B8FDBDF90C30FF
:104E2000002B18DA1C492846FFF7B0FD0AA9BDF986
:104E30000C30002201F8032D5B420A2093FBF0F2B4
:104E400000FB1233303301F8013D1346002AF5D13F
:104E50002846FFF79BFDBDF90C30002B15DD6521C1
:104E60002846FFF789FD0AA90022BDF90C3001F898
:104E7000032D0A2093FBF0F200FB1233303301F8CC
:104E8000013D13B2002BF5D19CE70BB0F0BD00BF84
:104E900057B201005EB201005BB2010038B5037881
:104EA000013B05460C46072B3FD8DFE803F02924D9
:104EB000342F2B09200441682046FFF75FFF38BDDF
:104EC00045685B212046FFF757FD6D6855B1281DE9
:104ED0002146FFF7E3FF2D6825B12C212046FFF77F
:104EE0004BFDF3E75D212046FFF746FD38BD4068E6
:104EF00000F020F838BD41682046FFF755FD38BD69
:104F000041680FE02D212046FFF736FD69682046F5
:104F1000FFF776FD38BD4168044B054A002914BFF0
:104F2000114619462046FFF731FD38BD33A5010073
:104F30002EA5010070B505460C4620467B21FFF7E3
:104F40001BFD6D68A5B12E46204656F8041FFFF7DD
:104F50002BFD3A212046FFF70FFD2146301DFFF7BC
:104F60009DFF2D6825B12C212046FFF705FDE9E7BF
:104F70007D212046FFF700FD70BD1FB504AB43F84F
:104F80000C1D02A9029300230393FFF7D3FF03989C
:104F900005B05DF804FBFFFF30B5ADF5077D0446B5
:104FA00002A80191FFF796FB21460A2202A8FFF70B
:104FB0001DFE01AA08490546FFF7DFFB0749204609
:104FC0000FF03AF821462846FFF7D7FF019B63749C
:104FD0000DF5077D30BD00BF67B20100AFB801001D
:104FE00070B5ADF5047D044668460D46FFF772FBCB
:104FF00021460A226846FFF7F9FD0A4B0A4A0B4987
:10500000002D08BF1A460646FFF7A2FB08492046B6
:105010000FF012F821463046FFF7AFFF25740DF56B
:10502000047D70BD77B2010072B201007DB2010053
:10503000AFB80100F0B5ADF5057D044668460D46F4
:10504000FFF748FB21460A226846FFF7CFFD0D4FC8
:1050500039460646FFF75BFB20B93046FFF764FB95
:1050600018B1476008230372C560074920460EF057
:10507000E3FF21463046FFF780FF65610DF5057DB2
:10508000F0BD00BF53C90100AFB8010070B5ADF568
:10509000047D044668460D46FFF71CFB21460A22A4
:1050A0006846FFF7A3FD2A4609490646FFF780FB3D
:1050B000084920460EF0C0FF21463046FFF75DFF4D
:1050C000294604F118000EF09DFF0DF5047D70BD1A
:1050D00036A80100AFB8010070B5ADF5047D0446F7
:1050E00068460D46FFF7F6FA21460A226846FFF7A2
:1050F0007DFD2A4609490646FFF75AFB0849204626
:105100000EF09AFF21463046FFF737FF294604F19B
:1051100028000EF077FF0DF5047D70BD84B201000C
:10512000AFB80100F8B5002800F0988003782B2B69
:1051300004D02D2B03D10130012501E001300025E1
:105140000378742B00F0858003F0DF034E2B00F012
:105150008380492B51D00024434F01464FF00A0E63
:1051600020460A4611F8013BA3F130065FFA86FC9F
:10517000BCF1090F06D8B842CABF01340EFB00606B
:1051800064B2EEE72E2B12D1374F511C0A260A4685
:1051900011F8013B303B5FFA83FEBEF1090F06D8E0
:1051A000B842F4DC013C06FB003064B2EFE7137850
:1051B00003F0DF03452B26D153782D2B02D1023289
:1051C000012104E02B2B14BF013202320021013AED
:1051D00000230A2712F8016F303E5FFA86FEBEF107
:1051E000090F0DD807FB0363E618262EF2DD21B167
:1051F000002D33D04FF00040F8BD8DB31B48F8BDF3
:1052000011B15B4200E000231C4410F087F9002C30
:105210000DDD174F0026E20704D5F3B257F823102F
:1052200010F0D0F9641006F10106F4D10DE0114F31
:10523000644200264CB1E30704D5F3B257F82310BB
:1052400010F0C0F964100136F4E75DB100F10040E0
:10525000F8BD4FF07E50F8BD0748F8BD0020F8BDFE
:105260004FF0FF40F8BD00BFCBCC0C00000080FF2A
:105270005494FF1F3C94FF1F0000C07F30B5ADF574
:10528000057D04466846FFF725FA0A22214668464E
:10529000FFF7ACFC3B490546FFF756FB01463A4891
:1052A000FFF726FA394920742846FFF730FA00281C
:1052B00033D0037A052B28D8DFE803F02C07070347
:1052C0000305007B29E0C0681DE0C06828B30378AF
:1052D000742B21D02B2B04D02D2B03D10130012294
:1052E00001E001300022411E002011F8013F303B57
:1052F000DBB2092B06D800EB800003EB400000F086
:10530000FF00F2E74AB1404202E0C06810F05CFBE7
:10531000C0B202E0002000E0012060741C49284671
:10532000FFF7F5F9B8B1037A052B12D8DFE803F0DF
:10533000130D0D030307C06810F0ECF80CE0C06813
:1053400010F0E8F800F1004006E0C068FFF7EAFE60
:1053500002E0C06800E0002060610E492846FFF7C7
:10536000F3FA014604F118000EF066FE0A492846D9
:10537000FFF7EAFA014604F128000EF05DFE0DF594
:10538000057D30BD7DB2010072B2010067B201003F
:1053900053C9010036A8010084B201002DE9F0478D
:1053A000CCB080462549684609F0FEFF009C0CB948
:1053B00020463FE02249029D40460EF03DFE019FFF
:1053C0003E469EB3FF2EB1464FF4807228BF4FF089
:1053D000FF0900210CA80CF067FC05EB09039F42B4
:1053E00004D2AF4209D9C5EB070A00E0CA466019EA
:1053F00052460CA909F0F0FB5544414608A80EF0AE
:1054000008FE0CA904A80EF067FD04A908A80EF078
:105410008DFE014640460EF0F5FD04A80EF01CFD81
:1054200008A80EF019FDC9EB0606CAE74046FFF7CB
:1054300025FF01204CB0BDE8F08700BF8DB2010010
:10544000AFB8010070B504460E4600210EF044FDD1
:1054500000250A4B257429466574636104F1180020
:105460000EF03AFD294604F128000EF035FD16B184
:105470002046FFF793FF204670BD00BFCDCC4C3FC8
:105480002DE9F041064684B01C4800AF0AF046F80A
:10549000B468E31D23F00703ADEB030D22460021A2
:1054A00068460CF001FC0023621C694630460EF091
:1054B000C7FE0022214611480AF03CF8E84605469E
:1054C000B8B138460D4909F06FFF386808B905468C
:1054D0000FE0BB687A68E118914202D9934205D285
:1054E000D41A22464146184409F07CFC3046FFF7A6
:1054F000C5FE28461037BD46BDE8F0818DB20100DB
:10550000037C03F00803024603F0FF002BB1D36ACB
:10551000506A181A48BF6FF00040704707B5012263
:105520000DF1070110300AF028FB01280CBF9DF88F
:1055300007004FF0FF3003B05DF804FB08300AF0BD
:1055400077BE10300AF074BE07B502AB012203F833
:10555000011D083019460AF06BFE03B05DF804FB2C
:1055600010300AF0BDBB10300AF0E0BC08300AF081
:10557000DDBC07B502AB012203F8011D103019464E
:105580000AF056FE03B05DF804FB00230A220EF079
:1055900065BBFFFF38B500F58C65044613460A4627
:1055A00000F26C4128460BF0CBFDF0B1256004F20F
:1055B0003C4528460AF000FD012120460BF054FC32
:1055C000014668B1214628460AF0BFFA68B194F84E
:1055D0003C3413F0700316BF054B18461D6038BDF0
:1055E00020460BF041FC0028ECD1002038BD00BF64
:1055F00098DAFF1F70B5037200259DF81030858181
:105600000326C5810582458285828575C575067626
:1056100080F8235080F8585480F85954642680F854
:1056200086544372054D9DF8143080F87C64C0F8B0
:10563000885441600260837270BD00BF0110013860
:1056400084B0F0B5ADF5537DD9AD85E80E002846A0
:105650004FF4807292A9E09E0AF0DCFE0DA9284664
:105660000BF0DCFA0DA811F03BF992A93748FBF7D3
:1056700059FD37493548FBF755FD0DA93348FBF770
:1056800051FD34493148FBF74DFD33492F48FBF7B5
:1056900049FDE0992D48FFF778FF30492B48FBF78B
:1056A00041FDE3992948FFF770FF2D492748FBF793
:1056B00039FD0024D6B1B6F5807F374628BF4FF4B8
:1056C00080773A4612A928460AF057FA3A4652A974
:1056D000E2A8FEF7BDFA4FF4807252A912A810F0AA
:1056E000EFFD08B10134A4B2F61BE3E724B91D496C
:1056F00009A80EF0F1FB11E01B4905A80EF0ECFB28
:105700000A22214601A80EF01AFC01A905A80EF0F4
:105710000DFD014609A80EF07CFC012409A90B48E7
:105720000EF056FA11490948FBF7FCFC09A80EF0E7
:1057300093FB2CB101A80EF08FFB05A80EF08CFB9B
:105740000DF5537DBDE8F04004B070474497FF1F4E
:10575000D4B20100CAB80100D7B20100DEB2010024
:10576000ADB80100E8B20100EBB20100F6C90100DA
:10577000F0B52F499DB006462E48FBF7D3FC2E49C5
:105780002C48FBF7CFFC2D492A48FBF7CBFC2C49D2
:105790002848FBF7C7FC2B492648FBF7C3FC2A49DE
:1057A0002448FBF7BFFC4FF03842317A06F11C0069
:1057B000FFF7F0FE08B9254904E0707A09F032FDE0
:1057C00040B923491B48FBF7ADFC01213068FEF7C7
:1057D00039FA2BE04FF47A72119213AF1D4A0F92EF
:1057E00000231D4A8DF84C300BAC06F58B61384612
:1057F0008DF84D308DF840308DF848300AF0E3FBDD
:105800002046164909F0D0FD94E80F0006AD85E862
:105810000F0016AD0FCD6C460FC495E8030084E869
:105820000300304697E80E00FFF70AFF1DB0F0BDF9
:10583000ADA001004497FF1FC0A00100F4B2010019
:1058400051A1010041B301008EB30100A4B30100D6
:10585000CEB30100A0B20100FAB30100A6A8010076
:1058600008B5807A0CF038FBB0FA80F0400908BD2A
:105870002DE9F04FADF51D7D0646884603A80021B1
:1058800017460EF029FB4FF47A7900248B4D8DF8E2
:105890004C40224608F1100113A88DF84D408DF8B8
:1058A0004040CDF844908DF848400F950AF0FFFA3B
:1058B0009DF84C30AA46002B00F0F880B38A0133E3
:1058C000B382A74205D07E497E48FBF72BFC01340A
:1058D000F7E74FF480721CA913A80AF09BFD1CA9DE
:1058E0007848FBF71FFC9DF84C3013F070041ED075
:1058F0007549744813ACFBF715FC0FCC60AD0FC5B0
:105900000FCC0FC523682B609DF840308DF87431A3
:105910007A1C119B5E93D2B29DF848308DF87C3191
:105920005CA93046CDF870A1FFF7A2FF09E06749F6
:105930006448FBF7F7FB23460A221A9961480EF0E8
:105940008DF9347E04F0FD04012C40F0A7809DF811
:105950004C30002B00F097800CF04EFB1A9D8346D4
:105960006DB1B5F5807FAA4628BF4FF4807A5246C4
:105970005CA913A80AF001F9CAEB0505F0E70CF0E1
:105980003BFB0446CBEB040451494E48FBF7CAFBF2
:1059900021464C48FFF7F9FD4E494A48FBF7C2FB48
:1059A00020460FF0B7FD04461A980FF0B3FD4A49A0
:1059B0000FF008FE21460FF0B9FE0FF0A9F94FF0E5
:1059C000020A0B460246CDF800A03E480EF08CF9C4
:1059D00042493C48FBF7A6FB5CA903A80EF02CFB50
:1059E00003A907A80EF015FB3D4907A80EF0A6FB7A
:1059F00083461A980FF08EFD37490FF0E3FD2146DC
:105A00000FF094FE0BAC5246014620460EF01DFBF3
:105A1000214658460EF08AFB30490EF08FFB0146B6
:105A200003A80EF0EFFA20460EF016FA07A80EF0C3
:105A300013FAD6F804B02B494FF0010A20460EF0B5
:105A40004BFA4FF478435A22294658468DE8100401
:105A500003F093FD20460EF0FFF9D6F804B003A939
:105A600020460EF0D6FA4FF4FC63642229465846CD
:105A70008DE8100403F081FD20460EF0EDF913A827
:105A80000AF09AFA0AE018490E48FBF74BFB214648
:105A90003068FEF7D7F8F3890133F38113490948D9
:105AA000FBF740FB13A80AF087FAEEE603A80EF016
:105AB000D3F90DF51D7DBDE8F08F00BFA0B2010048
:105AC000AEB801004497FF1F04B40100ADB8010057
:105AD00008B4010013B4010000007A4421B40100AD
